{
	"data": {
		"bytecode": {
			"linkReferences": {},
			"object": "608060405234801561001057600080fd5b50612482806100206000396000f3fe60806040523480156200001157600080fd5b5060043610620001545760003560e01c806372d1c9fe11620000c9578063983b2d561162000087578063983b2d5614620002a05780639dc29fac14620002b7578063a457c2d714620002ce578063a9059cbb14620002e5578063dd62ed3e14620002fc578063f2fde38b14620003135762000154565b806372d1c9fe14620002545780638da5cb5b146200026b5780638f15b414146200027557806395d89b41146200028c578063964bca5f14620002965762000154565b8063313ce5671162000117578063313ce56714620001f757806339509351146200021057806364210fa9146200022757806370a082311462000231578063715018a614620002485762000154565b806306fdde031462000159578063095ea7b3146200017b57806318160ddd14620001a157806323b872dd14620001ba5780632a29ad1414620001d1575b600080fd5b620001636200032a565b60405162000172919062001639565b60405180910390f35b620001926200018c36600462001522565b620003c4565b6040516200017291906200162e565b620001ab620003e5565b60405162000172919062001959565b62000192620001cb366004620014a4565b620003eb565b620001e8620001e2366004620015db565b6200047d565b604051620001729190620015f4565b62000201620004a8565b60405162000172919062001962565b620001926200022136600462001522565b620004b1565b620001e862000506565b620001ab6200024236600462001450565b62000515565b6200025262000534565b005b6200025262000265366004620014e4565b620005c1565b620001e862000626565b62000252620002863660046200154e565b62000635565b6200016362000838565b620001e862000849565b62000252620002b136600462001450565b62000858565b62000252620002c836600462001522565b620008e4565b62000192620002df36600462001522565b62000995565b62000192620002f636600462001522565b62000a05565b620001ab6200030d3660046200146d565b62000a1d565b620002526200032436600462001450565b62000a48565b6060609a80546200033b90620019a5565b80601f01602080910402602001604051908101604052809291908181526020018280546200036990620019a5565b8015620003ba5780601f106200038e57610100808354040283529160200191620003ba565b820191906000526020600020905b8154815290600101906020018083116200039c57829003601f168201915b5050505050905090565b6000620003dc620003d462000b07565b848462000b0b565b50600192915050565b60995490565b6000620003fa84848462000bc7565b62000473846200040962000b07565b6200046d8560405180606001604052806028815260200162002400602891396001600160a01b038a166000908152609860205260408120906200044b62000b07565b6001600160a01b03168152602081019190915260400160002054919062000ceb565b62000b0b565b5060019392505050565b60ca81815481106200048e57600080fd5b6000918252602090912001546001600160a01b0316905081565b609c5460ff1690565b6000620003dc620004c162000b07565b846200046d8560986000620004d562000b07565b6001600160a01b03908116825260208083019390935260409182016000908120918c16815292529020549062000d2a565b60cb546001600160a01b031681565b6001600160a01b0381166000908152609760205260409020545b919050565b6200053e62000b07565b6065546001600160a01b03908116911614620005775760405162461bcd60e51b81526004016200056e9062001791565b60405180910390fd5b6065546040516000916001600160a01b0316907f8be0079c531659141344cd1fd0a4f28419497f9722a3daafe3b4186f6b6457e0908390a3606580546001600160a01b0319169055565b620005cb62000b07565b6065546001600160a01b03908116911614620005fb5760405162461bcd60e51b81526004016200056e9062001791565b6001600160a01b03919091166000908152609d60205260409020805460ff1916911515919091179055565b6065546001600160a01b031690565b600054610100900460ff16806200065157506200065162000d65565b8062000660575060005460ff16155b6200067f5760405162461bcd60e51b81526004016200056e90620017c6565b600054610100900460ff16158015620006ab576000805460ff1961ff0019909116610100171660011790555b620006b562000d6b565b620006c1858562000e0b565b334262278d0063018b8200604051620006da90620012fb565b620006e9949392919062001608565b604051809103906000f08015801562000706573d6000803e3d6000fd5b5060cc60006101000a8154816001600160a01b0302191690836001600160a01b03160217905550334262278d0062c5c1006040516200074590620012fb565b62000754949392919062001608565b604051809103906000f08015801562000771573d6000803e3d6000fd5b5060cb80546001600160a01b0319166001600160a01b0392909216919091179055620007a9336a52b7d2dcc80cd2e400000062000eae565b620007c1836b024306c4097859c43c00000062000eae565b620007d8826a52b7d2dcc80cd2e400000062000eae565b60cc54620007fb906001600160a01b03166a295be96e6406697200000062000eae565b60cb546200081e906001600160a01b03166a295be96e6406697200000062000eae565b801562000831576000805461ff00191690555b5050505050565b6060609b80546200033b90620019a5565b60cc546001600160a01b031681565b6200086262000b07565b6065546001600160a01b03908116911614620008925760405162461bcd60e51b81526004016200056e9062001791565b60ca80546001810182556000919091527f42d72674974f694b5f5159593243114d38a5c39c89d6b62fee061ff523240ee10180546001600160a01b0319166001600160a01b0392909216919091179055565b6000805b60ca548110156200096357620008fd62000b07565b6001600160a01b031660ca82815481106200092857634e487b7160e01b600052603260045260246000fd5b6000918252602090912001546001600160a01b031614156200094e576001915062000963565b806200095a81620019e2565b915050620008e8565b5080620009845760405162461bcd60e51b81526004016200056e9062001814565b62000990838362000f79565b505050565b6000620003dc620009a562000b07565b846200046d85604051806060016040528060258152602001620024286025913960986000620009d362000b07565b6001600160a01b03908116825260208083019390935260409182016000908120918d1681529252902054919062000ceb565b6000620003dc62000a1562000b07565b848462000bc7565b6001600160a01b03918216600090815260986020908152604080832093909416825291909152205490565b62000a5262000b07565b6065546001600160a01b0390811691161462000a825760405162461bcd60e51b81526004016200056e9062001791565b6001600160a01b03811662000aab5760405162461bcd60e51b81526004016200056e90620016d2565b6065546040516001600160a01b038084169216907f8be0079c531659141344cd1fd0a4f28419497f9722a3daafe3b4186f6b6457e090600090a3606580546001600160a01b0319166001600160a01b0392909216919091179055565b3390565b6001600160a01b03831662000b345760405162461bcd60e51b81526004016200056e90620018de565b6001600160a01b03821662000b5d5760405162461bcd60e51b81526004016200056e9062001718565b6001600160a01b0380841660008181526098602090815260408083209487168084529490915290819020849055517f8c5be1e5ebec7d5bd14f71427d1e84f3dd0314c0f7b2291e5b200ac8c7c3b9259062000bba90859062001959565b60405180910390a3505050565b6001600160a01b03831662000bf05760405162461bcd60e51b81526004016200056e9062001899565b6001600160a01b03821662000c195760405162461bcd60e51b81526004016200056e906200168f565b62000c268383836200105b565b62000c6681604051806060016040528060268152602001620023da602691396001600160a01b038616600090815260976020526040902054919062000ceb565b6001600160a01b03808516600090815260976020526040808220939093559084168152205462000c97908262000d2a565b6001600160a01b0380841660008181526097602052604090819020939093559151908516907fddf252ad1be2c89b69c2b068fc378daa952ba7f163c4a11628f55a4df523b3ef9062000bba90859062001959565b6000818484111562000d125760405162461bcd60e51b81526004016200056e919062001639565b50600062000d2184866200198b565b95945050505050565b60008062000d39838562001970565b90508381101562000d5e5760405162461bcd60e51b81526004016200056e906200175a565b9392505050565b303b1590565b600054610100900460ff168062000d87575062000d8762000d65565b8062000d96575060005460ff16155b62000db55760405162461bcd60e51b81526004016200056e90620017c6565b600054610100900460ff1615801562000de1576000805460ff1961ff0019909116610100171660011790555b62000deb62001082565b62000df56200110c565b801562000e08576000805461ff00191690555b50565b600054610100900460ff168062000e27575062000e2762000d65565b8062000e36575060005460ff16155b62000e555760405162461bcd60e51b81526004016200056e90620017c6565b600054610100900460ff1615801562000e81576000805460ff1961ff0019909116610100171660011790555b62000e8b62001082565b62000e978383620011f1565b801562000990576000805461ff0019169055505050565b6001600160a01b03821662000ed75760405162461bcd60e51b81526004016200056e9062001922565b62000ee5600083836200105b565b60995462000ef4908262000d2a565b6099556001600160a01b03821660009081526097602052604090205462000f1c908262000d2a565b6001600160a01b0383166000818152609760205260408082209390935591519091907fddf252ad1be2c89b69c2b068fc378daa952ba7f163c4a11628f55a4df523b3ef9062000f6d90859062001959565b60405180910390a35050565b6001600160a01b03821662000fa25760405162461bcd60e51b81526004016200056e9062001858565b62000fb0826000836200105b565b62000ff081604051806060016040528060228152602001620023b8602291396001600160a01b038516600090815260976020526040902054919062000ceb565b6001600160a01b038316600090815260976020526040902055609954620010189082620012b7565b6099556040516000906001600160a01b038416907fddf252ad1be2c89b69c2b068fc378daa952ba7f163c4a11628f55a4df523b3ef9062000f6d90859062001959565b6001600160a01b0383166000908152609d602052604090205460ff16156200099057600080fd5b600054610100900460ff16806200109e57506200109e62000d65565b80620010ad575060005460ff16155b620010cc5760405162461bcd60e51b81526004016200056e90620017c6565b600054610100900460ff1615801562000df5576000805460ff1961ff001990911661010017166001179055801562000e08576000805461ff001916905550565b600054610100900460ff16806200112857506200112862000d65565b8062001137575060005460ff16155b620011565760405162461bcd60e51b81526004016200056e90620017c6565b600054610100900460ff1615801562001182576000805460ff1961ff0019909116610100171660011790555b60006200118e62000b07565b606580546001600160a01b0319166001600160a01b038316908117909155604051919250906000907f8be0079c531659141344cd1fd0a4f28419497f9722a3daafe3b4186f6b6457e0908290a350801562000e08576000805461ff001916905550565b600054610100900460ff16806200120d57506200120d62000d65565b806200121c575060005460ff16155b6200123b5760405162461bcd60e51b81526004016200056e90620017c6565b600054610100900460ff1615801562001267576000805460ff1961ff0019909116610100171660011790555b82516200127c90609a90602086019062001309565b5081516200129290609b90602085019062001309565b50609c805460ff19166012179055801562000990576000805461ff0019169055505050565b600062000d5e83836040518060400160405280601e81526020017f536166654d6174683a207375627472616374696f6e206f766572666c6f77000081525062000ceb565b61098b8062001a2d83390190565b8280546200131790620019a5565b90600052602060002090601f0160209004810192826200133b576000855562001386565b82601f106200135657805160ff191683800117855562001386565b8280016001018555821562001386579182015b828111156200138657825182559160200191906001019062001369565b506200139492915062001398565b5090565b5b8082111562001394576000815560010162001399565b80356001600160a01b03811681146200052f57600080fd5b600082601f830112620013d8578081fd5b813567ffffffffffffffff80821115620013f657620013f662001a16565b604051601f8301601f1916810160200182811182821017156200141d576200141d62001a16565b60405282815284830160200186101562001435578384fd5b82602086016020830137918201602001929092529392505050565b60006020828403121562001462578081fd5b62000d5e82620013af565b6000806040838503121562001480578081fd5b6200148b83620013af565b91506200149b60208401620013af565b90509250929050565b600080600060608486031215620014b9578081fd5b620014c484620013af565b9250620014d460208501620013af565b9150604084013590509250925092565b60008060408385031215620014f7578182fd5b6200150283620013af565b91506020830135801515811462001517578182fd5b809150509250929050565b6000806040838503121562001535578182fd5b6200154083620013af565b946020939093013593505050565b6000806000806080858703121562001564578081fd5b843567ffffffffffffffff808211156200157c578283fd5b6200158a88838901620013c7565b95506020870135915080821115620015a0578283fd5b50620015af87828801620013c7565b935050620015c060408601620013af565b9150620015d060608601620013af565b905092959194509250565b600060208284031215620015ed578081fd5b5035919050565b6001600160a01b0391909116815260200190565b6001600160a01b0394909416845260208401929092526040830152606082015260800190565b901515815260200190565b6000602080835283518082850152825b81811015620016675785810183015185820160400152820162001649565b81811115620016795783604083870101525b50601f01601f1916929092016040019392505050565b60208082526023908201527f45524332303a207472616e7366657220746f20746865207a65726f206164647260408201526265737360e81b606082015260800190565b60208082526026908201527f4f776e61626c653a206e6577206f776e657220697320746865207a65726f206160408201526564647265737360d01b606082015260800190565b60208082526022908201527f45524332303a20617070726f766520746f20746865207a65726f206164647265604082015261737360f01b606082015260800190565b6020808252601b908201527f536166654d6174683a206164646974696f6e206f766572666c6f770000000000604082015260600190565b6020808252818101527f4f776e61626c653a2063616c6c6572206973206e6f7420746865206f776e6572604082015260600190565b6020808252602e908201527f436f6e747261637420696e7374616e63652068617320616c726561647920626560408201526d195b881a5b9a5d1a585b1a5e995960921b606082015260800190565b60208082526024908201527f2149734d696e7465723a2063616c6c6572206973206e6f742066726f6d206d69604082015263373a32b960e11b606082015260800190565b60208082526021908201527f45524332303a206275726e2066726f6d20746865207a65726f206164647265736040820152607360f81b606082015260800190565b60208082526025908201527f45524332303a207472616e736665722066726f6d20746865207a65726f206164604082015264647265737360d81b606082015260800190565b60208082526024908201527f45524332303a20617070726f76652066726f6d20746865207a65726f206164646040820152637265737360e01b606082015260800190565b6020808252601f908201527f45524332303a206d696e7420746f20746865207a65726f206164647265737300604082015260600190565b90815260200190565b60ff91909116815260200190565b6000821982111562001986576200198662001a00565b500190565b600082821015620019a057620019a062001a00565b500390565b600281046001821680620019ba57607f821691505b60208210811415620019dc57634e487b7160e01b600052602260045260246000fd5b50919050565b6000600019821415620019f957620019f962001a00565b5060010190565b634e487b7160e01b600052601160045260246000fd5b634e487b7160e01b600052604160045260246000fdfe608060405234801561001057600080fd5b5060405161098b38038061098b83398101604081905261002f916100d1565b6001600160a01b03841661004257600080fd5b8082111561004f57600080fd5b600080546001600160a01b0319166001600160a01b03861617905560038190556100848383610092602090811b61033817901c565b600155505060025550610175565b60008061009f8385610151565b9050838110156100ca5760405162461bcd60e51b81526004016100c19061011a565b60405180910390fd5b9392505050565b600080600080608085870312156100e6578384fd5b84516001600160a01b03811681146100fc578485fd5b60208601516040870151606090970151919890975090945092505050565b6020808252601b908201527f536166654d6174683a206164646974696f6e206f766572666c6f770000000000604082015260600190565b6000821982111561017057634e487b7160e01b81526011600452602481fd5b500190565b610807806101846000396000f3fe608060405234801561001057600080fd5b50600436106100885760003560e01c8063384711cc1161005b578063384711cc146100db57806338af3eed146100ee5780639852595c14610103578063be9a65551461011657610088565b80630fb5a6b41461008d57806313d033c0146100ab5780631726cbc8146100b357806319165587146100c6575b600080fd5b61009561011e565b6040516100a29190610714565b60405180910390f35b610095610124565b6100956100c1366004610597565b61012a565b6100d96100d4366004610597565b61015e565b005b6100956100e9366004610597565b610201565b6100f6610311565b6040516100a29190610612565b610095610111366004610597565b610320565b610095610332565b60035481565b60015481565b6001600160a01b0381166000908152600460205260408120546101569061015084610201565b90610379565b90505b919050565b60006101698261012a565b90506000811161017857600080fd5b6001600160a01b03821660009081526004602052604090205461019b9082610338565b6001600160a01b0380841660008181526004602052604081209390935591546101c6929116836103bb565b7ffb81f9b30d73d830c3544b34d827c08142579ee75710b490bab0b3995468c565816040516101f59190610714565b60405180910390a15050565b600080826001600160a01b03166370a08231306040518263ffffffff1660e01b81526004016102309190610612565b60206040518083038186803b15801561024857600080fd5b505afa15801561025c573d6000803e3d6000fd5b505050506040513d601f19601f8201168201806040525081019061028091906105de565b6001600160a01b038416600090815260046020526040812054919250906102a8908390610338565b90506001544210156102bf57600092505050610159565b6003546002546102ce91610338565b42106102dd5791506101599050565b6103086003546103026102fb6002544261037990919063ffffffff16565b84906104a8565b906104ed565b92505050610159565b6000546001600160a01b031681565b60046020526000908152604090205481565b60025481565b600080610345838561071d565b9050838110156103705760405162461bcd60e51b815260040161036790610672565b60405180910390fd5b90505b92915050565b600061037083836040518060400160405280601e81526020017f536166654d6174683a207375627472616374696f6e206f766572666c6f77000081525061052f565b600080846001600160a01b031663a9059cbb85856040516024016103e0929190610626565b6040516020818303038152906040529060e01b6020820180516001600160e01b03838183161783525050505060405161041991906105f6565b6000604051808303816000865af19150503d8060008114610456576040519150601f19603f3d011682016040523d82523d6000602084013e61045b565b606091505b509150915081801561048557508051158061048557508080602001905181019061048591906105be565b6104a15760405162461bcd60e51b8152600401610367906106ea565b5050505050565b6000826104b757506000610373565b60006104c38385610755565b9050826104d08583610735565b146103705760405162461bcd60e51b8152600401610367906106a9565b600061037083836040518060400160405280601a81526020017f536166654d6174683a206469766973696f6e206279207a65726f000000000000815250610569565b600081848411156105535760405162461bcd60e51b8152600401610367919061063f565b5060006105608486610774565b95945050505050565b6000818361058a5760405162461bcd60e51b8152600401610367919061063f565b5060006105608486610735565b6000602082840312156105a8578081fd5b81356001600160a01b0381168114610370578182fd5b6000602082840312156105cf578081fd5b81518015158114610370578182fd5b6000602082840312156105ef578081fd5b5051919050565b6000825161060881846020870161078b565b9190910192915050565b6001600160a01b0391909116815260200190565b6001600160a01b03929092168252602082015260400190565b600060208252825180602084015261065e81604085016020870161078b565b601f01601f19169190910160400192915050565b6020808252601b908201527f536166654d6174683a206164646974696f6e206f766572666c6f770000000000604082015260600190565b60208082526021908201527f536166654d6174683a206d756c7469706c69636174696f6e206f766572666c6f6040820152607760f81b606082015260800190565b60208082526010908201526f085514905394d1915497d1905253115160821b604082015260600190565b90815260200190565b60008219821115610730576107306107bb565b500190565b60008261075057634e487b7160e01b81526012600452602481fd5b500490565b600081600019048311821515161561076f5761076f6107bb565b500290565b600082821015610786576107866107bb565b500390565b60005b838110156107a657818101518382015260200161078e565b838111156107b5576000848401525b50505050565b634e487b7160e01b600052601160045260246000fdfea26469706673582212203d72a5bcf0bafed2c64a8770028ca0ce8f23e49c1f6a9d79e1f9b0ec3436d8e764736f6c6343000800003345524332303a206275726e20616d6f756e7420657863656564732062616c616e636545524332303a207472616e7366657220616d6f756e7420657863656564732062616c616e636545524332303a207472616e7366657220616d6f756e74206578636565647320616c6c6f77616e636545524332303a2064656372656173656420616c6c6f77616e63652062656c6f77207a65726fa2646970667358221220613fd641469e06f5032358b3958cba28c952bae3e75da247cbbd18cc243a23d164736f6c63430008000033",
			"opcodes": "PUSH1 0x80 PUSH1 0x40 MSTORE CALLVALUE DUP1 ISZERO PUSH2 0x10 JUMPI PUSH1 0x0 DUP1 REVERT JUMPDEST POP PUSH2 0x2482 DUP1 PUSH2 0x20 PUSH1 0x0 CODECOPY PUSH1 0x0 RETURN INVALID PUSH1 0x80 PUSH1 0x40 MSTORE CALLVALUE DUP1 ISZERO PUSH3 0x11 JUMPI PUSH1 0x0 DUP1 REVERT JUMPDEST POP PUSH1 0x4 CALLDATASIZE LT PUSH3 0x154 JUMPI PUSH1 0x0 CALLDATALOAD PUSH1 0xE0 SHR DUP1 PUSH4 0x72D1C9FE GT PUSH3 0xC9 JUMPI DUP1 PUSH4 0x983B2D56 GT PUSH3 0x87 JUMPI DUP1 PUSH4 0x983B2D56 EQ PUSH3 0x2A0 JUMPI DUP1 PUSH4 0x9DC29FAC EQ PUSH3 0x2B7 JUMPI DUP1 PUSH4 0xA457C2D7 EQ PUSH3 0x2CE JUMPI DUP1 PUSH4 0xA9059CBB EQ PUSH3 0x2E5 JUMPI DUP1 PUSH4 0xDD62ED3E EQ PUSH3 0x2FC JUMPI DUP1 PUSH4 0xF2FDE38B EQ PUSH3 0x313 JUMPI PUSH3 0x154 JUMP JUMPDEST DUP1 PUSH4 0x72D1C9FE EQ PUSH3 0x254 JUMPI DUP1 PUSH4 0x8DA5CB5B EQ PUSH3 0x26B JUMPI DUP1 PUSH4 0x8F15B414 EQ PUSH3 0x275 JUMPI DUP1 PUSH4 0x95D89B41 EQ PUSH3 0x28C JUMPI DUP1 PUSH4 0x964BCA5F EQ PUSH3 0x296 JUMPI PUSH3 0x154 JUMP JUMPDEST DUP1 PUSH4 0x313CE567 GT PUSH3 0x117 JUMPI DUP1 PUSH4 0x313CE567 EQ PUSH3 0x1F7 JUMPI DUP1 PUSH4 0x39509351 EQ PUSH3 0x210 JUMPI DUP1 PUSH4 0x64210FA9 EQ PUSH3 0x227 JUMPI DUP1 PUSH4 0x70A08231 EQ PUSH3 0x231 JUMPI DUP1 PUSH4 0x715018A6 EQ PUSH3 0x248 JUMPI PUSH3 0x154 JUMP JUMPDEST DUP1 PUSH4 0x6FDDE03 EQ PUSH3 0x159 JUMPI DUP1 PUSH4 0x95EA7B3 EQ PUSH3 0x17B JUMPI DUP1 PUSH4 0x18160DDD EQ PUSH3 0x1A1 JUMPI DUP1 PUSH4 0x23B872DD EQ PUSH3 0x1BA JUMPI DUP1 PUSH4 0x2A29AD14 EQ PUSH3 0x1D1 JUMPI JUMPDEST PUSH1 0x0 DUP1 REVERT JUMPDEST PUSH3 0x163 PUSH3 0x32A JUMP JUMPDEST PUSH1 0x40 MLOAD PUSH3 0x172 SWAP2 SWAP1 PUSH3 0x1639 JUMP JUMPDEST PUSH1 0x40 MLOAD DUP1 SWAP2 SUB SWAP1 RETURN JUMPDEST PUSH3 0x192 PUSH3 0x18C CALLDATASIZE PUSH1 0x4 PUSH3 0x1522 JUMP JUMPDEST PUSH3 0x3C4 JUMP JUMPDEST PUSH1 0x40 MLOAD PUSH3 0x172 SWAP2 SWAP1 PUSH3 0x162E JUMP JUMPDEST PUSH3 0x1AB PUSH3 0x3E5 JUMP JUMPDEST PUSH1 0x40 MLOAD PUSH3 0x172 SWAP2 SWAP1 PUSH3 0x1959 JUMP JUMPDEST PUSH3 0x192 PUSH3 0x1CB CALLDATASIZE PUSH1 0x4 PUSH3 0x14A4 JUMP JUMPDEST PUSH3 0x3EB JUMP JUMPDEST PUSH3 0x1E8 PUSH3 0x1E2 CALLDATASIZE PUSH1 0x4 PUSH3 0x15DB JUMP JUMPDEST PUSH3 0x47D JUMP JUMPDEST PUSH1 0x40 MLOAD PUSH3 0x172 SWAP2 SWAP1 PUSH3 0x15F4 JUMP JUMPDEST PUSH3 0x201 PUSH3 0x4A8 JUMP JUMPDEST PUSH1 0x40 MLOAD PUSH3 0x172 SWAP2 SWAP1 PUSH3 0x1962 JUMP JUMPDEST PUSH3 0x192 PUSH3 0x221 CALLDATASIZE PUSH1 0x4 PUSH3 0x1522 JUMP JUMPDEST PUSH3 0x4B1 JUMP JUMPDEST PUSH3 0x1E8 PUSH3 0x506 JUMP JUMPDEST PUSH3 0x1AB PUSH3 0x242 CALLDATASIZE PUSH1 0x4 PUSH3 0x1450 JUMP JUMPDEST PUSH3 0x515 JUMP JUMPDEST PUSH3 0x252 PUSH3 0x534 JUMP JUMPDEST STOP JUMPDEST PUSH3 0x252 PUSH3 0x265 CALLDATASIZE PUSH1 0x4 PUSH3 0x14E4 JUMP JUMPDEST PUSH3 0x5C1 JUMP JUMPDEST PUSH3 0x1E8 PUSH3 0x626 JUMP JUMPDEST PUSH3 0x252 PUSH3 0x286 CALLDATASIZE PUSH1 0x4 PUSH3 0x154E JUMP JUMPDEST PUSH3 0x635 JUMP JUMPDEST PUSH3 0x163 PUSH3 0x838 JUMP JUMPDEST PUSH3 0x1E8 PUSH3 0x849 JUMP JUMPDEST PUSH3 0x252 PUSH3 0x2B1 CALLDATASIZE PUSH1 0x4 PUSH3 0x1450 JUMP JUMPDEST PUSH3 0x858 JUMP JUMPDEST PUSH3 0x252 PUSH3 0x2C8 CALLDATASIZE PUSH1 0x4 PUSH3 0x1522 JUMP JUMPDEST PUSH3 0x8E4 JUMP JUMPDEST PUSH3 0x192 PUSH3 0x2DF CALLDATASIZE PUSH1 0x4 PUSH3 0x1522 JUMP JUMPDEST PUSH3 0x995 JUMP JUMPDEST PUSH3 0x192 PUSH3 0x2F6 CALLDATASIZE PUSH1 0x4 PUSH3 0x1522 JUMP JUMPDEST PUSH3 0xA05 JUMP JUMPDEST PUSH3 0x1AB PUSH3 0x30D CALLDATASIZE PUSH1 0x4 PUSH3 0x146D JUMP JUMPDEST PUSH3 0xA1D JUMP JUMPDEST PUSH3 0x252 PUSH3 0x324 CALLDATASIZE PUSH1 0x4 PUSH3 0x1450 JUMP JUMPDEST PUSH3 0xA48 JUMP JUMPDEST PUSH1 0x60 PUSH1 0x9A DUP1 SLOAD PUSH3 0x33B SWAP1 PUSH3 0x19A5 JUMP JUMPDEST DUP1 PUSH1 0x1F ADD PUSH1 0x20 DUP1 SWAP2 DIV MUL PUSH1 0x20 ADD PUSH1 0x40 MLOAD SWAP1 DUP2 ADD PUSH1 0x40 MSTORE DUP1 SWAP3 SWAP2 SWAP1 DUP2 DUP2 MSTORE PUSH1 0x20 ADD DUP3 DUP1 SLOAD PUSH3 0x369 SWAP1 PUSH3 0x19A5 JUMP JUMPDEST DUP1 ISZERO PUSH3 0x3BA JUMPI DUP1 PUSH1 0x1F LT PUSH3 0x38E JUMPI PUSH2 0x100 DUP1 DUP4 SLOAD DIV MUL DUP4 MSTORE SWAP2 PUSH1 0x20 ADD SWAP2 PUSH3 0x3BA JUMP JUMPDEST DUP3 ADD SWAP2 SWAP1 PUSH1 0x0 MSTORE PUSH1 0x20 PUSH1 0x0 KECCAK256 SWAP1 JUMPDEST DUP2 SLOAD DUP2 MSTORE SWAP1 PUSH1 0x1 ADD SWAP1 PUSH1 0x20 ADD DUP1 DUP4 GT PUSH3 0x39C JUMPI DUP3 SWAP1 SUB PUSH1 0x1F AND DUP3 ADD SWAP2 JUMPDEST POP POP POP POP POP SWAP1 POP SWAP1 JUMP JUMPDEST PUSH1 0x0 PUSH3 0x3DC PUSH3 0x3D4 PUSH3 0xB07 JUMP JUMPDEST DUP5 DUP5 PUSH3 0xB0B JUMP JUMPDEST POP PUSH1 0x1 SWAP3 SWAP2 POP POP JUMP JUMPDEST PUSH1 0x99 SLOAD SWAP1 JUMP JUMPDEST PUSH1 0x0 PUSH3 0x3FA DUP5 DUP5 DUP5 PUSH3 0xBC7 JUMP JUMPDEST PUSH3 0x473 DUP5 PUSH3 0x409 PUSH3 0xB07 JUMP JUMPDEST PUSH3 0x46D DUP6 PUSH1 0x40 MLOAD DUP1 PUSH1 0x60 ADD PUSH1 0x40 MSTORE DUP1 PUSH1 0x28 DUP2 MSTORE PUSH1 0x20 ADD PUSH3 0x2400 PUSH1 0x28 SWAP2 CODECOPY PUSH1 0x1 PUSH1 0x1 PUSH1 0xA0 SHL SUB DUP11 AND PUSH1 0x0 SWAP1 DUP2 MSTORE PUSH1 0x98 PUSH1 0x20 MSTORE PUSH1 0x40 DUP2 KECCAK256 SWAP1 PUSH3 0x44B PUSH3 0xB07 JUMP JUMPDEST PUSH1 0x1 PUSH1 0x1 PUSH1 0xA0 SHL SUB AND DUP2 MSTORE PUSH1 0x20 DUP2 ADD SWAP2 SWAP1 SWAP2 MSTORE PUSH1 0x40 ADD PUSH1 0x0 KECCAK256 SLOAD SWAP2 SWAP1 PUSH3 0xCEB JUMP JUMPDEST PUSH3 0xB0B JUMP JUMPDEST POP PUSH1 0x1 SWAP4 SWAP3 POP POP POP JUMP JUMPDEST PUSH1 0xCA DUP2 DUP2 SLOAD DUP2 LT PUSH3 0x48E JUMPI PUSH1 0x0 DUP1 REVERT JUMPDEST PUSH1 0x0 SWAP2 DUP3 MSTORE PUSH1 0x20 SWAP1 SWAP2 KECCAK256 ADD SLOAD PUSH1 0x1 PUSH1 0x1 PUSH1 0xA0 SHL SUB AND SWAP1 POP DUP2 JUMP JUMPDEST PUSH1 0x9C SLOAD PUSH1 0xFF AND SWAP1 JUMP JUMPDEST PUSH1 0x0 PUSH3 0x3DC PUSH3 0x4C1 PUSH3 0xB07 JUMP JUMPDEST DUP5 PUSH3 0x46D DUP6 PUSH1 0x98 PUSH1 0x0 PUSH3 0x4D5 PUSH3 0xB07 JUMP JUMPDEST PUSH1 0x1 PUSH1 0x1 PUSH1 0xA0 SHL SUB SWAP1 DUP2 AND DUP3 MSTORE PUSH1 0x20 DUP1 DUP4 ADD SWAP4 SWAP1 SWAP4 MSTORE PUSH1 0x40 SWAP2 DUP3 ADD PUSH1 0x0 SWAP1 DUP2 KECCAK256 SWAP2 DUP13 AND DUP2 MSTORE SWAP3 MSTORE SWAP1 KECCAK256 SLOAD SWAP1 PUSH3 0xD2A JUMP JUMPDEST PUSH1 0xCB SLOAD PUSH1 0x1 PUSH1 0x1 PUSH1 0xA0 SHL SUB AND DUP2 JUMP JUMPDEST PUSH1 0x1 PUSH1 0x1 PUSH1 0xA0 SHL SUB DUP2 AND PUSH1 0x0 SWAP1 DUP2 MSTORE PUSH1 0x97 PUSH1 0x20 MSTORE PUSH1 0x40 SWAP1 KECCAK256 SLOAD JUMPDEST SWAP2 SWAP1 POP JUMP JUMPDEST PUSH3 0x53E PUSH3 0xB07 JUMP JUMPDEST PUSH1 0x65 SLOAD PUSH1 0x1 PUSH1 0x1 PUSH1 0xA0 SHL SUB SWAP1 DUP2 AND SWAP2 AND EQ PUSH3 0x577 JUMPI PUSH1 0x40 MLOAD PUSH3 0x461BCD PUSH1 0xE5 SHL DUP2 MSTORE PUSH1 0x4 ADD PUSH3 0x56E SWAP1 PUSH3 0x1791 JUMP JUMPDEST PUSH1 0x40 MLOAD DUP1 SWAP2 SUB SWAP1 REVERT JUMPDEST PUSH1 0x65 SLOAD PUSH1 0x40 MLOAD PUSH1 0x0 SWAP2 PUSH1 0x1 PUSH1 0x1 PUSH1 0xA0 SHL SUB AND SWAP1 PUSH32 0x8BE0079C531659141344CD1FD0A4F28419497F9722A3DAAFE3B4186F6B6457E0 SWAP1 DUP4 SWAP1 LOG3 PUSH1 0x65 DUP1 SLOAD PUSH1 0x1 PUSH1 0x1 PUSH1 0xA0 SHL SUB NOT AND SWAP1 SSTORE JUMP JUMPDEST PUSH3 0x5CB PUSH3 0xB07 JUMP JUMPDEST PUSH1 0x65 SLOAD PUSH1 0x1 PUSH1 0x1 PUSH1 0xA0 SHL SUB SWAP1 DUP2 AND SWAP2 AND EQ PUSH3 0x5FB JUMPI PUSH1 0x40 MLOAD PUSH3 0x461BCD PUSH1 0xE5 SHL DUP2 MSTORE PUSH1 0x4 ADD PUSH3 0x56E SWAP1 PUSH3 0x1791 JUMP JUMPDEST PUSH1 0x1 PUSH1 0x1 PUSH1 0xA0 SHL SUB SWAP2 SWAP1 SWAP2 AND PUSH1 0x0 SWAP1 DUP2 MSTORE PUSH1 0x9D PUSH1 0x20 MSTORE PUSH1 0x40 SWAP1 KECCAK256 DUP1 SLOAD PUSH1 0xFF NOT AND SWAP2 ISZERO ISZERO SWAP2 SWAP1 SWAP2 OR SWAP1 SSTORE JUMP JUMPDEST PUSH1 0x65 SLOAD PUSH1 0x1 PUSH1 0x1 PUSH1 0xA0 SHL SUB AND SWAP1 JUMP JUMPDEST PUSH1 0x0 SLOAD PUSH2 0x100 SWAP1 DIV PUSH1 0xFF AND DUP1 PUSH3 0x651 JUMPI POP PUSH3 0x651 PUSH3 0xD65 JUMP JUMPDEST DUP1 PUSH3 0x660 JUMPI POP PUSH1 0x0 SLOAD PUSH1 0xFF AND ISZERO JUMPDEST PUSH3 0x67F JUMPI PUSH1 0x40 MLOAD PUSH3 0x461BCD PUSH1 0xE5 SHL DUP2 MSTORE PUSH1 0x4 ADD PUSH3 0x56E SWAP1 PUSH3 0x17C6 JUMP JUMPDEST PUSH1 0x0 SLOAD PUSH2 0x100 SWAP1 DIV PUSH1 0xFF AND ISZERO DUP1 ISZERO PUSH3 0x6AB JUMPI PUSH1 0x0 DUP1 SLOAD PUSH1 0xFF NOT PUSH2 0xFF00 NOT SWAP1 SWAP2 AND PUSH2 0x100 OR AND PUSH1 0x1 OR SWAP1 SSTORE JUMPDEST PUSH3 0x6B5 PUSH3 0xD6B JUMP JUMPDEST PUSH3 0x6C1 DUP6 DUP6 PUSH3 0xE0B JUMP JUMPDEST CALLER TIMESTAMP PUSH3 0x278D00 PUSH4 0x18B8200 PUSH1 0x40 MLOAD PUSH3 0x6DA SWAP1 PUSH3 0x12FB JUMP JUMPDEST PUSH3 0x6E9 SWAP5 SWAP4 SWAP3 SWAP2 SWAP1 PUSH3 0x1608 JUMP JUMPDEST PUSH1 0x40 MLOAD DUP1 SWAP2 SUB SWAP1 PUSH1 0x0 CREATE DUP1 ISZERO DUP1 ISZERO PUSH3 0x706 JUMPI RETURNDATASIZE PUSH1 0x0 DUP1 RETURNDATACOPY RETURNDATASIZE PUSH1 0x0 REVERT JUMPDEST POP PUSH1 0xCC PUSH1 0x0 PUSH2 0x100 EXP DUP2 SLOAD DUP2 PUSH1 0x1 PUSH1 0x1 PUSH1 0xA0 SHL SUB MUL NOT AND SWAP1 DUP4 PUSH1 0x1 PUSH1 0x1 PUSH1 0xA0 SHL SUB AND MUL OR SWAP1 SSTORE POP CALLER TIMESTAMP PUSH3 0x278D00 PUSH3 0xC5C100 PUSH1 0x40 MLOAD PUSH3 0x745 SWAP1 PUSH3 0x12FB JUMP JUMPDEST PUSH3 0x754 SWAP5 SWAP4 SWAP3 SWAP2 SWAP1 PUSH3 0x1608 JUMP JUMPDEST PUSH1 0x40 MLOAD DUP1 SWAP2 SUB SWAP1 PUSH1 0x0 CREATE DUP1 ISZERO DUP1 ISZERO PUSH3 0x771 JUMPI RETURNDATASIZE PUSH1 0x0 DUP1 RETURNDATACOPY RETURNDATASIZE PUSH1 0x0 REVERT JUMPDEST POP PUSH1 0xCB DUP1 SLOAD PUSH1 0x1 PUSH1 0x1 PUSH1 0xA0 SHL SUB NOT AND PUSH1 0x1 PUSH1 0x1 PUSH1 0xA0 SHL SUB SWAP3 SWAP1 SWAP3 AND SWAP2 SWAP1 SWAP2 OR SWAP1 SSTORE PUSH3 0x7A9 CALLER PUSH11 0x52B7D2DCC80CD2E4000000 PUSH3 0xEAE JUMP JUMPDEST PUSH3 0x7C1 DUP4 PUSH12 0x24306C4097859C43C000000 PUSH3 0xEAE JUMP JUMPDEST PUSH3 0x7D8 DUP3 PUSH11 0x52B7D2DCC80CD2E4000000 PUSH3 0xEAE JUMP JUMPDEST PUSH1 0xCC SLOAD PUSH3 0x7FB SWAP1 PUSH1 0x1 PUSH1 0x1 PUSH1 0xA0 SHL SUB AND PUSH11 0x295BE96E64066972000000 PUSH3 0xEAE JUMP JUMPDEST PUSH1 0xCB SLOAD PUSH3 0x81E SWAP1 PUSH1 0x1 PUSH1 0x1 PUSH1 0xA0 SHL SUB AND PUSH11 0x295BE96E64066972000000 PUSH3 0xEAE JUMP JUMPDEST DUP1 ISZERO PUSH3 0x831 JUMPI PUSH1 0x0 DUP1 SLOAD PUSH2 0xFF00 NOT AND SWAP1 SSTORE JUMPDEST POP POP POP POP POP JUMP JUMPDEST PUSH1 0x60 PUSH1 0x9B DUP1 SLOAD PUSH3 0x33B SWAP1 PUSH3 0x19A5 JUMP JUMPDEST PUSH1 0xCC SLOAD PUSH1 0x1 PUSH1 0x1 PUSH1 0xA0 SHL SUB AND DUP2 JUMP JUMPDEST PUSH3 0x862 PUSH3 0xB07 JUMP JUMPDEST PUSH1 0x65 SLOAD PUSH1 0x1 PUSH1 0x1 PUSH1 0xA0 SHL SUB SWAP1 DUP2 AND SWAP2 AND EQ PUSH3 0x892 JUMPI PUSH1 0x40 MLOAD PUSH3 0x461BCD PUSH1 0xE5 SHL DUP2 MSTORE PUSH1 0x4 ADD PUSH3 0x56E SWAP1 PUSH3 0x1791 JUMP JUMPDEST PUSH1 0xCA DUP1 SLOAD PUSH1 0x1 DUP2 ADD DUP3 SSTORE PUSH1 0x0 SWAP2 SWAP1 SWAP2 MSTORE PUSH32 0x42D72674974F694B5F5159593243114D38A5C39C89D6B62FEE061FF523240EE1 ADD DUP1 SLOAD PUSH1 0x1 PUSH1 0x1 PUSH1 0xA0 SHL SUB NOT AND PUSH1 0x1 PUSH1 0x1 PUSH1 0xA0 SHL SUB SWAP3 SWAP1 SWAP3 AND SWAP2 SWAP1 SWAP2 OR SWAP1 SSTORE JUMP JUMPDEST PUSH1 0x0 DUP1 JUMPDEST PUSH1 0xCA SLOAD DUP2 LT ISZERO PUSH3 0x963 JUMPI PUSH3 0x8FD PUSH3 0xB07 JUMP JUMPDEST PUSH1 0x1 PUSH1 0x1 PUSH1 0xA0 SHL SUB AND PUSH1 0xCA DUP3 DUP2 SLOAD DUP2 LT PUSH3 0x928 JUMPI PUSH4 0x4E487B71 PUSH1 0xE0 SHL PUSH1 0x0 MSTORE PUSH1 0x32 PUSH1 0x4 MSTORE PUSH1 0x24 PUSH1 0x0 REVERT JUMPDEST PUSH1 0x0 SWAP2 DUP3 MSTORE PUSH1 0x20 SWAP1 SWAP2 KECCAK256 ADD SLOAD PUSH1 0x1 PUSH1 0x1 PUSH1 0xA0 SHL SUB AND EQ ISZERO PUSH3 0x94E JUMPI PUSH1 0x1 SWAP2 POP PUSH3 0x963 JUMP JUMPDEST DUP1 PUSH3 0x95A DUP2 PUSH3 0x19E2 JUMP JUMPDEST SWAP2 POP POP PUSH3 0x8E8 JUMP JUMPDEST POP DUP1 PUSH3 0x984 JUMPI PUSH1 0x40 MLOAD PUSH3 0x461BCD PUSH1 0xE5 SHL DUP2 MSTORE PUSH1 0x4 ADD PUSH3 0x56E SWAP1 PUSH3 0x1814 JUMP JUMPDEST PUSH3 0x990 DUP4 DUP4 PUSH3 0xF79 JUMP JUMPDEST POP POP POP JUMP JUMPDEST PUSH1 0x0 PUSH3 0x3DC PUSH3 0x9A5 PUSH3 0xB07 JUMP JUMPDEST DUP5 PUSH3 0x46D DUP6 PUSH1 0x40 MLOAD DUP1 PUSH1 0x60 ADD PUSH1 0x40 MSTORE DUP1 PUSH1 0x25 DUP2 MSTORE PUSH1 0x20 ADD PUSH3 0x2428 PUSH1 0x25 SWAP2 CODECOPY PUSH1 0x98 PUSH1 0x0 PUSH3 0x9D3 PUSH3 0xB07 JUMP JUMPDEST PUSH1 0x1 PUSH1 0x1 PUSH1 0xA0 SHL SUB SWAP1 DUP2 AND DUP3 MSTORE PUSH1 0x20 DUP1 DUP4 ADD SWAP4 SWAP1 SWAP4 MSTORE PUSH1 0x40 SWAP2 DUP3 ADD PUSH1 0x0 SWAP1 DUP2 KECCAK256 SWAP2 DUP14 AND DUP2 MSTORE SWAP3 MSTORE SWAP1 KECCAK256 SLOAD SWAP2 SWAP1 PUSH3 0xCEB JUMP JUMPDEST PUSH1 0x0 PUSH3 0x3DC PUSH3 0xA15 PUSH3 0xB07 JUMP JUMPDEST DUP5 DUP5 PUSH3 0xBC7 JUMP JUMPDEST PUSH1 0x1 PUSH1 0x1 PUSH1 0xA0 SHL SUB SWAP2 DUP3 AND PUSH1 0x0 SWAP1 DUP2 MSTORE PUSH1 0x98 PUSH1 0x20 SWAP1 DUP2 MSTORE PUSH1 0x40 DUP1 DUP4 KECCAK256 SWAP4 SWAP1 SWAP5 AND DUP3 MSTORE SWAP2 SWAP1 SWAP2 MSTORE KECCAK256 SLOAD SWAP1 JUMP JUMPDEST PUSH3 0xA52 PUSH3 0xB07 JUMP JUMPDEST PUSH1 0x65 SLOAD PUSH1 0x1 PUSH1 0x1 PUSH1 0xA0 SHL SUB SWAP1 DUP2 AND SWAP2 AND EQ PUSH3 0xA82 JUMPI PUSH1 0x40 MLOAD PUSH3 0x461BCD PUSH1 0xE5 SHL DUP2 MSTORE PUSH1 0x4 ADD PUSH3 0x56E SWAP1 PUSH3 0x1791 JUMP JUMPDEST PUSH1 0x1 PUSH1 0x1 PUSH1 0xA0 SHL SUB DUP2 AND PUSH3 0xAAB JUMPI PUSH1 0x40 MLOAD PUSH3 0x461BCD PUSH1 0xE5 SHL DUP2 MSTORE PUSH1 0x4 ADD PUSH3 0x56E SWAP1 PUSH3 0x16D2 JUMP JUMPDEST PUSH1 0x65 SLOAD PUSH1 0x40 MLOAD PUSH1 0x1 PUSH1 0x1 PUSH1 0xA0 SHL SUB DUP1 DUP5 AND SWAP3 AND SWAP1 PUSH32 0x8BE0079C531659141344CD1FD0A4F28419497F9722A3DAAFE3B4186F6B6457E0 SWAP1 PUSH1 0x0 SWAP1 LOG3 PUSH1 0x65 DUP1 SLOAD PUSH1 0x1 PUSH1 0x1 PUSH1 0xA0 SHL SUB NOT AND PUSH1 0x1 PUSH1 0x1 PUSH1 0xA0 SHL SUB SWAP3 SWAP1 SWAP3 AND SWAP2 SWAP1 SWAP2 OR SWAP1 SSTORE JUMP JUMPDEST CALLER SWAP1 JUMP JUMPDEST PUSH1 0x1 PUSH1 0x1 PUSH1 0xA0 SHL SUB DUP4 AND PUSH3 0xB34 JUMPI PUSH1 0x40 MLOAD PUSH3 0x461BCD PUSH1 0xE5 SHL DUP2 MSTORE PUSH1 0x4 ADD PUSH3 0x56E SWAP1 PUSH3 0x18DE JUMP JUMPDEST PUSH1 0x1 PUSH1 0x1 PUSH1 0xA0 SHL SUB DUP3 AND PUSH3 0xB5D JUMPI PUSH1 0x40 MLOAD PUSH3 0x461BCD PUSH1 0xE5 SHL DUP2 MSTORE PUSH1 0x4 ADD PUSH3 0x56E SWAP1 PUSH3 0x1718 JUMP JUMPDEST PUSH1 0x1 PUSH1 0x1 PUSH1 0xA0 SHL SUB DUP1 DUP5 AND PUSH1 0x0 DUP2 DUP2 MSTORE PUSH1 0x98 PUSH1 0x20 SWAP1 DUP2 MSTORE PUSH1 0x40 DUP1 DUP4 KECCAK256 SWAP5 DUP8 AND DUP1 DUP5 MSTORE SWAP5 SWAP1 SWAP2 MSTORE SWAP1 DUP2 SWAP1 KECCAK256 DUP5 SWAP1 SSTORE MLOAD PUSH32 0x8C5BE1E5EBEC7D5BD14F71427D1E84F3DD0314C0F7B2291E5B200AC8C7C3B925 SWAP1 PUSH3 0xBBA SWAP1 DUP6 SWAP1 PUSH3 0x1959 JUMP JUMPDEST PUSH1 0x40 MLOAD DUP1 SWAP2 SUB SWAP1 LOG3 POP POP POP JUMP JUMPDEST PUSH1 0x1 PUSH1 0x1 PUSH1 0xA0 SHL SUB DUP4 AND PUSH3 0xBF0 JUMPI PUSH1 0x40 MLOAD PUSH3 0x461BCD PUSH1 0xE5 SHL DUP2 MSTORE PUSH1 0x4 ADD PUSH3 0x56E SWAP1 PUSH3 0x1899 JUMP JUMPDEST PUSH1 0x1 PUSH1 0x1 PUSH1 0xA0 SHL SUB DUP3 AND PUSH3 0xC19 JUMPI PUSH1 0x40 MLOAD PUSH3 0x461BCD PUSH1 0xE5 SHL DUP2 MSTORE PUSH1 0x4 ADD PUSH3 0x56E SWAP1 PUSH3 0x168F JUMP JUMPDEST PUSH3 0xC26 DUP4 DUP4 DUP4 PUSH3 0x105B JUMP JUMPDEST PUSH3 0xC66 DUP2 PUSH1 0x40 MLOAD DUP1 PUSH1 0x60 ADD PUSH1 0x40 MSTORE DUP1 PUSH1 0x26 DUP2 MSTORE PUSH1 0x20 ADD PUSH3 0x23DA PUSH1 0x26 SWAP2 CODECOPY PUSH1 0x1 PUSH1 0x1 PUSH1 0xA0 SHL SUB DUP7 AND PUSH1 0x0 SWAP1 DUP2 MSTORE PUSH1 0x97 PUSH1 0x20 MSTORE PUSH1 0x40 SWAP1 KECCAK256 SLOAD SWAP2 SWAP1 PUSH3 0xCEB JUMP JUMPDEST PUSH1 0x1 PUSH1 0x1 PUSH1 0xA0 SHL SUB DUP1 DUP6 AND PUSH1 0x0 SWAP1 DUP2 MSTORE PUSH1 0x97 PUSH1 0x20 MSTORE PUSH1 0x40 DUP1 DUP3 KECCAK256 SWAP4 SWAP1 SWAP4 SSTORE SWAP1 DUP5 AND DUP2 MSTORE KECCAK256 SLOAD PUSH3 0xC97 SWAP1 DUP3 PUSH3 0xD2A JUMP JUMPDEST PUSH1 0x1 PUSH1 0x1 PUSH1 0xA0 SHL SUB DUP1 DUP5 AND PUSH1 0x0 DUP2 DUP2 MSTORE PUSH1 0x97 PUSH1 0x20 MSTORE PUSH1 0x40 SWAP1 DUP2 SWAP1 KECCAK256 SWAP4 SWAP1 SWAP4 SSTORE SWAP2 MLOAD SWAP1 DUP6 AND SWAP1 PUSH32 0xDDF252AD1BE2C89B69C2B068FC378DAA952BA7F163C4A11628F55A4DF523B3EF SWAP1 PUSH3 0xBBA SWAP1 DUP6 SWAP1 PUSH3 0x1959 JUMP JUMPDEST PUSH1 0x0 DUP2 DUP5 DUP5 GT ISZERO PUSH3 0xD12 JUMPI PUSH1 0x40 MLOAD PUSH3 0x461BCD PUSH1 0xE5 SHL DUP2 MSTORE PUSH1 0x4 ADD PUSH3 0x56E SWAP2 SWAP1 PUSH3 0x1639 JUMP JUMPDEST POP PUSH1 0x0 PUSH3 0xD21 DUP5 DUP7 PUSH3 0x198B JUMP JUMPDEST SWAP6 SWAP5 POP POP POP POP POP JUMP JUMPDEST PUSH1 0x0 DUP1 PUSH3 0xD39 DUP4 DUP6 PUSH3 0x1970 JUMP JUMPDEST SWAP1 POP DUP4 DUP2 LT ISZERO PUSH3 0xD5E JUMPI PUSH1 0x40 MLOAD PUSH3 0x461BCD PUSH1 0xE5 SHL DUP2 MSTORE PUSH1 0x4 ADD PUSH3 0x56E SWAP1 PUSH3 0x175A JUMP JUMPDEST SWAP4 SWAP3 POP POP POP JUMP JUMPDEST ADDRESS EXTCODESIZE ISZERO SWAP1 JUMP JUMPDEST PUSH1 0x0 SLOAD PUSH2 0x100 SWAP1 DIV PUSH1 0xFF AND DUP1 PUSH3 0xD87 JUMPI POP PUSH3 0xD87 PUSH3 0xD65 JUMP JUMPDEST DUP1 PUSH3 0xD96 JUMPI POP PUSH1 0x0 SLOAD PUSH1 0xFF AND ISZERO JUMPDEST PUSH3 0xDB5 JUMPI PUSH1 0x40 MLOAD PUSH3 0x461BCD PUSH1 0xE5 SHL DUP2 MSTORE PUSH1 0x4 ADD PUSH3 0x56E SWAP1 PUSH3 0x17C6 JUMP JUMPDEST PUSH1 0x0 SLOAD PUSH2 0x100 SWAP1 DIV PUSH1 0xFF AND ISZERO DUP1 ISZERO PUSH3 0xDE1 JUMPI PUSH1 0x0 DUP1 SLOAD PUSH1 0xFF NOT PUSH2 0xFF00 NOT SWAP1 SWAP2 AND PUSH2 0x100 OR AND PUSH1 0x1 OR SWAP1 SSTORE JUMPDEST PUSH3 0xDEB PUSH3 0x1082 JUMP JUMPDEST PUSH3 0xDF5 PUSH3 0x110C JUMP JUMPDEST DUP1 ISZERO PUSH3 0xE08 JUMPI PUSH1 0x0 DUP1 SLOAD PUSH2 0xFF00 NOT AND SWAP1 SSTORE JUMPDEST POP JUMP JUMPDEST PUSH1 0x0 SLOAD PUSH2 0x100 SWAP1 DIV PUSH1 0xFF AND DUP1 PUSH3 0xE27 JUMPI POP PUSH3 0xE27 PUSH3 0xD65 JUMP JUMPDEST DUP1 PUSH3 0xE36 JUMPI POP PUSH1 0x0 SLOAD PUSH1 0xFF AND ISZERO JUMPDEST PUSH3 0xE55 JUMPI PUSH1 0x40 MLOAD PUSH3 0x461BCD PUSH1 0xE5 SHL DUP2 MSTORE PUSH1 0x4 ADD PUSH3 0x56E SWAP1 PUSH3 0x17C6 JUMP JUMPDEST PUSH1 0x0 SLOAD PUSH2 0x100 SWAP1 DIV PUSH1 0xFF AND ISZERO DUP1 ISZERO PUSH3 0xE81 JUMPI PUSH1 0x0 DUP1 SLOAD PUSH1 0xFF NOT PUSH2 0xFF00 NOT SWAP1 SWAP2 AND PUSH2 0x100 OR AND PUSH1 0x1 OR SWAP1 SSTORE JUMPDEST PUSH3 0xE8B PUSH3 0x1082 JUMP JUMPDEST PUSH3 0xE97 DUP4 DUP4 PUSH3 0x11F1 JUMP JUMPDEST DUP1 ISZERO PUSH3 0x990 JUMPI PUSH1 0x0 DUP1 SLOAD PUSH2 0xFF00 NOT AND SWAP1 SSTORE POP POP POP JUMP JUMPDEST PUSH1 0x1 PUSH1 0x1 PUSH1 0xA0 SHL SUB DUP3 AND PUSH3 0xED7 JUMPI PUSH1 0x40 MLOAD PUSH3 0x461BCD PUSH1 0xE5 SHL DUP2 MSTORE PUSH1 0x4 ADD PUSH3 0x56E SWAP1 PUSH3 0x1922 JUMP JUMPDEST PUSH3 0xEE5 PUSH1 0x0 DUP4 DUP4 PUSH3 0x105B JUMP JUMPDEST PUSH1 0x99 SLOAD PUSH3 0xEF4 SWAP1 DUP3 PUSH3 0xD2A JUMP JUMPDEST PUSH1 0x99 SSTORE PUSH1 0x1 PUSH1 0x1 PUSH1 0xA0 SHL SUB DUP3 AND PUSH1 0x0 SWAP1 DUP2 MSTORE PUSH1 0x97 PUSH1 0x20 MSTORE PUSH1 0x40 SWAP1 KECCAK256 SLOAD PUSH3 0xF1C SWAP1 DUP3 PUSH3 0xD2A JUMP JUMPDEST PUSH1 0x1 PUSH1 0x1 PUSH1 0xA0 SHL SUB DUP4 AND PUSH1 0x0 DUP2 DUP2 MSTORE PUSH1 0x97 PUSH1 0x20 MSTORE PUSH1 0x40 DUP1 DUP3 KECCAK256 SWAP4 SWAP1 SWAP4 SSTORE SWAP2 MLOAD SWAP1 SWAP2 SWAP1 PUSH32 0xDDF252AD1BE2C89B69C2B068FC378DAA952BA7F163C4A11628F55A4DF523B3EF SWAP1 PUSH3 0xF6D SWAP1 DUP6 SWAP1 PUSH3 0x1959 JUMP JUMPDEST PUSH1 0x40 MLOAD DUP1 SWAP2 SUB SWAP1 LOG3 POP POP JUMP JUMPDEST PUSH1 0x1 PUSH1 0x1 PUSH1 0xA0 SHL SUB DUP3 AND PUSH3 0xFA2 JUMPI PUSH1 0x40 MLOAD PUSH3 0x461BCD PUSH1 0xE5 SHL DUP2 MSTORE PUSH1 0x4 ADD PUSH3 0x56E SWAP1 PUSH3 0x1858 JUMP JUMPDEST PUSH3 0xFB0 DUP3 PUSH1 0x0 DUP4 PUSH3 0x105B JUMP JUMPDEST PUSH3 0xFF0 DUP2 PUSH1 0x40 MLOAD DUP1 PUSH1 0x60 ADD PUSH1 0x40 MSTORE DUP1 PUSH1 0x22 DUP2 MSTORE PUSH1 0x20 ADD PUSH3 0x23B8 PUSH1 0x22 SWAP2 CODECOPY PUSH1 0x1 PUSH1 0x1 PUSH1 0xA0 SHL SUB DUP6 AND PUSH1 0x0 SWAP1 DUP2 MSTORE PUSH1 0x97 PUSH1 0x20 MSTORE PUSH1 0x40 SWAP1 KECCAK256 SLOAD SWAP2 SWAP1 PUSH3 0xCEB JUMP JUMPDEST PUSH1 0x1 PUSH1 0x1 PUSH1 0xA0 SHL SUB DUP4 AND PUSH1 0x0 SWAP1 DUP2 MSTORE PUSH1 0x97 PUSH1 0x20 MSTORE PUSH1 0x40 SWAP1 KECCAK256 SSTORE PUSH1 0x99 SLOAD PUSH3 0x1018 SWAP1 DUP3 PUSH3 0x12B7 JUMP JUMPDEST PUSH1 0x99 SSTORE PUSH1 0x40 MLOAD PUSH1 0x0 SWAP1 PUSH1 0x1 PUSH1 0x1 PUSH1 0xA0 SHL SUB DUP5 AND SWAP1 PUSH32 0xDDF252AD1BE2C89B69C2B068FC378DAA952BA7F163C4A11628F55A4DF523B3EF SWAP1 PUSH3 0xF6D SWAP1 DUP6 SWAP1 PUSH3 0x1959 JUMP JUMPDEST PUSH1 0x1 PUSH1 0x1 PUSH1 0xA0 SHL SUB DUP4 AND PUSH1 0x0 SWAP1 DUP2 MSTORE PUSH1 0x9D PUSH1 0x20 MSTORE PUSH1 0x40 SWAP1 KECCAK256 SLOAD PUSH1 0xFF AND ISZERO PUSH3 0x990 JUMPI PUSH1 0x0 DUP1 REVERT JUMPDEST PUSH1 0x0 SLOAD PUSH2 0x100 SWAP1 DIV PUSH1 0xFF AND DUP1 PUSH3 0x109E JUMPI POP PUSH3 0x109E PUSH3 0xD65 JUMP JUMPDEST DUP1 PUSH3 0x10AD JUMPI POP PUSH1 0x0 SLOAD PUSH1 0xFF AND ISZERO JUMPDEST PUSH3 0x10CC JUMPI PUSH1 0x40 MLOAD PUSH3 0x461BCD PUSH1 0xE5 SHL DUP2 MSTORE PUSH1 0x4 ADD PUSH3 0x56E SWAP1 PUSH3 0x17C6 JUMP JUMPDEST PUSH1 0x0 SLOAD PUSH2 0x100 SWAP1 DIV PUSH1 0xFF AND ISZERO DUP1 ISZERO PUSH3 0xDF5 JUMPI PUSH1 0x0 DUP1 SLOAD PUSH1 0xFF NOT PUSH2 0xFF00 NOT SWAP1 SWAP2 AND PUSH2 0x100 OR AND PUSH1 0x1 OR SWAP1 SSTORE DUP1 ISZERO PUSH3 0xE08 JUMPI PUSH1 0x0 DUP1 SLOAD PUSH2 0xFF00 NOT AND SWAP1 SSTORE POP JUMP JUMPDEST PUSH1 0x0 SLOAD PUSH2 0x100 SWAP1 DIV PUSH1 0xFF AND DUP1 PUSH3 0x1128 JUMPI POP PUSH3 0x1128 PUSH3 0xD65 JUMP JUMPDEST DUP1 PUSH3 0x1137 JUMPI POP PUSH1 0x0 SLOAD PUSH1 0xFF AND ISZERO JUMPDEST PUSH3 0x1156 JUMPI PUSH1 0x40 MLOAD PUSH3 0x461BCD PUSH1 0xE5 SHL DUP2 MSTORE PUSH1 0x4 ADD PUSH3 0x56E SWAP1 PUSH3 0x17C6 JUMP JUMPDEST PUSH1 0x0 SLOAD PUSH2 0x100 SWAP1 DIV PUSH1 0xFF AND ISZERO DUP1 ISZERO PUSH3 0x1182 JUMPI PUSH1 0x0 DUP1 SLOAD PUSH1 0xFF NOT PUSH2 0xFF00 NOT SWAP1 SWAP2 AND PUSH2 0x100 OR AND PUSH1 0x1 OR SWAP1 SSTORE JUMPDEST PUSH1 0x0 PUSH3 0x118E PUSH3 0xB07 JUMP JUMPDEST PUSH1 0x65 DUP1 SLOAD PUSH1 0x1 PUSH1 0x1 PUSH1 0xA0 SHL SUB NOT AND PUSH1 0x1 PUSH1 0x1 PUSH1 0xA0 SHL SUB DUP4 AND SWAP1 DUP2 OR SWAP1 SWAP2 SSTORE PUSH1 0x40 MLOAD SWAP2 SWAP3 POP SWAP1 PUSH1 0x0 SWAP1 PUSH32 0x8BE0079C531659141344CD1FD0A4F28419497F9722A3DAAFE3B4186F6B6457E0 SWAP1 DUP3 SWAP1 LOG3 POP DUP1 ISZERO PUSH3 0xE08 JUMPI PUSH1 0x0 DUP1 SLOAD PUSH2 0xFF00 NOT AND SWAP1 SSTORE POP JUMP JUMPDEST PUSH1 0x0 SLOAD PUSH2 0x100 SWAP1 DIV PUSH1 0xFF AND DUP1 PUSH3 0x120D JUMPI POP PUSH3 0x120D PUSH3 0xD65 JUMP JUMPDEST DUP1 PUSH3 0x121C JUMPI POP PUSH1 0x0 SLOAD PUSH1 0xFF AND ISZERO JUMPDEST PUSH3 0x123B JUMPI PUSH1 0x40 MLOAD PUSH3 0x461BCD PUSH1 0xE5 SHL DUP2 MSTORE PUSH1 0x4 ADD PUSH3 0x56E SWAP1 PUSH3 0x17C6 JUMP JUMPDEST PUSH1 0x0 SLOAD PUSH2 0x100 SWAP1 DIV PUSH1 0xFF AND ISZERO DUP1 ISZERO PUSH3 0x1267 JUMPI PUSH1 0x0 DUP1 SLOAD PUSH1 0xFF NOT PUSH2 0xFF00 NOT SWAP1 SWAP2 AND PUSH2 0x100 OR AND PUSH1 0x1 OR SWAP1 SSTORE JUMPDEST DUP3 MLOAD PUSH3 0x127C SWAP1 PUSH1 0x9A SWAP1 PUSH1 0x20 DUP7 ADD SWAP1 PUSH3 0x1309 JUMP JUMPDEST POP DUP2 MLOAD PUSH3 0x1292 SWAP1 PUSH1 0x9B SWAP1 PUSH1 0x20 DUP6 ADD SWAP1 PUSH3 0x1309 JUMP JUMPDEST POP PUSH1 0x9C DUP1 SLOAD PUSH1 0xFF NOT AND PUSH1 0x12 OR SWAP1 SSTORE DUP1 ISZERO PUSH3 0x990 JUMPI PUSH1 0x0 DUP1 SLOAD PUSH2 0xFF00 NOT AND SWAP1 SSTORE POP POP POP JUMP JUMPDEST PUSH1 0x0 PUSH3 0xD5E DUP4 DUP4 PUSH1 0x40 MLOAD DUP1 PUSH1 0x40 ADD PUSH1 0x40 MSTORE DUP1 PUSH1 0x1E DUP2 MSTORE PUSH1 0x20 ADD PUSH32 0x536166654D6174683A207375627472616374696F6E206F766572666C6F770000 DUP2 MSTORE POP PUSH3 0xCEB JUMP JUMPDEST PUSH2 0x98B DUP1 PUSH3 0x1A2D DUP4 CODECOPY ADD SWAP1 JUMP JUMPDEST DUP3 DUP1 SLOAD PUSH3 0x1317 SWAP1 PUSH3 0x19A5 JUMP JUMPDEST SWAP1 PUSH1 0x0 MSTORE PUSH1 0x20 PUSH1 0x0 KECCAK256 SWAP1 PUSH1 0x1F ADD PUSH1 0x20 SWAP1 DIV DUP2 ADD SWAP3 DUP3 PUSH3 0x133B JUMPI PUSH1 0x0 DUP6 SSTORE PUSH3 0x1386 JUMP JUMPDEST DUP3 PUSH1 0x1F LT PUSH3 0x1356 JUMPI DUP1 MLOAD PUSH1 0xFF NOT AND DUP4 DUP1 ADD OR DUP6 SSTORE PUSH3 0x1386 JUMP JUMPDEST DUP3 DUP1 ADD PUSH1 0x1 ADD DUP6 SSTORE DUP3 ISZERO PUSH3 0x1386 JUMPI SWAP2 DUP3 ADD JUMPDEST DUP3 DUP2 GT ISZERO PUSH3 0x1386 JUMPI DUP3 MLOAD DUP3 SSTORE SWAP2 PUSH1 0x20 ADD SWAP2 SWAP1 PUSH1 0x1 ADD SWAP1 PUSH3 0x1369 JUMP JUMPDEST POP PUSH3 0x1394 SWAP3 SWAP2 POP PUSH3 0x1398 JUMP JUMPDEST POP SWAP1 JUMP JUMPDEST JUMPDEST DUP1 DUP3 GT ISZERO PUSH3 0x1394 JUMPI PUSH1 0x0 DUP2 SSTORE PUSH1 0x1 ADD PUSH3 0x1399 JUMP JUMPDEST DUP1 CALLDATALOAD PUSH1 0x1 PUSH1 0x1 PUSH1 0xA0 SHL SUB DUP2 AND DUP2 EQ PUSH3 0x52F JUMPI PUSH1 0x0 DUP1 REVERT JUMPDEST PUSH1 0x0 DUP3 PUSH1 0x1F DUP4 ADD SLT PUSH3 0x13D8 JUMPI DUP1 DUP2 REVERT JUMPDEST DUP2 CALLDATALOAD PUSH8 0xFFFFFFFFFFFFFFFF DUP1 DUP3 GT ISZERO PUSH3 0x13F6 JUMPI PUSH3 0x13F6 PUSH3 0x1A16 JUMP JUMPDEST PUSH1 0x40 MLOAD PUSH1 0x1F DUP4 ADD PUSH1 0x1F NOT AND DUP2 ADD PUSH1 0x20 ADD DUP3 DUP2 GT DUP3 DUP3 LT OR ISZERO PUSH3 0x141D JUMPI PUSH3 0x141D PUSH3 0x1A16 JUMP JUMPDEST PUSH1 0x40 MSTORE DUP3 DUP2 MSTORE DUP5 DUP4 ADD PUSH1 0x20 ADD DUP7 LT ISZERO PUSH3 0x1435 JUMPI DUP4 DUP5 REVERT JUMPDEST DUP3 PUSH1 0x20 DUP7 ADD PUSH1 0x20 DUP4 ADD CALLDATACOPY SWAP2 DUP3 ADD PUSH1 0x20 ADD SWAP3 SWAP1 SWAP3 MSTORE SWAP4 SWAP3 POP POP POP JUMP JUMPDEST PUSH1 0x0 PUSH1 0x20 DUP3 DUP5 SUB SLT ISZERO PUSH3 0x1462 JUMPI DUP1 DUP2 REVERT JUMPDEST PUSH3 0xD5E DUP3 PUSH3 0x13AF JUMP JUMPDEST PUSH1 0x0 DUP1 PUSH1 0x40 DUP4 DUP6 SUB SLT ISZERO PUSH3 0x1480 JUMPI DUP1 DUP2 REVERT JUMPDEST PUSH3 0x148B DUP4 PUSH3 0x13AF JUMP JUMPDEST SWAP2 POP PUSH3 0x149B PUSH1 0x20 DUP5 ADD PUSH3 0x13AF JUMP JUMPDEST SWAP1 POP SWAP3 POP SWAP3 SWAP1 POP JUMP JUMPDEST PUSH1 0x0 DUP1 PUSH1 0x0 PUSH1 0x60 DUP5 DUP7 SUB SLT ISZERO PUSH3 0x14B9 JUMPI DUP1 DUP2 REVERT JUMPDEST PUSH3 0x14C4 DUP5 PUSH3 0x13AF JUMP JUMPDEST SWAP3 POP PUSH3 0x14D4 PUSH1 0x20 DUP6 ADD PUSH3 0x13AF JUMP JUMPDEST SWAP2 POP PUSH1 0x40 DUP5 ADD CALLDATALOAD SWAP1 POP SWAP3 POP SWAP3 POP SWAP3 JUMP JUMPDEST PUSH1 0x0 DUP1 PUSH1 0x40 DUP4 DUP6 SUB SLT ISZERO PUSH3 0x14F7 JUMPI DUP2 DUP3 REVERT JUMPDEST PUSH3 0x1502 DUP4 PUSH3 0x13AF JUMP JUMPDEST SWAP2 POP PUSH1 0x20 DUP4 ADD CALLDATALOAD DUP1 ISZERO ISZERO DUP2 EQ PUSH3 0x1517 JUMPI DUP2 DUP3 REVERT JUMPDEST DUP1 SWAP2 POP POP SWAP3 POP SWAP3 SWAP1 POP JUMP JUMPDEST PUSH1 0x0 DUP1 PUSH1 0x40 DUP4 DUP6 SUB SLT ISZERO PUSH3 0x1535 JUMPI DUP2 DUP3 REVERT JUMPDEST PUSH3 0x1540 DUP4 PUSH3 0x13AF JUMP JUMPDEST SWAP5 PUSH1 0x20 SWAP4 SWAP1 SWAP4 ADD CALLDATALOAD SWAP4 POP POP POP JUMP JUMPDEST PUSH1 0x0 DUP1 PUSH1 0x0 DUP1 PUSH1 0x80 DUP6 DUP8 SUB SLT ISZERO PUSH3 0x1564 JUMPI DUP1 DUP2 REVERT JUMPDEST DUP5 CALLDATALOAD PUSH8 0xFFFFFFFFFFFFFFFF DUP1 DUP3 GT ISZERO PUSH3 0x157C JUMPI DUP3 DUP4 REVERT JUMPDEST PUSH3 0x158A DUP9 DUP4 DUP10 ADD PUSH3 0x13C7 JUMP JUMPDEST SWAP6 POP PUSH1 0x20 DUP8 ADD CALLDATALOAD SWAP2 POP DUP1 DUP3 GT ISZERO PUSH3 0x15A0 JUMPI DUP3 DUP4 REVERT JUMPDEST POP PUSH3 0x15AF DUP8 DUP3 DUP9 ADD PUSH3 0x13C7 JUMP JUMPDEST SWAP4 POP POP PUSH3 0x15C0 PUSH1 0x40 DUP7 ADD PUSH3 0x13AF JUMP JUMPDEST SWAP2 POP PUSH3 0x15D0 PUSH1 0x60 DUP7 ADD PUSH3 0x13AF JUMP JUMPDEST SWAP1 POP SWAP3 SWAP6 SWAP2 SWAP5 POP SWAP3 POP JUMP JUMPDEST PUSH1 0x0 PUSH1 0x20 DUP3 DUP5 SUB SLT ISZERO PUSH3 0x15ED JUMPI DUP1 DUP2 REVERT JUMPDEST POP CALLDATALOAD SWAP2 SWAP1 POP JUMP JUMPDEST PUSH1 0x1 PUSH1 0x1 PUSH1 0xA0 SHL SUB SWAP2 SWAP1 SWAP2 AND DUP2 MSTORE PUSH1 0x20 ADD SWAP1 JUMP JUMPDEST PUSH1 0x1 PUSH1 0x1 PUSH1 0xA0 SHL SUB SWAP5 SWAP1 SWAP5 AND DUP5 MSTORE PUSH1 0x20 DUP5 ADD SWAP3 SWAP1 SWAP3 MSTORE PUSH1 0x40 DUP4 ADD MSTORE PUSH1 0x60 DUP3 ADD MSTORE PUSH1 0x80 ADD SWAP1 JUMP JUMPDEST SWAP1 ISZERO ISZERO DUP2 MSTORE PUSH1 0x20 ADD SWAP1 JUMP JUMPDEST PUSH1 0x0 PUSH1 0x20 DUP1 DUP4 MSTORE DUP4 MLOAD DUP1 DUP3 DUP6 ADD MSTORE DUP3 JUMPDEST DUP2 DUP2 LT ISZERO PUSH3 0x1667 JUMPI DUP6 DUP2 ADD DUP4 ADD MLOAD DUP6 DUP3 ADD PUSH1 0x40 ADD MSTORE DUP3 ADD PUSH3 0x1649 JUMP JUMPDEST DUP2 DUP2 GT ISZERO PUSH3 0x1679 JUMPI DUP4 PUSH1 0x40 DUP4 DUP8 ADD ADD MSTORE JUMPDEST POP PUSH1 0x1F ADD PUSH1 0x1F NOT AND SWAP3 SWAP1 SWAP3 ADD PUSH1 0x40 ADD SWAP4 SWAP3 POP POP POP JUMP JUMPDEST PUSH1 0x20 DUP1 DUP3 MSTORE PUSH1 0x23 SWAP1 DUP3 ADD MSTORE PUSH32 0x45524332303A207472616E7366657220746F20746865207A65726F2061646472 PUSH1 0x40 DUP3 ADD MSTORE PUSH3 0x657373 PUSH1 0xE8 SHL PUSH1 0x60 DUP3 ADD MSTORE PUSH1 0x80 ADD SWAP1 JUMP JUMPDEST PUSH1 0x20 DUP1 DUP3 MSTORE PUSH1 0x26 SWAP1 DUP3 ADD MSTORE PUSH32 0x4F776E61626C653A206E6577206F776E657220697320746865207A65726F2061 PUSH1 0x40 DUP3 ADD MSTORE PUSH6 0x646472657373 PUSH1 0xD0 SHL PUSH1 0x60 DUP3 ADD MSTORE PUSH1 0x80 ADD SWAP1 JUMP JUMPDEST PUSH1 0x20 DUP1 DUP3 MSTORE PUSH1 0x22 SWAP1 DUP3 ADD MSTORE PUSH32 0x45524332303A20617070726F766520746F20746865207A65726F206164647265 PUSH1 0x40 DUP3 ADD MSTORE PUSH2 0x7373 PUSH1 0xF0 SHL PUSH1 0x60 DUP3 ADD MSTORE PUSH1 0x80 ADD SWAP1 JUMP JUMPDEST PUSH1 0x20 DUP1 DUP3 MSTORE PUSH1 0x1B SWAP1 DUP3 ADD MSTORE PUSH32 0x536166654D6174683A206164646974696F6E206F766572666C6F770000000000 PUSH1 0x40 DUP3 ADD MSTORE PUSH1 0x60 ADD SWAP1 JUMP JUMPDEST PUSH1 0x20 DUP1 DUP3 MSTORE DUP2 DUP2 ADD MSTORE PUSH32 0x4F776E61626C653A2063616C6C6572206973206E6F7420746865206F776E6572 PUSH1 0x40 DUP3 ADD MSTORE PUSH1 0x60 ADD SWAP1 JUMP JUMPDEST PUSH1 0x20 DUP1 DUP3 MSTORE PUSH1 0x2E SWAP1 DUP3 ADD MSTORE PUSH32 0x436F6E747261637420696E7374616E63652068617320616C7265616479206265 PUSH1 0x40 DUP3 ADD MSTORE PUSH14 0x195B881A5B9A5D1A585B1A5E9959 PUSH1 0x92 SHL PUSH1 0x60 DUP3 ADD MSTORE PUSH1 0x80 ADD SWAP1 JUMP JUMPDEST PUSH1 0x20 DUP1 DUP3 MSTORE PUSH1 0x24 SWAP1 DUP3 ADD MSTORE PUSH32 0x2149734D696E7465723A2063616C6C6572206973206E6F742066726F6D206D69 PUSH1 0x40 DUP3 ADD MSTORE PUSH4 0x373A32B9 PUSH1 0xE1 SHL PUSH1 0x60 DUP3 ADD MSTORE PUSH1 0x80 ADD SWAP1 JUMP JUMPDEST PUSH1 0x20 DUP1 DUP3 MSTORE PUSH1 0x21 SWAP1 DUP3 ADD MSTORE PUSH32 0x45524332303A206275726E2066726F6D20746865207A65726F20616464726573 PUSH1 0x40 DUP3 ADD MSTORE PUSH1 0x73 PUSH1 0xF8 SHL PUSH1 0x60 DUP3 ADD MSTORE PUSH1 0x80 ADD SWAP1 JUMP JUMPDEST PUSH1 0x20 DUP1 DUP3 MSTORE PUSH1 0x25 SWAP1 DUP3 ADD MSTORE PUSH32 0x45524332303A207472616E736665722066726F6D20746865207A65726F206164 PUSH1 0x40 DUP3 ADD MSTORE PUSH5 0x6472657373 PUSH1 0xD8 SHL PUSH1 0x60 DUP3 ADD MSTORE PUSH1 0x80 ADD SWAP1 JUMP JUMPDEST PUSH1 0x20 DUP1 DUP3 MSTORE PUSH1 0x24 SWAP1 DUP3 ADD MSTORE PUSH32 0x45524332303A20617070726F76652066726F6D20746865207A65726F20616464 PUSH1 0x40 DUP3 ADD MSTORE PUSH4 0x72657373 PUSH1 0xE0 SHL PUSH1 0x60 DUP3 ADD MSTORE PUSH1 0x80 ADD SWAP1 JUMP JUMPDEST PUSH1 0x20 DUP1 DUP3 MSTORE PUSH1 0x1F SWAP1 DUP3 ADD MSTORE PUSH32 0x45524332303A206D696E7420746F20746865207A65726F206164647265737300 PUSH1 0x40 DUP3 ADD MSTORE PUSH1 0x60 ADD SWAP1 JUMP JUMPDEST SWAP1 DUP2 MSTORE PUSH1 0x20 ADD SWAP1 JUMP JUMPDEST PUSH1 0xFF SWAP2 SWAP1 SWAP2 AND DUP2 MSTORE PUSH1 0x20 ADD SWAP1 JUMP JUMPDEST PUSH1 0x0 DUP3 NOT DUP3 GT ISZERO PUSH3 0x1986 JUMPI PUSH3 0x1986 PUSH3 0x1A00 JUMP JUMPDEST POP ADD SWAP1 JUMP JUMPDEST PUSH1 0x0 DUP3 DUP3 LT ISZERO PUSH3 0x19A0 JUMPI PUSH3 0x19A0 PUSH3 0x1A00 JUMP JUMPDEST POP SUB SWAP1 JUMP JUMPDEST PUSH1 0x2 DUP2 DIV PUSH1 0x1 DUP3 AND DUP1 PUSH3 0x19BA JUMPI PUSH1 0x7F DUP3 AND SWAP2 POP JUMPDEST PUSH1 0x20 DUP3 LT DUP2 EQ ISZERO PUSH3 0x19DC JUMPI PUSH4 0x4E487B71 PUSH1 0xE0 SHL PUSH1 0x0 MSTORE PUSH1 0x22 PUSH1 0x4 MSTORE PUSH1 0x24 PUSH1 0x0 REVERT JUMPDEST POP SWAP2 SWAP1 POP JUMP JUMPDEST PUSH1 0x0 PUSH1 0x0 NOT DUP3 EQ ISZERO PUSH3 0x19F9 JUMPI PUSH3 0x19F9 PUSH3 0x1A00 JUMP JUMPDEST POP PUSH1 0x1 ADD SWAP1 JUMP JUMPDEST PUSH4 0x4E487B71 PUSH1 0xE0 SHL PUSH1 0x0 MSTORE PUSH1 0x11 PUSH1 0x4 MSTORE PUSH1 0x24 PUSH1 0x0 REVERT JUMPDEST PUSH4 0x4E487B71 PUSH1 0xE0 SHL PUSH1 0x0 MSTORE PUSH1 0x41 PUSH1 0x4 MSTORE PUSH1 0x24 PUSH1 0x0 REVERT INVALID PUSH1 0x80 PUSH1 0x40 MSTORE CALLVALUE DUP1 ISZERO PUSH2 0x10 JUMPI PUSH1 0x0 DUP1 REVERT JUMPDEST POP PUSH1 0x40 MLOAD PUSH2 0x98B CODESIZE SUB DUP1 PUSH2 0x98B DUP4 CODECOPY DUP2 ADD PUSH1 0x40 DUP2 SWAP1 MSTORE PUSH2 0x2F SWAP2 PUSH2 0xD1 JUMP JUMPDEST PUSH1 0x1 PUSH1 0x1 PUSH1 0xA0 SHL SUB DUP5 AND PUSH2 0x42 JUMPI PUSH1 0x0 DUP1 REVERT JUMPDEST DUP1 DUP3 GT ISZERO PUSH2 0x4F JUMPI PUSH1 0x0 DUP1 REVERT JUMPDEST PUSH1 0x0 DUP1 SLOAD PUSH1 0x1 PUSH1 0x1 PUSH1 0xA0 SHL SUB NOT AND PUSH1 0x1 PUSH1 0x1 PUSH1 0xA0 SHL SUB DUP7 AND OR SWAP1 SSTORE PUSH1 0x3 DUP2 SWAP1 SSTORE PUSH2 0x84 DUP4 DUP4 PUSH2 0x92 PUSH1 0x20 SWAP1 DUP2 SHL PUSH2 0x338 OR SWAP1 SHR JUMP JUMPDEST PUSH1 0x1 SSTORE POP POP PUSH1 0x2 SSTORE POP PUSH2 0x175 JUMP JUMPDEST PUSH1 0x0 DUP1 PUSH2 0x9F DUP4 DUP6 PUSH2 0x151 JUMP JUMPDEST SWAP1 POP DUP4 DUP2 LT ISZERO PUSH2 0xCA JUMPI PUSH1 0x40 MLOAD PUSH3 0x461BCD PUSH1 0xE5 SHL DUP2 MSTORE PUSH1 0x4 ADD PUSH2 0xC1 SWAP1 PUSH2 0x11A JUMP JUMPDEST PUSH1 0x40 MLOAD DUP1 SWAP2 SUB SWAP1 REVERT JUMPDEST SWAP4 SWAP3 POP POP POP JUMP JUMPDEST PUSH1 0x0 DUP1 PUSH1 0x0 DUP1 PUSH1 0x80 DUP6 DUP8 SUB SLT ISZERO PUSH2 0xE6 JUMPI DUP4 DUP5 REVERT JUMPDEST DUP5 MLOAD PUSH1 0x1 PUSH1 0x1 PUSH1 0xA0 SHL SUB DUP2 AND DUP2 EQ PUSH2 0xFC JUMPI DUP5 DUP6 REVERT JUMPDEST PUSH1 0x20 DUP7 ADD MLOAD PUSH1 0x40 DUP8 ADD MLOAD PUSH1 0x60 SWAP1 SWAP8 ADD MLOAD SWAP2 SWAP9 SWAP1 SWAP8 POP SWAP1 SWAP5 POP SWAP3 POP POP POP JUMP JUMPDEST PUSH1 0x20 DUP1 DUP3 MSTORE PUSH1 0x1B SWAP1 DUP3 ADD MSTORE PUSH32 0x536166654D6174683A206164646974696F6E206F766572666C6F770000000000 PUSH1 0x40 DUP3 ADD MSTORE PUSH1 0x60 ADD SWAP1 JUMP JUMPDEST PUSH1 0x0 DUP3 NOT DUP3 GT ISZERO PUSH2 0x170 JUMPI PUSH4 0x4E487B71 PUSH1 0xE0 SHL DUP2 MSTORE PUSH1 0x11 PUSH1 0x4 MSTORE PUSH1 0x24 DUP2 REVERT JUMPDEST POP ADD SWAP1 JUMP JUMPDEST PUSH2 0x807 DUP1 PUSH2 0x184 PUSH1 0x0 CODECOPY PUSH1 0x0 RETURN INVALID PUSH1 0x80 PUSH1 0x40 MSTORE CALLVALUE DUP1 ISZERO PUSH2 0x10 JUMPI PUSH1 0x0 DUP1 REVERT JUMPDEST POP PUSH1 0x4 CALLDATASIZE LT PUSH2 0x88 JUMPI PUSH1 0x0 CALLDATALOAD PUSH1 0xE0 SHR DUP1 PUSH4 0x384711CC GT PUSH2 0x5B JUMPI DUP1 PUSH4 0x384711CC EQ PUSH2 0xDB JUMPI DUP1 PUSH4 0x38AF3EED EQ PUSH2 0xEE JUMPI DUP1 PUSH4 0x9852595C EQ PUSH2 0x103 JUMPI DUP1 PUSH4 0xBE9A6555 EQ PUSH2 0x116 JUMPI PUSH2 0x88 JUMP JUMPDEST DUP1 PUSH4 0xFB5A6B4 EQ PUSH2 0x8D JUMPI DUP1 PUSH4 0x13D033C0 EQ PUSH2 0xAB JUMPI DUP1 PUSH4 0x1726CBC8 EQ PUSH2 0xB3 JUMPI DUP1 PUSH4 0x19165587 EQ PUSH2 0xC6 JUMPI JUMPDEST PUSH1 0x0 DUP1 REVERT JUMPDEST PUSH2 0x95 PUSH2 0x11E JUMP JUMPDEST PUSH1 0x40 MLOAD PUSH2 0xA2 SWAP2 SWAP1 PUSH2 0x714 JUMP JUMPDEST PUSH1 0x40 MLOAD DUP1 SWAP2 SUB SWAP1 RETURN JUMPDEST PUSH2 0x95 PUSH2 0x124 JUMP JUMPDEST PUSH2 0x95 PUSH2 0xC1 CALLDATASIZE PUSH1 0x4 PUSH2 0x597 JUMP JUMPDEST PUSH2 0x12A JUMP JUMPDEST PUSH2 0xD9 PUSH2 0xD4 CALLDATASIZE PUSH1 0x4 PUSH2 0x597 JUMP JUMPDEST PUSH2 0x15E JUMP JUMPDEST STOP JUMPDEST PUSH2 0x95 PUSH2 0xE9 CALLDATASIZE PUSH1 0x4 PUSH2 0x597 JUMP JUMPDEST PUSH2 0x201 JUMP JUMPDEST PUSH2 0xF6 PUSH2 0x311 JUMP JUMPDEST PUSH1 0x40 MLOAD PUSH2 0xA2 SWAP2 SWAP1 PUSH2 0x612 JUMP JUMPDEST PUSH2 0x95 PUSH2 0x111 CALLDATASIZE PUSH1 0x4 PUSH2 0x597 JUMP JUMPDEST PUSH2 0x320 JUMP JUMPDEST PUSH2 0x95 PUSH2 0x332 JUMP JUMPDEST PUSH1 0x3 SLOAD DUP2 JUMP JUMPDEST PUSH1 0x1 SLOAD DUP2 JUMP JUMPDEST PUSH1 0x1 PUSH1 0x1 PUSH1 0xA0 SHL SUB DUP2 AND PUSH1 0x0 SWAP1 DUP2 MSTORE PUSH1 0x4 PUSH1 0x20 MSTORE PUSH1 0x40 DUP2 KECCAK256 SLOAD PUSH2 0x156 SWAP1 PUSH2 0x150 DUP5 PUSH2 0x201 JUMP JUMPDEST SWAP1 PUSH2 0x379 JUMP JUMPDEST SWAP1 POP JUMPDEST SWAP2 SWAP1 POP JUMP JUMPDEST PUSH1 0x0 PUSH2 0x169 DUP3 PUSH2 0x12A JUMP JUMPDEST SWAP1 POP PUSH1 0x0 DUP2 GT PUSH2 0x178 JUMPI PUSH1 0x0 DUP1 REVERT JUMPDEST PUSH1 0x1 PUSH1 0x1 PUSH1 0xA0 SHL SUB DUP3 AND PUSH1 0x0 SWAP1 DUP2 MSTORE PUSH1 0x4 PUSH1 0x20 MSTORE PUSH1 0x40 SWAP1 KECCAK256 SLOAD PUSH2 0x19B SWAP1 DUP3 PUSH2 0x338 JUMP JUMPDEST PUSH1 0x1 PUSH1 0x1 PUSH1 0xA0 SHL SUB DUP1 DUP5 AND PUSH1 0x0 DUP2 DUP2 MSTORE PUSH1 0x4 PUSH1 0x20 MSTORE PUSH1 0x40 DUP2 KECCAK256 SWAP4 SWAP1 SWAP4 SSTORE SWAP2 SLOAD PUSH2 0x1C6 SWAP3 SWAP2 AND DUP4 PUSH2 0x3BB JUMP JUMPDEST PUSH32 0xFB81F9B30D73D830C3544B34D827C08142579EE75710B490BAB0B3995468C565 DUP2 PUSH1 0x40 MLOAD PUSH2 0x1F5 SWAP2 SWAP1 PUSH2 0x714 JUMP JUMPDEST PUSH1 0x40 MLOAD DUP1 SWAP2 SUB SWAP1 LOG1 POP POP JUMP JUMPDEST PUSH1 0x0 DUP1 DUP3 PUSH1 0x1 PUSH1 0x1 PUSH1 0xA0 SHL SUB AND PUSH4 0x70A08231 ADDRESS PUSH1 0x40 MLOAD DUP3 PUSH4 0xFFFFFFFF AND PUSH1 0xE0 SHL DUP2 MSTORE PUSH1 0x4 ADD PUSH2 0x230 SWAP2 SWAP1 PUSH2 0x612 JUMP JUMPDEST PUSH1 0x20 PUSH1 0x40 MLOAD DUP1 DUP4 SUB DUP2 DUP7 DUP1 EXTCODESIZE ISZERO DUP1 ISZERO PUSH2 0x248 JUMPI PUSH1 0x0 DUP1 REVERT JUMPDEST POP GAS STATICCALL ISZERO DUP1 ISZERO PUSH2 0x25C JUMPI RETURNDATASIZE PUSH1 0x0 DUP1 RETURNDATACOPY RETURNDATASIZE PUSH1 0x0 REVERT JUMPDEST POP POP POP POP PUSH1 0x40 MLOAD RETURNDATASIZE PUSH1 0x1F NOT PUSH1 0x1F DUP3 ADD AND DUP3 ADD DUP1 PUSH1 0x40 MSTORE POP DUP2 ADD SWAP1 PUSH2 0x280 SWAP2 SWAP1 PUSH2 0x5DE JUMP JUMPDEST PUSH1 0x1 PUSH1 0x1 PUSH1 0xA0 SHL SUB DUP5 AND PUSH1 0x0 SWAP1 DUP2 MSTORE PUSH1 0x4 PUSH1 0x20 MSTORE PUSH1 0x40 DUP2 KECCAK256 SLOAD SWAP2 SWAP3 POP SWAP1 PUSH2 0x2A8 SWAP1 DUP4 SWAP1 PUSH2 0x338 JUMP JUMPDEST SWAP1 POP PUSH1 0x1 SLOAD TIMESTAMP LT ISZERO PUSH2 0x2BF JUMPI PUSH1 0x0 SWAP3 POP POP POP PUSH2 0x159 JUMP JUMPDEST PUSH1 0x3 SLOAD PUSH1 0x2 SLOAD PUSH2 0x2CE SWAP2 PUSH2 0x338 JUMP JUMPDEST TIMESTAMP LT PUSH2 0x2DD JUMPI SWAP2 POP PUSH2 0x159 SWAP1 POP JUMP JUMPDEST PUSH2 0x308 PUSH1 0x3 SLOAD PUSH2 0x302 PUSH2 0x2FB PUSH1 0x2 SLOAD TIMESTAMP PUSH2 0x379 SWAP1 SWAP2 SWAP1 PUSH4 0xFFFFFFFF AND JUMP JUMPDEST DUP5 SWAP1 PUSH2 0x4A8 JUMP JUMPDEST SWAP1 PUSH2 0x4ED JUMP JUMPDEST SWAP3 POP POP POP PUSH2 0x159 JUMP JUMPDEST PUSH1 0x0 SLOAD PUSH1 0x1 PUSH1 0x1 PUSH1 0xA0 SHL SUB AND DUP2 JUMP JUMPDEST PUSH1 0x4 PUSH1 0x20 MSTORE PUSH1 0x0 SWAP1 DUP2 MSTORE PUSH1 0x40 SWAP1 KECCAK256 SLOAD DUP2 JUMP JUMPDEST PUSH1 0x2 SLOAD DUP2 JUMP JUMPDEST PUSH1 0x0 DUP1 PUSH2 0x345 DUP4 DUP6 PUSH2 0x71D JUMP JUMPDEST SWAP1 POP DUP4 DUP2 LT ISZERO PUSH2 0x370 JUMPI PUSH1 0x40 MLOAD PUSH3 0x461BCD PUSH1 0xE5 SHL DUP2 MSTORE PUSH1 0x4 ADD PUSH2 0x367 SWAP1 PUSH2 0x672 JUMP JUMPDEST PUSH1 0x40 MLOAD DUP1 SWAP2 SUB SWAP1 REVERT JUMPDEST SWAP1 POP JUMPDEST SWAP3 SWAP2 POP POP JUMP JUMPDEST PUSH1 0x0 PUSH2 0x370 DUP4 DUP4 PUSH1 0x40 MLOAD DUP1 PUSH1 0x40 ADD PUSH1 0x40 MSTORE DUP1 PUSH1 0x1E DUP2 MSTORE PUSH1 0x20 ADD PUSH32 0x536166654D6174683A207375627472616374696F6E206F766572666C6F770000 DUP2 MSTORE POP PUSH2 0x52F JUMP JUMPDEST PUSH1 0x0 DUP1 DUP5 PUSH1 0x1 PUSH1 0x1 PUSH1 0xA0 SHL SUB AND PUSH4 0xA9059CBB DUP6 DUP6 PUSH1 0x40 MLOAD PUSH1 0x24 ADD PUSH2 0x3E0 SWAP3 SWAP2 SWAP1 PUSH2 0x626 JUMP JUMPDEST PUSH1 0x40 MLOAD PUSH1 0x20 DUP2 DUP4 SUB SUB DUP2 MSTORE SWAP1 PUSH1 0x40 MSTORE SWAP1 PUSH1 0xE0 SHL PUSH1 0x20 DUP3 ADD DUP1 MLOAD PUSH1 0x1 PUSH1 0x1 PUSH1 0xE0 SHL SUB DUP4 DUP2 DUP4 AND OR DUP4 MSTORE POP POP POP POP PUSH1 0x40 MLOAD PUSH2 0x419 SWAP2 SWAP1 PUSH2 0x5F6 JUMP JUMPDEST PUSH1 0x0 PUSH1 0x40 MLOAD DUP1 DUP4 SUB DUP2 PUSH1 0x0 DUP7 GAS CALL SWAP2 POP POP RETURNDATASIZE DUP1 PUSH1 0x0 DUP2 EQ PUSH2 0x456 JUMPI PUSH1 0x40 MLOAD SWAP2 POP PUSH1 0x1F NOT PUSH1 0x3F RETURNDATASIZE ADD AND DUP3 ADD PUSH1 0x40 MSTORE RETURNDATASIZE DUP3 MSTORE RETURNDATASIZE PUSH1 0x0 PUSH1 0x20 DUP5 ADD RETURNDATACOPY PUSH2 0x45B JUMP JUMPDEST PUSH1 0x60 SWAP2 POP JUMPDEST POP SWAP2 POP SWAP2 POP DUP2 DUP1 ISZERO PUSH2 0x485 JUMPI POP DUP1 MLOAD ISZERO DUP1 PUSH2 0x485 JUMPI POP DUP1 DUP1 PUSH1 0x20 ADD SWAP1 MLOAD DUP2 ADD SWAP1 PUSH2 0x485 SWAP2 SWAP1 PUSH2 0x5BE JUMP JUMPDEST PUSH2 0x4A1 JUMPI PUSH1 0x40 MLOAD PUSH3 0x461BCD PUSH1 0xE5 SHL DUP2 MSTORE PUSH1 0x4 ADD PUSH2 0x367 SWAP1 PUSH2 0x6EA JUMP JUMPDEST POP POP POP POP POP JUMP JUMPDEST PUSH1 0x0 DUP3 PUSH2 0x4B7 JUMPI POP PUSH1 0x0 PUSH2 0x373 JUMP JUMPDEST PUSH1 0x0 PUSH2 0x4C3 DUP4 DUP6 PUSH2 0x755 JUMP JUMPDEST SWAP1 POP DUP3 PUSH2 0x4D0 DUP6 DUP4 PUSH2 0x735 JUMP JUMPDEST EQ PUSH2 0x370 JUMPI PUSH1 0x40 MLOAD PUSH3 0x461BCD PUSH1 0xE5 SHL DUP2 MSTORE PUSH1 0x4 ADD PUSH2 0x367 SWAP1 PUSH2 0x6A9 JUMP JUMPDEST PUSH1 0x0 PUSH2 0x370 DUP4 DUP4 PUSH1 0x40 MLOAD DUP1 PUSH1 0x40 ADD PUSH1 0x40 MSTORE DUP1 PUSH1 0x1A DUP2 MSTORE PUSH1 0x20 ADD PUSH32 0x536166654D6174683A206469766973696F6E206279207A65726F000000000000 DUP2 MSTORE POP PUSH2 0x569 JUMP JUMPDEST PUSH1 0x0 DUP2 DUP5 DUP5 GT ISZERO PUSH2 0x553 JUMPI PUSH1 0x40 MLOAD PUSH3 0x461BCD PUSH1 0xE5 SHL DUP2 MSTORE PUSH1 0x4 ADD PUSH2 0x367 SWAP2 SWAP1 PUSH2 0x63F JUMP JUMPDEST POP PUSH1 0x0 PUSH2 0x560 DUP5 DUP7 PUSH2 0x774 JUMP JUMPDEST SWAP6 SWAP5 POP POP POP POP POP JUMP JUMPDEST PUSH1 0x0 DUP2 DUP4 PUSH2 0x58A JUMPI PUSH1 0x40 MLOAD PUSH3 0x461BCD PUSH1 0xE5 SHL DUP2 MSTORE PUSH1 0x4 ADD PUSH2 0x367 SWAP2 SWAP1 PUSH2 0x63F JUMP JUMPDEST POP PUSH1 0x0 PUSH2 0x560 DUP5 DUP7 PUSH2 0x735 JUMP JUMPDEST PUSH1 0x0 PUSH1 0x20 DUP3 DUP5 SUB SLT ISZERO PUSH2 0x5A8 JUMPI DUP1 DUP2 REVERT JUMPDEST DUP2 CALLDATALOAD PUSH1 0x1 PUSH1 0x1 PUSH1 0xA0 SHL SUB DUP2 AND DUP2 EQ PUSH2 0x370 JUMPI DUP2 DUP3 REVERT JUMPDEST PUSH1 0x0 PUSH1 0x20 DUP3 DUP5 SUB SLT ISZERO PUSH2 0x5CF JUMPI DUP1 DUP2 REVERT JUMPDEST DUP2 MLOAD DUP1 ISZERO ISZERO DUP2 EQ PUSH2 0x370 JUMPI DUP2 DUP3 REVERT JUMPDEST PUSH1 0x0 PUSH1 0x20 DUP3 DUP5 SUB SLT ISZERO PUSH2 0x5EF JUMPI DUP1 DUP2 REVERT JUMPDEST POP MLOAD SWAP2 SWAP1 POP JUMP JUMPDEST PUSH1 0x0 DUP3 MLOAD PUSH2 0x608 DUP2 DUP5 PUSH1 0x20 DUP8 ADD PUSH2 0x78B JUMP JUMPDEST SWAP2 SWAP1 SWAP2 ADD SWAP3 SWAP2 POP POP JUMP JUMPDEST PUSH1 0x1 PUSH1 0x1 PUSH1 0xA0 SHL SUB SWAP2 SWAP1 SWAP2 AND DUP2 MSTORE PUSH1 0x20 ADD SWAP1 JUMP JUMPDEST PUSH1 0x1 PUSH1 0x1 PUSH1 0xA0 SHL SUB SWAP3 SWAP1 SWAP3 AND DUP3 MSTORE PUSH1 0x20 DUP3 ADD MSTORE PUSH1 0x40 ADD SWAP1 JUMP JUMPDEST PUSH1 0x0 PUSH1 0x20 DUP3 MSTORE DUP3 MLOAD DUP1 PUSH1 0x20 DUP5 ADD MSTORE PUSH2 0x65E DUP2 PUSH1 0x40 DUP6 ADD PUSH1 0x20 DUP8 ADD PUSH2 0x78B JUMP JUMPDEST PUSH1 0x1F ADD PUSH1 0x1F NOT AND SWAP2 SWAP1 SWAP2 ADD PUSH1 0x40 ADD SWAP3 SWAP2 POP POP JUMP JUMPDEST PUSH1 0x20 DUP1 DUP3 MSTORE PUSH1 0x1B SWAP1 DUP3 ADD MSTORE PUSH32 0x536166654D6174683A206164646974696F6E206F766572666C6F770000000000 PUSH1 0x40 DUP3 ADD MSTORE PUSH1 0x60 ADD SWAP1 JUMP JUMPDEST PUSH1 0x20 DUP1 DUP3 MSTORE PUSH1 0x21 SWAP1 DUP3 ADD MSTORE PUSH32 0x536166654D6174683A206D756C7469706C69636174696F6E206F766572666C6F PUSH1 0x40 DUP3 ADD MSTORE PUSH1 0x77 PUSH1 0xF8 SHL PUSH1 0x60 DUP3 ADD MSTORE PUSH1 0x80 ADD SWAP1 JUMP JUMPDEST PUSH1 0x20 DUP1 DUP3 MSTORE PUSH1 0x10 SWAP1 DUP3 ADD MSTORE PUSH16 0x85514905394D1915497D19052531151 PUSH1 0x82 SHL PUSH1 0x40 DUP3 ADD MSTORE PUSH1 0x60 ADD SWAP1 JUMP JUMPDEST SWAP1 DUP2 MSTORE PUSH1 0x20 ADD SWAP1 JUMP JUMPDEST PUSH1 0x0 DUP3 NOT DUP3 GT ISZERO PUSH2 0x730 JUMPI PUSH2 0x730 PUSH2 0x7BB JUMP JUMPDEST POP ADD SWAP1 JUMP JUMPDEST PUSH1 0x0 DUP3 PUSH2 0x750 JUMPI PUSH4 0x4E487B71 PUSH1 0xE0 SHL DUP2 MSTORE PUSH1 0x12 PUSH1 0x4 MSTORE PUSH1 0x24 DUP2 REVERT JUMPDEST POP DIV SWAP1 JUMP JUMPDEST PUSH1 0x0 DUP2 PUSH1 0x0 NOT DIV DUP4 GT DUP3 ISZERO ISZERO AND ISZERO PUSH2 0x76F JUMPI PUSH2 0x76F PUSH2 0x7BB JUMP JUMPDEST POP MUL SWAP1 JUMP JUMPDEST PUSH1 0x0 DUP3 DUP3 LT ISZERO PUSH2 0x786 JUMPI PUSH2 0x786 PUSH2 0x7BB JUMP JUMPDEST POP SUB SWAP1 JUMP JUMPDEST PUSH1 0x0 JUMPDEST DUP4 DUP2 LT ISZERO PUSH2 0x7A6 JUMPI DUP2 DUP2 ADD MLOAD DUP4 DUP3 ADD MSTORE PUSH1 0x20 ADD PUSH2 0x78E JUMP JUMPDEST DUP4 DUP2 GT ISZERO PUSH2 0x7B5 JUMPI PUSH1 0x0 DUP5 DUP5 ADD MSTORE JUMPDEST POP POP POP POP JUMP JUMPDEST PUSH4 0x4E487B71 PUSH1 0xE0 SHL PUSH1 0x0 MSTORE PUSH1 0x11 PUSH1 0x4 MSTORE PUSH1 0x24 PUSH1 0x0 REVERT INVALID LOG2 PUSH5 0x6970667358 0x22 SLT KECCAK256 RETURNDATASIZE PUSH19 0xA5BCF0BAFED2C64A8770028CA0CE8F23E49C1F PUSH11 0x9D79E1F9B0EC3436D8E764 PUSH20 0x6F6C6343000800003345524332303A206275726E KECCAK256 PUSH2 0x6D6F PUSH22 0x6E7420657863656564732062616C616E636545524332 ADDRESS GASPRICE KECCAK256 PUSH21 0x72616E7366657220616D6F756E7420657863656564 PUSH20 0x2062616C616E636545524332303A207472616E73 PUSH7 0x657220616D6F75 PUSH15 0x74206578636565647320616C6C6F77 PUSH2 0x6E63 PUSH6 0x45524332303A KECCAK256 PUSH5 0x6563726561 PUSH20 0x656420616C6C6F77616E63652062656C6F77207A PUSH6 0x726FA2646970 PUSH7 0x7358221220613F 0xD6 COINBASE CHAINID SWAP15 MOD CREATE2 SUB 0x23 PC 0xB3 SWAP6 DUP13 0xBA 0x28 0xC9 MSTORE 0xBA 0xE3 0xE7 0x5D LOG2 SELFBALANCE 0xCB 0xBD XOR 0xCC 0x24 GASPRICE 0x23 0xD1 PUSH5 0x736F6C6343 STOP ADDMOD STOP STOP CALLER "
		},
		"gasEstimates": {
			"creation": {
				"codeDepositCost": "1869200",
				"executionCost": "1976",
				"totalCost": "1871176"
			},
			"external": {
				"_minters(uint256)": "2150",
				"_setBot(address,bool)": "22196",
				"adLockToken()": "1137",
				"addMinter(address)": "42908",
				"allowance(address,address)": "infinite",
				"approve(address,uint256)": "22629",
				"balanceOf(address)": "infinite",
				"burn(address,uint256)": "infinite",
				"decimals()": "1069",
				"decreaseAllowance(address,uint256)": "infinite",
				"increaseAllowance(address,uint256)": "infinite",
				"initialize(string,string,address,address)": "infinite",
				"name()": "infinite",
				"owner()": "1115",
				"renounceOwnership()": "24312",
				"symbol()": "infinite",
				"teamLockToken()": "1181",
				"totalSupply()": "1096",
				"transfer(address,uint256)": "infinite",
				"transferFrom(address,address,uint256)": "infinite",
				"transferOwnership(address)": "24571"
			}
		},
		"methodIdentifiers": {
			"_minters(uint256)": "2a29ad14",
			"_setBot(address,bool)": "72d1c9fe",
			"adLockToken()": "64210fa9",
			"addMinter(address)": "983b2d56",
			"allowance(address,address)": "dd62ed3e",
			"approve(address,uint256)": "095ea7b3",
			"balanceOf(address)": "70a08231",
			"burn(address,uint256)": "9dc29fac",
			"decimals()": "313ce567",
			"decreaseAllowance(address,uint256)": "a457c2d7",
			"increaseAllowance(address,uint256)": "39509351",
			"initialize(string,string,address,address)": "8f15b414",
			"name()": "06fdde03",
			"owner()": "8da5cb5b",
			"renounceOwnership()": "715018a6",
			"symbol()": "95d89b41",
			"teamLockToken()": "964bca5f",
			"totalSupply()": "18160ddd",
			"transfer(address,uint256)": "a9059cbb",
			"transferFrom(address,address,uint256)": "23b872dd",
			"transferOwnership(address)": "f2fde38b"
		}
	},
	"abi": [
		{
			"anonymous": false,
			"inputs": [
				{
					"indexed": true,
					"internalType": "address",
					"name": "owner",
					"type": "address"
				},
				{
					"indexed": true,
					"internalType": "address",
					"name": "spender",
					"type": "address"
				},
				{
					"indexed": false,
					"internalType": "uint256",
					"name": "value",
					"type": "uint256"
				}
			],
			"name": "Approval",
			"type": "event"
		},
		{
			"anonymous": false,
			"inputs": [
				{
					"indexed": true,
					"internalType": "address",
					"name": "previousOwner",
					"type": "address"
				},
				{
					"indexed": true,
					"internalType": "address",
					"name": "newOwner",
					"type": "address"
				}
			],
			"name": "OwnershipTransferred",
			"type": "event"
		},
		{
			"anonymous": false,
			"inputs": [
				{
					"indexed": true,
					"internalType": "address",
					"name": "from",
					"type": "address"
				},
				{
					"indexed": true,
					"internalType": "address",
					"name": "to",
					"type": "address"
				},
				{
					"indexed": false,
					"internalType": "uint256",
					"name": "value",
					"type": "uint256"
				}
			],
			"name": "Transfer",
			"type": "event"
		},
		{
			"inputs": [
				{
					"internalType": "uint256",
					"name": "",
					"type": "uint256"
				}
			],
			"name": "_minters",
			"outputs": [
				{
					"internalType": "address",
					"name": "",
					"type": "address"
				}
			],
			"stateMutability": "view",
			"type": "function"
		},
		{
			"inputs": [
				{
					"internalType": "address",
					"name": "from",
					"type": "address"
				},
				{
					"internalType": "bool",
					"name": "value",
					"type": "bool"
				}
			],
			"name": "_setBot",
			"outputs": [],
			"stateMutability": "nonpayable",
			"type": "function"
		},
		{
			"inputs": [],
			"name": "adLockToken",
			"outputs": [
				{
					"internalType": "contract TokenVesting",
					"name": "",
					"type": "address"
				}
			],
			"stateMutability": "view",
			"type": "function"
		},
		{
			"inputs": [
				{
					"internalType": "address",
					"name": "_to",
					"type": "address"
				}
			],
			"name": "addMinter",
			"outputs": [],
			"stateMutability": "nonpayable",
			"type": "function"
		},
		{
			"inputs": [
				{
					"internalType": "address",
					"name": "owner",
					"type": "address"
				},
				{
					"internalType": "address",
					"name": "spender",
					"type": "address"
				}
			],
			"name": "allowance",
			"outputs": [
				{
					"internalType": "uint256",
					"name": "",
					"type": "uint256"
				}
			],
			"stateMutability": "view",
			"type": "function"
		},
		{
			"inputs": [
				{
					"internalType": "address",
					"name": "spender",
					"type": "address"
				},
				{
					"internalType": "uint256",
					"name": "amount",
					"type": "uint256"
				}
			],
			"name": "approve",
			"outputs": [
				{
					"internalType": "bool",
					"name": "",
					"type": "bool"
				}
			],
			"stateMutability": "nonpayable",
			"type": "function"
		},
		{
			"inputs": [
				{
					"internalType": "address",
					"name": "account",
					"type": "address"
				}
			],
			"name": "balanceOf",
			"outputs": [
				{
					"internalType": "uint256",
					"name": "",
					"type": "uint256"
				}
			],
			"stateMutability": "view",
			"type": "function"
		},
		{
			"inputs": [
				{
					"internalType": "address",
					"name": "_from",
					"type": "address"
				},
				{
					"internalType": "uint256",
					"name": "_amount",
					"type": "uint256"
				}
			],
			"name": "burn",
			"outputs": [],
			"stateMutability": "nonpayable",
			"type": "function"
		},
		{
			"inputs": [],
			"name": "decimals",
			"outputs": [
				{
					"internalType": "uint8",
					"name": "",
					"type": "uint8"
				}
			],
			"stateMutability": "view",
			"type": "function"
		},
		{
			"inputs": [
				{
					"internalType": "address",
					"name": "spender",
					"type": "address"
				},
				{
					"internalType": "uint256",
					"name": "subtractedValue",
					"type": "uint256"
				}
			],
			"name": "decreaseAllowance",
			"outputs": [
				{
					"internalType": "bool",
					"name": "",
					"type": "bool"
				}
			],
			"stateMutability": "nonpayable",
			"type": "function"
		},
		{
			"inputs": [
				{
					"internalType": "address",
					"name": "spender",
					"type": "address"
				},
				{
					"internalType": "uint256",
					"name": "addedValue",
					"type": "uint256"
				}
			],
			"name": "increaseAllowance",
			"outputs": [
				{
					"internalType": "bool",
					"name": "",
					"type": "bool"
				}
			],
			"stateMutability": "nonpayable",
			"type": "function"
		},
		{
			"inputs": [
				{
					"internalType": "string",
					"name": "name_",
					"type": "string"
				},
				{
					"internalType": "string",
					"name": "symbol_",
					"type": "string"
				},
				{
					"internalType": "address",
					"name": "dig_",
					"type": "address"
				},
				{
					"internalType": "address",
					"name": "airdrop_",
					"type": "address"
				}
			],
			"name": "initialize",
			"outputs": [],
			"stateMutability": "nonpayable",
			"type": "function"
		},
		{
			"inputs": [],
			"name": "name",
			"outputs": [
				{
					"internalType": "string",
					"name": "",
					"type": "string"
				}
			],
			"stateMutability": "view",
			"type": "function"
		},
		{
			"inputs": [],
			"name": "owner",
			"outputs": [
				{
					"internalType": "address",
					"name": "",
					"type": "address"
				}
			],
			"stateMutability": "view",
			"type": "function"
		},
		{
			"inputs": [],
			"name": "renounceOwnership",
			"outputs": [],
			"stateMutability": "nonpayable",
			"type": "function"
		},
		{
			"inputs": [],
			"name": "symbol",
			"outputs": [
				{
					"internalType": "string",
					"name": "",
					"type": "string"
				}
			],
			"stateMutability": "view",
			"type": "function"
		},
		{
			"inputs": [],
			"name": "teamLockToken",
			"outputs": [
				{
					"internalType": "contract TokenVesting",
					"name": "",
					"type": "address"
				}
			],
			"stateMutability": "view",
			"type": "function"
		},
		{
			"inputs": [],
			"name": "totalSupply",
			"outputs": [
				{
					"internalType": "uint256",
					"name": "",
					"type": "uint256"
				}
			],
			"stateMutability": "view",
			"type": "function"
		},
		{
			"inputs": [
				{
					"internalType": "address",
					"name": "recipient",
					"type": "address"
				},
				{
					"internalType": "uint256",
					"name": "amount",
					"type": "uint256"
				}
			],
			"name": "transfer",
			"outputs": [
				{
					"internalType": "bool",
					"name": "",
					"type": "bool"
				}
			],
			"stateMutability": "nonpayable",
			"type": "function"
		},
		{
			"inputs": [
				{
					"internalType": "address",
					"name": "sender",
					"type": "address"
				},
				{
					"internalType": "address",
					"name": "recipient",
					"type": "address"
				},
				{
					"internalType": "uint256",
					"name": "amount",
					"type": "uint256"
				}
			],
			"name": "transferFrom",
			"outputs": [
				{
					"internalType": "bool",
					"name": "",
					"type": "bool"
				}
			],
			"stateMutability": "nonpayable",
			"type": "function"
		},
		{
			"inputs": [
				{
					"internalType": "address",
					"name": "newOwner",
					"type": "address"
				}
			],
			"name": "transferOwnership",
			"outputs": [],
			"stateMutability": "nonpayable",
			"type": "function"
		}
	]
}