{
  "contractName": "Token",
  "abi": [
    {
      "anonymous": false,
      "inputs": [
        {
          "indexed": true,
          "internalType": "address",
          "name": "owner",
          "type": "address"
        },
        {
          "indexed": true,
          "internalType": "address",
          "name": "spender",
          "type": "address"
        },
        {
          "indexed": false,
          "internalType": "uint256",
          "name": "value",
          "type": "uint256"
        }
      ],
      "name": "Approval",
      "type": "event"
    },
    {
      "anonymous": false,
      "inputs": [
        {
          "indexed": true,
          "internalType": "address",
          "name": "previousOwner",
          "type": "address"
        },
        {
          "indexed": true,
          "internalType": "address",
          "name": "newOwner",
          "type": "address"
        }
      ],
      "name": "OwnershipTransferred",
      "type": "event"
    },
    {
      "anonymous": false,
      "inputs": [
        {
          "indexed": true,
          "internalType": "address",
          "name": "from",
          "type": "address"
        },
        {
          "indexed": true,
          "internalType": "address",
          "name": "to",
          "type": "address"
        },
        {
          "indexed": false,
          "internalType": "uint256",
          "name": "value",
          "type": "uint256"
        }
      ],
      "name": "Transfer",
      "type": "event"
    },
    {
      "inputs": [
        {
          "internalType": "uint256",
          "name": "",
          "type": "uint256"
        }
      ],
      "name": "_minters",
      "outputs": [
        {
          "internalType": "address",
          "name": "",
          "type": "address"
        }
      ],
      "stateMutability": "view",
      "type": "function",
      "constant": true
    },
    {
      "inputs": [
        {
          "internalType": "address",
          "name": "from",
          "type": "address"
        },
        {
          "internalType": "bool",
          "name": "value",
          "type": "bool"
        }
      ],
      "name": "_setBot",
      "outputs": [],
      "stateMutability": "nonpayable",
      "type": "function"
    },
    {
      "inputs": [],
      "name": "adLockToken",
      "outputs": [
        {
          "internalType": "contract TokenVesting",
          "name": "",
          "type": "address"
        }
      ],
      "stateMutability": "view",
      "type": "function",
      "constant": true
    },
    {
      "inputs": [
        {
          "internalType": "address",
          "name": "owner",
          "type": "address"
        },
        {
          "internalType": "address",
          "name": "spender",
          "type": "address"
        }
      ],
      "name": "allowance",
      "outputs": [
        {
          "internalType": "uint256",
          "name": "",
          "type": "uint256"
        }
      ],
      "stateMutability": "view",
      "type": "function",
      "constant": true
    },
    {
      "inputs": [
        {
          "internalType": "address",
          "name": "spender",
          "type": "address"
        },
        {
          "internalType": "uint256",
          "name": "amount",
          "type": "uint256"
        }
      ],
      "name": "approve",
      "outputs": [
        {
          "internalType": "bool",
          "name": "",
          "type": "bool"
        }
      ],
      "stateMutability": "nonpayable",
      "type": "function"
    },
    {
      "inputs": [
        {
          "internalType": "address",
          "name": "account",
          "type": "address"
        }
      ],
      "name": "balanceOf",
      "outputs": [
        {
          "internalType": "uint256",
          "name": "",
          "type": "uint256"
        }
      ],
      "stateMutability": "view",
      "type": "function",
      "constant": true
    },
    {
      "inputs": [],
      "name": "decimals",
      "outputs": [
        {
          "internalType": "uint8",
          "name": "",
          "type": "uint8"
        }
      ],
      "stateMutability": "view",
      "type": "function",
      "constant": true
    },
    {
      "inputs": [
        {
          "internalType": "address",
          "name": "spender",
          "type": "address"
        },
        {
          "internalType": "uint256",
          "name": "subtractedValue",
          "type": "uint256"
        }
      ],
      "name": "decreaseAllowance",
      "outputs": [
        {
          "internalType": "bool",
          "name": "",
          "type": "bool"
        }
      ],
      "stateMutability": "nonpayable",
      "type": "function"
    },
    {
      "inputs": [
        {
          "internalType": "address",
          "name": "spender",
          "type": "address"
        },
        {
          "internalType": "uint256",
          "name": "addedValue",
          "type": "uint256"
        }
      ],
      "name": "increaseAllowance",
      "outputs": [
        {
          "internalType": "bool",
          "name": "",
          "type": "bool"
        }
      ],
      "stateMutability": "nonpayable",
      "type": "function"
    },
    {
      "inputs": [],
      "name": "name",
      "outputs": [
        {
          "internalType": "string",
          "name": "",
          "type": "string"
        }
      ],
      "stateMutability": "view",
      "type": "function",
      "constant": true
    },
    {
      "inputs": [],
      "name": "owner",
      "outputs": [
        {
          "internalType": "address",
          "name": "",
          "type": "address"
        }
      ],
      "stateMutability": "view",
      "type": "function",
      "constant": true
    },
    {
      "inputs": [],
      "name": "renounceOwnership",
      "outputs": [],
      "stateMutability": "nonpayable",
      "type": "function"
    },
    {
      "inputs": [],
      "name": "symbol",
      "outputs": [
        {
          "internalType": "string",
          "name": "",
          "type": "string"
        }
      ],
      "stateMutability": "view",
      "type": "function",
      "constant": true
    },
    {
      "inputs": [],
      "name": "teamLockToken",
      "outputs": [
        {
          "internalType": "contract TokenVesting",
          "name": "",
          "type": "address"
        }
      ],
      "stateMutability": "view",
      "type": "function",
      "constant": true
    },
    {
      "inputs": [],
      "name": "totalSupply",
      "outputs": [
        {
          "internalType": "uint256",
          "name": "",
          "type": "uint256"
        }
      ],
      "stateMutability": "view",
      "type": "function",
      "constant": true
    },
    {
      "inputs": [
        {
          "internalType": "address",
          "name": "recipient",
          "type": "address"
        },
        {
          "internalType": "uint256",
          "name": "amount",
          "type": "uint256"
        }
      ],
      "name": "transfer",
      "outputs": [
        {
          "internalType": "bool",
          "name": "",
          "type": "bool"
        }
      ],
      "stateMutability": "nonpayable",
      "type": "function"
    },
    {
      "inputs": [
        {
          "internalType": "address",
          "name": "sender",
          "type": "address"
        },
        {
          "internalType": "address",
          "name": "recipient",
          "type": "address"
        },
        {
          "internalType": "uint256",
          "name": "amount",
          "type": "uint256"
        }
      ],
      "name": "transferFrom",
      "outputs": [
        {
          "internalType": "bool",
          "name": "",
          "type": "bool"
        }
      ],
      "stateMutability": "nonpayable",
      "type": "function"
    },
    {
      "inputs": [
        {
          "internalType": "address",
          "name": "newOwner",
          "type": "address"
        }
      ],
      "name": "transferOwnership",
      "outputs": [],
      "stateMutability": "nonpayable",
      "type": "function"
    },
    {
      "inputs": [
        {
          "internalType": "string",
          "name": "name_",
          "type": "string"
        },
        {
          "internalType": "string",
          "name": "symbol_",
          "type": "string"
        },
        {
          "internalType": "address",
          "name": "dig_",
          "type": "address"
        },
        {
          "internalType": "address",
          "name": "airdrop_",
          "type": "address"
        }
      ],
      "name": "initialize",
      "outputs": [],
      "stateMutability": "nonpayable",
      "type": "function"
    },
    {
      "inputs": [
        {
          "internalType": "address",
          "name": "_to",
          "type": "address"
        }
      ],
      "name": "addMinter",
      "outputs": [],
      "stateMutability": "nonpayable",
      "type": "function"
    },
    {
      "inputs": [
        {
          "internalType": "address",
          "name": "_from",
          "type": "address"
        },
        {
          "internalType": "uint256",
          "name": "_amount",
          "type": "uint256"
        }
      ],
      "name": "burn",
      "outputs": [],
      "stateMutability": "nonpayable",
      "type": "function"
    }
  ],
  "bytecode": "0x608060405234801561001057600080fd5b5061225c806100206000396000f3fe60806040523480156200001157600080fd5b5060043610620001515760003560e01c806372d1c9fe11620000c7578063983b2d561162000086578063983b2d5614620002d15780639dc29fac14620002e8578063a457c2d714620002ff578063a9059cbb1462000316578063dd62ed3e146200032d578063f2fde38b146200036957600080fd5b806372d1c9fe14620002735780638da5cb5b146200028a5780638f15b414146200029c57806395d89b4114620002b3578063964bca5f14620002bd57600080fd5b8063313ce5671162000114578063313ce56714620001fa57806339509351146200021057806364210fa9146200022757806370a08231146200023b578063715018a6146200026757600080fd5b806306fdde031462000156578063095ea7b3146200017857806318160ddd14620001a057806323b872dd14620001b35780632a29ad1414620001ca575b600080fd5b6200016062000380565b6040516200016f9190620016ca565b60405180910390f35b6200018f62000189366004620015f3565b6200041a565b60405190151581526020016200016f565b6099545b6040519081526020016200016f565b6200018f620001c436600462001572565b62000432565b620001e1620001db366004620016b0565b620004a2565b6040516001600160a01b0390911681526020016200016f565b609c5460405160ff90911681526020016200016f565b6200018f62000221366004620015f3565b620004cd565b60cb54620001e1906001600160a01b031681565b620001a46200024c3660046200151c565b6001600160a01b031660009081526097602052604090205490565b6200027162000506565b005b6200027162000284366004620015b3565b62000586565b6065546001600160a01b0316620001e1565b62000271620002ad36600462001620565b620005de565b62000160620007f8565b60cc54620001e1906001600160a01b031681565b62000271620002e23660046200151c565b62000809565b62000271620002f9366004620015f3565b62000888565b6200018f62000310366004620015f3565b6200095f565b6200018f62000327366004620015f3565b620009b2565b620001a46200033e3660046200153a565b6001600160a01b03918216600090815260986020908152604080832093909416825291909152205490565b620002716200037a3660046200151c565b620009c1565b6060609a80546200039190620017da565b80601f0160208091040260200160405190810160405280929190818152602001828054620003bf90620017da565b8015620004105780601f10620003e45761010080835404028352916020019162000410565b820191906000526020600020905b815481529060010190602001808311620003f257829003601f168201915b5050505050905090565b60006200042933848462000ab1565b50600192915050565b60006200044184848462000bda565b6200049884336200049285604051806060016040528060288152602001620021da602891396001600160a01b038a166000908152609860209081526040808320338452909152902054919062000d77565b62000ab1565b5060019392505050565b60ca8181548110620004b357600080fd5b6000918252602090912001546001600160a01b0316905081565b3360008181526098602090815260408083206001600160a01b038716845290915281205490916200042991859062000492908662000db6565b6065546001600160a01b031633146200053c5760405162461bcd60e51b8152600401620005339062001722565b60405180910390fd5b6065546040516000916001600160a01b0316907f8be0079c531659141344cd1fd0a4f28419497f9722a3daafe3b4186f6b6457e0908390a3606580546001600160a01b0319169055565b6065546001600160a01b03163314620005b35760405162461bcd60e51b8152600401620005339062001722565b6001600160a01b03919091166000908152609d60205260409020805460ff1916911515919091179055565b600054610100900460ff1680620005f45750303b155b8062000603575060005460ff16155b620006225760405162461bcd60e51b8152600401620005339062001757565b600054610100900460ff1615801562000645576000805461ffff19166101011790555b6200064f62000e20565b6200065b858562000eb1565b334262278d0063018b82006040516200067490620013b6565b6001600160a01b039094168452602084019290925260408301526060820152608001604051809103906000f080158015620006b3573d6000803e3d6000fd5b5060cc60006101000a8154816001600160a01b0302191690836001600160a01b03160217905550334262278d0062c5c100604051620006f290620013b6565b6001600160a01b039094168452602084019290925260408301526060820152608001604051809103906000f08015801562000731573d6000803e3d6000fd5b5060cb80546001600160a01b0319166001600160a01b039290921691909117905562000769336a52b7d2dcc80cd2e400000062000f45565b62000781836b024306c4097859c43c00000062000f45565b62000798826a52b7d2dcc80cd2e400000062000f45565b60cc54620007bb906001600160a01b03166a295be96e6406697200000062000f45565b60cb54620007de906001600160a01b03166a295be96e6406697200000062000f45565b8015620007f1576000805461ff00191690555b5050505050565b6060609b80546200039190620017da565b6065546001600160a01b03163314620008365760405162461bcd60e51b8152600401620005339062001722565b60ca80546001810182556000919091527f42d72674974f694b5f5159593243114d38a5c39c89d6b62fee061ff523240ee10180546001600160a01b0319166001600160a01b0392909216919091179055565b6000805b60ca54811015620008f257336001600160a01b031660ca8281548110620008b757620008b76200184b565b6000918252602090912001546001600160a01b03161415620008dd5760019150620008f2565b80620008e98162001817565b9150506200088c565b50806200094e5760405162461bcd60e51b8152602060048201526024808201527f2149734d696e7465723a2063616c6c6572206973206e6f742066726f6d206d69604482015263373a32b960e11b606482015260840162000533565b6200095a838362001040565b505050565b6000620004293384620004928560405180606001604052806025815260200162002202602591393360009081526098602090815260408083206001600160a01b038d168452909152902054919062000d77565b60006200042933848462000bda565b6065546001600160a01b03163314620009ee5760405162461bcd60e51b8152600401620005339062001722565b6001600160a01b03811662000a555760405162461bcd60e51b815260206004820152602660248201527f4f776e61626c653a206e6577206f776e657220697320746865207a65726f206160448201526564647265737360d01b606482015260840162000533565b6065546040516001600160a01b038084169216907f8be0079c531659141344cd1fd0a4f28419497f9722a3daafe3b4186f6b6457e090600090a3606580546001600160a01b0319166001600160a01b0392909216919091179055565b6001600160a01b03831662000b155760405162461bcd60e51b8152602060048201526024808201527f45524332303a20617070726f76652066726f6d20746865207a65726f206164646044820152637265737360e01b606482015260840162000533565b6001600160a01b03821662000b785760405162461bcd60e51b815260206004820152602260248201527f45524332303a20617070726f766520746f20746865207a65726f206164647265604482015261737360f01b606482015260840162000533565b6001600160a01b0383811660008181526098602090815260408083209487168084529482529182902085905590518481527f8c5be1e5ebec7d5bd14f71427d1e84f3dd0314c0f7b2291e5b200ac8c7c3b92591015b60405180910390a3505050565b6001600160a01b03831662000c405760405162461bcd60e51b815260206004820152602560248201527f45524332303a207472616e736665722066726f6d20746865207a65726f206164604482015264647265737360d81b606482015260840162000533565b6001600160a01b03821662000ca45760405162461bcd60e51b815260206004820152602360248201527f45524332303a207472616e7366657220746f20746865207a65726f206164647260448201526265737360e81b606482015260840162000533565b62000cb18383836200115a565b62000cf181604051806060016040528060268152602001620021b4602691396001600160a01b038616600090815260976020526040902054919062000d77565b6001600160a01b03808516600090815260976020526040808220939093559084168152205462000d22908262000db6565b6001600160a01b0380841660008181526097602052604090819020939093559151908516907fddf252ad1be2c89b69c2b068fc378daa952ba7f163c4a11628f55a4df523b3ef9062000bcd9085815260200190565b6000818484111562000d9e5760405162461bcd60e51b8152600401620005339190620016ca565b50600062000dad8486620017c0565b95945050505050565b60008062000dc58385620017a5565b90508381101562000e195760405162461bcd60e51b815260206004820152601b60248201527f536166654d6174683a206164646974696f6e206f766572666c6f770000000000604482015260640162000533565b9392505050565b600054610100900460ff168062000e365750303b155b8062000e45575060005460ff16155b62000e645760405162461bcd60e51b8152600401620005339062001757565b600054610100900460ff1615801562000e87576000805461ffff19166101011790555b62000e9162001181565b62000e9b620011fc565b801562000eae576000805461ff00191690555b50565b600054610100900460ff168062000ec75750303b155b8062000ed6575060005460ff16155b62000ef55760405162461bcd60e51b8152600401620005339062001757565b600054610100900460ff1615801562000f18576000805461ffff19166101011790555b62000f2262001181565b62000f2e8383620012bb565b80156200095a576000805461ff0019169055505050565b6001600160a01b03821662000f9d5760405162461bcd60e51b815260206004820152601f60248201527f45524332303a206d696e7420746f20746865207a65726f206164647265737300604482015260640162000533565b62000fab600083836200115a565b60995462000fba908262000db6565b6099556001600160a01b03821660009081526097602052604090205462000fe2908262000db6565b6001600160a01b0383166000818152609760205260408082209390935591519091907fddf252ad1be2c89b69c2b068fc378daa952ba7f163c4a11628f55a4df523b3ef90620010349085815260200190565b60405180910390a35050565b6001600160a01b038216620010a25760405162461bcd60e51b815260206004820152602160248201527f45524332303a206275726e2066726f6d20746865207a65726f206164647265736044820152607360f81b606482015260840162000533565b620010b0826000836200115a565b620010f08160405180606001604052806022815260200162002192602291396001600160a01b038516600090815260976020526040902054919062000d77565b6001600160a01b03831660009081526097602052604090205560995462001118908262001372565b6099556040518181526000906001600160a01b038416907fddf252ad1be2c89b69c2b068fc378daa952ba7f163c4a11628f55a4df523b3ef9060200162001034565b6001600160a01b0383166000908152609d602052604090205460ff16156200095a57600080fd5b600054610100900460ff1680620011975750303b155b80620011a6575060005460ff16155b620011c55760405162461bcd60e51b8152600401620005339062001757565b600054610100900460ff1615801562000e9b576000805461ffff1916610101179055801562000eae576000805461ff001916905550565b600054610100900460ff1680620012125750303b155b8062001221575060005460ff16155b620012405760405162461bcd60e51b8152600401620005339062001757565b600054610100900460ff1615801562001263576000805461ffff19166101011790555b606580546001600160a01b0319163390811790915560405181906000907f8be0079c531659141344cd1fd0a4f28419497f9722a3daafe3b4186f6b6457e0908290a350801562000eae576000805461ff001916905550565b600054610100900460ff1680620012d15750303b155b80620012e0575060005460ff16155b620012ff5760405162461bcd60e51b8152600401620005339062001757565b600054610100900460ff1615801562001322576000805461ffff19166101011790555b82516200133790609a906020860190620013c4565b5081516200134d90609b906020850190620013c4565b50609c805460ff1916601217905580156200095a576000805461ff0019169055505050565b600062000e1983836040518060400160405280601e81526020017f536166654d6174683a207375627472616374696f6e206f766572666c6f77000081525062000d77565b61091a806200187883390190565b828054620013d290620017da565b90600052602060002090601f016020900481019282620013f6576000855562001441565b82601f106200141157805160ff191683800117855562001441565b8280016001018555821562001441579182015b828111156200144157825182559160200191906001019062001424565b506200144f92915062001453565b5090565b5b808211156200144f576000815560010162001454565b80356001600160a01b03811681146200148257600080fd5b919050565b600082601f8301126200149957600080fd5b813567ffffffffffffffff80821115620014b757620014b762001861565b604051601f8301601f19908116603f01168101908282118183101715620014e257620014e262001861565b81604052838152866020858801011115620014fc57600080fd5b836020870160208301376000602085830101528094505050505092915050565b6000602082840312156200152f57600080fd5b62000e19826200146a565b600080604083850312156200154e57600080fd5b62001559836200146a565b915062001569602084016200146a565b90509250929050565b6000806000606084860312156200158857600080fd5b62001593846200146a565b9250620015a3602085016200146a565b9150604084013590509250925092565b60008060408385031215620015c757600080fd5b620015d2836200146a565b915060208301358015158114620015e857600080fd5b809150509250929050565b600080604083850312156200160757600080fd5b62001612836200146a565b946020939093013593505050565b600080600080608085870312156200163757600080fd5b843567ffffffffffffffff808211156200165057600080fd5b6200165e8883890162001487565b955060208701359150808211156200167557600080fd5b50620016848782880162001487565b93505062001695604086016200146a565b9150620016a5606086016200146a565b905092959194509250565b600060208284031215620016c357600080fd5b5035919050565b600060208083528351808285015260005b81811015620016f957858101830151858201604001528201620016db565b818111156200170c576000604083870101525b50601f01601f1916929092016040019392505050565b6020808252818101527f4f776e61626c653a2063616c6c6572206973206e6f7420746865206f776e6572604082015260600190565b6020808252602e908201527f436f6e747261637420696e7374616e63652068617320616c726561647920626560408201526d195b881a5b9a5d1a585b1a5e995960921b606082015260800190565b60008219821115620017bb57620017bb62001835565b500190565b600082821015620017d557620017d562001835565b500390565b600181811c90821680620017ef57607f821691505b602082108114156200181157634e487b7160e01b600052602260045260246000fd5b50919050565b60006000198214156200182e576200182e62001835565b5060010190565b634e487b7160e01b600052601160045260246000fd5b634e487b7160e01b600052603260045260246000fd5b634e487b7160e01b600052604160045260246000fdfe608060405234801561001057600080fd5b5060405161091a38038061091a83398101604081905261002f916100fc565b6001600160a01b03841661004257600080fd5b8082111561004f57600080fd5b600080546001600160a01b0319166001600160a01b03861617905560038190556100848383610092602090811b61031b17901c565b60015550506002555061016d565b60008061009f8385610147565b9050838110156100f55760405162461bcd60e51b815260206004820152601b60248201527f536166654d6174683a206164646974696f6e206f766572666c6f770000000000604482015260640160405180910390fd5b9392505050565b6000806000806080858703121561011257600080fd5b84516001600160a01b038116811461012957600080fd5b60208601516040870151606090970151919890975090945092505050565b6000821982111561016857634e487b7160e01b600052601160045260246000fd5b500190565b61079e8061017c6000396000f3fe608060405234801561001057600080fd5b50600436106100885760003560e01c8063384711cc1161005b578063384711cc146100da57806338af3eed146100ed5780639852595c14610118578063be9a65551461013857600080fd5b80630fb5a6b41461008d57806313d033c0146100a95780631726cbc8146100b257806319165587146100c5575b600080fd5b61009660035481565b6040519081526020015b60405180910390f35b61009660015481565b6100966100c03660046105ff565b610141565b6100d86100d33660046105ff565b610173565b005b6100966100e83660046105ff565b610212565b600054610100906001600160a01b031681565b6040516001600160a01b0390911681526020016100a0565b6100966101263660046105ff565b60046020526000908152604090205481565b61009660025481565b6001600160a01b03811660009081526004602052604081205461016d9061016784610212565b90610386565b92915050565b600061017e82610141565b90506000811161018d57600080fd5b6001600160a01b0382166000908152600460205260409020546101b0908261031b565b6001600160a01b0380841660008181526004602052604081209390935591546101db929116836103c8565b6040518181527ffb81f9b30d73d830c3544b34d827c08142579ee75710b490bab0b3995468c5659060200160405180910390a15050565b6040516370a0823160e01b815230600482015260009081906001600160a01b038416906370a082319060240160206040518083038186803b15801561025657600080fd5b505afa15801561026a573d6000803e3d6000fd5b505050506040513d601f19601f8201168201806040525081019061028e919061064a565b6001600160a01b038416600090815260046020526040812054919250906102b690839061031b565b90506001544210156102cc575060009392505050565b6003546002546102db9161031b565b42106102e8579392505050565b61031360035461030d6103066002544261038690919063ffffffff16565b84906104d6565b90610555565b949350505050565b60008061032883856106b2565b90508381101561037f5760405162461bcd60e51b815260206004820152601b60248201527f536166654d6174683a206164646974696f6e206f766572666c6f77000000000060448201526064015b60405180910390fd5b9392505050565b600061037f83836040518060400160405280601e81526020017f536166654d6174683a207375627472616374696f6e206f766572666c6f770000815250610597565b604080516001600160a01b038481166024830152604480830185905283518084039091018152606490920183526020820180516001600160e01b031663a9059cbb60e01b17905291516000928392908716916104249190610663565b6000604051808303816000865af19150503d8060008114610461576040519150601f19603f3d011682016040523d82523d6000602084013e610466565b606091505b50915091508180156104905750805115806104905750808060200190518101906104909190610628565b6104cf5760405162461bcd60e51b815260206004820152601060248201526f085514905394d1915497d1905253115160821b6044820152606401610376565b5050505050565b6000826104e55750600061016d565b60006104f183856106ec565b9050826104fe85836106ca565b1461037f5760405162461bcd60e51b815260206004820152602160248201527f536166654d6174683a206d756c7469706c69636174696f6e206f766572666c6f6044820152607760f81b6064820152608401610376565b600061037f83836040518060400160405280601a81526020017f536166654d6174683a206469766973696f6e206279207a65726f0000000000008152506105d1565b600081848411156105bb5760405162461bcd60e51b8152600401610376919061067f565b5060006105c8848661070b565b95945050505050565b600081836105f25760405162461bcd60e51b8152600401610376919061067f565b5060006105c884866106ca565b60006020828403121561061157600080fd5b81356001600160a01b038116811461037f57600080fd5b60006020828403121561063a57600080fd5b8151801515811461037f57600080fd5b60006020828403121561065c57600080fd5b5051919050565b60008251610675818460208701610722565b9190910192915050565b602081526000825180602084015261069e816040850160208701610722565b601f01601f19169190910160400192915050565b600082198211156106c5576106c5610752565b500190565b6000826106e757634e487b7160e01b600052601260045260246000fd5b500490565b600081600019048311821515161561070657610706610752565b500290565b60008282101561071d5761071d610752565b500390565b60005b8381101561073d578181015183820152602001610725565b8381111561074c576000848401525b50505050565b634e487b7160e01b600052601160045260246000fdfea2646970667358221220f25f3fd4cc90a590303569e9dc65e8bf65b6fa0ee622b32d63c10ec920411e4b64736f6c6343000807003345524332303a206275726e20616d6f756e7420657863656564732062616c616e636545524332303a207472616e7366657220616d6f756e7420657863656564732062616c616e636545524332303a207472616e7366657220616d6f756e74206578636565647320616c6c6f77616e636545524332303a2064656372656173656420616c6c6f77616e63652062656c6f77207a65726fa26469706673582212208f27fbb3f77de5039efaa563fcc376fb315650e3cc7b5e45cf5dcb3cf99ea23f64736f6c63430008070033",
  "immutableReferences": {},
  "source": "// SPDX-License-Identifier: MIT\npragma solidity ^0.8.0;\n\nimport \"../../lib0.8/upgrable/Ownable.sol\";\nimport \"../../lib0.8/upgrable/ERC20Blacklist.sol\";\n\nimport \"./TokenVesting.sol\";\n\ncontract Token is ERC20 {\n    address[] public _minters;\n    TokenVesting public adLockToken;\n    TokenVesting public teamLockToken;\n\n    // uint256 public constant MAX_SUPPLY = 10 * 1e8 * 1e18;\n\n    function initialize(\n        string memory name_,\n        string memory symbol_,\n        address dig_,\n        address airdrop_\n    ) public initializer {\n        Ownable.__Ownable_init();\n        ERC20.__ERC20_init(name_, symbol_);\n\n        teamLockToken = new TokenVesting(\n            msg.sender,\n            block.timestamp,\n            30 days,\n            300 days\n        );\n        adLockToken = new TokenVesting(\n            msg.sender,\n            block.timestamp,\n            30 days,\n            150 days\n        );\n\n        _mint(msg.sender, 1 * 1e8 * 1e18);\n        _mint(dig_, 7 * 1e8 * 1e18);\n        _mint(airdrop_, 1 * 1e8 * 1e18);\n        _mint(address(teamLockToken), 5 * 1e7 * 1e18);\n        _mint(address(adLockToken), 5 * 1e7 * 1e18);\n    }\n\n    // owner should be timelock.\n    function addMinter(address _to) external onlyOwner {\n        _minters.push(_to);\n    }\n\n    modifier onlyMinter() {\n        bool isMinter = false;\n        for (uint256 i = 0; i < _minters.length; i++) {\n            if (_minters[i] == _msgSender()) {\n                isMinter = true;\n                break;\n            }\n        }\n        require(isMinter, \"!IsMinter: caller is not from minter\");\n        _;\n    }\n\n    // function mint(address _to, uint256 _amount)\n    //     external\n    //     onlyMinter\n    // {\n    //     if (totalSupply() > MAX_SUPPLY) return;\n    //     _mint(_to, _amount);\n    // }\n\n    function burn(address _from, uint256 _amount) external onlyMinter {\n        _burn(_from, _amount);\n    }\n}\n",
  "sourcePath": "D:/git_progam/test_project/contracts/Token.sol",
  "compiler": {
    "name": "solc",
    "version": "0.8.7+commit.e28d00a7.Emscripten.clang"
  },
  "schemaVersion": "3.4.1",
  "updatedAt": "2022-03-21T07:29:01.298Z",
  "networkType": "ethereum",
  "devdoc": {
    "kind": "dev",
    "methods": {
      "allowance(address,address)": {
        "details": "See {IERC20-allowance}."
      },
      "approve(address,uint256)": {
        "details": "See {IERC20-approve}. Requirements: - `spender` cannot be the zero address."
      },
      "balanceOf(address)": {
        "details": "See {IERC20-balanceOf}."
      },
      "decimals()": {
        "details": "Returns the number of decimals used to get its user representation. For example, if `decimals` equals `2`, a balance of `505` tokens should be displayed to a user as `5,05` (`505 / 10 ** 2`). Tokens usually opt for a value of 18, imitating the relationship between Ether and Wei. This is the value {ERC20} uses, unless {_setupDecimals} is called. NOTE: This information is only used for _display_ purposes: it in no way affects any of the arithmetic of the contract, including {IERC20-balanceOf} and {IERC20-transfer}."
      },
      "decreaseAllowance(address,uint256)": {
        "details": "Atomically decreases the allowance granted to `spender` by the caller. This is an alternative to {approve} that can be used as a mitigation for problems described in {IERC20-approve}. Emits an {Approval} event indicating the updated allowance. Requirements: - `spender` cannot be the zero address. - `spender` must have allowance for the caller of at least `subtractedValue`."
      },
      "increaseAllowance(address,uint256)": {
        "details": "Atomically increases the allowance granted to `spender` by the caller. This is an alternative to {approve} that can be used as a mitigation for problems described in {IERC20-approve}. Emits an {Approval} event indicating the updated allowance. Requirements: - `spender` cannot be the zero address."
      },
      "name()": {
        "details": "Returns the name of the token."
      },
      "owner()": {
        "details": "Returns the address of the current owner."
      },
      "renounceOwnership()": {
        "details": "Leaves the contract without owner. It will not be possible to call `onlyOwner` functions anymore. Can only be called by the current owner. NOTE: Renouncing ownership will leave the contract without an owner, thereby removing any functionality that is only available to the owner."
      },
      "symbol()": {
        "details": "Returns the symbol of the token, usually a shorter version of the name."
      },
      "totalSupply()": {
        "details": "See {IERC20-totalSupply}."
      },
      "transfer(address,uint256)": {
        "details": "See {IERC20-transfer}. Requirements: - `recipient` cannot be the zero address. - the caller must have a balance of at least `amount`."
      },
      "transferFrom(address,address,uint256)": {
        "details": "See {IERC20-transferFrom}. Emits an {Approval} event indicating the updated allowance. This is not required by the EIP. See the note at the beginning of {ERC20}. Requirements: - `sender` and `recipient` cannot be the zero address. - `sender` must have a balance of at least `amount`. - the caller must have allowance for ``sender``'s tokens of at least `amount`."
      },
      "transferOwnership(address)": {
        "details": "Transfers ownership of the contract to a new account (`newOwner`). Can only be called by the current owner."
      }
    },
    "version": 1
  },
  "userdoc": {
    "kind": "user",
    "methods": {},
    "version": 1
  }
}