{
  "contractName": "TokenVesting",
  "abi": [
    {
      "inputs": [
        {
          "internalType": "address",
          "name": "_beneficiary",
          "type": "address"
        },
        {
          "internalType": "uint256",
          "name": "_start",
          "type": "uint256"
        },
        {
          "internalType": "uint256",
          "name": "_cliff",
          "type": "uint256"
        },
        {
          "internalType": "uint256",
          "name": "_duration",
          "type": "uint256"
        }
      ],
      "stateMutability": "nonpayable",
      "type": "constructor"
    },
    {
      "anonymous": false,
      "inputs": [
        {
          "indexed": false,
          "internalType": "uint256",
          "name": "amount",
          "type": "uint256"
        }
      ],
      "name": "Released",
      "type": "event"
    },
    {
      "inputs": [],
      "name": "beneficiary",
      "outputs": [
        {
          "internalType": "address",
          "name": "",
          "type": "address"
        }
      ],
      "stateMutability": "view",
      "type": "function"
    },
    {
      "inputs": [],
      "name": "cliff",
      "outputs": [
        {
          "internalType": "uint256",
          "name": "",
          "type": "uint256"
        }
      ],
      "stateMutability": "view",
      "type": "function"
    },
    {
      "inputs": [],
      "name": "duration",
      "outputs": [
        {
          "internalType": "uint256",
          "name": "",
          "type": "uint256"
        }
      ],
      "stateMutability": "view",
      "type": "function"
    },
    {
      "inputs": [
        {
          "internalType": "address",
          "name": "",
          "type": "address"
        }
      ],
      "name": "released",
      "outputs": [
        {
          "internalType": "uint256",
          "name": "",
          "type": "uint256"
        }
      ],
      "stateMutability": "view",
      "type": "function"
    },
    {
      "inputs": [],
      "name": "start",
      "outputs": [
        {
          "internalType": "uint256",
          "name": "",
          "type": "uint256"
        }
      ],
      "stateMutability": "view",
      "type": "function"
    },
    {
      "inputs": [
        {
          "internalType": "address",
          "name": "token",
          "type": "address"
        }
      ],
      "name": "release",
      "outputs": [],
      "stateMutability": "nonpayable",
      "type": "function"
    },
    {
      "inputs": [
        {
          "internalType": "address",
          "name": "token",
          "type": "address"
        }
      ],
      "name": "releasableAmount",
      "outputs": [
        {
          "internalType": "uint256",
          "name": "",
          "type": "uint256"
        }
      ],
      "stateMutability": "view",
      "type": "function"
    },
    {
      "inputs": [
        {
          "internalType": "address",
          "name": "token",
          "type": "address"
        }
      ],
      "name": "vestedAmount",
      "outputs": [
        {
          "internalType": "uint256",
          "name": "",
          "type": "uint256"
        }
      ],
      "stateMutability": "view",
      "type": "function"
    }
  ],
  "bytecode": "0x608060405234801561001057600080fd5b5060405161091a38038061091a83398101604081905261002f916100fc565b6001600160a01b03841661004257600080fd5b8082111561004f57600080fd5b600080546001600160a01b0319166001600160a01b03861617905560038190556100848383610092602090811b61031b17901c565b60015550506002555061016d565b60008061009f8385610147565b9050838110156100f55760405162461bcd60e51b815260206004820152601b60248201527f536166654d6174683a206164646974696f6e206f766572666c6f770000000000604482015260640160405180910390fd5b9392505050565b6000806000806080858703121561011257600080fd5b84516001600160a01b038116811461012957600080fd5b60208601516040870151606090970151919890975090945092505050565b6000821982111561016857634e487b7160e01b600052601160045260246000fd5b500190565b61079e8061017c6000396000f3fe608060405234801561001057600080fd5b50600436106100885760003560e01c8063384711cc1161005b578063384711cc146100da57806338af3eed146100ed5780639852595c14610118578063be9a65551461013857600080fd5b80630fb5a6b41461008d57806313d033c0146100a95780631726cbc8146100b257806319165587146100c5575b600080fd5b61009660035481565b6040519081526020015b60405180910390f35b61009660015481565b6100966100c03660046105ff565b610141565b6100d86100d33660046105ff565b610173565b005b6100966100e83660046105ff565b610212565b600054610100906001600160a01b031681565b6040516001600160a01b0390911681526020016100a0565b6100966101263660046105ff565b60046020526000908152604090205481565b61009660025481565b6001600160a01b03811660009081526004602052604081205461016d9061016784610212565b90610386565b92915050565b600061017e82610141565b90506000811161018d57600080fd5b6001600160a01b0382166000908152600460205260409020546101b0908261031b565b6001600160a01b0380841660008181526004602052604081209390935591546101db929116836103c8565b6040518181527ffb81f9b30d73d830c3544b34d827c08142579ee75710b490bab0b3995468c5659060200160405180910390a15050565b6040516370a0823160e01b815230600482015260009081906001600160a01b038416906370a082319060240160206040518083038186803b15801561025657600080fd5b505afa15801561026a573d6000803e3d6000fd5b505050506040513d601f19601f8201168201806040525081019061028e919061064a565b6001600160a01b038416600090815260046020526040812054919250906102b690839061031b565b90506001544210156102cc575060009392505050565b6003546002546102db9161031b565b42106102e8579392505050565b61031360035461030d6103066002544261038690919063ffffffff16565b84906104d6565b90610555565b949350505050565b60008061032883856106b2565b90508381101561037f5760405162461bcd60e51b815260206004820152601b60248201527f536166654d6174683a206164646974696f6e206f766572666c6f77000000000060448201526064015b60405180910390fd5b9392505050565b600061037f83836040518060400160405280601e81526020017f536166654d6174683a207375627472616374696f6e206f766572666c6f770000815250610597565b604080516001600160a01b038481166024830152604480830185905283518084039091018152606490920183526020820180516001600160e01b031663a9059cbb60e01b17905291516000928392908716916104249190610663565b6000604051808303816000865af19150503d8060008114610461576040519150601f19603f3d011682016040523d82523d6000602084013e610466565b606091505b50915091508180156104905750805115806104905750808060200190518101906104909190610628565b6104cf5760405162461bcd60e51b815260206004820152601060248201526f085514905394d1915497d1905253115160821b6044820152606401610376565b5050505050565b6000826104e55750600061016d565b60006104f183856106ec565b9050826104fe85836106ca565b1461037f5760405162461bcd60e51b815260206004820152602160248201527f536166654d6174683a206d756c7469706c69636174696f6e206f766572666c6f6044820152607760f81b6064820152608401610376565b600061037f83836040518060400160405280601a81526020017f536166654d6174683a206469766973696f6e206279207a65726f0000000000008152506105d1565b600081848411156105bb5760405162461bcd60e51b8152600401610376919061067f565b5060006105c8848661070b565b95945050505050565b600081836105f25760405162461bcd60e51b8152600401610376919061067f565b5060006105c884866106ca565b60006020828403121561061157600080fd5b81356001600160a01b038116811461037f57600080fd5b60006020828403121561063a57600080fd5b8151801515811461037f57600080fd5b60006020828403121561065c57600080fd5b5051919050565b60008251610675818460208701610722565b9190910192915050565b602081526000825180602084015261069e816040850160208701610722565b601f01601f19169190910160400192915050565b600082198211156106c5576106c5610752565b500190565b6000826106e757634e487b7160e01b600052601260045260246000fd5b500490565b600081600019048311821515161561070657610706610752565b500290565b60008282101561071d5761071d610752565b500390565b60005b8381101561073d578181015183820152602001610725565b8381111561074c576000848401525b50505050565b634e487b7160e01b600052601160045260246000fdfea2646970667358221220f25f3fd4cc90a590303569e9dc65e8bf65b6fa0ee622b32d63c10ec920411e4b64736f6c63430008070033",
  "immutableReferences": {},
  "source": "// SPDX-License-Identifier: MIT\npragma solidity ^0.8.0;\n\nimport \"../../lib0.8/erc20/IERC20.sol\";\nimport \"../../lib0.8/erc20/SafeERC20.sol\";\nimport \"../../lib0.8/common/SafeMath.sol\";\n\n/**\n * @title TokenVesting\n * @dev A token holder contract that can release its token balance gradually like a\n * typical vesting scheme, with a cliff and vesting period. Optionally revocable by the\n * owner.\n */\ncontract TokenVesting {\n    using SafeMath for uint256;\n    using SafeERC20 for IERC20;\n\n    event Released(uint256 amount);\n\n    // token\n    address public beneficiary;\n\n    uint256 public cliff;\n    uint256 public start;\n    uint256 public duration;\n\n    mapping(address => uint256) public released;\n\n    /**\n     * @dev Creates a vesting contract that vests its balance of any ERC20 token to the\n     * _beneficiary, gradually in a linear fashion until _start + _duration. By then all\n     * of the balance will have vested.\n     * @param _beneficiary \n     * @param _cliff duration in seconds of the cliff in which tokens will begin to vest\n     * @param _duration token\n     */\n    // ERC20,_start + _duration\n    // \n    constructor(\n        address _beneficiary, //\n        uint256 _start, // Unix time------block.timestamp\n        uint256 _cliff, // 4125%1------10 days\n        uint256 _duration //4125%4--30 days\n    ) {\n        require(_beneficiary != address(0));\n        require(_cliff <= _duration);\n\n        beneficiary = _beneficiary;\n        duration = _duration;\n        cliff = _start.add(_cliff);\n        start = _start;\n    }\n\n    /**\n     * @notice Transfers vested tokens to beneficiary.\n     * @param token ERC20 token which is being vested\n     */\n    //token\n    function release(address token) public {\n        //unreleased:\n        uint256 unreleased = releasableAmount(token);\n\n        require(unreleased > 0);\n        //safeTransfer\n        released[token] = released[token].add(unreleased);\n        //beneficiary\n        IERC20(token).safeTransfer(beneficiary, unreleased);\n\n        emit Released(unreleased);\n    }\n\n    /**\n     * @dev Calculates the amount that has already vested but hasn't been released yet.\n     * @param token ERC20 token which is being vested\n     */\n    //=-sub\n    function releasableAmount(address token) public view returns (uint256) {\n        //released[token]=0released[token]\n        return vestedAmount(token).sub(released[token]);\n    }\n\n    /**\n     * @dev Calculates the amount that has already vested.\n     * @param token ERC20 token which is being vested\n     */\n    //muldiv\n    function vestedAmount(address token) public view returns (uint256) {\n        //(,)\n        uint256 currentBalance = IERC20(token).balanceOf(address(this));\n        //=+released[token]=0released[token]\n        uint256 totalBalance = currentBalance.add(released[token]);\n\n        if (block.timestamp < cliff) {\n            return 0;\n            //\n        } else if (block.timestamp >= start.add(duration)) {\n            return totalBalance;\n        } else {\n            //*()\n            return totalBalance.mul(block.timestamp.sub(start)).div(duration);\n        }\n    }\n}\n",
  "sourcePath": "D:/git_progam/test_project/contracts/TokenVesting.sol",
  "compiler": {
    "name": "solc",
    "version": "0.8.7+commit.e28d00a7.Emscripten.clang"
  },
  "schemaVersion": "3.4.1",
  "updatedAt": "2022-03-21T07:22:57.898Z",
  "devdoc": {
    "details": "A token holder contract that can release its token balance gradually like a typical vesting scheme, with a cliff and vesting period. Optionally revocable by the owner.",
    "kind": "dev",
    "methods": {
      "constructor": {
        "details": "Creates a vesting contract that vests its balance of any ERC20 token to the _beneficiary, gradually in a linear fashion until _start + _duration. By then all of the balance will have vested.",
        "params": {
          "_beneficiary": "",
          "_cliff": "duration in seconds of the cliff in which tokens will begin to vest",
          "_duration": "token"
        }
      },
      "releasableAmount(address)": {
        "details": "Calculates the amount that has already vested but hasn't been released yet.",
        "params": {
          "token": "ERC20 token which is being vested"
        }
      },
      "release(address)": {
        "params": {
          "token": "ERC20 token which is being vested"
        }
      },
      "vestedAmount(address)": {
        "details": "Calculates the amount that has already vested.",
        "params": {
          "token": "ERC20 token which is being vested"
        }
      }
    },
    "title": "TokenVesting",
    "version": 1
  },
  "userdoc": {
    "kind": "user",
    "methods": {
      "release(address)": {
        "notice": "Transfers vested tokens to beneficiary."
      }
    },
    "version": 1
  }
}