{
	"lib0.8/upgrable/ERC20Blacklist.sol": {
		"ERC20": {
			"abi": [
				{
					"anonymous": false,
					"inputs": [
						{
							"indexed": true,
							"internalType": "address",
							"name": "owner",
							"type": "address"
						},
						{
							"indexed": true,
							"internalType": "address",
							"name": "spender",
							"type": "address"
						},
						{
							"indexed": false,
							"internalType": "uint256",
							"name": "value",
							"type": "uint256"
						}
					],
					"name": "Approval",
					"type": "event"
				},
				{
					"anonymous": false,
					"inputs": [
						{
							"indexed": true,
							"internalType": "address",
							"name": "previousOwner",
							"type": "address"
						},
						{
							"indexed": true,
							"internalType": "address",
							"name": "newOwner",
							"type": "address"
						}
					],
					"name": "OwnershipTransferred",
					"type": "event"
				},
				{
					"anonymous": false,
					"inputs": [
						{
							"indexed": true,
							"internalType": "address",
							"name": "from",
							"type": "address"
						},
						{
							"indexed": true,
							"internalType": "address",
							"name": "to",
							"type": "address"
						},
						{
							"indexed": false,
							"internalType": "uint256",
							"name": "value",
							"type": "uint256"
						}
					],
					"name": "Transfer",
					"type": "event"
				},
				{
					"inputs": [
						{
							"internalType": "address",
							"name": "from",
							"type": "address"
						},
						{
							"internalType": "bool",
							"name": "value",
							"type": "bool"
						}
					],
					"name": "_setBot",
					"outputs": [],
					"stateMutability": "nonpayable",
					"type": "function"
				},
				{
					"inputs": [
						{
							"internalType": "address",
							"name": "owner",
							"type": "address"
						},
						{
							"internalType": "address",
							"name": "spender",
							"type": "address"
						}
					],
					"name": "allowance",
					"outputs": [
						{
							"internalType": "uint256",
							"name": "",
							"type": "uint256"
						}
					],
					"stateMutability": "view",
					"type": "function"
				},
				{
					"inputs": [
						{
							"internalType": "address",
							"name": "spender",
							"type": "address"
						},
						{
							"internalType": "uint256",
							"name": "amount",
							"type": "uint256"
						}
					],
					"name": "approve",
					"outputs": [
						{
							"internalType": "bool",
							"name": "",
							"type": "bool"
						}
					],
					"stateMutability": "nonpayable",
					"type": "function"
				},
				{
					"inputs": [
						{
							"internalType": "address",
							"name": "account",
							"type": "address"
						}
					],
					"name": "balanceOf",
					"outputs": [
						{
							"internalType": "uint256",
							"name": "",
							"type": "uint256"
						}
					],
					"stateMutability": "view",
					"type": "function"
				},
				{
					"inputs": [],
					"name": "decimals",
					"outputs": [
						{
							"internalType": "uint8",
							"name": "",
							"type": "uint8"
						}
					],
					"stateMutability": "view",
					"type": "function"
				},
				{
					"inputs": [
						{
							"internalType": "address",
							"name": "spender",
							"type": "address"
						},
						{
							"internalType": "uint256",
							"name": "subtractedValue",
							"type": "uint256"
						}
					],
					"name": "decreaseAllowance",
					"outputs": [
						{
							"internalType": "bool",
							"name": "",
							"type": "bool"
						}
					],
					"stateMutability": "nonpayable",
					"type": "function"
				},
				{
					"inputs": [
						{
							"internalType": "address",
							"name": "spender",
							"type": "address"
						},
						{
							"internalType": "uint256",
							"name": "addedValue",
							"type": "uint256"
						}
					],
					"name": "increaseAllowance",
					"outputs": [
						{
							"internalType": "bool",
							"name": "",
							"type": "bool"
						}
					],
					"stateMutability": "nonpayable",
					"type": "function"
				},
				{
					"inputs": [],
					"name": "name",
					"outputs": [
						{
							"internalType": "string",
							"name": "",
							"type": "string"
						}
					],
					"stateMutability": "view",
					"type": "function"
				},
				{
					"inputs": [],
					"name": "owner",
					"outputs": [
						{
							"internalType": "address",
							"name": "",
							"type": "address"
						}
					],
					"stateMutability": "view",
					"type": "function"
				},
				{
					"inputs": [],
					"name": "renounceOwnership",
					"outputs": [],
					"stateMutability": "nonpayable",
					"type": "function"
				},
				{
					"inputs": [],
					"name": "symbol",
					"outputs": [
						{
							"internalType": "string",
							"name": "",
							"type": "string"
						}
					],
					"stateMutability": "view",
					"type": "function"
				},
				{
					"inputs": [],
					"name": "totalSupply",
					"outputs": [
						{
							"internalType": "uint256",
							"name": "",
							"type": "uint256"
						}
					],
					"stateMutability": "view",
					"type": "function"
				},
				{
					"inputs": [
						{
							"internalType": "address",
							"name": "recipient",
							"type": "address"
						},
						{
							"internalType": "uint256",
							"name": "amount",
							"type": "uint256"
						}
					],
					"name": "transfer",
					"outputs": [
						{
							"internalType": "bool",
							"name": "",
							"type": "bool"
						}
					],
					"stateMutability": "nonpayable",
					"type": "function"
				},
				{
					"inputs": [
						{
							"internalType": "address",
							"name": "sender",
							"type": "address"
						},
						{
							"internalType": "address",
							"name": "recipient",
							"type": "address"
						},
						{
							"internalType": "uint256",
							"name": "amount",
							"type": "uint256"
						}
					],
					"name": "transferFrom",
					"outputs": [
						{
							"internalType": "bool",
							"name": "",
							"type": "bool"
						}
					],
					"stateMutability": "nonpayable",
					"type": "function"
				},
				{
					"inputs": [
						{
							"internalType": "address",
							"name": "newOwner",
							"type": "address"
						}
					],
					"name": "transferOwnership",
					"outputs": [],
					"stateMutability": "nonpayable",
					"type": "function"
				}
			],
			"devdoc": {
				"details": "Implementation of the {IERC20} interface. This implementation is agnostic to the way tokens are created. This means that a supply mechanism has to be added in a derived contract using {_mint}. For a generic mechanism see {ERC20PresetMinterPauser}. TIP: For a detailed writeup see our guide https://forum.zeppelin.solutions/t/how-to-implement-erc20-supply-mechanisms/226[How to implement supply mechanisms]. We have followed general OpenZeppelin guidelines: functions revert instead of returning `false` on failure. This behavior is nonetheless conventional and does not conflict with the expectations of ERC20 applications. Additionally, an {Approval} event is emitted on calls to {transferFrom}. This allows applications to reconstruct the allowance for all accounts just by listening to said events. Other implementations of the EIP may not emit these events, as it isn't required by the specification. Finally, the non-standard {decreaseAllowance} and {increaseAllowance} functions have been added to mitigate the well-known issues around setting allowances. See {IERC20-approve}.",
				"kind": "dev",
				"methods": {
					"allowance(address,address)": {
						"details": "See {IERC20-allowance}."
					},
					"approve(address,uint256)": {
						"details": "See {IERC20-approve}. Requirements: - `spender` cannot be the zero address."
					},
					"balanceOf(address)": {
						"details": "See {IERC20-balanceOf}."
					},
					"decimals()": {
						"details": "Returns the number of decimals used to get its user representation. For example, if `decimals` equals `2`, a balance of `505` tokens should be displayed to a user as `5,05` (`505 / 10 ** 2`). Tokens usually opt for a value of 18, imitating the relationship between Ether and Wei. This is the value {ERC20} uses, unless {_setupDecimals} is called. NOTE: This information is only used for _display_ purposes: it in no way affects any of the arithmetic of the contract, including {IERC20-balanceOf} and {IERC20-transfer}."
					},
					"decreaseAllowance(address,uint256)": {
						"details": "Atomically decreases the allowance granted to `spender` by the caller. This is an alternative to {approve} that can be used as a mitigation for problems described in {IERC20-approve}. Emits an {Approval} event indicating the updated allowance. Requirements: - `spender` cannot be the zero address. - `spender` must have allowance for the caller of at least `subtractedValue`."
					},
					"increaseAllowance(address,uint256)": {
						"details": "Atomically increases the allowance granted to `spender` by the caller. This is an alternative to {approve} that can be used as a mitigation for problems described in {IERC20-approve}. Emits an {Approval} event indicating the updated allowance. Requirements: - `spender` cannot be the zero address."
					},
					"name()": {
						"details": "Returns the name of the token."
					},
					"owner()": {
						"details": "Returns the address of the current owner."
					},
					"renounceOwnership()": {
						"details": "Leaves the contract without owner. It will not be possible to call `onlyOwner` functions anymore. Can only be called by the current owner. NOTE: Renouncing ownership will leave the contract without an owner, thereby removing any functionality that is only available to the owner."
					},
					"symbol()": {
						"details": "Returns the symbol of the token, usually a shorter version of the name."
					},
					"totalSupply()": {
						"details": "See {IERC20-totalSupply}."
					},
					"transfer(address,uint256)": {
						"details": "See {IERC20-transfer}. Requirements: - `recipient` cannot be the zero address. - the caller must have a balance of at least `amount`."
					},
					"transferFrom(address,address,uint256)": {
						"details": "See {IERC20-transferFrom}. Emits an {Approval} event indicating the updated allowance. This is not required by the EIP. See the note at the beginning of {ERC20}. Requirements: - `sender` and `recipient` cannot be the zero address. - `sender` must have a balance of at least `amount`. - the caller must have allowance for ``sender``'s tokens of at least `amount`."
					},
					"transferOwnership(address)": {
						"details": "Transfers ownership of the contract to a new account (`newOwner`). Can only be called by the current owner."
					}
				},
				"stateVariables": {
					"_antibots": {
						"details": "Hook that is called before any transfer of tokens. This includes minting and burning. Calling conditions: - when `from` and `to` are both non-zero, `amount` of ``from``'s tokens will be to transferred to `to`. - when `from` is zero, `amount` tokens will be minted for `to`. - when `to` is zero, `amount` of ``from``'s tokens will be burned. - `from` and `to` are never both zero. To learn more about hooks, head to xref:ROOT:extending-contracts.adoc#using-hooks[Using Hooks]."
					}
				},
				"version": 1
			},
			"evm": {
				"assembly": "    /* \"lib0.8/upgrable/ERC20Blacklist.sol\":1377:11274  contract ERC20 is Initializable, Context, Ownable, IERC20 {... */\n  mstore(0x40, 0x80)\n  callvalue\n  dup1\n  iszero\n  tag_1\n  jumpi\n  0x00\n  dup1\n  revert\ntag_1:\n  pop\n  dataSize(sub_0)\n  dup1\n  dataOffset(sub_0)\n  0x00\n  codecopy\n  0x00\n  return\nstop\n\nsub_0: assembly {\n        /* \"lib0.8/upgrable/ERC20Blacklist.sol\":1377:11274  contract ERC20 is Initializable, Context, Ownable, IERC20 {... */\n      mstore(0x40, 0x80)\n      callvalue\n      dup1\n      iszero\n      tag_1\n      jumpi\n      0x00\n      dup1\n      revert\n    tag_1:\n      pop\n      jumpi(tag_2, lt(calldatasize, 0x04))\n      shr(0xe0, calldataload(0x00))\n      dup1\n      0x715018a6\n      gt\n      tag_18\n      jumpi\n      dup1\n      0xa457c2d7\n      gt\n      tag_19\n      jumpi\n      dup1\n      0xa457c2d7\n      eq\n      tag_14\n      jumpi\n      dup1\n      0xa9059cbb\n      eq\n      tag_15\n      jumpi\n      dup1\n      0xdd62ed3e\n      eq\n      tag_16\n      jumpi\n      dup1\n      0xf2fde38b\n      eq\n      tag_17\n      jumpi\n      jump(tag_2)\n    tag_19:\n      dup1\n      0x715018a6\n      eq\n      tag_10\n      jumpi\n      dup1\n      0x72d1c9fe\n      eq\n      tag_11\n      jumpi\n      dup1\n      0x8da5cb5b\n      eq\n      tag_12\n      jumpi\n      dup1\n      0x95d89b41\n      eq\n      tag_13\n      jumpi\n      jump(tag_2)\n    tag_18:\n      dup1\n      0x23b872dd\n      gt\n      tag_20\n      jumpi\n      dup1\n      0x23b872dd\n      eq\n      tag_6\n      jumpi\n      dup1\n      0x313ce567\n      eq\n      tag_7\n      jumpi\n      dup1\n      0x39509351\n      eq\n      tag_8\n      jumpi\n      dup1\n      0x70a08231\n      eq\n      tag_9\n      jumpi\n      jump(tag_2)\n    tag_20:\n      dup1\n      0x06fdde03\n      eq\n      tag_3\n      jumpi\n      dup1\n      0x095ea7b3\n      eq\n      tag_4\n      jumpi\n      dup1\n      0x18160ddd\n      eq\n      tag_5\n      jumpi\n    tag_2:\n      0x00\n      dup1\n      revert\n        /* \"lib0.8/upgrable/ERC20Blacklist.sol\":2465:2546  function name() public view returns (string memory) {... */\n    tag_3:\n      tag_21\n      tag_22\n      jump\t// in\n    tag_21:\n      mload(0x40)\n      tag_23\n      swap2\n      swap1\n      tag_24\n      jump\t// in\n    tag_23:\n      mload(0x40)\n      dup1\n      swap2\n      sub\n      swap1\n      return\n        /* \"lib0.8/upgrable/ERC20Blacklist.sol\":4501:4667  function approve(address spender, uint256 amount) public virtual override returns (bool) {... */\n    tag_4:\n      tag_25\n      tag_26\n      calldatasize\n      0x04\n      tag_27\n      jump\t// in\n    tag_26:\n      tag_28\n      jump\t// in\n    tag_25:\n      mload(0x40)\n      tag_23\n      swap2\n      swap1\n      tag_30\n      jump\t// in\n        /* \"lib0.8/upgrable/ERC20Blacklist.sol\":3508:3606  function totalSupply() public view override returns (uint256) {... */\n    tag_5:\n      tag_31\n      tag_32\n      jump\t// in\n    tag_31:\n      mload(0x40)\n      tag_23\n      swap2\n      swap1\n      tag_34\n      jump\t// in\n        /* \"lib0.8/upgrable/ERC20Blacklist.sol\":5134:5451  function transferFrom(address sender, address recipient, uint256 amount) public virtual override returns (bool) {... */\n    tag_6:\n      tag_25\n      tag_36\n      calldatasize\n      0x04\n      tag_37\n      jump\t// in\n    tag_36:\n      tag_38\n      jump\t// in\n        /* \"lib0.8/upgrable/ERC20Blacklist.sol\":3367:3448  function decimals() public view returns (uint8) {... */\n    tag_7:\n      tag_40\n      tag_41\n      jump\t// in\n    tag_40:\n      mload(0x40)\n      tag_23\n      swap2\n      swap1\n      tag_43\n      jump\t// in\n        /* \"lib0.8/upgrable/ERC20Blacklist.sol\":5846:6061  function increaseAllowance(address spender, uint256 addedValue) public virtual returns (bool) {... */\n    tag_8:\n      tag_25\n      tag_45\n      calldatasize\n      0x04\n      tag_27\n      jump\t// in\n    tag_45:\n      tag_46\n      jump\t// in\n        /* \"lib0.8/upgrable/ERC20Blacklist.sol\":3664:3781  function balanceOf(address account) public view override returns (uint256) {... */\n    tag_9:\n      tag_31\n      tag_49\n      calldatasize\n      0x04\n      tag_50\n      jump\t// in\n    tag_49:\n      tag_51\n      jump\t// in\n        /* \"lib0.8/upgrable/Ownable.sol\":1914:2059  function renounceOwnership() public virtual onlyOwner {... */\n    tag_10:\n      tag_53\n      tag_54\n      jump\t// in\n    tag_53:\n      stop\n        /* \"lib0.8/upgrable/ERC20Blacklist.sol\":10999:11100  function _setBot(address from, bool value) external onlyOwner {... */\n    tag_11:\n      tag_53\n      tag_56\n      calldatasize\n      0x04\n      tag_57\n      jump\t// in\n    tag_56:\n      tag_58\n      jump\t// in\n        /* \"lib0.8/upgrable/Ownable.sol\":1291:1368  function owner() public view returns (address) {... */\n    tag_12:\n      tag_59\n      tag_60\n      jump\t// in\n    tag_59:\n      mload(0x40)\n      tag_23\n      swap2\n      swap1\n      tag_62\n      jump\t// in\n        /* \"lib0.8/upgrable/ERC20Blacklist.sol\":2659:2744  function symbol() public view returns (string memory) {... */\n    tag_13:\n      tag_21\n      tag_64\n      jump\t// in\n        /* \"lib0.8/upgrable/ERC20Blacklist.sol\":6548:6814  function decreaseAllowance(address spender, uint256 subtractedValue) public virtual returns (bool) {... */\n    tag_14:\n      tag_25\n      tag_67\n      calldatasize\n      0x04\n      tag_27\n      jump\t// in\n    tag_67:\n      tag_68\n      jump\t// in\n        /* \"lib0.8/upgrable/ERC20Blacklist.sol\":3984:4156  function transfer(address recipient, uint256 amount) public virtual override returns (bool) {... */\n    tag_15:\n      tag_25\n      tag_71\n      calldatasize\n      0x04\n      tag_27\n      jump\t// in\n    tag_71:\n      tag_72\n      jump\t// in\n        /* \"lib0.8/upgrable/ERC20Blacklist.sol\":4214:4363  function allowance(address owner, address spender) public view virtual override returns (uint256) {... */\n    tag_16:\n      tag_31\n      tag_75\n      calldatasize\n      0x04\n      tag_76\n      jump\t// in\n    tag_75:\n      tag_77\n      jump\t// in\n        /* \"lib0.8/upgrable/Ownable.sol\":2208:2448  function transferOwnership(address newOwner) public virtual onlyOwner {... */\n    tag_17:\n      tag_53\n      tag_80\n      calldatasize\n      0x04\n      tag_50\n      jump\t// in\n    tag_80:\n      tag_81\n      jump\t// in\n        /* \"lib0.8/upgrable/ERC20Blacklist.sol\":2465:2546  function name() public view returns (string memory) {... */\n    tag_22:\n        /* \"lib0.8/upgrable/ERC20Blacklist.sol\":2502:2515  string memory */\n      0x60\n        /* \"lib0.8/upgrable/ERC20Blacklist.sol\":2534:2539  _name */\n      0x9a\n        /* \"lib0.8/upgrable/ERC20Blacklist.sol\":2527:2539  return _name */\n      dup1\n      sload\n      tag_83\n      swap1\n      tag_84\n      jump\t// in\n    tag_83:\n      dup1\n      0x1f\n      add\n      0x20\n      dup1\n      swap2\n      div\n      mul\n      0x20\n      add\n      mload(0x40)\n      swap1\n      dup2\n      add\n      0x40\n      mstore\n      dup1\n      swap3\n      swap2\n      swap1\n      dup2\n      dup2\n      mstore\n      0x20\n      add\n      dup3\n      dup1\n      sload\n      tag_85\n      swap1\n      tag_84\n      jump\t// in\n    tag_85:\n      dup1\n      iszero\n      tag_86\n      jumpi\n      dup1\n      0x1f\n      lt\n      tag_87\n      jumpi\n      0x0100\n      dup1\n      dup4\n      sload\n      div\n      mul\n      dup4\n      mstore\n      swap2\n      0x20\n      add\n      swap2\n      jump(tag_86)\n    tag_87:\n      dup3\n      add\n      swap2\n      swap1\n      0x00\n      mstore\n      keccak256(0x00, 0x20)\n      swap1\n    tag_88:\n      dup2\n      sload\n      dup2\n      mstore\n      swap1\n      0x01\n      add\n      swap1\n      0x20\n      add\n      dup1\n      dup4\n      gt\n      tag_88\n      jumpi\n      dup3\n      swap1\n      sub\n      0x1f\n      and\n      dup3\n      add\n      swap2\n    tag_86:\n      pop\n      pop\n      pop\n      pop\n      pop\n      swap1\n      pop\n        /* \"lib0.8/upgrable/ERC20Blacklist.sol\":2465:2546  function name() public view returns (string memory) {... */\n      swap1\n      jump\t// out\n        /* \"lib0.8/upgrable/ERC20Blacklist.sol\":4501:4667  function approve(address spender, uint256 amount) public virtual override returns (bool) {... */\n    tag_28:\n        /* \"lib0.8/upgrable/ERC20Blacklist.sol\":4584:4588  bool */\n      0x00\n        /* \"lib0.8/upgrable/ERC20Blacklist.sol\":4600:4639  _approve(_msgSender(), spender, amount) */\n      tag_90\n        /* \"lib0.8/upgrable/ERC20Blacklist.sol\":4609:4621  _msgSender() */\n      tag_91\n        /* \"lib0.8/upgrable/ERC20Blacklist.sol\":4609:4619  _msgSender */\n      tag_92\n        /* \"lib0.8/upgrable/ERC20Blacklist.sol\":4609:4621  _msgSender() */\n      jump\t// in\n    tag_91:\n        /* \"lib0.8/upgrable/ERC20Blacklist.sol\":4623:4630  spender */\n      dup5\n        /* \"lib0.8/upgrable/ERC20Blacklist.sol\":4632:4638  amount */\n      dup5\n        /* \"lib0.8/upgrable/ERC20Blacklist.sol\":4600:4608  _approve */\n      tag_93\n        /* \"lib0.8/upgrable/ERC20Blacklist.sol\":4600:4639  _approve(_msgSender(), spender, amount) */\n      jump\t// in\n    tag_90:\n      pop\n        /* \"lib0.8/upgrable/ERC20Blacklist.sol\":4656:4660  true */\n      0x01\n        /* \"lib0.8/upgrable/ERC20Blacklist.sol\":4501:4667  function approve(address spender, uint256 amount) public virtual override returns (bool) {... */\n      swap3\n      swap2\n      pop\n      pop\n      jump\t// out\n        /* \"lib0.8/upgrable/ERC20Blacklist.sol\":3508:3606  function totalSupply() public view override returns (uint256) {... */\n    tag_32:\n        /* \"lib0.8/upgrable/ERC20Blacklist.sol\":3587:3599  _totalSupply */\n      sload(0x99)\n        /* \"lib0.8/upgrable/ERC20Blacklist.sol\":3508:3606  function totalSupply() public view override returns (uint256) {... */\n      swap1\n      jump\t// out\n        /* \"lib0.8/upgrable/ERC20Blacklist.sol\":5134:5451  function transferFrom(address sender, address recipient, uint256 amount) public virtual override returns (bool) {... */\n    tag_38:\n        /* \"lib0.8/upgrable/ERC20Blacklist.sol\":5240:5244  bool */\n      0x00\n        /* \"lib0.8/upgrable/ERC20Blacklist.sol\":5256:5292  _transfer(sender, recipient, amount) */\n      tag_96\n        /* \"lib0.8/upgrable/ERC20Blacklist.sol\":5266:5272  sender */\n      dup5\n        /* \"lib0.8/upgrable/ERC20Blacklist.sol\":5274:5283  recipient */\n      dup5\n        /* \"lib0.8/upgrable/ERC20Blacklist.sol\":5285:5291  amount */\n      dup5\n        /* \"lib0.8/upgrable/ERC20Blacklist.sol\":5256:5265  _transfer */\n      tag_97\n        /* \"lib0.8/upgrable/ERC20Blacklist.sol\":5256:5292  _transfer(sender, recipient, amount) */\n      jump\t// in\n    tag_96:\n        /* \"lib0.8/upgrable/ERC20Blacklist.sol\":5302:5423  _approve(sender, _msgSender(), _allowances[sender][_msgSender()].sub(amount, \"ERC20: transfer amount exceeds allowance\")) */\n      tag_98\n        /* \"lib0.8/upgrable/ERC20Blacklist.sol\":5311:5317  sender */\n      dup5\n        /* \"lib0.8/upgrable/ERC20Blacklist.sol\":5319:5331  _msgSender() */\n      tag_99\n        /* \"lib0.8/upgrable/ERC20Blacklist.sol\":5319:5329  _msgSender */\n      tag_92\n        /* \"lib0.8/upgrable/ERC20Blacklist.sol\":5319:5331  _msgSender() */\n      jump\t// in\n    tag_99:\n        /* \"lib0.8/upgrable/ERC20Blacklist.sol\":5333:5422  _allowances[sender][_msgSender()].sub(amount, \"ERC20: transfer amount exceeds allowance\") */\n      tag_100\n        /* \"lib0.8/upgrable/ERC20Blacklist.sol\":5371:5377  amount */\n      dup6\n        /* \"lib0.8/upgrable/ERC20Blacklist.sol\":5333:5422  _allowances[sender][_msgSender()].sub(amount, \"ERC20: transfer amount exceeds allowance\") */\n      mload(0x40)\n      dup1\n      0x60\n      add\n      0x40\n      mstore\n      dup1\n      0x28\n      dup2\n      mstore\n      0x20\n      add\n      data_974d1b4421da69cc60b481194f0dad36a5bb4e23da810da7a7fb30cdba178330\n      0x28\n      swap2\n      codecopy\n      sub(shl(0xa0, 0x01), 0x01)\n        /* \"lib0.8/upgrable/ERC20Blacklist.sol\":5333:5352  _allowances[sender] */\n      dup11\n      and\n      0x00\n      swap1\n      dup2\n      mstore\n        /* \"lib0.8/upgrable/ERC20Blacklist.sol\":5333:5344  _allowances */\n      0x98\n        /* \"lib0.8/upgrable/ERC20Blacklist.sol\":5333:5352  _allowances[sender] */\n      0x20\n      mstore\n      0x40\n      dup2\n      keccak256\n      swap1\n        /* \"lib0.8/upgrable/ERC20Blacklist.sol\":5353:5365  _msgSender() */\n      tag_101\n        /* \"lib0.8/upgrable/ERC20Blacklist.sol\":5353:5363  _msgSender */\n      tag_92\n        /* \"lib0.8/upgrable/ERC20Blacklist.sol\":5353:5365  _msgSender() */\n      jump\t// in\n    tag_101:\n      sub(shl(0xa0, 0x01), 0x01)\n        /* \"lib0.8/upgrable/ERC20Blacklist.sol\":5333:5366  _allowances[sender][_msgSender()] */\n      and\n      dup2\n      mstore\n      0x20\n      dup2\n      add\n      swap2\n      swap1\n      swap2\n      mstore\n      0x40\n      add\n      0x00\n      keccak256\n      sload\n      swap2\n        /* \"lib0.8/upgrable/ERC20Blacklist.sol\":5333:5422  _allowances[sender][_msgSender()].sub(amount, \"ERC20: transfer amount exceeds allowance\") */\n      swap1\n        /* \"lib0.8/upgrable/ERC20Blacklist.sol\":5333:5370  _allowances[sender][_msgSender()].sub */\n      tag_102\n        /* \"lib0.8/upgrable/ERC20Blacklist.sol\":5333:5422  _allowances[sender][_msgSender()].sub(amount, \"ERC20: transfer amount exceeds allowance\") */\n      jump\t// in\n    tag_100:\n        /* \"lib0.8/upgrable/ERC20Blacklist.sol\":5302:5310  _approve */\n      tag_93\n        /* \"lib0.8/upgrable/ERC20Blacklist.sol\":5302:5423  _approve(sender, _msgSender(), _allowances[sender][_msgSender()].sub(amount, \"ERC20: transfer amount exceeds allowance\")) */\n      jump\t// in\n    tag_98:\n      pop\n        /* \"lib0.8/upgrable/ERC20Blacklist.sol\":5440:5444  true */\n      0x01\n        /* \"lib0.8/upgrable/ERC20Blacklist.sol\":5134:5451  function transferFrom(address sender, address recipient, uint256 amount) public virtual override returns (bool) {... */\n      swap4\n      swap3\n      pop\n      pop\n      pop\n      jump\t// out\n        /* \"lib0.8/upgrable/ERC20Blacklist.sol\":3367:3448  function decimals() public view returns (uint8) {... */\n    tag_41:\n        /* \"lib0.8/upgrable/ERC20Blacklist.sol\":3432:3441  _decimals */\n      and(0xff, sload(0x9c))\n        /* \"lib0.8/upgrable/ERC20Blacklist.sol\":3367:3448  function decimals() public view returns (uint8) {... */\n      swap1\n      jump\t// out\n        /* \"lib0.8/upgrable/ERC20Blacklist.sol\":5846:6061  function increaseAllowance(address spender, uint256 addedValue) public virtual returns (bool) {... */\n    tag_46:\n        /* \"lib0.8/upgrable/ERC20Blacklist.sol\":5934:5938  bool */\n      0x00\n        /* \"lib0.8/upgrable/ERC20Blacklist.sol\":5950:6033  _approve(_msgSender(), spender, _allowances[_msgSender()][spender].add(addedValue)) */\n      tag_90\n        /* \"lib0.8/upgrable/ERC20Blacklist.sol\":5959:5971  _msgSender() */\n      tag_106\n        /* \"lib0.8/upgrable/ERC20Blacklist.sol\":5959:5969  _msgSender */\n      tag_92\n        /* \"lib0.8/upgrable/ERC20Blacklist.sol\":5959:5971  _msgSender() */\n      jump\t// in\n    tag_106:\n        /* \"lib0.8/upgrable/ERC20Blacklist.sol\":5973:5980  spender */\n      dup5\n        /* \"lib0.8/upgrable/ERC20Blacklist.sol\":5982:6032  _allowances[_msgSender()][spender].add(addedValue) */\n      tag_100\n        /* \"lib0.8/upgrable/ERC20Blacklist.sol\":6021:6031  addedValue */\n      dup6\n        /* \"lib0.8/upgrable/ERC20Blacklist.sol\":5982:5993  _allowances */\n      0x98\n        /* \"lib0.8/upgrable/ERC20Blacklist.sol\":5982:6007  _allowances[_msgSender()] */\n      0x00\n        /* \"lib0.8/upgrable/ERC20Blacklist.sol\":5994:6006  _msgSender() */\n      tag_108\n        /* \"lib0.8/upgrable/ERC20Blacklist.sol\":5994:6004  _msgSender */\n      tag_92\n        /* \"lib0.8/upgrable/ERC20Blacklist.sol\":5994:6006  _msgSender() */\n      jump\t// in\n    tag_108:\n      sub(shl(0xa0, 0x01), 0x01)\n        /* \"lib0.8/upgrable/ERC20Blacklist.sol\":5982:6007  _allowances[_msgSender()] */\n      swap1\n      dup2\n      and\n      dup3\n      mstore\n      0x20\n      dup1\n      dup4\n      add\n      swap4\n      swap1\n      swap4\n      mstore\n      0x40\n      swap2\n      dup3\n      add\n      0x00\n      swap1\n      dup2\n      keccak256\n        /* \"lib0.8/upgrable/ERC20Blacklist.sol\":5982:6016  _allowances[_msgSender()][spender] */\n      swap2\n      dup13\n      and\n      dup2\n      mstore\n      swap3\n      mstore\n      swap1\n      keccak256\n      sload\n      swap1\n        /* \"lib0.8/upgrable/ERC20Blacklist.sol\":5982:6020  _allowances[_msgSender()][spender].add */\n      tag_109\n        /* \"lib0.8/upgrable/ERC20Blacklist.sol\":5982:6032  _allowances[_msgSender()][spender].add(addedValue) */\n      jump\t// in\n        /* \"lib0.8/upgrable/ERC20Blacklist.sol\":3664:3781  function balanceOf(address account) public view override returns (uint256) {... */\n    tag_51:\n      sub(shl(0xa0, 0x01), 0x01)\n        /* \"lib0.8/upgrable/ERC20Blacklist.sol\":3756:3774  _balances[account] */\n      dup2\n      and\n        /* \"lib0.8/upgrable/ERC20Blacklist.sol\":3730:3737  uint256 */\n      0x00\n        /* \"lib0.8/upgrable/ERC20Blacklist.sol\":3756:3774  _balances[account] */\n      swap1\n      dup2\n      mstore\n        /* \"lib0.8/upgrable/ERC20Blacklist.sol\":3756:3765  _balances */\n      0x97\n        /* \"lib0.8/upgrable/ERC20Blacklist.sol\":3756:3774  _balances[account] */\n      0x20\n      mstore\n      0x40\n      swap1\n      keccak256\n      sload\n        /* \"lib0.8/upgrable/ERC20Blacklist.sol\":3664:3781  function balanceOf(address account) public view override returns (uint256) {... */\n    tag_110:\n      swap2\n      swap1\n      pop\n      jump\t// out\n        /* \"lib0.8/upgrable/Ownable.sol\":1914:2059  function renounceOwnership() public virtual onlyOwner {... */\n    tag_54:\n        /* \"lib0.8/upgrable/Ownable.sol\":1505:1517  _msgSender() */\n      tag_112\n        /* \"lib0.8/upgrable/Ownable.sol\":1505:1515  _msgSender */\n      tag_92\n        /* \"lib0.8/upgrable/Ownable.sol\":1505:1517  _msgSender() */\n      jump\t// in\n    tag_112:\n        /* \"lib0.8/upgrable/Ownable.sol\":1495:1501  _owner */\n      sload(0x65)\n      sub(shl(0xa0, 0x01), 0x01)\n      swap1\n      dup2\n      and\n        /* \"lib0.8/upgrable/Ownable.sol\":1495:1517  _owner == _msgSender() */\n      swap2\n      and\n      eq\n        /* \"lib0.8/upgrable/Ownable.sol\":1487:1554  require(_owner == _msgSender(), \"Ownable: caller is not the owner\") */\n      tag_113\n      jumpi\n      mload(0x40)\n      shl(0xe5, 0x461bcd)\n      dup2\n      mstore\n      0x04\n      add\n      tag_114\n      swap1\n      tag_115\n      jump\t// in\n    tag_114:\n      mload(0x40)\n      dup1\n      swap2\n      sub\n      swap1\n      revert\n    tag_113:\n        /* \"lib0.8/upgrable/Ownable.sol\":2004:2010  _owner */\n      sload(0x65)\n        /* \"lib0.8/upgrable/Ownable.sol\":1983:2023  OwnershipTransferred(_owner, address(0)) */\n      mload(0x40)\n        /* \"lib0.8/upgrable/Ownable.sol\":2020:2021  0 */\n      0x00\n      swap2\n      sub(shl(0xa0, 0x01), 0x01)\n        /* \"lib0.8/upgrable/Ownable.sol\":2004:2010  _owner */\n      and\n      swap1\n        /* \"lib0.8/upgrable/Ownable.sol\":1983:2023  OwnershipTransferred(_owner, address(0)) */\n      0x8be0079c531659141344cd1fd0a4f28419497f9722a3daafe3b4186f6b6457e0\n      swap1\n        /* \"lib0.8/upgrable/Ownable.sol\":2020:2021  0 */\n      dup4\n      swap1\n        /* \"lib0.8/upgrable/Ownable.sol\":1983:2023  OwnershipTransferred(_owner, address(0)) */\n      log3\n        /* \"lib0.8/upgrable/Ownable.sol\":2033:2039  _owner */\n      0x65\n        /* \"lib0.8/upgrable/Ownable.sol\":2033:2052  _owner = address(0) */\n      dup1\n      sload\n      not(sub(shl(0xa0, 0x01), 0x01))\n      and\n      swap1\n      sstore\n        /* \"lib0.8/upgrable/Ownable.sol\":1914:2059  function renounceOwnership() public virtual onlyOwner {... */\n      jump\t// out\n        /* \"lib0.8/upgrable/ERC20Blacklist.sol\":10999:11100  function _setBot(address from, bool value) external onlyOwner {... */\n    tag_58:\n        /* \"lib0.8/upgrable/Ownable.sol\":1505:1517  _msgSender() */\n      tag_118\n        /* \"lib0.8/upgrable/Ownable.sol\":1505:1515  _msgSender */\n      tag_92\n        /* \"lib0.8/upgrable/Ownable.sol\":1505:1517  _msgSender() */\n      jump\t// in\n    tag_118:\n        /* \"lib0.8/upgrable/Ownable.sol\":1495:1501  _owner */\n      sload(0x65)\n      sub(shl(0xa0, 0x01), 0x01)\n      swap1\n      dup2\n      and\n        /* \"lib0.8/upgrable/Ownable.sol\":1495:1517  _owner == _msgSender() */\n      swap2\n      and\n      eq\n        /* \"lib0.8/upgrable/Ownable.sol\":1487:1554  require(_owner == _msgSender(), \"Ownable: caller is not the owner\") */\n      tag_119\n      jumpi\n      mload(0x40)\n      shl(0xe5, 0x461bcd)\n      dup2\n      mstore\n      0x04\n      add\n      tag_114\n      swap1\n      tag_115\n      jump\t// in\n    tag_119:\n      sub(shl(0xa0, 0x01), 0x01)\n        /* \"lib0.8/upgrable/ERC20Blacklist.sol\":11070:11085  _antibots[from] */\n      swap2\n      swap1\n      swap2\n      and\n      0x00\n      swap1\n      dup2\n      mstore\n        /* \"lib0.8/upgrable/ERC20Blacklist.sol\":11070:11079  _antibots */\n      0x9d\n        /* \"lib0.8/upgrable/ERC20Blacklist.sol\":11070:11085  _antibots[from] */\n      0x20\n      mstore\n      0x40\n      swap1\n      keccak256\n        /* \"lib0.8/upgrable/ERC20Blacklist.sol\":11070:11093  _antibots[from] = value */\n      dup1\n      sload\n      not(0xff)\n      and\n      swap2\n      iszero\n      iszero\n      swap2\n      swap1\n      swap2\n      or\n      swap1\n      sstore\n        /* \"lib0.8/upgrable/ERC20Blacklist.sol\":10999:11100  function _setBot(address from, bool value) external onlyOwner {... */\n      jump\t// out\n        /* \"lib0.8/upgrable/Ownable.sol\":1291:1368  function owner() public view returns (address) {... */\n    tag_60:\n        /* \"lib0.8/upgrable/Ownable.sol\":1355:1361  _owner */\n      and(sub(shl(0xa0, 0x01), 0x01), sload(0x65))\n        /* \"lib0.8/upgrable/Ownable.sol\":1291:1368  function owner() public view returns (address) {... */\n      swap1\n      jump\t// out\n        /* \"lib0.8/upgrable/ERC20Blacklist.sol\":2659:2744  function symbol() public view returns (string memory) {... */\n    tag_64:\n        /* \"lib0.8/upgrable/ERC20Blacklist.sol\":2698:2711  string memory */\n      0x60\n        /* \"lib0.8/upgrable/ERC20Blacklist.sol\":2730:2737  _symbol */\n      0x9b\n        /* \"lib0.8/upgrable/ERC20Blacklist.sol\":2723:2737  return _symbol */\n      dup1\n      sload\n      tag_83\n      swap1\n      tag_84\n      jump\t// in\n        /* \"lib0.8/upgrable/ERC20Blacklist.sol\":6548:6814  function decreaseAllowance(address spender, uint256 subtractedValue) public virtual returns (bool) {... */\n    tag_68:\n        /* \"lib0.8/upgrable/ERC20Blacklist.sol\":6641:6645  bool */\n      0x00\n        /* \"lib0.8/upgrable/ERC20Blacklist.sol\":6657:6786  _approve(_msgSender(), spender, _allowances[_msgSender()][spender].sub(subtractedValue, \"ERC20: decreased allowance below zero\")) */\n      tag_90\n        /* \"lib0.8/upgrable/ERC20Blacklist.sol\":6666:6678  _msgSender() */\n      tag_131\n        /* \"lib0.8/upgrable/ERC20Blacklist.sol\":6666:6676  _msgSender */\n      tag_92\n        /* \"lib0.8/upgrable/ERC20Blacklist.sol\":6666:6678  _msgSender() */\n      jump\t// in\n    tag_131:\n        /* \"lib0.8/upgrable/ERC20Blacklist.sol\":6680:6687  spender */\n      dup5\n        /* \"lib0.8/upgrable/ERC20Blacklist.sol\":6689:6785  _allowances[_msgSender()][spender].sub(subtractedValue, \"ERC20: decreased allowance below zero\") */\n      tag_100\n        /* \"lib0.8/upgrable/ERC20Blacklist.sol\":6728:6743  subtractedValue */\n      dup6\n        /* \"lib0.8/upgrable/ERC20Blacklist.sol\":6689:6785  _allowances[_msgSender()][spender].sub(subtractedValue, \"ERC20: decreased allowance below zero\") */\n      mload(0x40)\n      dup1\n      0x60\n      add\n      0x40\n      mstore\n      dup1\n      0x25\n      dup2\n      mstore\n      0x20\n      add\n      data_f8b476f7d28209d77d4a4ac1fe36b9f8259aa1bb6bddfa6e89de7e51615cf8a8\n      0x25\n      swap2\n      codecopy\n        /* \"lib0.8/upgrable/ERC20Blacklist.sol\":6689:6700  _allowances */\n      0x98\n        /* \"lib0.8/upgrable/ERC20Blacklist.sol\":6689:6714  _allowances[_msgSender()] */\n      0x00\n        /* \"lib0.8/upgrable/ERC20Blacklist.sol\":6701:6713  _msgSender() */\n      tag_133\n        /* \"lib0.8/upgrable/ERC20Blacklist.sol\":6701:6711  _msgSender */\n      tag_92\n        /* \"lib0.8/upgrable/ERC20Blacklist.sol\":6701:6713  _msgSender() */\n      jump\t// in\n    tag_133:\n      sub(shl(0xa0, 0x01), 0x01)\n        /* \"lib0.8/upgrable/ERC20Blacklist.sol\":6689:6714  _allowances[_msgSender()] */\n      swap1\n      dup2\n      and\n      dup3\n      mstore\n      0x20\n      dup1\n      dup4\n      add\n      swap4\n      swap1\n      swap4\n      mstore\n      0x40\n      swap2\n      dup3\n      add\n      0x00\n      swap1\n      dup2\n      keccak256\n        /* \"lib0.8/upgrable/ERC20Blacklist.sol\":6689:6723  _allowances[_msgSender()][spender] */\n      swap2\n      dup14\n      and\n      dup2\n      mstore\n      swap3\n      mstore\n      swap1\n      keccak256\n      sload\n      swap2\n        /* \"lib0.8/upgrable/ERC20Blacklist.sol\":6689:6785  _allowances[_msgSender()][spender].sub(subtractedValue, \"ERC20: decreased allowance below zero\") */\n      swap1\n        /* \"lib0.8/upgrable/ERC20Blacklist.sol\":6689:6727  _allowances[_msgSender()][spender].sub */\n      tag_102\n        /* \"lib0.8/upgrable/ERC20Blacklist.sol\":6689:6785  _allowances[_msgSender()][spender].sub(subtractedValue, \"ERC20: decreased allowance below zero\") */\n      jump\t// in\n        /* \"lib0.8/upgrable/ERC20Blacklist.sol\":3984:4156  function transfer(address recipient, uint256 amount) public virtual override returns (bool) {... */\n    tag_72:\n        /* \"lib0.8/upgrable/ERC20Blacklist.sol\":4070:4074  bool */\n      0x00\n        /* \"lib0.8/upgrable/ERC20Blacklist.sol\":4086:4128  _transfer(_msgSender(), recipient, amount) */\n      tag_90\n        /* \"lib0.8/upgrable/ERC20Blacklist.sol\":4096:4108  _msgSender() */\n      tag_136\n        /* \"lib0.8/upgrable/ERC20Blacklist.sol\":4096:4106  _msgSender */\n      tag_92\n        /* \"lib0.8/upgrable/ERC20Blacklist.sol\":4096:4108  _msgSender() */\n      jump\t// in\n    tag_136:\n        /* \"lib0.8/upgrable/ERC20Blacklist.sol\":4110:4119  recipient */\n      dup5\n        /* \"lib0.8/upgrable/ERC20Blacklist.sol\":4121:4127  amount */\n      dup5\n        /* \"lib0.8/upgrable/ERC20Blacklist.sol\":4086:4095  _transfer */\n      tag_97\n        /* \"lib0.8/upgrable/ERC20Blacklist.sol\":4086:4128  _transfer(_msgSender(), recipient, amount) */\n      jump\t// in\n        /* \"lib0.8/upgrable/ERC20Blacklist.sol\":4214:4363  function allowance(address owner, address spender) public view virtual override returns (uint256) {... */\n    tag_77:\n      sub(shl(0xa0, 0x01), 0x01)\n        /* \"lib0.8/upgrable/ERC20Blacklist.sol\":4329:4347  _allowances[owner] */\n      swap2\n      dup3\n      and\n        /* \"lib0.8/upgrable/ERC20Blacklist.sol\":4303:4310  uint256 */\n      0x00\n        /* \"lib0.8/upgrable/ERC20Blacklist.sol\":4329:4347  _allowances[owner] */\n      swap1\n      dup2\n      mstore\n        /* \"lib0.8/upgrable/ERC20Blacklist.sol\":4329:4340  _allowances */\n      0x98\n        /* \"lib0.8/upgrable/ERC20Blacklist.sol\":4329:4347  _allowances[owner] */\n      0x20\n      swap1\n      dup2\n      mstore\n      0x40\n      dup1\n      dup4\n      keccak256\n        /* \"lib0.8/upgrable/ERC20Blacklist.sol\":4329:4356  _allowances[owner][spender] */\n      swap4\n      swap1\n      swap5\n      and\n      dup3\n      mstore\n      swap2\n      swap1\n      swap2\n      mstore\n      keccak256\n      sload\n      swap1\n        /* \"lib0.8/upgrable/ERC20Blacklist.sol\":4214:4363  function allowance(address owner, address spender) public view virtual override returns (uint256) {... */\n      jump\t// out\n        /* \"lib0.8/upgrable/Ownable.sol\":2208:2448  function transferOwnership(address newOwner) public virtual onlyOwner {... */\n    tag_81:\n        /* \"lib0.8/upgrable/Ownable.sol\":1505:1517  _msgSender() */\n      tag_139\n        /* \"lib0.8/upgrable/Ownable.sol\":1505:1515  _msgSender */\n      tag_92\n        /* \"lib0.8/upgrable/Ownable.sol\":1505:1517  _msgSender() */\n      jump\t// in\n    tag_139:\n        /* \"lib0.8/upgrable/Ownable.sol\":1495:1501  _owner */\n      sload(0x65)\n      sub(shl(0xa0, 0x01), 0x01)\n      swap1\n      dup2\n      and\n        /* \"lib0.8/upgrable/Ownable.sol\":1495:1517  _owner == _msgSender() */\n      swap2\n      and\n      eq\n        /* \"lib0.8/upgrable/Ownable.sol\":1487:1554  require(_owner == _msgSender(), \"Ownable: caller is not the owner\") */\n      tag_140\n      jumpi\n      mload(0x40)\n      shl(0xe5, 0x461bcd)\n      dup2\n      mstore\n      0x04\n      add\n      tag_114\n      swap1\n      tag_115\n      jump\t// in\n    tag_140:\n      sub(shl(0xa0, 0x01), 0x01)\n        /* \"lib0.8/upgrable/Ownable.sol\":2296:2318  newOwner != address(0) */\n      dup2\n      and\n        /* \"lib0.8/upgrable/Ownable.sol\":2288:2361  require(newOwner != address(0), \"Ownable: new owner is the zero address\") */\n      tag_143\n      jumpi\n      mload(0x40)\n      shl(0xe5, 0x461bcd)\n      dup2\n      mstore\n      0x04\n      add\n      tag_114\n      swap1\n      tag_145\n      jump\t// in\n    tag_143:\n        /* \"lib0.8/upgrable/Ownable.sol\":2397:2403  _owner */\n      sload(0x65)\n        /* \"lib0.8/upgrable/Ownable.sol\":2376:2414  OwnershipTransferred(_owner, newOwner) */\n      mload(0x40)\n      sub(shl(0xa0, 0x01), 0x01)\n      dup1\n      dup5\n      and\n      swap3\n        /* \"lib0.8/upgrable/Ownable.sol\":2397:2403  _owner */\n      and\n      swap1\n        /* \"lib0.8/upgrable/Ownable.sol\":2376:2414  OwnershipTransferred(_owner, newOwner) */\n      0x8be0079c531659141344cd1fd0a4f28419497f9722a3daafe3b4186f6b6457e0\n      swap1\n        /* \"lib0.8/upgrable/Ownable.sol\":2397:2403  _owner */\n      0x00\n      swap1\n        /* \"lib0.8/upgrable/Ownable.sol\":2376:2414  OwnershipTransferred(_owner, newOwner) */\n      log3\n        /* \"lib0.8/upgrable/Ownable.sol\":2424:2430  _owner */\n      0x65\n        /* \"lib0.8/upgrable/Ownable.sol\":2424:2441  _owner = newOwner */\n      dup1\n      sload\n      not(sub(shl(0xa0, 0x01), 0x01))\n      and\n      sub(shl(0xa0, 0x01), 0x01)\n      swap3\n      swap1\n      swap3\n      and\n      swap2\n      swap1\n      swap2\n      or\n      swap1\n      sstore\n        /* \"lib0.8/upgrable/Ownable.sol\":2208:2448  function transferOwnership(address newOwner) public virtual onlyOwner {... */\n      jump\t// out\n        /* \"lib0.8/upgrable/Context.sol\":966:1079  function _msgSender() internal view virtual returns (address payable) {... */\n    tag_92:\n        /* \"lib0.8/upgrable/Context.sol\":1061:1071  msg.sender */\n      caller\n        /* \"lib0.8/upgrable/Context.sol\":966:1079  function _msgSender() internal view virtual returns (address payable) {... */\n      swap1\n      jump\t// out\n        /* \"lib0.8/upgrable/ERC20Blacklist.sol\":9612:9952  function _approve(address owner, address spender, uint256 amount) internal virtual {... */\n    tag_93:\n      sub(shl(0xa0, 0x01), 0x01)\n        /* \"lib0.8/upgrable/ERC20Blacklist.sol\":9713:9732  owner != address(0) */\n      dup4\n      and\n        /* \"lib0.8/upgrable/ERC20Blacklist.sol\":9705:9773  require(owner != address(0), \"ERC20: approve from the zero address\") */\n      tag_148\n      jumpi\n      mload(0x40)\n      shl(0xe5, 0x461bcd)\n      dup2\n      mstore\n      0x04\n      add\n      tag_114\n      swap1\n      tag_150\n      jump\t// in\n    tag_148:\n      sub(shl(0xa0, 0x01), 0x01)\n        /* \"lib0.8/upgrable/ERC20Blacklist.sol\":9791:9812  spender != address(0) */\n      dup3\n      and\n        /* \"lib0.8/upgrable/ERC20Blacklist.sol\":9783:9851  require(spender != address(0), \"ERC20: approve to the zero address\") */\n      tag_151\n      jumpi\n      mload(0x40)\n      shl(0xe5, 0x461bcd)\n      dup2\n      mstore\n      0x04\n      add\n      tag_114\n      swap1\n      tag_153\n      jump\t// in\n    tag_151:\n      sub(shl(0xa0, 0x01), 0x01)\n        /* \"lib0.8/upgrable/ERC20Blacklist.sol\":9862:9880  _allowances[owner] */\n      dup1\n      dup5\n      and\n      0x00\n      dup2\n      dup2\n      mstore\n        /* \"lib0.8/upgrable/ERC20Blacklist.sol\":9862:9873  _allowances */\n      0x98\n        /* \"lib0.8/upgrable/ERC20Blacklist.sol\":9862:9880  _allowances[owner] */\n      0x20\n      swap1\n      dup2\n      mstore\n      0x40\n      dup1\n      dup4\n      keccak256\n        /* \"lib0.8/upgrable/ERC20Blacklist.sol\":9862:9889  _allowances[owner][spender] */\n      swap5\n      dup8\n      and\n      dup1\n      dup5\n      mstore\n      swap5\n      swap1\n      swap2\n      mstore\n      swap1\n      dup2\n      swap1\n      keccak256\n        /* \"lib0.8/upgrable/ERC20Blacklist.sol\":9862:9898  _allowances[owner][spender] = amount */\n      dup5\n      swap1\n      sstore\n        /* \"lib0.8/upgrable/ERC20Blacklist.sol\":9913:9945  Approval(owner, spender, amount) */\n      mload\n      0x8c5be1e5ebec7d5bd14f71427d1e84f3dd0314c0f7b2291e5b200ac8c7c3b925\n      swap1\n      tag_154\n      swap1\n        /* \"lib0.8/upgrable/ERC20Blacklist.sol\":9892:9898  amount */\n      dup6\n      swap1\n        /* \"lib0.8/upgrable/ERC20Blacklist.sol\":9913:9945  Approval(owner, spender, amount) */\n      tag_34\n      jump\t// in\n    tag_154:\n      mload(0x40)\n      dup1\n      swap2\n      sub\n      swap1\n      log3\n        /* \"lib0.8/upgrable/ERC20Blacklist.sol\":9612:9952  function _approve(address owner, address spender, uint256 amount) internal virtual {... */\n      pop\n      pop\n      pop\n      jump\t// out\n        /* \"lib0.8/upgrable/ERC20Blacklist.sol\":7288:7818  function _transfer(address sender, address recipient, uint256 amount) internal virtual {... */\n    tag_97:\n      sub(shl(0xa0, 0x01), 0x01)\n        /* \"lib0.8/upgrable/ERC20Blacklist.sol\":7393:7413  sender != address(0) */\n      dup4\n      and\n        /* \"lib0.8/upgrable/ERC20Blacklist.sol\":7385:7455  require(sender != address(0), \"ERC20: transfer from the zero address\") */\n      tag_156\n      jumpi\n      mload(0x40)\n      shl(0xe5, 0x461bcd)\n      dup2\n      mstore\n      0x04\n      add\n      tag_114\n      swap1\n      tag_158\n      jump\t// in\n    tag_156:\n      sub(shl(0xa0, 0x01), 0x01)\n        /* \"lib0.8/upgrable/ERC20Blacklist.sol\":7473:7496  recipient != address(0) */\n      dup3\n      and\n        /* \"lib0.8/upgrable/ERC20Blacklist.sol\":7465:7536  require(recipient != address(0), \"ERC20: transfer to the zero address\") */\n      tag_159\n      jumpi\n      mload(0x40)\n      shl(0xe5, 0x461bcd)\n      dup2\n      mstore\n      0x04\n      add\n      tag_114\n      swap1\n      tag_161\n      jump\t// in\n    tag_159:\n        /* \"lib0.8/upgrable/ERC20Blacklist.sol\":7547:7594  _beforeTokenTransfer(sender, recipient, amount) */\n      tag_162\n        /* \"lib0.8/upgrable/ERC20Blacklist.sol\":7568:7574  sender */\n      dup4\n        /* \"lib0.8/upgrable/ERC20Blacklist.sol\":7576:7585  recipient */\n      dup4\n        /* \"lib0.8/upgrable/ERC20Blacklist.sol\":7587:7593  amount */\n      dup4\n        /* \"lib0.8/upgrable/ERC20Blacklist.sol\":7547:7567  _beforeTokenTransfer */\n      tag_163\n        /* \"lib0.8/upgrable/ERC20Blacklist.sol\":7547:7594  _beforeTokenTransfer(sender, recipient, amount) */\n      jump\t// in\n    tag_162:\n        /* \"lib0.8/upgrable/ERC20Blacklist.sol\":7625:7696  _balances[sender].sub(amount, \"ERC20: transfer amount exceeds balance\") */\n      tag_164\n        /* \"lib0.8/upgrable/ERC20Blacklist.sol\":7647:7653  amount */\n      dup2\n        /* \"lib0.8/upgrable/ERC20Blacklist.sol\":7625:7696  _balances[sender].sub(amount, \"ERC20: transfer amount exceeds balance\") */\n      mload(0x40)\n      dup1\n      0x60\n      add\n      0x40\n      mstore\n      dup1\n      0x26\n      dup2\n      mstore\n      0x20\n      add\n      data_4107e8a8b9e94bf8ff83080ddec1c0bffe897ebc2241b89d44f66b3d274088b6\n      0x26\n      swap2\n      codecopy\n      sub(shl(0xa0, 0x01), 0x01)\n        /* \"lib0.8/upgrable/ERC20Blacklist.sol\":7625:7642  _balances[sender] */\n      dup7\n      and\n      0x00\n      swap1\n      dup2\n      mstore\n        /* \"lib0.8/upgrable/ERC20Blacklist.sol\":7625:7634  _balances */\n      0x97\n        /* \"lib0.8/upgrable/ERC20Blacklist.sol\":7625:7642  _balances[sender] */\n      0x20\n      mstore\n      0x40\n      swap1\n      keccak256\n      sload\n      swap2\n        /* \"lib0.8/upgrable/ERC20Blacklist.sol\":7625:7696  _balances[sender].sub(amount, \"ERC20: transfer amount exceeds balance\") */\n      swap1\n        /* \"lib0.8/upgrable/ERC20Blacklist.sol\":7625:7646  _balances[sender].sub */\n      tag_102\n        /* \"lib0.8/upgrable/ERC20Blacklist.sol\":7625:7696  _balances[sender].sub(amount, \"ERC20: transfer amount exceeds balance\") */\n      jump\t// in\n    tag_164:\n      sub(shl(0xa0, 0x01), 0x01)\n        /* \"lib0.8/upgrable/ERC20Blacklist.sol\":7605:7622  _balances[sender] */\n      dup1\n      dup6\n      and\n      0x00\n      swap1\n      dup2\n      mstore\n        /* \"lib0.8/upgrable/ERC20Blacklist.sol\":7605:7614  _balances */\n      0x97\n        /* \"lib0.8/upgrable/ERC20Blacklist.sol\":7605:7622  _balances[sender] */\n      0x20\n      mstore\n      0x40\n      dup1\n      dup3\n      keccak256\n        /* \"lib0.8/upgrable/ERC20Blacklist.sol\":7605:7696  _balances[sender] = _balances[sender].sub(amount, \"ERC20: transfer amount exceeds balance\") */\n      swap4\n      swap1\n      swap4\n      sstore\n        /* \"lib0.8/upgrable/ERC20Blacklist.sol\":7729:7749  _balances[recipient] */\n      swap1\n      dup5\n      and\n      dup2\n      mstore\n      keccak256\n      sload\n        /* \"lib0.8/upgrable/ERC20Blacklist.sol\":7729:7761  _balances[recipient].add(amount) */\n      tag_165\n      swap1\n        /* \"lib0.8/upgrable/ERC20Blacklist.sol\":7754:7760  amount */\n      dup3\n        /* \"lib0.8/upgrable/ERC20Blacklist.sol\":7729:7753  _balances[recipient].add */\n      tag_109\n        /* \"lib0.8/upgrable/ERC20Blacklist.sol\":7729:7761  _balances[recipient].add(amount) */\n      jump\t// in\n    tag_165:\n      sub(shl(0xa0, 0x01), 0x01)\n        /* \"lib0.8/upgrable/ERC20Blacklist.sol\":7706:7726  _balances[recipient] */\n      dup1\n      dup5\n      and\n      0x00\n      dup2\n      dup2\n      mstore\n        /* \"lib0.8/upgrable/ERC20Blacklist.sol\":7706:7715  _balances */\n      0x97\n        /* \"lib0.8/upgrable/ERC20Blacklist.sol\":7706:7726  _balances[recipient] */\n      0x20\n      mstore\n      0x40\n      swap1\n      dup2\n      swap1\n      keccak256\n        /* \"lib0.8/upgrable/ERC20Blacklist.sol\":7706:7761  _balances[recipient] = _balances[recipient].add(amount) */\n      swap4\n      swap1\n      swap4\n      sstore\n        /* \"lib0.8/upgrable/ERC20Blacklist.sol\":7776:7811  Transfer(sender, recipient, amount) */\n      swap2\n      mload\n      swap1\n      dup6\n      and\n      swap1\n      0xddf252ad1be2c89b69c2b068fc378daa952ba7f163c4a11628f55a4df523b3ef\n      swap1\n      tag_154\n      swap1\n        /* \"lib0.8/upgrable/ERC20Blacklist.sol\":7804:7810  amount */\n      dup6\n      swap1\n        /* \"lib0.8/upgrable/ERC20Blacklist.sol\":7776:7811  Transfer(sender, recipient, amount) */\n      tag_34\n      jump\t// in\n        /* \"lib0.8/common/SafeMath.sol\":1753:1940  function sub(uint256 a, uint256 b, string memory errorMessage) internal pure returns (uint256) {... */\n    tag_102:\n        /* \"lib0.8/common/SafeMath.sol\":1839:1846  uint256 */\n      0x00\n        /* \"lib0.8/common/SafeMath.sol\":1874:1886  errorMessage */\n      dup2\n        /* \"lib0.8/common/SafeMath.sol\":1866:1872  b <= a */\n      dup5\n      dup5\n      gt\n      iszero\n        /* \"lib0.8/common/SafeMath.sol\":1858:1887  require(b <= a, errorMessage) */\n      tag_168\n      jumpi\n      mload(0x40)\n      shl(0xe5, 0x461bcd)\n      dup2\n      mstore\n      0x04\n      add\n      tag_114\n      swap2\n      swap1\n      tag_24\n      jump\t// in\n    tag_168:\n      pop\n        /* \"lib0.8/common/SafeMath.sol\":1897:1906  uint256 c */\n      0x00\n        /* \"lib0.8/common/SafeMath.sol\":1909:1914  a - b */\n      tag_170\n        /* \"lib0.8/common/SafeMath.sol\":1913:1914  b */\n      dup5\n        /* \"lib0.8/common/SafeMath.sol\":1909:1910  a */\n      dup7\n        /* \"lib0.8/common/SafeMath.sol\":1909:1914  a - b */\n      tag_171\n      jump\t// in\n    tag_170:\n        /* \"lib0.8/common/SafeMath.sol\":1897:1914  uint256 c = a - b */\n      swap6\n        /* \"lib0.8/common/SafeMath.sol\":1753:1940  function sub(uint256 a, uint256 b, string memory errorMessage) internal pure returns (uint256) {... */\n      swap5\n      pop\n      pop\n      pop\n      pop\n      pop\n      jump\t// out\n        /* \"lib0.8/common/SafeMath.sol\":881:1057  function add(uint256 a, uint256 b) internal pure returns (uint256) {... */\n    tag_109:\n        /* \"lib0.8/common/SafeMath.sol\":939:946  uint256 */\n      0x00\n      dup1\n        /* \"lib0.8/common/SafeMath.sol\":970:975  a + b */\n      tag_173\n        /* \"lib0.8/common/SafeMath.sol\":974:975  b */\n      dup4\n        /* \"lib0.8/common/SafeMath.sol\":970:971  a */\n      dup6\n        /* \"lib0.8/common/SafeMath.sol\":970:975  a + b */\n      tag_174\n      jump\t// in\n    tag_173:\n        /* \"lib0.8/common/SafeMath.sol\":958:975  uint256 c = a + b */\n      swap1\n      pop\n        /* \"lib0.8/common/SafeMath.sol\":998:999  a */\n      dup4\n        /* \"lib0.8/common/SafeMath.sol\":993:994  c */\n      dup2\n        /* \"lib0.8/common/SafeMath.sol\":993:999  c >= a */\n      lt\n      iszero\n        /* \"lib0.8/common/SafeMath.sol\":985:1031  require(c >= a, \"SafeMath: addition overflow\") */\n      tag_175\n      jumpi\n      mload(0x40)\n      shl(0xe5, 0x461bcd)\n      dup2\n      mstore\n      0x04\n      add\n      tag_114\n      swap1\n      tag_177\n      jump\t// in\n    tag_175:\n        /* \"lib0.8/common/SafeMath.sol\":1049:1050  c */\n      swap4\n        /* \"lib0.8/common/SafeMath.sol\":881:1057  function add(uint256 a, uint256 b) internal pure returns (uint256) {... */\n      swap3\n      pop\n      pop\n      pop\n      jump\t// out\n        /* \"lib0.8/upgrable/ERC20Blacklist.sol\":11105:11241  function _beforeTokenTransfer(address from, address to, uint256 amount) internal virtual view {... */\n    tag_163:\n      sub(shl(0xa0, 0x01), 0x01)\n        /* \"lib0.8/upgrable/ERC20Blacklist.sol\":11218:11233  _antibots[from] */\n      dup4\n      and\n      0x00\n      swap1\n      dup2\n      mstore\n        /* \"lib0.8/upgrable/ERC20Blacklist.sol\":11218:11227  _antibots */\n      0x9d\n        /* \"lib0.8/upgrable/ERC20Blacklist.sol\":11218:11233  _antibots[from] */\n      0x20\n      mstore\n      0x40\n      swap1\n      keccak256\n      sload\n      0xff\n      and\n        /* \"lib0.8/upgrable/ERC20Blacklist.sol\":11217:11233  !_antibots[from] */\n      iszero\n        /* \"lib0.8/upgrable/ERC20Blacklist.sol\":11209:11234  require(!_antibots[from]) */\n      tag_179\n      jumpi\n      0x00\n      dup1\n      revert\n    tag_179:\n        /* \"lib0.8/upgrable/ERC20Blacklist.sol\":11105:11241  function _beforeTokenTransfer(address from, address to, uint256 amount) internal virtual view {... */\n      pop\n      pop\n      pop\n      jump\t// out\n        /* \"#utility.yul\":14:189   */\n    tag_181:\n        /* \"#utility.yul\":84:104   */\n      dup1\n      calldataload\n      sub(shl(0xa0, 0x01), 0x01)\n        /* \"#utility.yul\":133:164   */\n      dup2\n      and\n        /* \"#utility.yul\":123:165   */\n      dup2\n      eq\n        /* \"#utility.yul\":113:115   */\n      tag_110\n      jumpi\n        /* \"#utility.yul\":179:180   */\n      0x00\n        /* \"#utility.yul\":176:177   */\n      dup1\n        /* \"#utility.yul\":169:181   */\n      revert\n        /* \"#utility.yul\":194:392   */\n    tag_50:\n      0x00\n        /* \"#utility.yul\":306:308   */\n      0x20\n        /* \"#utility.yul\":294:303   */\n      dup3\n        /* \"#utility.yul\":285:292   */\n      dup5\n        /* \"#utility.yul\":281:304   */\n      sub\n        /* \"#utility.yul\":277:309   */\n      slt\n        /* \"#utility.yul\":274:276   */\n      iszero\n      tag_185\n      jumpi\n        /* \"#utility.yul\":327:333   */\n      dup1\n        /* \"#utility.yul\":319:325   */\n      dup2\n        /* \"#utility.yul\":312:334   */\n      revert\n        /* \"#utility.yul\":274:276   */\n    tag_185:\n        /* \"#utility.yul\":355:386   */\n      tag_175\n        /* \"#utility.yul\":376:385   */\n      dup3\n        /* \"#utility.yul\":355:386   */\n      tag_181\n      jump\t// in\n        /* \"#utility.yul\":397:671   */\n    tag_76:\n      0x00\n      dup1\n        /* \"#utility.yul\":526:528   */\n      0x40\n        /* \"#utility.yul\":514:523   */\n      dup4\n        /* \"#utility.yul\":505:512   */\n      dup6\n        /* \"#utility.yul\":501:524   */\n      sub\n        /* \"#utility.yul\":497:529   */\n      slt\n        /* \"#utility.yul\":494:496   */\n      iszero\n      tag_188\n      jumpi\n        /* \"#utility.yul\":547:553   */\n      dup1\n        /* \"#utility.yul\":539:545   */\n      dup2\n        /* \"#utility.yul\":532:554   */\n      revert\n        /* \"#utility.yul\":494:496   */\n    tag_188:\n        /* \"#utility.yul\":575:606   */\n      tag_189\n        /* \"#utility.yul\":596:605   */\n      dup4\n        /* \"#utility.yul\":575:606   */\n      tag_181\n      jump\t// in\n    tag_189:\n        /* \"#utility.yul\":565:606   */\n      swap2\n      pop\n        /* \"#utility.yul\":625:665   */\n      tag_190\n        /* \"#utility.yul\":661:663   */\n      0x20\n        /* \"#utility.yul\":650:659   */\n      dup5\n        /* \"#utility.yul\":646:664   */\n      add\n        /* \"#utility.yul\":625:665   */\n      tag_181\n      jump\t// in\n    tag_190:\n        /* \"#utility.yul\":615:665   */\n      swap1\n      pop\n        /* \"#utility.yul\":484:671   */\n      swap3\n      pop\n      swap3\n      swap1\n      pop\n      jump\t// out\n        /* \"#utility.yul\":676:1018   */\n    tag_37:\n      0x00\n      dup1\n      0x00\n        /* \"#utility.yul\":822:824   */\n      0x60\n        /* \"#utility.yul\":810:819   */\n      dup5\n        /* \"#utility.yul\":801:808   */\n      dup7\n        /* \"#utility.yul\":797:820   */\n      sub\n        /* \"#utility.yul\":793:825   */\n      slt\n        /* \"#utility.yul\":790:792   */\n      iszero\n      tag_192\n      jumpi\n        /* \"#utility.yul\":843:849   */\n      dup1\n        /* \"#utility.yul\":835:841   */\n      dup2\n        /* \"#utility.yul\":828:850   */\n      revert\n        /* \"#utility.yul\":790:792   */\n    tag_192:\n        /* \"#utility.yul\":871:902   */\n      tag_193\n        /* \"#utility.yul\":892:901   */\n      dup5\n        /* \"#utility.yul\":871:902   */\n      tag_181\n      jump\t// in\n    tag_193:\n        /* \"#utility.yul\":861:902   */\n      swap3\n      pop\n        /* \"#utility.yul\":921:961   */\n      tag_194\n        /* \"#utility.yul\":957:959   */\n      0x20\n        /* \"#utility.yul\":946:955   */\n      dup6\n        /* \"#utility.yul\":942:960   */\n      add\n        /* \"#utility.yul\":921:961   */\n      tag_181\n      jump\t// in\n    tag_194:\n        /* \"#utility.yul\":911:961   */\n      swap2\n      pop\n        /* \"#utility.yul\":1008:1010   */\n      0x40\n        /* \"#utility.yul\":997:1006   */\n      dup5\n        /* \"#utility.yul\":993:1011   */\n      add\n        /* \"#utility.yul\":980:1012   */\n      calldataload\n        /* \"#utility.yul\":970:1012   */\n      swap1\n      pop\n        /* \"#utility.yul\":780:1018   */\n      swap3\n      pop\n      swap3\n      pop\n      swap3\n      jump\t// out\n        /* \"#utility.yul\":1023:1392   */\n    tag_57:\n      0x00\n      dup1\n        /* \"#utility.yul\":1149:1151   */\n      0x40\n        /* \"#utility.yul\":1137:1146   */\n      dup4\n        /* \"#utility.yul\":1128:1135   */\n      dup6\n        /* \"#utility.yul\":1124:1147   */\n      sub\n        /* \"#utility.yul\":1120:1152   */\n      slt\n        /* \"#utility.yul\":1117:1119   */\n      iszero\n      tag_196\n      jumpi\n        /* \"#utility.yul\":1170:1176   */\n      dup2\n        /* \"#utility.yul\":1162:1168   */\n      dup3\n        /* \"#utility.yul\":1155:1177   */\n      revert\n        /* \"#utility.yul\":1117:1119   */\n    tag_196:\n        /* \"#utility.yul\":1198:1229   */\n      tag_197\n        /* \"#utility.yul\":1219:1228   */\n      dup4\n        /* \"#utility.yul\":1198:1229   */\n      tag_181\n      jump\t// in\n    tag_197:\n        /* \"#utility.yul\":1188:1229   */\n      swap2\n      pop\n        /* \"#utility.yul\":1279:1281   */\n      0x20\n        /* \"#utility.yul\":1268:1277   */\n      dup4\n        /* \"#utility.yul\":1264:1282   */\n      add\n        /* \"#utility.yul\":1251:1283   */\n      calldataload\n        /* \"#utility.yul\":1326:1331   */\n      dup1\n        /* \"#utility.yul\":1319:1332   */\n      iszero\n        /* \"#utility.yul\":1312:1333   */\n      iszero\n        /* \"#utility.yul\":1305:1310   */\n      dup2\n        /* \"#utility.yul\":1302:1334   */\n      eq\n        /* \"#utility.yul\":1292:1294   */\n      tag_198\n      jumpi\n        /* \"#utility.yul\":1353:1359   */\n      dup2\n        /* \"#utility.yul\":1345:1351   */\n      dup3\n        /* \"#utility.yul\":1338:1360   */\n      revert\n        /* \"#utility.yul\":1292:1294   */\n    tag_198:\n        /* \"#utility.yul\":1381:1386   */\n      dup1\n        /* \"#utility.yul\":1371:1386   */\n      swap2\n      pop\n      pop\n        /* \"#utility.yul\":1107:1392   */\n      swap3\n      pop\n      swap3\n      swap1\n      pop\n      jump\t// out\n        /* \"#utility.yul\":1397:1663   */\n    tag_27:\n      0x00\n      dup1\n        /* \"#utility.yul\":1526:1528   */\n      0x40\n        /* \"#utility.yul\":1514:1523   */\n      dup4\n        /* \"#utility.yul\":1505:1512   */\n      dup6\n        /* \"#utility.yul\":1501:1524   */\n      sub\n        /* \"#utility.yul\":1497:1529   */\n      slt\n        /* \"#utility.yul\":1494:1496   */\n      iszero\n      tag_200\n      jumpi\n        /* \"#utility.yul\":1547:1553   */\n      dup2\n        /* \"#utility.yul\":1539:1545   */\n      dup3\n        /* \"#utility.yul\":1532:1554   */\n      revert\n        /* \"#utility.yul\":1494:1496   */\n    tag_200:\n        /* \"#utility.yul\":1575:1606   */\n      tag_201\n        /* \"#utility.yul\":1596:1605   */\n      dup4\n        /* \"#utility.yul\":1575:1606   */\n      tag_181\n      jump\t// in\n    tag_201:\n        /* \"#utility.yul\":1565:1606   */\n      swap5\n        /* \"#utility.yul\":1653:1655   */\n      0x20\n        /* \"#utility.yul\":1638:1656   */\n      swap4\n      swap1\n      swap4\n      add\n        /* \"#utility.yul\":1625:1657   */\n      calldataload\n      swap4\n      pop\n      pop\n      pop\n        /* \"#utility.yul\":1484:1663   */\n      jump\t// out\n        /* \"#utility.yul\":1668:1871   */\n    tag_62:\n      sub(shl(0xa0, 0x01), 0x01)\n        /* \"#utility.yul\":1832:1864   */\n      swap2\n      swap1\n      swap2\n      and\n        /* \"#utility.yul\":1814:1865   */\n      dup2\n      mstore\n        /* \"#utility.yul\":1802:1804   */\n      0x20\n        /* \"#utility.yul\":1787:1805   */\n      add\n      swap1\n        /* \"#utility.yul\":1769:1871   */\n      jump\t// out\n        /* \"#utility.yul\":1876:2063   */\n    tag_30:\n        /* \"#utility.yul\":2041:2055   */\n      swap1\n      iszero\n        /* \"#utility.yul\":2034:2056   */\n      iszero\n        /* \"#utility.yul\":2016:2057   */\n      dup2\n      mstore\n        /* \"#utility.yul\":2004:2006   */\n      0x20\n        /* \"#utility.yul\":1989:2007   */\n      add\n      swap1\n        /* \"#utility.yul\":1971:2063   */\n      jump\t// out\n        /* \"#utility.yul\":2068:2671   */\n    tag_24:\n      0x00\n        /* \"#utility.yul\":2209:2211   */\n      0x20\n        /* \"#utility.yul\":2238:2240   */\n      dup1\n        /* \"#utility.yul\":2227:2236   */\n      dup4\n        /* \"#utility.yul\":2220:2241   */\n      mstore\n        /* \"#utility.yul\":2270:2276   */\n      dup4\n        /* \"#utility.yul\":2264:2277   */\n      mload\n        /* \"#utility.yul\":2313:2319   */\n      dup1\n        /* \"#utility.yul\":2308:2310   */\n      dup3\n        /* \"#utility.yul\":2297:2306   */\n      dup6\n        /* \"#utility.yul\":2293:2311   */\n      add\n        /* \"#utility.yul\":2286:2320   */\n      mstore\n        /* \"#utility.yul\":2338:2342   */\n      dup3\n        /* \"#utility.yul\":2351:2491   */\n    tag_205:\n        /* \"#utility.yul\":2365:2371   */\n      dup2\n        /* \"#utility.yul\":2362:2363   */\n      dup2\n        /* \"#utility.yul\":2359:2372   */\n      lt\n        /* \"#utility.yul\":2351:2491   */\n      iszero\n      tag_207\n      jumpi\n        /* \"#utility.yul\":2460:2474   */\n      dup6\n      dup2\n      add\n        /* \"#utility.yul\":2456:2479   */\n      dup4\n      add\n        /* \"#utility.yul\":2450:2480   */\n      mload\n        /* \"#utility.yul\":2426:2443   */\n      dup6\n      dup3\n      add\n        /* \"#utility.yul\":2445:2447   */\n      0x40\n        /* \"#utility.yul\":2422:2448   */\n      add\n        /* \"#utility.yul\":2415:2481   */\n      mstore\n        /* \"#utility.yul\":2380:2390   */\n      dup3\n      add\n        /* \"#utility.yul\":2351:2491   */\n      jump(tag_205)\n    tag_207:\n        /* \"#utility.yul\":2509:2515   */\n      dup2\n        /* \"#utility.yul\":2506:2507   */\n      dup2\n        /* \"#utility.yul\":2503:2516   */\n      gt\n        /* \"#utility.yul\":2500:2502   */\n      iszero\n      tag_208\n      jumpi\n        /* \"#utility.yul\":2579:2583   */\n      dup4\n        /* \"#utility.yul\":2574:2576   */\n      0x40\n        /* \"#utility.yul\":2565:2571   */\n      dup4\n        /* \"#utility.yul\":2554:2563   */\n      dup8\n        /* \"#utility.yul\":2550:2572   */\n      add\n        /* \"#utility.yul\":2546:2577   */\n      add\n        /* \"#utility.yul\":2539:2584   */\n      mstore\n        /* \"#utility.yul\":2500:2502   */\n    tag_208:\n      pop\n        /* \"#utility.yul\":2655:2657   */\n      0x1f\n        /* \"#utility.yul\":2634:2649   */\n      add\n      not(0x1f)\n        /* \"#utility.yul\":2630:2659   */\n      and\n        /* \"#utility.yul\":2615:2660   */\n      swap3\n      swap1\n      swap3\n      add\n        /* \"#utility.yul\":2662:2664   */\n      0x40\n        /* \"#utility.yul\":2611:2665   */\n      add\n      swap4\n        /* \"#utility.yul\":2189:2671   */\n      swap3\n      pop\n      pop\n      pop\n      jump\t// out\n        /* \"#utility.yul\":2676:3075   */\n    tag_161:\n        /* \"#utility.yul\":2878:2880   */\n      0x20\n        /* \"#utility.yul\":2860:2881   */\n      dup1\n      dup3\n      mstore\n        /* \"#utility.yul\":2917:2919   */\n      0x23\n        /* \"#utility.yul\":2897:2915   */\n      swap1\n      dup3\n      add\n        /* \"#utility.yul\":2890:2920   */\n      mstore\n        /* \"#utility.yul\":2956:2990   */\n      0x45524332303a207472616e7366657220746f20746865207a65726f2061646472\n        /* \"#utility.yul\":2951:2953   */\n      0x40\n        /* \"#utility.yul\":2936:2954   */\n      dup3\n      add\n        /* \"#utility.yul\":2929:2991   */\n      mstore\n      shl(0xe8, 0x657373)\n        /* \"#utility.yul\":3022:3024   */\n      0x60\n        /* \"#utility.yul\":3007:3025   */\n      dup3\n      add\n        /* \"#utility.yul\":3000:3033   */\n      mstore\n        /* \"#utility.yul\":3065:3068   */\n      0x80\n        /* \"#utility.yul\":3050:3069   */\n      add\n      swap1\n        /* \"#utility.yul\":2850:3075   */\n      jump\t// out\n        /* \"#utility.yul\":3080:3482   */\n    tag_145:\n        /* \"#utility.yul\":3282:3284   */\n      0x20\n        /* \"#utility.yul\":3264:3285   */\n      dup1\n      dup3\n      mstore\n        /* \"#utility.yul\":3321:3323   */\n      0x26\n        /* \"#utility.yul\":3301:3319   */\n      swap1\n      dup3\n      add\n        /* \"#utility.yul\":3294:3324   */\n      mstore\n        /* \"#utility.yul\":3360:3394   */\n      0x4f776e61626c653a206e6577206f776e657220697320746865207a65726f2061\n        /* \"#utility.yul\":3355:3357   */\n      0x40\n        /* \"#utility.yul\":3340:3358   */\n      dup3\n      add\n        /* \"#utility.yul\":3333:3395   */\n      mstore\n      shl(0xd0, 0x646472657373)\n        /* \"#utility.yul\":3426:3428   */\n      0x60\n        /* \"#utility.yul\":3411:3429   */\n      dup3\n      add\n        /* \"#utility.yul\":3404:3440   */\n      mstore\n        /* \"#utility.yul\":3472:3475   */\n      0x80\n        /* \"#utility.yul\":3457:3476   */\n      add\n      swap1\n        /* \"#utility.yul\":3254:3482   */\n      jump\t// out\n        /* \"#utility.yul\":3487:3885   */\n    tag_153:\n        /* \"#utility.yul\":3689:3691   */\n      0x20\n        /* \"#utility.yul\":3671:3692   */\n      dup1\n      dup3\n      mstore\n        /* \"#utility.yul\":3728:3730   */\n      0x22\n        /* \"#utility.yul\":3708:3726   */\n      swap1\n      dup3\n      add\n        /* \"#utility.yul\":3701:3731   */\n      mstore\n        /* \"#utility.yul\":3767:3801   */\n      0x45524332303a20617070726f766520746f20746865207a65726f206164647265\n        /* \"#utility.yul\":3762:3764   */\n      0x40\n        /* \"#utility.yul\":3747:3765   */\n      dup3\n      add\n        /* \"#utility.yul\":3740:3802   */\n      mstore\n      shl(0xf0, 0x7373)\n        /* \"#utility.yul\":3833:3835   */\n      0x60\n        /* \"#utility.yul\":3818:3836   */\n      dup3\n      add\n        /* \"#utility.yul\":3811:3843   */\n      mstore\n        /* \"#utility.yul\":3875:3878   */\n      0x80\n        /* \"#utility.yul\":3860:3879   */\n      add\n      swap1\n        /* \"#utility.yul\":3661:3885   */\n      jump\t// out\n        /* \"#utility.yul\":3890:4241   */\n    tag_177:\n        /* \"#utility.yul\":4092:4094   */\n      0x20\n        /* \"#utility.yul\":4074:4095   */\n      dup1\n      dup3\n      mstore\n        /* \"#utility.yul\":4131:4133   */\n      0x1b\n        /* \"#utility.yul\":4111:4129   */\n      swap1\n      dup3\n      add\n        /* \"#utility.yul\":4104:4134   */\n      mstore\n        /* \"#utility.yul\":4170:4199   */\n      0x536166654d6174683a206164646974696f6e206f766572666c6f770000000000\n        /* \"#utility.yul\":4165:4167   */\n      0x40\n        /* \"#utility.yul\":4150:4168   */\n      dup3\n      add\n        /* \"#utility.yul\":4143:4200   */\n      mstore\n        /* \"#utility.yul\":4232:4234   */\n      0x60\n        /* \"#utility.yul\":4217:4235   */\n      add\n      swap1\n        /* \"#utility.yul\":4064:4241   */\n      jump\t// out\n        /* \"#utility.yul\":4246:4602   */\n    tag_115:\n        /* \"#utility.yul\":4448:4450   */\n      0x20\n        /* \"#utility.yul\":4430:4451   */\n      dup1\n      dup3\n      mstore\n        /* \"#utility.yul\":4467:4485   */\n      dup2\n      dup2\n      add\n        /* \"#utility.yul\":4460:4490   */\n      mstore\n        /* \"#utility.yul\":4526:4560   */\n      0x4f776e61626c653a2063616c6c6572206973206e6f7420746865206f776e6572\n        /* \"#utility.yul\":4521:4523   */\n      0x40\n        /* \"#utility.yul\":4506:4524   */\n      dup3\n      add\n        /* \"#utility.yul\":4499:4561   */\n      mstore\n        /* \"#utility.yul\":4593:4595   */\n      0x60\n        /* \"#utility.yul\":4578:4596   */\n      add\n      swap1\n        /* \"#utility.yul\":4420:4602   */\n      jump\t// out\n        /* \"#utility.yul\":4607:5008   */\n    tag_158:\n        /* \"#utility.yul\":4809:4811   */\n      0x20\n        /* \"#utility.yul\":4791:4812   */\n      dup1\n      dup3\n      mstore\n        /* \"#utility.yul\":4848:4850   */\n      0x25\n        /* \"#utility.yul\":4828:4846   */\n      swap1\n      dup3\n      add\n        /* \"#utility.yul\":4821:4851   */\n      mstore\n        /* \"#utility.yul\":4887:4921   */\n      0x45524332303a207472616e736665722066726f6d20746865207a65726f206164\n        /* \"#utility.yul\":4882:4884   */\n      0x40\n        /* \"#utility.yul\":4867:4885   */\n      dup3\n      add\n        /* \"#utility.yul\":4860:4922   */\n      mstore\n      shl(0xd8, 0x6472657373)\n        /* \"#utility.yul\":4953:4955   */\n      0x60\n        /* \"#utility.yul\":4938:4956   */\n      dup3\n      add\n        /* \"#utility.yul\":4931:4966   */\n      mstore\n        /* \"#utility.yul\":4998:5001   */\n      0x80\n        /* \"#utility.yul\":4983:5002   */\n      add\n      swap1\n        /* \"#utility.yul\":4781:5008   */\n      jump\t// out\n        /* \"#utility.yul\":5013:5413   */\n    tag_150:\n        /* \"#utility.yul\":5215:5217   */\n      0x20\n        /* \"#utility.yul\":5197:5218   */\n      dup1\n      dup3\n      mstore\n        /* \"#utility.yul\":5254:5256   */\n      0x24\n        /* \"#utility.yul\":5234:5252   */\n      swap1\n      dup3\n      add\n        /* \"#utility.yul\":5227:5257   */\n      mstore\n        /* \"#utility.yul\":5293:5327   */\n      0x45524332303a20617070726f76652066726f6d20746865207a65726f20616464\n        /* \"#utility.yul\":5288:5290   */\n      0x40\n        /* \"#utility.yul\":5273:5291   */\n      dup3\n      add\n        /* \"#utility.yul\":5266:5328   */\n      mstore\n      shl(0xe0, 0x72657373)\n        /* \"#utility.yul\":5359:5361   */\n      0x60\n        /* \"#utility.yul\":5344:5362   */\n      dup3\n      add\n        /* \"#utility.yul\":5337:5371   */\n      mstore\n        /* \"#utility.yul\":5403:5406   */\n      0x80\n        /* \"#utility.yul\":5388:5407   */\n      add\n      swap1\n        /* \"#utility.yul\":5187:5413   */\n      jump\t// out\n        /* \"#utility.yul\":5418:5595   */\n    tag_34:\n        /* \"#utility.yul\":5564:5589   */\n      swap1\n      dup2\n      mstore\n        /* \"#utility.yul\":5552:5554   */\n      0x20\n        /* \"#utility.yul\":5537:5555   */\n      add\n      swap1\n        /* \"#utility.yul\":5519:5595   */\n      jump\t// out\n        /* \"#utility.yul\":5600:5784   */\n    tag_43:\n        /* \"#utility.yul\":5772:5776   */\n      0xff\n        /* \"#utility.yul\":5760:5777   */\n      swap2\n      swap1\n      swap2\n      and\n        /* \"#utility.yul\":5742:5778   */\n      dup2\n      mstore\n        /* \"#utility.yul\":5730:5732   */\n      0x20\n        /* \"#utility.yul\":5715:5733   */\n      add\n      swap1\n        /* \"#utility.yul\":5697:5784   */\n      jump\t// out\n        /* \"#utility.yul\":5789:5917   */\n    tag_174:\n      0x00\n        /* \"#utility.yul\":5860:5861   */\n      dup3\n        /* \"#utility.yul\":5856:5862   */\n      not\n        /* \"#utility.yul\":5853:5854   */\n      dup3\n        /* \"#utility.yul\":5850:5863   */\n      gt\n        /* \"#utility.yul\":5847:5849   */\n      iszero\n      tag_220\n      jumpi\n        /* \"#utility.yul\":5866:5884   */\n      tag_220\n      tag_221\n      jump\t// in\n    tag_220:\n      pop\n        /* \"#utility.yul\":5902:5911   */\n      add\n      swap1\n        /* \"#utility.yul\":5837:5917   */\n      jump\t// out\n        /* \"#utility.yul\":5922:6047   */\n    tag_171:\n      0x00\n        /* \"#utility.yul\":5990:5991   */\n      dup3\n        /* \"#utility.yul\":5987:5988   */\n      dup3\n        /* \"#utility.yul\":5984:5992   */\n      lt\n        /* \"#utility.yul\":5981:5983   */\n      iszero\n      tag_224\n      jumpi\n        /* \"#utility.yul\":5995:6013   */\n      tag_224\n      tag_221\n      jump\t// in\n    tag_224:\n      pop\n        /* \"#utility.yul\":6032:6041   */\n      sub\n      swap1\n        /* \"#utility.yul\":5971:6047   */\n      jump\t// out\n        /* \"#utility.yul\":6052:6432   */\n    tag_84:\n        /* \"#utility.yul\":6137:6138   */\n      0x02\n        /* \"#utility.yul\":6127:6139   */\n      dup2\n      div\n        /* \"#utility.yul\":6184:6185   */\n      0x01\n        /* \"#utility.yul\":6174:6186   */\n      dup3\n      and\n      dup1\n        /* \"#utility.yul\":6195:6197   */\n      tag_226\n      jumpi\n        /* \"#utility.yul\":6249:6253   */\n      0x7f\n        /* \"#utility.yul\":6241:6247   */\n      dup3\n        /* \"#utility.yul\":6237:6254   */\n      and\n        /* \"#utility.yul\":6227:6254   */\n      swap2\n      pop\n        /* \"#utility.yul\":6195:6197   */\n    tag_226:\n        /* \"#utility.yul\":6302:6304   */\n      0x20\n        /* \"#utility.yul\":6294:6300   */\n      dup3\n        /* \"#utility.yul\":6291:6305   */\n      lt\n        /* \"#utility.yul\":6271:6289   */\n      dup2\n        /* \"#utility.yul\":6268:6306   */\n      eq\n        /* \"#utility.yul\":6265:6267   */\n      iszero\n      tag_227\n      jumpi\n        /* \"#utility.yul\":6348:6358   */\n      0x4e487b71\n        /* \"#utility.yul\":6343:6346   */\n      0xe0\n        /* \"#utility.yul\":6339:6359   */\n      shl\n        /* \"#utility.yul\":6336:6337   */\n      0x00\n        /* \"#utility.yul\":6329:6360   */\n      mstore\n        /* \"#utility.yul\":6383:6387   */\n      0x22\n        /* \"#utility.yul\":6380:6381   */\n      0x04\n        /* \"#utility.yul\":6373:6388   */\n      mstore\n        /* \"#utility.yul\":6411:6415   */\n      0x24\n        /* \"#utility.yul\":6408:6409   */\n      0x00\n        /* \"#utility.yul\":6401:6416   */\n      revert\n        /* \"#utility.yul\":6265:6267   */\n    tag_227:\n      pop\n        /* \"#utility.yul\":6107:6432   */\n      swap2\n      swap1\n      pop\n      jump\t// out\n        /* \"#utility.yul\":6437:6564   */\n    tag_221:\n        /* \"#utility.yul\":6498:6508   */\n      0x4e487b71\n        /* \"#utility.yul\":6493:6496   */\n      0xe0\n        /* \"#utility.yul\":6489:6509   */\n      shl\n        /* \"#utility.yul\":6486:6487   */\n      0x00\n        /* \"#utility.yul\":6479:6510   */\n      mstore\n        /* \"#utility.yul\":6529:6533   */\n      0x11\n        /* \"#utility.yul\":6526:6527   */\n      0x04\n        /* \"#utility.yul\":6519:6534   */\n      mstore\n        /* \"#utility.yul\":6553:6557   */\n      0x24\n        /* \"#utility.yul\":6550:6551   */\n      0x00\n        /* \"#utility.yul\":6543:6558   */\n      revert\n    stop\n    data_4107e8a8b9e94bf8ff83080ddec1c0bffe897ebc2241b89d44f66b3d274088b6 45524332303a207472616e7366657220616d6f756e7420657863656564732062616c616e6365\n    data_974d1b4421da69cc60b481194f0dad36a5bb4e23da810da7a7fb30cdba178330 45524332303a207472616e7366657220616d6f756e74206578636565647320616c6c6f77616e6365\n    data_f8b476f7d28209d77d4a4ac1fe36b9f8259aa1bb6bddfa6e89de7e51615cf8a8 45524332303a2064656372656173656420616c6c6f77616e63652062656c6f77207a65726f\n\n    auxdata: 0xa2646970667358221220853d35cefe365cf274b64f04f53642bdc1c93a5194470e09948443c28e12f27364736f6c63430008000033\n}\n",
				"bytecode": {
					"linkReferences": {},
					"object": "608060405234801561001057600080fd5b50610d12806100206000396000f3fe608060405234801561001057600080fd5b50600436106100f55760003560e01c8063715018a611610097578063a457c2d711610066578063a457c2d7146101d5578063a9059cbb146101e8578063dd62ed3e146101fb578063f2fde38b1461020e576100f5565b8063715018a61461019b57806372d1c9fe146101a55780638da5cb5b146101b857806395d89b41146101cd576100f5565b806323b872dd116100d357806323b872dd1461014d578063313ce56714610160578063395093511461017557806370a0823114610188576100f5565b806306fdde03146100fa578063095ea7b31461011857806318160ddd14610138575b600080fd5b610102610221565b60405161010f91906109bf565b60405180910390f35b61012b610126366004610977565b6102b3565b60405161010f91906109b4565b6101406102d0565b60405161010f9190610bd2565b61012b61015b366004610902565b6102d6565b61016861035d565b60405161010f9190610bdb565b61012b610183366004610977565b610366565b6101406101963660046108b6565b6103b4565b6101a36103d3565b005b6101a36101b336600461093d565b61045b565b6101c06104bb565b60405161010f91906109a0565b6101026104ca565b61012b6101e3366004610977565b6104d9565b61012b6101f6366004610977565b610541565b6101406102093660046108d0565b610555565b6101a361021c3660046108b6565b610580565b6060609a805461023090610c18565b80601f016020809104026020016040519081016040528092919081815260200182805461025c90610c18565b80156102a95780601f1061027e576101008083540402835291602001916102a9565b820191906000526020600020905b81548152906001019060200180831161028c57829003601f168201915b5050505050905090565b60006102c76102c0610637565b848461063b565b50600192915050565b60995490565b60006102e38484846106ef565b610353846102ef610637565b61034e85604051806060016040528060288152602001610c90602891396001600160a01b038a1660009081526098602052604081209061032d610637565b6001600160a01b031681526020810191909152604001600020549190610804565b61063b565b5060019392505050565b609c5460ff1690565b60006102c7610373610637565b8461034e8560986000610384610637565b6001600160a01b03908116825260208083019390935260409182016000908120918c16815292529020549061083e565b6001600160a01b0381166000908152609760205260409020545b919050565b6103db610637565b6065546001600160a01b039081169116146104115760405162461bcd60e51b815260040161040890610b14565b60405180910390fd5b6065546040516000916001600160a01b0316907f8be0079c531659141344cd1fd0a4f28419497f9722a3daafe3b4186f6b6457e0908390a3606580546001600160a01b0319169055565b610463610637565b6065546001600160a01b039081169116146104905760405162461bcd60e51b815260040161040890610b14565b6001600160a01b03919091166000908152609d60205260409020805460ff1916911515919091179055565b6065546001600160a01b031690565b6060609b805461023090610c18565b60006102c76104e6610637565b8461034e85604051806060016040528060258152602001610cb86025913960986000610510610637565b6001600160a01b03908116825260208083019390935260409182016000908120918d16815292529020549190610804565b60006102c761054e610637565b84846106ef565b6001600160a01b03918216600090815260986020908152604080832093909416825291909152205490565b610588610637565b6065546001600160a01b039081169116146105b55760405162461bcd60e51b815260040161040890610b14565b6001600160a01b0381166105db5760405162461bcd60e51b815260040161040890610a55565b6065546040516001600160a01b038084169216907f8be0079c531659141344cd1fd0a4f28419497f9722a3daafe3b4186f6b6457e090600090a3606580546001600160a01b0319166001600160a01b0392909216919091179055565b3390565b6001600160a01b0383166106615760405162461bcd60e51b815260040161040890610b8e565b6001600160a01b0382166106875760405162461bcd60e51b815260040161040890610a9b565b6001600160a01b0380841660008181526098602090815260408083209487168084529490915290819020849055517f8c5be1e5ebec7d5bd14f71427d1e84f3dd0314c0f7b2291e5b200ac8c7c3b925906106e2908590610bd2565b60405180910390a3505050565b6001600160a01b0383166107155760405162461bcd60e51b815260040161040890610b49565b6001600160a01b03821661073b5760405162461bcd60e51b815260040161040890610a12565b610746838383610874565b61078381604051806060016040528060268152602001610c6a602691396001600160a01b0386166000908152609760205260409020549190610804565b6001600160a01b0380851660009081526097602052604080822093909355908416815220546107b2908261083e565b6001600160a01b0380841660008181526097602052604090819020939093559151908516907fddf252ad1be2c89b69c2b068fc378daa952ba7f163c4a11628f55a4df523b3ef906106e2908590610bd2565b600081848411156108285760405162461bcd60e51b815260040161040891906109bf565b5060006108358486610c01565b95945050505050565b60008061084b8385610be9565b90508381101561086d5760405162461bcd60e51b815260040161040890610add565b9392505050565b6001600160a01b0383166000908152609d602052604090205460ff161561089a57600080fd5b505050565b80356001600160a01b03811681146103ce57600080fd5b6000602082840312156108c7578081fd5b61086d8261089f565b600080604083850312156108e2578081fd5b6108eb8361089f565b91506108f96020840161089f565b90509250929050565b600080600060608486031215610916578081fd5b61091f8461089f565b925061092d6020850161089f565b9150604084013590509250925092565b6000806040838503121561094f578182fd5b6109588361089f565b91506020830135801515811461096c578182fd5b809150509250929050565b60008060408385031215610989578182fd5b6109928361089f565b946020939093013593505050565b6001600160a01b0391909116815260200190565b901515815260200190565b6000602080835283518082850152825b818110156109eb578581018301518582016040015282016109cf565b818111156109fc5783604083870101525b50601f01601f1916929092016040019392505050565b60208082526023908201527f45524332303a207472616e7366657220746f20746865207a65726f206164647260408201526265737360e81b606082015260800190565b60208082526026908201527f4f776e61626c653a206e6577206f776e657220697320746865207a65726f206160408201526564647265737360d01b606082015260800190565b60208082526022908201527f45524332303a20617070726f766520746f20746865207a65726f206164647265604082015261737360f01b606082015260800190565b6020808252601b908201527f536166654d6174683a206164646974696f6e206f766572666c6f770000000000604082015260600190565b6020808252818101527f4f776e61626c653a2063616c6c6572206973206e6f7420746865206f776e6572604082015260600190565b60208082526025908201527f45524332303a207472616e736665722066726f6d20746865207a65726f206164604082015264647265737360d81b606082015260800190565b60208082526024908201527f45524332303a20617070726f76652066726f6d20746865207a65726f206164646040820152637265737360e01b606082015260800190565b90815260200190565b60ff91909116815260200190565b60008219821115610bfc57610bfc610c53565b500190565b600082821015610c1357610c13610c53565b500390565b600281046001821680610c2c57607f821691505b60208210811415610c4d57634e487b7160e01b600052602260045260246000fd5b50919050565b634e487b7160e01b600052601160045260246000fdfe45524332303a207472616e7366657220616d6f756e7420657863656564732062616c616e636545524332303a207472616e7366657220616d6f756e74206578636565647320616c6c6f77616e636545524332303a2064656372656173656420616c6c6f77616e63652062656c6f77207a65726fa2646970667358221220853d35cefe365cf274b64f04f53642bdc1c93a5194470e09948443c28e12f27364736f6c63430008000033",
					"opcodes": "PUSH1 0x80 PUSH1 0x40 MSTORE CALLVALUE DUP1 ISZERO PUSH2 0x10 JUMPI PUSH1 0x0 DUP1 REVERT JUMPDEST POP PUSH2 0xD12 DUP1 PUSH2 0x20 PUSH1 0x0 CODECOPY PUSH1 0x0 RETURN INVALID PUSH1 0x80 PUSH1 0x40 MSTORE CALLVALUE DUP1 ISZERO PUSH2 0x10 JUMPI PUSH1 0x0 DUP1 REVERT JUMPDEST POP PUSH1 0x4 CALLDATASIZE LT PUSH2 0xF5 JUMPI PUSH1 0x0 CALLDATALOAD PUSH1 0xE0 SHR DUP1 PUSH4 0x715018A6 GT PUSH2 0x97 JUMPI DUP1 PUSH4 0xA457C2D7 GT PUSH2 0x66 JUMPI DUP1 PUSH4 0xA457C2D7 EQ PUSH2 0x1D5 JUMPI DUP1 PUSH4 0xA9059CBB EQ PUSH2 0x1E8 JUMPI DUP1 PUSH4 0xDD62ED3E EQ PUSH2 0x1FB JUMPI DUP1 PUSH4 0xF2FDE38B EQ PUSH2 0x20E JUMPI PUSH2 0xF5 JUMP JUMPDEST DUP1 PUSH4 0x715018A6 EQ PUSH2 0x19B JUMPI DUP1 PUSH4 0x72D1C9FE EQ PUSH2 0x1A5 JUMPI DUP1 PUSH4 0x8DA5CB5B EQ PUSH2 0x1B8 JUMPI DUP1 PUSH4 0x95D89B41 EQ PUSH2 0x1CD JUMPI PUSH2 0xF5 JUMP JUMPDEST DUP1 PUSH4 0x23B872DD GT PUSH2 0xD3 JUMPI DUP1 PUSH4 0x23B872DD EQ PUSH2 0x14D JUMPI DUP1 PUSH4 0x313CE567 EQ PUSH2 0x160 JUMPI DUP1 PUSH4 0x39509351 EQ PUSH2 0x175 JUMPI DUP1 PUSH4 0x70A08231 EQ PUSH2 0x188 JUMPI PUSH2 0xF5 JUMP JUMPDEST DUP1 PUSH4 0x6FDDE03 EQ PUSH2 0xFA JUMPI DUP1 PUSH4 0x95EA7B3 EQ PUSH2 0x118 JUMPI DUP1 PUSH4 0x18160DDD EQ PUSH2 0x138 JUMPI JUMPDEST PUSH1 0x0 DUP1 REVERT JUMPDEST PUSH2 0x102 PUSH2 0x221 JUMP JUMPDEST PUSH1 0x40 MLOAD PUSH2 0x10F SWAP2 SWAP1 PUSH2 0x9BF JUMP JUMPDEST PUSH1 0x40 MLOAD DUP1 SWAP2 SUB SWAP1 RETURN JUMPDEST PUSH2 0x12B PUSH2 0x126 CALLDATASIZE PUSH1 0x4 PUSH2 0x977 JUMP JUMPDEST PUSH2 0x2B3 JUMP JUMPDEST PUSH1 0x40 MLOAD PUSH2 0x10F SWAP2 SWAP1 PUSH2 0x9B4 JUMP JUMPDEST PUSH2 0x140 PUSH2 0x2D0 JUMP JUMPDEST PUSH1 0x40 MLOAD PUSH2 0x10F SWAP2 SWAP1 PUSH2 0xBD2 JUMP JUMPDEST PUSH2 0x12B PUSH2 0x15B CALLDATASIZE PUSH1 0x4 PUSH2 0x902 JUMP JUMPDEST PUSH2 0x2D6 JUMP JUMPDEST PUSH2 0x168 PUSH2 0x35D JUMP JUMPDEST PUSH1 0x40 MLOAD PUSH2 0x10F SWAP2 SWAP1 PUSH2 0xBDB JUMP JUMPDEST PUSH2 0x12B PUSH2 0x183 CALLDATASIZE PUSH1 0x4 PUSH2 0x977 JUMP JUMPDEST PUSH2 0x366 JUMP JUMPDEST PUSH2 0x140 PUSH2 0x196 CALLDATASIZE PUSH1 0x4 PUSH2 0x8B6 JUMP JUMPDEST PUSH2 0x3B4 JUMP JUMPDEST PUSH2 0x1A3 PUSH2 0x3D3 JUMP JUMPDEST STOP JUMPDEST PUSH2 0x1A3 PUSH2 0x1B3 CALLDATASIZE PUSH1 0x4 PUSH2 0x93D JUMP JUMPDEST PUSH2 0x45B JUMP JUMPDEST PUSH2 0x1C0 PUSH2 0x4BB JUMP JUMPDEST PUSH1 0x40 MLOAD PUSH2 0x10F SWAP2 SWAP1 PUSH2 0x9A0 JUMP JUMPDEST PUSH2 0x102 PUSH2 0x4CA JUMP JUMPDEST PUSH2 0x12B PUSH2 0x1E3 CALLDATASIZE PUSH1 0x4 PUSH2 0x977 JUMP JUMPDEST PUSH2 0x4D9 JUMP JUMPDEST PUSH2 0x12B PUSH2 0x1F6 CALLDATASIZE PUSH1 0x4 PUSH2 0x977 JUMP JUMPDEST PUSH2 0x541 JUMP JUMPDEST PUSH2 0x140 PUSH2 0x209 CALLDATASIZE PUSH1 0x4 PUSH2 0x8D0 JUMP JUMPDEST PUSH2 0x555 JUMP JUMPDEST PUSH2 0x1A3 PUSH2 0x21C CALLDATASIZE PUSH1 0x4 PUSH2 0x8B6 JUMP JUMPDEST PUSH2 0x580 JUMP JUMPDEST PUSH1 0x60 PUSH1 0x9A DUP1 SLOAD PUSH2 0x230 SWAP1 PUSH2 0xC18 JUMP JUMPDEST DUP1 PUSH1 0x1F ADD PUSH1 0x20 DUP1 SWAP2 DIV MUL PUSH1 0x20 ADD PUSH1 0x40 MLOAD SWAP1 DUP2 ADD PUSH1 0x40 MSTORE DUP1 SWAP3 SWAP2 SWAP1 DUP2 DUP2 MSTORE PUSH1 0x20 ADD DUP3 DUP1 SLOAD PUSH2 0x25C SWAP1 PUSH2 0xC18 JUMP JUMPDEST DUP1 ISZERO PUSH2 0x2A9 JUMPI DUP1 PUSH1 0x1F LT PUSH2 0x27E JUMPI PUSH2 0x100 DUP1 DUP4 SLOAD DIV MUL DUP4 MSTORE SWAP2 PUSH1 0x20 ADD SWAP2 PUSH2 0x2A9 JUMP JUMPDEST DUP3 ADD SWAP2 SWAP1 PUSH1 0x0 MSTORE PUSH1 0x20 PUSH1 0x0 KECCAK256 SWAP1 JUMPDEST DUP2 SLOAD DUP2 MSTORE SWAP1 PUSH1 0x1 ADD SWAP1 PUSH1 0x20 ADD DUP1 DUP4 GT PUSH2 0x28C JUMPI DUP3 SWAP1 SUB PUSH1 0x1F AND DUP3 ADD SWAP2 JUMPDEST POP POP POP POP POP SWAP1 POP SWAP1 JUMP JUMPDEST PUSH1 0x0 PUSH2 0x2C7 PUSH2 0x2C0 PUSH2 0x637 JUMP JUMPDEST DUP5 DUP5 PUSH2 0x63B JUMP JUMPDEST POP PUSH1 0x1 SWAP3 SWAP2 POP POP JUMP JUMPDEST PUSH1 0x99 SLOAD SWAP1 JUMP JUMPDEST PUSH1 0x0 PUSH2 0x2E3 DUP5 DUP5 DUP5 PUSH2 0x6EF JUMP JUMPDEST PUSH2 0x353 DUP5 PUSH2 0x2EF PUSH2 0x637 JUMP JUMPDEST PUSH2 0x34E DUP6 PUSH1 0x40 MLOAD DUP1 PUSH1 0x60 ADD PUSH1 0x40 MSTORE DUP1 PUSH1 0x28 DUP2 MSTORE PUSH1 0x20 ADD PUSH2 0xC90 PUSH1 0x28 SWAP2 CODECOPY PUSH1 0x1 PUSH1 0x1 PUSH1 0xA0 SHL SUB DUP11 AND PUSH1 0x0 SWAP1 DUP2 MSTORE PUSH1 0x98 PUSH1 0x20 MSTORE PUSH1 0x40 DUP2 KECCAK256 SWAP1 PUSH2 0x32D PUSH2 0x637 JUMP JUMPDEST PUSH1 0x1 PUSH1 0x1 PUSH1 0xA0 SHL SUB AND DUP2 MSTORE PUSH1 0x20 DUP2 ADD SWAP2 SWAP1 SWAP2 MSTORE PUSH1 0x40 ADD PUSH1 0x0 KECCAK256 SLOAD SWAP2 SWAP1 PUSH2 0x804 JUMP JUMPDEST PUSH2 0x63B JUMP JUMPDEST POP PUSH1 0x1 SWAP4 SWAP3 POP POP POP JUMP JUMPDEST PUSH1 0x9C SLOAD PUSH1 0xFF AND SWAP1 JUMP JUMPDEST PUSH1 0x0 PUSH2 0x2C7 PUSH2 0x373 PUSH2 0x637 JUMP JUMPDEST DUP5 PUSH2 0x34E DUP6 PUSH1 0x98 PUSH1 0x0 PUSH2 0x384 PUSH2 0x637 JUMP JUMPDEST PUSH1 0x1 PUSH1 0x1 PUSH1 0xA0 SHL SUB SWAP1 DUP2 AND DUP3 MSTORE PUSH1 0x20 DUP1 DUP4 ADD SWAP4 SWAP1 SWAP4 MSTORE PUSH1 0x40 SWAP2 DUP3 ADD PUSH1 0x0 SWAP1 DUP2 KECCAK256 SWAP2 DUP13 AND DUP2 MSTORE SWAP3 MSTORE SWAP1 KECCAK256 SLOAD SWAP1 PUSH2 0x83E JUMP JUMPDEST PUSH1 0x1 PUSH1 0x1 PUSH1 0xA0 SHL SUB DUP2 AND PUSH1 0x0 SWAP1 DUP2 MSTORE PUSH1 0x97 PUSH1 0x20 MSTORE PUSH1 0x40 SWAP1 KECCAK256 SLOAD JUMPDEST SWAP2 SWAP1 POP JUMP JUMPDEST PUSH2 0x3DB PUSH2 0x637 JUMP JUMPDEST PUSH1 0x65 SLOAD PUSH1 0x1 PUSH1 0x1 PUSH1 0xA0 SHL SUB SWAP1 DUP2 AND SWAP2 AND EQ PUSH2 0x411 JUMPI PUSH1 0x40 MLOAD PUSH3 0x461BCD PUSH1 0xE5 SHL DUP2 MSTORE PUSH1 0x4 ADD PUSH2 0x408 SWAP1 PUSH2 0xB14 JUMP JUMPDEST PUSH1 0x40 MLOAD DUP1 SWAP2 SUB SWAP1 REVERT JUMPDEST PUSH1 0x65 SLOAD PUSH1 0x40 MLOAD PUSH1 0x0 SWAP2 PUSH1 0x1 PUSH1 0x1 PUSH1 0xA0 SHL SUB AND SWAP1 PUSH32 0x8BE0079C531659141344CD1FD0A4F28419497F9722A3DAAFE3B4186F6B6457E0 SWAP1 DUP4 SWAP1 LOG3 PUSH1 0x65 DUP1 SLOAD PUSH1 0x1 PUSH1 0x1 PUSH1 0xA0 SHL SUB NOT AND SWAP1 SSTORE JUMP JUMPDEST PUSH2 0x463 PUSH2 0x637 JUMP JUMPDEST PUSH1 0x65 SLOAD PUSH1 0x1 PUSH1 0x1 PUSH1 0xA0 SHL SUB SWAP1 DUP2 AND SWAP2 AND EQ PUSH2 0x490 JUMPI PUSH1 0x40 MLOAD PUSH3 0x461BCD PUSH1 0xE5 SHL DUP2 MSTORE PUSH1 0x4 ADD PUSH2 0x408 SWAP1 PUSH2 0xB14 JUMP JUMPDEST PUSH1 0x1 PUSH1 0x1 PUSH1 0xA0 SHL SUB SWAP2 SWAP1 SWAP2 AND PUSH1 0x0 SWAP1 DUP2 MSTORE PUSH1 0x9D PUSH1 0x20 MSTORE PUSH1 0x40 SWAP1 KECCAK256 DUP1 SLOAD PUSH1 0xFF NOT AND SWAP2 ISZERO ISZERO SWAP2 SWAP1 SWAP2 OR SWAP1 SSTORE JUMP JUMPDEST PUSH1 0x65 SLOAD PUSH1 0x1 PUSH1 0x1 PUSH1 0xA0 SHL SUB AND SWAP1 JUMP JUMPDEST PUSH1 0x60 PUSH1 0x9B DUP1 SLOAD PUSH2 0x230 SWAP1 PUSH2 0xC18 JUMP JUMPDEST PUSH1 0x0 PUSH2 0x2C7 PUSH2 0x4E6 PUSH2 0x637 JUMP JUMPDEST DUP5 PUSH2 0x34E DUP6 PUSH1 0x40 MLOAD DUP1 PUSH1 0x60 ADD PUSH1 0x40 MSTORE DUP1 PUSH1 0x25 DUP2 MSTORE PUSH1 0x20 ADD PUSH2 0xCB8 PUSH1 0x25 SWAP2 CODECOPY PUSH1 0x98 PUSH1 0x0 PUSH2 0x510 PUSH2 0x637 JUMP JUMPDEST PUSH1 0x1 PUSH1 0x1 PUSH1 0xA0 SHL SUB SWAP1 DUP2 AND DUP3 MSTORE PUSH1 0x20 DUP1 DUP4 ADD SWAP4 SWAP1 SWAP4 MSTORE PUSH1 0x40 SWAP2 DUP3 ADD PUSH1 0x0 SWAP1 DUP2 KECCAK256 SWAP2 DUP14 AND DUP2 MSTORE SWAP3 MSTORE SWAP1 KECCAK256 SLOAD SWAP2 SWAP1 PUSH2 0x804 JUMP JUMPDEST PUSH1 0x0 PUSH2 0x2C7 PUSH2 0x54E PUSH2 0x637 JUMP JUMPDEST DUP5 DUP5 PUSH2 0x6EF JUMP JUMPDEST PUSH1 0x1 PUSH1 0x1 PUSH1 0xA0 SHL SUB SWAP2 DUP3 AND PUSH1 0x0 SWAP1 DUP2 MSTORE PUSH1 0x98 PUSH1 0x20 SWAP1 DUP2 MSTORE PUSH1 0x40 DUP1 DUP4 KECCAK256 SWAP4 SWAP1 SWAP5 AND DUP3 MSTORE SWAP2 SWAP1 SWAP2 MSTORE KECCAK256 SLOAD SWAP1 JUMP JUMPDEST PUSH2 0x588 PUSH2 0x637 JUMP JUMPDEST PUSH1 0x65 SLOAD PUSH1 0x1 PUSH1 0x1 PUSH1 0xA0 SHL SUB SWAP1 DUP2 AND SWAP2 AND EQ PUSH2 0x5B5 JUMPI PUSH1 0x40 MLOAD PUSH3 0x461BCD PUSH1 0xE5 SHL DUP2 MSTORE PUSH1 0x4 ADD PUSH2 0x408 SWAP1 PUSH2 0xB14 JUMP JUMPDEST PUSH1 0x1 PUSH1 0x1 PUSH1 0xA0 SHL SUB DUP2 AND PUSH2 0x5DB JUMPI PUSH1 0x40 MLOAD PUSH3 0x461BCD PUSH1 0xE5 SHL DUP2 MSTORE PUSH1 0x4 ADD PUSH2 0x408 SWAP1 PUSH2 0xA55 JUMP JUMPDEST PUSH1 0x65 SLOAD PUSH1 0x40 MLOAD PUSH1 0x1 PUSH1 0x1 PUSH1 0xA0 SHL SUB DUP1 DUP5 AND SWAP3 AND SWAP1 PUSH32 0x8BE0079C531659141344CD1FD0A4F28419497F9722A3DAAFE3B4186F6B6457E0 SWAP1 PUSH1 0x0 SWAP1 LOG3 PUSH1 0x65 DUP1 SLOAD PUSH1 0x1 PUSH1 0x1 PUSH1 0xA0 SHL SUB NOT AND PUSH1 0x1 PUSH1 0x1 PUSH1 0xA0 SHL SUB SWAP3 SWAP1 SWAP3 AND SWAP2 SWAP1 SWAP2 OR SWAP1 SSTORE JUMP JUMPDEST CALLER SWAP1 JUMP JUMPDEST PUSH1 0x1 PUSH1 0x1 PUSH1 0xA0 SHL SUB DUP4 AND PUSH2 0x661 JUMPI PUSH1 0x40 MLOAD PUSH3 0x461BCD PUSH1 0xE5 SHL DUP2 MSTORE PUSH1 0x4 ADD PUSH2 0x408 SWAP1 PUSH2 0xB8E JUMP JUMPDEST PUSH1 0x1 PUSH1 0x1 PUSH1 0xA0 SHL SUB DUP3 AND PUSH2 0x687 JUMPI PUSH1 0x40 MLOAD PUSH3 0x461BCD PUSH1 0xE5 SHL DUP2 MSTORE PUSH1 0x4 ADD PUSH2 0x408 SWAP1 PUSH2 0xA9B JUMP JUMPDEST PUSH1 0x1 PUSH1 0x1 PUSH1 0xA0 SHL SUB DUP1 DUP5 AND PUSH1 0x0 DUP2 DUP2 MSTORE PUSH1 0x98 PUSH1 0x20 SWAP1 DUP2 MSTORE PUSH1 0x40 DUP1 DUP4 KECCAK256 SWAP5 DUP8 AND DUP1 DUP5 MSTORE SWAP5 SWAP1 SWAP2 MSTORE SWAP1 DUP2 SWAP1 KECCAK256 DUP5 SWAP1 SSTORE MLOAD PUSH32 0x8C5BE1E5EBEC7D5BD14F71427D1E84F3DD0314C0F7B2291E5B200AC8C7C3B925 SWAP1 PUSH2 0x6E2 SWAP1 DUP6 SWAP1 PUSH2 0xBD2 JUMP JUMPDEST PUSH1 0x40 MLOAD DUP1 SWAP2 SUB SWAP1 LOG3 POP POP POP JUMP JUMPDEST PUSH1 0x1 PUSH1 0x1 PUSH1 0xA0 SHL SUB DUP4 AND PUSH2 0x715 JUMPI PUSH1 0x40 MLOAD PUSH3 0x461BCD PUSH1 0xE5 SHL DUP2 MSTORE PUSH1 0x4 ADD PUSH2 0x408 SWAP1 PUSH2 0xB49 JUMP JUMPDEST PUSH1 0x1 PUSH1 0x1 PUSH1 0xA0 SHL SUB DUP3 AND PUSH2 0x73B JUMPI PUSH1 0x40 MLOAD PUSH3 0x461BCD PUSH1 0xE5 SHL DUP2 MSTORE PUSH1 0x4 ADD PUSH2 0x408 SWAP1 PUSH2 0xA12 JUMP JUMPDEST PUSH2 0x746 DUP4 DUP4 DUP4 PUSH2 0x874 JUMP JUMPDEST PUSH2 0x783 DUP2 PUSH1 0x40 MLOAD DUP1 PUSH1 0x60 ADD PUSH1 0x40 MSTORE DUP1 PUSH1 0x26 DUP2 MSTORE PUSH1 0x20 ADD PUSH2 0xC6A PUSH1 0x26 SWAP2 CODECOPY PUSH1 0x1 PUSH1 0x1 PUSH1 0xA0 SHL SUB DUP7 AND PUSH1 0x0 SWAP1 DUP2 MSTORE PUSH1 0x97 PUSH1 0x20 MSTORE PUSH1 0x40 SWAP1 KECCAK256 SLOAD SWAP2 SWAP1 PUSH2 0x804 JUMP JUMPDEST PUSH1 0x1 PUSH1 0x1 PUSH1 0xA0 SHL SUB DUP1 DUP6 AND PUSH1 0x0 SWAP1 DUP2 MSTORE PUSH1 0x97 PUSH1 0x20 MSTORE PUSH1 0x40 DUP1 DUP3 KECCAK256 SWAP4 SWAP1 SWAP4 SSTORE SWAP1 DUP5 AND DUP2 MSTORE KECCAK256 SLOAD PUSH2 0x7B2 SWAP1 DUP3 PUSH2 0x83E JUMP JUMPDEST PUSH1 0x1 PUSH1 0x1 PUSH1 0xA0 SHL SUB DUP1 DUP5 AND PUSH1 0x0 DUP2 DUP2 MSTORE PUSH1 0x97 PUSH1 0x20 MSTORE PUSH1 0x40 SWAP1 DUP2 SWAP1 KECCAK256 SWAP4 SWAP1 SWAP4 SSTORE SWAP2 MLOAD SWAP1 DUP6 AND SWAP1 PUSH32 0xDDF252AD1BE2C89B69C2B068FC378DAA952BA7F163C4A11628F55A4DF523B3EF SWAP1 PUSH2 0x6E2 SWAP1 DUP6 SWAP1 PUSH2 0xBD2 JUMP JUMPDEST PUSH1 0x0 DUP2 DUP5 DUP5 GT ISZERO PUSH2 0x828 JUMPI PUSH1 0x40 MLOAD PUSH3 0x461BCD PUSH1 0xE5 SHL DUP2 MSTORE PUSH1 0x4 ADD PUSH2 0x408 SWAP2 SWAP1 PUSH2 0x9BF JUMP JUMPDEST POP PUSH1 0x0 PUSH2 0x835 DUP5 DUP7 PUSH2 0xC01 JUMP JUMPDEST SWAP6 SWAP5 POP POP POP POP POP JUMP JUMPDEST PUSH1 0x0 DUP1 PUSH2 0x84B DUP4 DUP6 PUSH2 0xBE9 JUMP JUMPDEST SWAP1 POP DUP4 DUP2 LT ISZERO PUSH2 0x86D JUMPI PUSH1 0x40 MLOAD PUSH3 0x461BCD PUSH1 0xE5 SHL DUP2 MSTORE PUSH1 0x4 ADD PUSH2 0x408 SWAP1 PUSH2 0xADD JUMP JUMPDEST SWAP4 SWAP3 POP POP POP JUMP JUMPDEST PUSH1 0x1 PUSH1 0x1 PUSH1 0xA0 SHL SUB DUP4 AND PUSH1 0x0 SWAP1 DUP2 MSTORE PUSH1 0x9D PUSH1 0x20 MSTORE PUSH1 0x40 SWAP1 KECCAK256 SLOAD PUSH1 0xFF AND ISZERO PUSH2 0x89A JUMPI PUSH1 0x0 DUP1 REVERT JUMPDEST POP POP POP JUMP JUMPDEST DUP1 CALLDATALOAD PUSH1 0x1 PUSH1 0x1 PUSH1 0xA0 SHL SUB DUP2 AND DUP2 EQ PUSH2 0x3CE JUMPI PUSH1 0x0 DUP1 REVERT JUMPDEST PUSH1 0x0 PUSH1 0x20 DUP3 DUP5 SUB SLT ISZERO PUSH2 0x8C7 JUMPI DUP1 DUP2 REVERT JUMPDEST PUSH2 0x86D DUP3 PUSH2 0x89F JUMP JUMPDEST PUSH1 0x0 DUP1 PUSH1 0x40 DUP4 DUP6 SUB SLT ISZERO PUSH2 0x8E2 JUMPI DUP1 DUP2 REVERT JUMPDEST PUSH2 0x8EB DUP4 PUSH2 0x89F JUMP JUMPDEST SWAP2 POP PUSH2 0x8F9 PUSH1 0x20 DUP5 ADD PUSH2 0x89F JUMP JUMPDEST SWAP1 POP SWAP3 POP SWAP3 SWAP1 POP JUMP JUMPDEST PUSH1 0x0 DUP1 PUSH1 0x0 PUSH1 0x60 DUP5 DUP7 SUB SLT ISZERO PUSH2 0x916 JUMPI DUP1 DUP2 REVERT JUMPDEST PUSH2 0x91F DUP5 PUSH2 0x89F JUMP JUMPDEST SWAP3 POP PUSH2 0x92D PUSH1 0x20 DUP6 ADD PUSH2 0x89F JUMP JUMPDEST SWAP2 POP PUSH1 0x40 DUP5 ADD CALLDATALOAD SWAP1 POP SWAP3 POP SWAP3 POP SWAP3 JUMP JUMPDEST PUSH1 0x0 DUP1 PUSH1 0x40 DUP4 DUP6 SUB SLT ISZERO PUSH2 0x94F JUMPI DUP2 DUP3 REVERT JUMPDEST PUSH2 0x958 DUP4 PUSH2 0x89F JUMP JUMPDEST SWAP2 POP PUSH1 0x20 DUP4 ADD CALLDATALOAD DUP1 ISZERO ISZERO DUP2 EQ PUSH2 0x96C JUMPI DUP2 DUP3 REVERT JUMPDEST DUP1 SWAP2 POP POP SWAP3 POP SWAP3 SWAP1 POP JUMP JUMPDEST PUSH1 0x0 DUP1 PUSH1 0x40 DUP4 DUP6 SUB SLT ISZERO PUSH2 0x989 JUMPI DUP2 DUP3 REVERT JUMPDEST PUSH2 0x992 DUP4 PUSH2 0x89F JUMP JUMPDEST SWAP5 PUSH1 0x20 SWAP4 SWAP1 SWAP4 ADD CALLDATALOAD SWAP4 POP POP POP JUMP JUMPDEST PUSH1 0x1 PUSH1 0x1 PUSH1 0xA0 SHL SUB SWAP2 SWAP1 SWAP2 AND DUP2 MSTORE PUSH1 0x20 ADD SWAP1 JUMP JUMPDEST SWAP1 ISZERO ISZERO DUP2 MSTORE PUSH1 0x20 ADD SWAP1 JUMP JUMPDEST PUSH1 0x0 PUSH1 0x20 DUP1 DUP4 MSTORE DUP4 MLOAD DUP1 DUP3 DUP6 ADD MSTORE DUP3 JUMPDEST DUP2 DUP2 LT ISZERO PUSH2 0x9EB JUMPI DUP6 DUP2 ADD DUP4 ADD MLOAD DUP6 DUP3 ADD PUSH1 0x40 ADD MSTORE DUP3 ADD PUSH2 0x9CF JUMP JUMPDEST DUP2 DUP2 GT ISZERO PUSH2 0x9FC JUMPI DUP4 PUSH1 0x40 DUP4 DUP8 ADD ADD MSTORE JUMPDEST POP PUSH1 0x1F ADD PUSH1 0x1F NOT AND SWAP3 SWAP1 SWAP3 ADD PUSH1 0x40 ADD SWAP4 SWAP3 POP POP POP JUMP JUMPDEST PUSH1 0x20 DUP1 DUP3 MSTORE PUSH1 0x23 SWAP1 DUP3 ADD MSTORE PUSH32 0x45524332303A207472616E7366657220746F20746865207A65726F2061646472 PUSH1 0x40 DUP3 ADD MSTORE PUSH3 0x657373 PUSH1 0xE8 SHL PUSH1 0x60 DUP3 ADD MSTORE PUSH1 0x80 ADD SWAP1 JUMP JUMPDEST PUSH1 0x20 DUP1 DUP3 MSTORE PUSH1 0x26 SWAP1 DUP3 ADD MSTORE PUSH32 0x4F776E61626C653A206E6577206F776E657220697320746865207A65726F2061 PUSH1 0x40 DUP3 ADD MSTORE PUSH6 0x646472657373 PUSH1 0xD0 SHL PUSH1 0x60 DUP3 ADD MSTORE PUSH1 0x80 ADD SWAP1 JUMP JUMPDEST PUSH1 0x20 DUP1 DUP3 MSTORE PUSH1 0x22 SWAP1 DUP3 ADD MSTORE PUSH32 0x45524332303A20617070726F766520746F20746865207A65726F206164647265 PUSH1 0x40 DUP3 ADD MSTORE PUSH2 0x7373 PUSH1 0xF0 SHL PUSH1 0x60 DUP3 ADD MSTORE PUSH1 0x80 ADD SWAP1 JUMP JUMPDEST PUSH1 0x20 DUP1 DUP3 MSTORE PUSH1 0x1B SWAP1 DUP3 ADD MSTORE PUSH32 0x536166654D6174683A206164646974696F6E206F766572666C6F770000000000 PUSH1 0x40 DUP3 ADD MSTORE PUSH1 0x60 ADD SWAP1 JUMP JUMPDEST PUSH1 0x20 DUP1 DUP3 MSTORE DUP2 DUP2 ADD MSTORE PUSH32 0x4F776E61626C653A2063616C6C6572206973206E6F7420746865206F776E6572 PUSH1 0x40 DUP3 ADD MSTORE PUSH1 0x60 ADD SWAP1 JUMP JUMPDEST PUSH1 0x20 DUP1 DUP3 MSTORE PUSH1 0x25 SWAP1 DUP3 ADD MSTORE PUSH32 0x45524332303A207472616E736665722066726F6D20746865207A65726F206164 PUSH1 0x40 DUP3 ADD MSTORE PUSH5 0x6472657373 PUSH1 0xD8 SHL PUSH1 0x60 DUP3 ADD MSTORE PUSH1 0x80 ADD SWAP1 JUMP JUMPDEST PUSH1 0x20 DUP1 DUP3 MSTORE PUSH1 0x24 SWAP1 DUP3 ADD MSTORE PUSH32 0x45524332303A20617070726F76652066726F6D20746865207A65726F20616464 PUSH1 0x40 DUP3 ADD MSTORE PUSH4 0x72657373 PUSH1 0xE0 SHL PUSH1 0x60 DUP3 ADD MSTORE PUSH1 0x80 ADD SWAP1 JUMP JUMPDEST SWAP1 DUP2 MSTORE PUSH1 0x20 ADD SWAP1 JUMP JUMPDEST PUSH1 0xFF SWAP2 SWAP1 SWAP2 AND DUP2 MSTORE PUSH1 0x20 ADD SWAP1 JUMP JUMPDEST PUSH1 0x0 DUP3 NOT DUP3 GT ISZERO PUSH2 0xBFC JUMPI PUSH2 0xBFC PUSH2 0xC53 JUMP JUMPDEST POP ADD SWAP1 JUMP JUMPDEST PUSH1 0x0 DUP3 DUP3 LT ISZERO PUSH2 0xC13 JUMPI PUSH2 0xC13 PUSH2 0xC53 JUMP JUMPDEST POP SUB SWAP1 JUMP JUMPDEST PUSH1 0x2 DUP2 DIV PUSH1 0x1 DUP3 AND DUP1 PUSH2 0xC2C JUMPI PUSH1 0x7F DUP3 AND SWAP2 POP JUMPDEST PUSH1 0x20 DUP3 LT DUP2 EQ ISZERO PUSH2 0xC4D JUMPI PUSH4 0x4E487B71 PUSH1 0xE0 SHL PUSH1 0x0 MSTORE PUSH1 0x22 PUSH1 0x4 MSTORE PUSH1 0x24 PUSH1 0x0 REVERT JUMPDEST POP SWAP2 SWAP1 POP JUMP JUMPDEST PUSH4 0x4E487B71 PUSH1 0xE0 SHL PUSH1 0x0 MSTORE PUSH1 0x11 PUSH1 0x4 MSTORE PUSH1 0x24 PUSH1 0x0 REVERT INVALID GASLIMIT MSTORE NUMBER ORIGIN ADDRESS GASPRICE KECCAK256 PUSH21 0x72616E7366657220616D6F756E7420657863656564 PUSH20 0x2062616C616E636545524332303A207472616E73 PUSH7 0x657220616D6F75 PUSH15 0x74206578636565647320616C6C6F77 PUSH2 0x6E63 PUSH6 0x45524332303A KECCAK256 PUSH5 0x6563726561 PUSH20 0x656420616C6C6F77616E63652062656C6F77207A PUSH6 0x726FA2646970 PUSH7 0x7358221220853D CALLDATALOAD 0xCE INVALID CALLDATASIZE 0x5C CALLCODE PUSH21 0xB64F04F53642BDC1C93A5194470E09948443C28E12 CALLCODE PUSH20 0x64736F6C63430008000033000000000000000000 "
				},
				"gasEstimates": {
					"creation": {
						"codeDepositCost": "669200",
						"executionCost": "702",
						"totalCost": "669902"
					},
					"external": {
						"_setBot(address,bool)": "22218",
						"allowance(address,address)": "infinite",
						"approve(address,uint256)": "22629",
						"balanceOf(address)": "infinite",
						"decimals()": "1091",
						"decreaseAllowance(address,uint256)": "infinite",
						"increaseAllowance(address,uint256)": "infinite",
						"name()": "infinite",
						"owner()": "1137",
						"renounceOwnership()": "24224",
						"symbol()": "infinite",
						"totalSupply()": "1096",
						"transfer(address,uint256)": "infinite",
						"transferFrom(address,address,uint256)": "infinite",
						"transferOwnership(address)": "24527"
					},
					"internal": {
						"__ERC20_init(string memory,string memory)": "infinite",
						"__ERC20_init_unchained(string memory,string memory)": "infinite",
						"_approve(address,address,uint256)": "infinite",
						"_beforeTokenTransfer(address,address,uint256)": "934",
						"_burn(address,uint256)": "infinite",
						"_mint(address,uint256)": "infinite",
						"_setupDecimals(uint8)": "infinite",
						"_transfer(address,address,uint256)": "infinite"
					}
				},
				"methodIdentifiers": {
					"_setBot(address,bool)": "72d1c9fe",
					"allowance(address,address)": "dd62ed3e",
					"approve(address,uint256)": "095ea7b3",
					"balanceOf(address)": "70a08231",
					"decimals()": "313ce567",
					"decreaseAllowance(address,uint256)": "a457c2d7",
					"increaseAllowance(address,uint256)": "39509351",
					"name()": "06fdde03",
					"owner()": "8da5cb5b",
					"renounceOwnership()": "715018a6",
					"symbol()": "95d89b41",
					"totalSupply()": "18160ddd",
					"transfer(address,uint256)": "a9059cbb",
					"transferFrom(address,address,uint256)": "23b872dd",
					"transferOwnership(address)": "f2fde38b"
				}
			},
			"userdoc": {
				"kind": "user",
				"methods": {},
				"version": 1
			}
		}
	}
}