{
	"test_project/contracts/TokenVesting.sol": {
		"TokenVesting": {
			"abi": [
				{
					"inputs": [
						{
							"internalType": "address",
							"name": "_beneficiary",
							"type": "address"
						},
						{
							"internalType": "uint256",
							"name": "_start",
							"type": "uint256"
						},
						{
							"internalType": "uint256",
							"name": "_cliff",
							"type": "uint256"
						},
						{
							"internalType": "uint256",
							"name": "_duration",
							"type": "uint256"
						}
					],
					"stateMutability": "nonpayable",
					"type": "constructor"
				},
				{
					"anonymous": false,
					"inputs": [
						{
							"indexed": false,
							"internalType": "uint256",
							"name": "amount",
							"type": "uint256"
						}
					],
					"name": "Released",
					"type": "event"
				},
				{
					"inputs": [],
					"name": "beneficiary",
					"outputs": [
						{
							"internalType": "address",
							"name": "",
							"type": "address"
						}
					],
					"stateMutability": "view",
					"type": "function"
				},
				{
					"inputs": [],
					"name": "cliff",
					"outputs": [
						{
							"internalType": "uint256",
							"name": "",
							"type": "uint256"
						}
					],
					"stateMutability": "view",
					"type": "function"
				},
				{
					"inputs": [],
					"name": "duration",
					"outputs": [
						{
							"internalType": "uint256",
							"name": "",
							"type": "uint256"
						}
					],
					"stateMutability": "view",
					"type": "function"
				},
				{
					"inputs": [
						{
							"internalType": "address",
							"name": "token",
							"type": "address"
						}
					],
					"name": "releasableAmount",
					"outputs": [
						{
							"internalType": "uint256",
							"name": "",
							"type": "uint256"
						}
					],
					"stateMutability": "view",
					"type": "function"
				},
				{
					"inputs": [
						{
							"internalType": "address",
							"name": "token",
							"type": "address"
						}
					],
					"name": "release",
					"outputs": [],
					"stateMutability": "nonpayable",
					"type": "function"
				},
				{
					"inputs": [
						{
							"internalType": "address",
							"name": "",
							"type": "address"
						}
					],
					"name": "released",
					"outputs": [
						{
							"internalType": "uint256",
							"name": "",
							"type": "uint256"
						}
					],
					"stateMutability": "view",
					"type": "function"
				},
				{
					"inputs": [],
					"name": "start",
					"outputs": [
						{
							"internalType": "uint256",
							"name": "",
							"type": "uint256"
						}
					],
					"stateMutability": "view",
					"type": "function"
				},
				{
					"inputs": [
						{
							"internalType": "address",
							"name": "token",
							"type": "address"
						}
					],
					"name": "vestedAmount",
					"outputs": [
						{
							"internalType": "uint256",
							"name": "",
							"type": "uint256"
						}
					],
					"stateMutability": "view",
					"type": "function"
				}
			],
			"devdoc": {
				"details": "A token holder contract that can release its token balance gradually like a typical vesting scheme, with a cliff and vesting period. Optionally revocable by the owner.",
				"kind": "dev",
				"methods": {
					"constructor": {
						"details": "Creates a vesting contract that vests its balance of any ERC20 token to the _beneficiary, gradually in a linear fashion until _start + _duration. By then all of the balance will have vested.",
						"params": {
							"_beneficiary": "获赠代币的受益人地址",
							"_cliff": "duration in seconds of the cliff in which tokens will begin to vest",
							"_duration": "token授予的持续时间，单位为秒"
						}
					},
					"releasableAmount(address)": {
						"details": "Calculates the amount that has already vested but hasn't been released yet.",
						"params": {
							"token": "ERC20 token which is being vested"
						}
					},
					"release(address)": {
						"params": {
							"token": "ERC20 token which is being vested"
						}
					},
					"vestedAmount(address)": {
						"details": "Calculates the amount that has already vested.",
						"params": {
							"token": "ERC20 token which is being vested"
						}
					}
				},
				"title": "TokenVesting",
				"version": 1
			},
			"evm": {
				"assembly": "    /* \"test_project/contracts/TokenVesting.sol\":397:4397  contract TokenVesting {... */\n  mstore(0x40, 0x80)\n    /* \"test_project/contracts/TokenVesting.sol\":1362:2053  constructor(... */\n  callvalue\n  dup1\n  iszero\n  tag_1\n  jumpi\n  0x00\n  dup1\n  revert\ntag_1:\n  pop\n  mload(0x40)\n  sub(codesize, bytecodeSize)\n  dup1\n  bytecodeSize\n  dup4\n  codecopy\n  dup2\n  add\n  0x40\n  dup2\n  swap1\n  mstore\n  tag_2\n  swap2\n  tag_3\n  jump\t// in\ntag_2:\n  sub(shl(0xa0, 0x01), 0x01)\n    /* \"test_project/contracts/TokenVesting.sol\":1854:1880  _beneficiary != address(0) */\n  dup5\n  and\n    /* \"test_project/contracts/TokenVesting.sol\":1846:1881  require(_beneficiary != address(0)) */\n  tag_6\n  jumpi\n  0x00\n  dup1\n  revert\ntag_6:\n    /* \"test_project/contracts/TokenVesting.sol\":1909:1918  _duration */\n  dup1\n    /* \"test_project/contracts/TokenVesting.sol\":1899:1905  _cliff */\n  dup3\n    /* \"test_project/contracts/TokenVesting.sol\":1899:1918  _cliff <= _duration */\n  gt\n  iszero\n    /* \"test_project/contracts/TokenVesting.sol\":1891:1919  require(_cliff <= _duration) */\n  tag_7\n  jumpi\n  0x00\n  dup1\n  revert\ntag_7:\n    /* \"test_project/contracts/TokenVesting.sol\":1930:1941  beneficiary */\n  0x00\n    /* \"test_project/contracts/TokenVesting.sol\":1930:1956  beneficiary = _beneficiary */\n  dup1\n  sload\n  not(sub(shl(0xa0, 0x01), 0x01))\n  and\n  sub(shl(0xa0, 0x01), 0x01)\n  dup7\n  and\n  or\n  swap1\n  sstore\n    /* \"test_project/contracts/TokenVesting.sol\":1966:1974  duration */\n  0x03\n    /* \"test_project/contracts/TokenVesting.sol\":1966:1986  duration = _duration */\n  dup2\n  swap1\n  sstore\n    /* \"test_project/contracts/TokenVesting.sol\":2004:2022  _start.add(_cliff) */\n  tag_8\n    /* \"test_project/contracts/TokenVesting.sol\":2004:2010  _start */\n  dup4\n    /* \"test_project/contracts/TokenVesting.sol\":2015:2021  _cliff */\n  dup4\n    /* \"test_project/contracts/TokenVesting.sol\":2004:2014  _start.add */\n  tag_9\n  0x20\n  swap1\n  dup2\n  shl\n  tag_0_42\n  or\n    /* \"test_project/contracts/TokenVesting.sol\":2004:2022  _start.add(_cliff) */\n  swap1\n  shr\n  jump\t// in\ntag_8:\n    /* \"test_project/contracts/TokenVesting.sol\":1996:2001  cliff */\n  0x01\n    /* \"test_project/contracts/TokenVesting.sol\":1996:2022  cliff = _start.add(_cliff) */\n  sstore\n  pop\n  pop\n    /* \"test_project/contracts/TokenVesting.sol\":2032:2037  start */\n  0x02\n    /* \"test_project/contracts/TokenVesting.sol\":2032:2046  start = _start */\n  sstore\n  pop\n    /* \"test_project/contracts/TokenVesting.sol\":397:4397  contract TokenVesting {... */\n  jump(tag_17)\n    /* \"lib0.8/common/SafeMath.sol\":881:1057  function add(uint256 a, uint256 b) internal pure returns (uint256) {... */\ntag_9:\n    /* \"lib0.8/common/SafeMath.sol\":939:946  uint256 */\n  0x00\n  dup1\n    /* \"lib0.8/common/SafeMath.sol\":970:975  a + b */\n  tag_12\n    /* \"lib0.8/common/SafeMath.sol\":974:975  b */\n  dup4\n    /* \"lib0.8/common/SafeMath.sol\":970:971  a */\n  dup6\n    /* \"lib0.8/common/SafeMath.sol\":970:975  a + b */\n  tag_13\n  jump\t// in\ntag_12:\n    /* \"lib0.8/common/SafeMath.sol\":958:975  uint256 c = a + b */\n  swap1\n  pop\n    /* \"lib0.8/common/SafeMath.sol\":998:999  a */\n  dup4\n    /* \"lib0.8/common/SafeMath.sol\":993:994  c */\n  dup2\n    /* \"lib0.8/common/SafeMath.sol\":993:999  c >= a */\n  lt\n  iszero\n    /* \"lib0.8/common/SafeMath.sol\":985:1031  require(c >= a, \"SafeMath: addition overflow\") */\n  tag_14\n  jumpi\n  mload(0x40)\n  shl(0xe5, 0x461bcd)\n  dup2\n  mstore\n  tag_15\n  swap1\n  0x04\n  add\n  tag_16\n  jump\t// in\ntag_15:\n  mload(0x40)\n  dup1\n  swap2\n  sub\n  swap1\n  revert\ntag_14:\n    /* \"lib0.8/common/SafeMath.sol\":1049:1050  c */\n  swap4\n    /* \"lib0.8/common/SafeMath.sol\":881:1057  function add(uint256 a, uint256 b) internal pure returns (uint256) {... */\n  swap3\n  pop\n  pop\n  pop\n  jump\t// out\n    /* \"#utility.yul\":14:508   */\ntag_3:\n  0x00\n  dup1\n  0x00\n  dup1\n    /* \"#utility.yul\":188:191   */\n  0x80\n    /* \"#utility.yul\":176:185   */\n  dup6\n    /* \"#utility.yul\":167:174   */\n  dup8\n    /* \"#utility.yul\":163:186   */\n  sub\n    /* \"#utility.yul\":159:192   */\n  slt\n    /* \"#utility.yul\":156:158   */\n  iszero\n  tag_19\n  jumpi\n    /* \"#utility.yul\":210:216   */\n  dup4\n    /* \"#utility.yul\":202:208   */\n  dup5\n    /* \"#utility.yul\":195:217   */\n  revert\n    /* \"#utility.yul\":156:158   */\ntag_19:\n    /* \"#utility.yul\":241:257   */\n  dup5\n  mload\n  sub(shl(0xa0, 0x01), 0x01)\n    /* \"#utility.yul\":286:317   */\n  dup2\n  and\n    /* \"#utility.yul\":276:318   */\n  dup2\n  eq\n    /* \"#utility.yul\":266:268   */\n  tag_20\n  jumpi\n    /* \"#utility.yul\":337:343   */\n  dup5\n    /* \"#utility.yul\":329:335   */\n  dup6\n    /* \"#utility.yul\":322:344   */\n  revert\n    /* \"#utility.yul\":266:268   */\ntag_20:\n    /* \"#utility.yul\":410:412   */\n  0x20\n    /* \"#utility.yul\":395:413   */\n  dup7\n  add\n    /* \"#utility.yul\":389:414   */\n  mload\n    /* \"#utility.yul\":454:456   */\n  0x40\n    /* \"#utility.yul\":439:457   */\n  dup8\n  add\n    /* \"#utility.yul\":433:458   */\n  mload\n    /* \"#utility.yul\":498:500   */\n  0x60\n    /* \"#utility.yul\":483:501   */\n  swap1\n  swap8\n  add\n    /* \"#utility.yul\":477:502   */\n  mload\n    /* \"#utility.yul\":365:370   */\n  swap2\n  swap9\n    /* \"#utility.yul\":389:414   */\n  swap1\n  swap8\n  pop\n    /* \"#utility.yul\":477:502   */\n  swap1\n  swap5\n  pop\n    /* \"#utility.yul\":146:508   */\n  swap3\n  pop\n  pop\n  pop\n  jump\t// out\n    /* \"#utility.yul\":513:864   */\ntag_16:\n    /* \"#utility.yul\":715:717   */\n  0x20\n    /* \"#utility.yul\":697:718   */\n  dup1\n  dup3\n  mstore\n    /* \"#utility.yul\":754:756   */\n  0x1b\n    /* \"#utility.yul\":734:752   */\n  swap1\n  dup3\n  add\n    /* \"#utility.yul\":727:757   */\n  mstore\n    /* \"#utility.yul\":793:822   */\n  0x536166654d6174683a206164646974696f6e206f766572666c6f770000000000\n    /* \"#utility.yul\":788:790   */\n  0x40\n    /* \"#utility.yul\":773:791   */\n  dup3\n  add\n    /* \"#utility.yul\":766:823   */\n  mstore\n    /* \"#utility.yul\":855:857   */\n  0x60\n    /* \"#utility.yul\":840:858   */\n  add\n  swap1\n    /* \"#utility.yul\":687:864   */\n  jump\t// out\n    /* \"#utility.yul\":869:1098   */\ntag_13:\n  0x00\n    /* \"#utility.yul\":940:941   */\n  dup3\n    /* \"#utility.yul\":936:942   */\n  not\n    /* \"#utility.yul\":933:934   */\n  dup3\n    /* \"#utility.yul\":930:943   */\n  gt\n    /* \"#utility.yul\":927:929   */\n  iszero\n  tag_23\n  jumpi\n  shl(0xe0, 0x4e487b71)\n    /* \"#utility.yul\":966:999   */\n  dup2\n  mstore\n    /* \"#utility.yul\":1022:1026   */\n  0x11\n    /* \"#utility.yul\":1019:1020   */\n  0x04\n    /* \"#utility.yul\":1012:1027   */\n  mstore\n    /* \"#utility.yul\":1052:1056   */\n  0x24\n    /* \"#utility.yul\":966:999   */\n  dup2\n    /* \"#utility.yul\":1040:1057   */\n  revert\n    /* \"#utility.yul\":927:929   */\ntag_23:\n  pop\n    /* \"#utility.yul\":1083:1092   */\n  add\n  swap1\n    /* \"#utility.yul\":917:1098   */\n  jump\t// out\ntag_17:\n    /* \"test_project/contracts/TokenVesting.sol\":397:4397  contract TokenVesting {... */\n  dataSize(sub_0)\n  dup1\n  dataOffset(sub_0)\n  0x00\n  codecopy\n  0x00\n  return\nstop\n\nsub_0: assembly {\n        /* \"test_project/contracts/TokenVesting.sol\":397:4397  contract TokenVesting {... */\n      mstore(0x40, 0x80)\n      callvalue\n      dup1\n      iszero\n      tag_1\n      jumpi\n      0x00\n      dup1\n      revert\n    tag_1:\n      pop\n      jumpi(tag_2, lt(calldatasize, 0x04))\n      shr(0xe0, calldataload(0x00))\n      dup1\n      0x384711cc\n      gt\n      tag_11\n      jumpi\n      dup1\n      0x384711cc\n      eq\n      tag_7\n      jumpi\n      dup1\n      0x38af3eed\n      eq\n      tag_8\n      jumpi\n      dup1\n      0x9852595c\n      eq\n      tag_9\n      jumpi\n      dup1\n      0xbe9a6555\n      eq\n      tag_10\n      jumpi\n      jump(tag_2)\n    tag_11:\n      dup1\n      0x0fb5a6b4\n      eq\n      tag_3\n      jumpi\n      dup1\n      0x13d033c0\n      eq\n      tag_4\n      jumpi\n      dup1\n      0x1726cbc8\n      eq\n      tag_5\n      jumpi\n      dup1\n      0x19165587\n      eq\n      tag_6\n      jumpi\n    tag_2:\n      0x00\n      dup1\n      revert\n        /* \"test_project/contracts/TokenVesting.sol\":649:672  uint256 public duration */\n    tag_3:\n      tag_12\n      tag_13\n      jump\t// in\n    tag_12:\n      mload(0x40)\n      tag_14\n      swap2\n      swap1\n      tag_15\n      jump\t// in\n    tag_14:\n      mload(0x40)\n      dup1\n      swap2\n      sub\n      swap1\n      return\n        /* \"test_project/contracts/TokenVesting.sol\":597:617  uint256 public cliff */\n    tag_4:\n      tag_12\n      tag_17\n      jump\t// in\n        /* \"test_project/contracts/TokenVesting.sol\":2987:3234  function releasableAmount(address token) public view returns (uint256) {... */\n    tag_5:\n      tag_12\n      tag_20\n      calldatasize\n      0x04\n      tag_21\n      jump\t// in\n    tag_20:\n      tag_22\n      jump\t// in\n        /* \"test_project/contracts/TokenVesting.sol\":2235:2715  function release(address token) public {... */\n    tag_6:\n      tag_24\n      tag_25\n      calldatasize\n      0x04\n      tag_21\n      jump\t// in\n    tag_25:\n      tag_26\n      jump\t// in\n    tag_24:\n      stop\n        /* \"test_project/contracts/TokenVesting.sol\":3430:4395  function vestedAmount(address token) public view returns (uint256) {... */\n    tag_7:\n      tag_12\n      tag_28\n      calldatasize\n      0x04\n      tag_21\n      jump\t// in\n    tag_28:\n      tag_29\n      jump\t// in\n        /* \"test_project/contracts/TokenVesting.sol\":564:590  address public beneficiary */\n    tag_8:\n      tag_31\n      tag_32\n      jump\t// in\n    tag_31:\n      mload(0x40)\n      tag_14\n      swap2\n      swap1\n      tag_34\n      jump\t// in\n        /* \"test_project/contracts/TokenVesting.sol\":679:722  mapping(address => uint256) public released */\n    tag_9:\n      tag_12\n      tag_36\n      calldatasize\n      0x04\n      tag_21\n      jump\t// in\n    tag_36:\n      tag_37\n      jump\t// in\n        /* \"test_project/contracts/TokenVesting.sol\":623:643  uint256 public start */\n    tag_10:\n      tag_12\n      tag_40\n      jump\t// in\n        /* \"test_project/contracts/TokenVesting.sol\":649:672  uint256 public duration */\n    tag_13:\n      sload(0x03)\n      dup2\n      jump\t// out\n        /* \"test_project/contracts/TokenVesting.sol\":597:617  uint256 public cliff */\n    tag_17:\n      sload(0x01)\n      dup2\n      jump\t// out\n        /* \"test_project/contracts/TokenVesting.sol\":2987:3234  function releasableAmount(address token) public view returns (uint256) {... */\n    tag_22:\n      sub(shl(0xa0, 0x01), 0x01)\n        /* \"test_project/contracts/TokenVesting.sol\":3211:3226  released[token] */\n      dup2\n      and\n        /* \"test_project/contracts/TokenVesting.sol\":3049:3056  uint256 */\n      0x00\n        /* \"test_project/contracts/TokenVesting.sol\":3211:3226  released[token] */\n      swap1\n      dup2\n      mstore\n        /* \"test_project/contracts/TokenVesting.sol\":3211:3219  released */\n      0x04\n        /* \"test_project/contracts/TokenVesting.sol\":3211:3226  released[token] */\n      0x20\n      mstore\n      0x40\n      dup2\n      keccak256\n      sload\n        /* \"test_project/contracts/TokenVesting.sol\":3187:3227  vestedAmount(token).sub(released[token]) */\n      tag_44\n      swap1\n        /* \"test_project/contracts/TokenVesting.sol\":3187:3206  vestedAmount(token) */\n      tag_45\n        /* \"test_project/contracts/TokenVesting.sol\":3211:3226  released[token] */\n      dup5\n        /* \"test_project/contracts/TokenVesting.sol\":3187:3199  vestedAmount */\n      tag_29\n        /* \"test_project/contracts/TokenVesting.sol\":3187:3206  vestedAmount(token) */\n      jump\t// in\n    tag_45:\n        /* \"test_project/contracts/TokenVesting.sol\":3187:3210  vestedAmount(token).sub */\n      swap1\n      tag_46\n        /* \"test_project/contracts/TokenVesting.sol\":3187:3227  vestedAmount(token).sub(released[token]) */\n      jump\t// in\n    tag_44:\n        /* \"test_project/contracts/TokenVesting.sol\":3180:3227  return vestedAmount(token).sub(released[token]) */\n      swap1\n      pop\n        /* \"test_project/contracts/TokenVesting.sol\":2987:3234  function releasableAmount(address token) public view returns (uint256) {... */\n    tag_43:\n      swap2\n      swap1\n      pop\n      jump\t// out\n        /* \"test_project/contracts/TokenVesting.sol\":2235:2715  function release(address token) public {... */\n    tag_26:\n        /* \"test_project/contracts/TokenVesting.sol\":2318:2336  uint256 unreleased */\n      0x00\n        /* \"test_project/contracts/TokenVesting.sol\":2339:2362  releasableAmount(token) */\n      tag_48\n        /* \"test_project/contracts/TokenVesting.sol\":2356:2361  token */\n      dup3\n        /* \"test_project/contracts/TokenVesting.sol\":2339:2355  releasableAmount */\n      tag_22\n        /* \"test_project/contracts/TokenVesting.sol\":2339:2362  releasableAmount(token) */\n      jump\t// in\n    tag_48:\n        /* \"test_project/contracts/TokenVesting.sol\":2318:2362  uint256 unreleased = releasableAmount(token) */\n      swap1\n      pop\n        /* \"test_project/contracts/TokenVesting.sol\":2394:2395  0 */\n      0x00\n        /* \"test_project/contracts/TokenVesting.sol\":2381:2391  unreleased */\n      dup2\n        /* \"test_project/contracts/TokenVesting.sol\":2381:2395  unreleased > 0 */\n      gt\n        /* \"test_project/contracts/TokenVesting.sol\":2373:2396  require(unreleased > 0) */\n      tag_49\n      jumpi\n      0x00\n      dup1\n      revert\n    tag_49:\n      sub(shl(0xa0, 0x01), 0x01)\n        /* \"test_project/contracts/TokenVesting.sol\":2531:2546  released[token] */\n      dup3\n      and\n      0x00\n      swap1\n      dup2\n      mstore\n        /* \"test_project/contracts/TokenVesting.sol\":2531:2539  released */\n      0x04\n        /* \"test_project/contracts/TokenVesting.sol\":2531:2546  released[token] */\n      0x20\n      mstore\n      0x40\n      swap1\n      keccak256\n      sload\n        /* \"test_project/contracts/TokenVesting.sol\":2531:2562  released[token].add(unreleased) */\n      tag_50\n      swap1\n        /* \"test_project/contracts/TokenVesting.sol\":2551:2561  unreleased */\n      dup3\n        /* \"test_project/contracts/TokenVesting.sol\":2531:2550  released[token].add */\n      tag_42\n        /* \"test_project/contracts/TokenVesting.sol\":2531:2562  released[token].add(unreleased) */\n      jump\t// in\n    tag_50:\n      sub(shl(0xa0, 0x01), 0x01)\n        /* \"test_project/contracts/TokenVesting.sol\":2513:2528  released[token] */\n      dup4\n      dup2\n      and\n      0x00\n      dup2\n      dup2\n      mstore\n        /* \"test_project/contracts/TokenVesting.sol\":2513:2521  released */\n      0x04\n        /* \"test_project/contracts/TokenVesting.sol\":2513:2528  released[token] */\n      0x20\n      mstore\n      0x40\n      dup2\n      keccak256\n        /* \"test_project/contracts/TokenVesting.sol\":2513:2562  released[token] = released[token].add(unreleased) */\n      swap4\n      swap1\n      swap4\n      sstore\n        /* \"test_project/contracts/TokenVesting.sol\":2648:2659  beneficiary */\n      swap2\n      sload\n        /* \"test_project/contracts/TokenVesting.sol\":2621:2672  IERC20(token).safeTransfer(beneficiary, unreleased) */\n      tag_51\n      swap3\n        /* \"test_project/contracts/TokenVesting.sol\":2513:2528  released[token] */\n      swap2\n        /* \"test_project/contracts/TokenVesting.sol\":2648:2659  beneficiary */\n      and\n        /* \"test_project/contracts/TokenVesting.sol\":2661:2671  unreleased */\n      dup4\n        /* \"test_project/contracts/TokenVesting.sol\":2621:2647  IERC20(token).safeTransfer */\n      tag_52\n        /* \"test_project/contracts/TokenVesting.sol\":2621:2672  IERC20(token).safeTransfer(beneficiary, unreleased) */\n      jump\t// in\n    tag_51:\n        /* \"test_project/contracts/TokenVesting.sol\":2688:2708  Released(unreleased) */\n      0xfb81f9b30d73d830c3544b34d827c08142579ee75710b490bab0b3995468c565\n        /* \"test_project/contracts/TokenVesting.sol\":2697:2707  unreleased */\n      dup2\n        /* \"test_project/contracts/TokenVesting.sol\":2688:2708  Released(unreleased) */\n      mload(0x40)\n      tag_53\n      swap2\n      swap1\n      tag_15\n      jump\t// in\n    tag_53:\n      mload(0x40)\n      dup1\n      swap2\n      sub\n      swap1\n      log1\n        /* \"test_project/contracts/TokenVesting.sol\":2235:2715  function release(address token) public {... */\n      pop\n      pop\n      jump\t// out\n        /* \"test_project/contracts/TokenVesting.sol\":3430:4395  function vestedAmount(address token) public view returns (uint256) {... */\n    tag_29:\n        /* \"test_project/contracts/TokenVesting.sol\":3711:3749  IERC20(token).balanceOf(address(this)) */\n      mload(0x40)\n      shl(0xe0, 0x70a08231)\n      dup2\n      mstore\n        /* \"test_project/contracts/TokenVesting.sol\":3488:3495  uint256 */\n      0x00\n      swap1\n      dup2\n      swap1\n      sub(shl(0xa0, 0x01), 0x01)\n        /* \"test_project/contracts/TokenVesting.sol\":3711:3734  IERC20(token).balanceOf */\n      dup5\n      and\n      swap1\n      0x70a08231\n      swap1\n        /* \"test_project/contracts/TokenVesting.sol\":3711:3749  IERC20(token).balanceOf(address(this)) */\n      tag_55\n      swap1\n        /* \"test_project/contracts/TokenVesting.sol\":3743:3747  this */\n      address\n      swap1\n        /* \"test_project/contracts/TokenVesting.sol\":3711:3749  IERC20(token).balanceOf(address(this)) */\n      0x04\n      add\n      tag_34\n      jump\t// in\n    tag_55:\n      0x20\n      mload(0x40)\n      dup1\n      dup4\n      sub\n      dup2\n      dup7\n      dup1\n      extcodesize\n      iszero\n      dup1\n      iszero\n      tag_56\n      jumpi\n      0x00\n      dup1\n      revert\n    tag_56:\n      pop\n      gas\n      staticcall\n      iszero\n      dup1\n      iszero\n      tag_58\n      jumpi\n      returndatasize\n      0x00\n      dup1\n      returndatacopy\n      revert(0x00, returndatasize)\n    tag_58:\n      pop\n      pop\n      pop\n      pop\n      mload(0x40)\n      returndatasize\n      not(0x1f)\n      0x1f\n      dup3\n      add\n      and\n      dup3\n      add\n      dup1\n      0x40\n      mstore\n      pop\n      dup2\n      add\n      swap1\n      tag_59\n      swap2\n      swap1\n      tag_60\n      jump\t// in\n    tag_59:\n      sub(shl(0xa0, 0x01), 0x01)\n        /* \"test_project/contracts/TokenVesting.sol\":3963:3978  released[token] */\n      dup5\n      and\n        /* \"test_project/contracts/TokenVesting.sol\":3921:3941  uint256 totalBalance */\n      0x00\n        /* \"test_project/contracts/TokenVesting.sol\":3963:3978  released[token] */\n      swap1\n      dup2\n      mstore\n        /* \"test_project/contracts/TokenVesting.sol\":3963:3971  released */\n      0x04\n        /* \"test_project/contracts/TokenVesting.sol\":3963:3978  released[token] */\n      0x20\n      mstore\n      0x40\n      dup2\n      keccak256\n      sload\n        /* \"test_project/contracts/TokenVesting.sol\":3686:3749  uint256 currentBalance = IERC20(token).balanceOf(address(this)) */\n      swap2\n      swap3\n      pop\n        /* \"test_project/contracts/TokenVesting.sol\":3921:3941  uint256 totalBalance */\n      swap1\n        /* \"test_project/contracts/TokenVesting.sol\":3944:3979  currentBalance.add(released[token]) */\n      tag_61\n      swap1\n        /* \"test_project/contracts/TokenVesting.sol\":3686:3749  uint256 currentBalance = IERC20(token).balanceOf(address(this)) */\n      dup4\n      swap1\n        /* \"test_project/contracts/TokenVesting.sol\":3944:3962  currentBalance.add */\n      tag_42\n        /* \"test_project/contracts/TokenVesting.sol\":3944:3979  currentBalance.add(released[token]) */\n      jump\t// in\n    tag_61:\n        /* \"test_project/contracts/TokenVesting.sol\":3921:3979  uint256 totalBalance = currentBalance.add(released[token]) */\n      swap1\n      pop\n        /* \"test_project/contracts/TokenVesting.sol\":4012:4017  cliff */\n      sload(0x01)\n        /* \"test_project/contracts/TokenVesting.sol\":3994:4009  block.timestamp */\n      timestamp\n        /* \"test_project/contracts/TokenVesting.sol\":3994:4017  block.timestamp < cliff */\n      lt\n        /* \"test_project/contracts/TokenVesting.sol\":3990:4389  if (block.timestamp < cliff) {... */\n      iszero\n      tag_62\n      jumpi\n        /* \"test_project/contracts/TokenVesting.sol\":4040:4041  0 */\n      0x00\n        /* \"test_project/contracts/TokenVesting.sol\":4033:4041  return 0 */\n      swap3\n      pop\n      pop\n      pop\n      jump(tag_43)\n        /* \"test_project/contracts/TokenVesting.sol\":3990:4389  if (block.timestamp < cliff) {... */\n    tag_62:\n        /* \"test_project/contracts/TokenVesting.sol\":4124:4132  duration */\n      sload(0x03)\n        /* \"test_project/contracts/TokenVesting.sol\":4114:4119  start */\n      sload(0x02)\n        /* \"test_project/contracts/TokenVesting.sol\":4114:4133  start.add(duration) */\n      tag_64\n      swap2\n        /* \"test_project/contracts/TokenVesting.sol\":4114:4123  start.add */\n      tag_42\n        /* \"test_project/contracts/TokenVesting.sol\":4114:4133  start.add(duration) */\n      jump\t// in\n    tag_64:\n        /* \"test_project/contracts/TokenVesting.sol\":4095:4110  block.timestamp */\n      timestamp\n        /* \"test_project/contracts/TokenVesting.sol\":4095:4133  block.timestamp >= start.add(duration) */\n      lt\n        /* \"test_project/contracts/TokenVesting.sol\":4091:4389  if (block.timestamp >= start.add(duration)) {... */\n      tag_65\n      jumpi\n        /* \"test_project/contracts/TokenVesting.sol\":4156:4168  totalBalance */\n      swap2\n      pop\n        /* \"test_project/contracts/TokenVesting.sol\":4149:4168  return totalBalance */\n      tag_43\n      swap1\n      pop\n      jump\n        /* \"test_project/contracts/TokenVesting.sol\":4091:4389  if (block.timestamp >= start.add(duration)) {... */\n    tag_65:\n        /* \"test_project/contracts/TokenVesting.sol\":4320:4378  totalBalance.mul(block.timestamp.sub(start)).div(duration) */\n      tag_67\n        /* \"test_project/contracts/TokenVesting.sol\":4369:4377  duration */\n      sload(0x03)\n        /* \"test_project/contracts/TokenVesting.sol\":4320:4364  totalBalance.mul(block.timestamp.sub(start)) */\n      tag_68\n        /* \"test_project/contracts/TokenVesting.sol\":4337:4363  block.timestamp.sub(start) */\n      tag_69\n        /* \"test_project/contracts/TokenVesting.sol\":4357:4362  start */\n      sload(0x02)\n        /* \"test_project/contracts/TokenVesting.sol\":4337:4352  block.timestamp */\n      timestamp\n        /* \"test_project/contracts/TokenVesting.sol\":4337:4356  block.timestamp.sub */\n      tag_46\n      swap1\n        /* \"test_project/contracts/TokenVesting.sol\":4337:4363  block.timestamp.sub(start) */\n      swap2\n      swap1\n      0xffffffff\n      and\n      jump\t// in\n    tag_69:\n        /* \"test_project/contracts/TokenVesting.sol\":4320:4332  totalBalance */\n      dup5\n      swap1\n        /* \"test_project/contracts/TokenVesting.sol\":4320:4336  totalBalance.mul */\n      tag_70\n        /* \"test_project/contracts/TokenVesting.sol\":4320:4364  totalBalance.mul(block.timestamp.sub(start)) */\n      jump\t// in\n    tag_68:\n        /* \"test_project/contracts/TokenVesting.sol\":4320:4368  totalBalance.mul(block.timestamp.sub(start)).div */\n      swap1\n      tag_71\n        /* \"test_project/contracts/TokenVesting.sol\":4320:4378  totalBalance.mul(block.timestamp.sub(start)).div(duration) */\n      jump\t// in\n    tag_67:\n        /* \"test_project/contracts/TokenVesting.sol\":4313:4378  return totalBalance.mul(block.timestamp.sub(start)).div(duration) */\n      swap3\n      pop\n      pop\n      pop\n      jump(tag_43)\n        /* \"test_project/contracts/TokenVesting.sol\":564:590  address public beneficiary */\n    tag_32:\n      and(sub(shl(0xa0, 0x01), 0x01), sload(0x00))\n      dup2\n      jump\t// out\n        /* \"test_project/contracts/TokenVesting.sol\":679:722  mapping(address => uint256) public released */\n    tag_37:\n      mstore(0x20, 0x04)\n      0x00\n      swap1\n      dup2\n      mstore\n      0x40\n      swap1\n      keccak256\n      sload\n      dup2\n      jump\t// out\n        /* \"test_project/contracts/TokenVesting.sol\":623:643  uint256 public start */\n    tag_40:\n      sload(0x02)\n      dup2\n      jump\t// out\n        /* \"lib0.8/common/SafeMath.sol\":881:1057  function add(uint256 a, uint256 b) internal pure returns (uint256) {... */\n    tag_42:\n        /* \"lib0.8/common/SafeMath.sol\":939:946  uint256 */\n      0x00\n      dup1\n        /* \"lib0.8/common/SafeMath.sol\":970:975  a + b */\n      tag_73\n        /* \"lib0.8/common/SafeMath.sol\":974:975  b */\n      dup4\n        /* \"lib0.8/common/SafeMath.sol\":970:971  a */\n      dup6\n        /* \"lib0.8/common/SafeMath.sol\":970:975  a + b */\n      tag_74\n      jump\t// in\n    tag_73:\n        /* \"lib0.8/common/SafeMath.sol\":958:975  uint256 c = a + b */\n      swap1\n      pop\n        /* \"lib0.8/common/SafeMath.sol\":998:999  a */\n      dup4\n        /* \"lib0.8/common/SafeMath.sol\":993:994  c */\n      dup2\n        /* \"lib0.8/common/SafeMath.sol\":993:999  c >= a */\n      lt\n      iszero\n        /* \"lib0.8/common/SafeMath.sol\":985:1031  require(c >= a, \"SafeMath: addition overflow\") */\n      tag_75\n      jumpi\n      mload(0x40)\n      shl(0xe5, 0x461bcd)\n      dup2\n      mstore\n      tag_76\n      swap1\n      0x04\n      add\n      tag_77\n      jump\t// in\n    tag_76:\n      mload(0x40)\n      dup1\n      swap2\n      sub\n      swap1\n      revert\n    tag_75:\n        /* \"lib0.8/common/SafeMath.sol\":1049:1050  c */\n      swap1\n      pop\n        /* \"lib0.8/common/SafeMath.sol\":881:1057  function add(uint256 a, uint256 b) internal pure returns (uint256) {... */\n    tag_72:\n      swap3\n      swap2\n      pop\n      pop\n      jump\t// out\n        /* \"lib0.8/common/SafeMath.sol\":1328:1462  function sub(uint256 a, uint256 b) internal pure returns (uint256) {... */\n    tag_46:\n        /* \"lib0.8/common/SafeMath.sol\":1386:1393  uint256 */\n      0x00\n        /* \"lib0.8/common/SafeMath.sol\":1412:1455  sub(a, b, \"SafeMath: subtraction overflow\") */\n      tag_75\n        /* \"lib0.8/common/SafeMath.sol\":1416:1417  a */\n      dup4\n        /* \"lib0.8/common/SafeMath.sol\":1419:1420  b */\n      dup4\n        /* \"lib0.8/common/SafeMath.sol\":1412:1455  sub(a, b, \"SafeMath: subtraction overflow\") */\n      mload(0x40)\n      dup1\n      0x40\n      add\n      0x40\n      mstore\n      dup1\n      0x1e\n      dup2\n      mstore\n      0x20\n      add\n      0x536166654d6174683a207375627472616374696f6e206f766572666c6f770000\n      dup2\n      mstore\n      pop\n        /* \"lib0.8/common/SafeMath.sol\":1412:1415  sub */\n      tag_80\n        /* \"lib0.8/common/SafeMath.sol\":1412:1455  sub(a, b, \"SafeMath: subtraction overflow\") */\n      jump\t// in\n        /* \"lib0.8/erc20/SafeERC20.sol\":787:1137  function safeTransfer(IERC20 token, address to, uint value) internal {... */\n    tag_52:\n        /* \"lib0.8/erc20/SafeERC20.sol\":933:945  bool success */\n      0x00\n        /* \"lib0.8/erc20/SafeERC20.sol\":947:964  bytes memory data */\n      dup1\n        /* \"lib0.8/erc20/SafeERC20.sol\":976:981  token */\n      dup5\n      0x01\n      dup1\n      0xa0\n      shl\n      sub\n        /* \"lib0.8/erc20/SafeERC20.sol\":968:987  address(token).call */\n      and\n        /* \"lib0.8/erc20/SafeERC20.sol\":1011:1021  0xa9059cbb */\n      0xa9059cbb\n        /* \"lib0.8/erc20/SafeERC20.sol\":1023:1025  to */\n      dup6\n        /* \"lib0.8/erc20/SafeERC20.sol\":1027:1032  value */\n      dup6\n        /* \"lib0.8/erc20/SafeERC20.sol\":988:1033  abi.encodeWithSelector(0xa9059cbb, to, value) */\n      add(0x24, mload(0x40))\n      tag_82\n      swap3\n      swap2\n      swap1\n      tag_83\n      jump\t// in\n    tag_82:\n      0x40\n      dup1\n      mload\n      not(0x1f)\n      dup2\n      dup5\n      sub\n      add\n      dup2\n      mstore\n      swap2\n      dup2\n      mstore\n      0x20\n      dup3\n      add\n      dup1\n      mload\n      sub(shl(0xe0, 0x01), 0x01)\n      and\n      0xe0\n      swap5\n      swap1\n      swap5\n      shl\n      swap4\n      swap1\n      swap4\n      or\n      swap1\n      swap3\n      mstore\n        /* \"lib0.8/erc20/SafeERC20.sol\":968:1034  address(token).call(abi.encodeWithSelector(0xa9059cbb, to, value)) */\n      swap1\n      mload\n      tag_84\n      swap2\n        /* \"lib0.8/erc20/SafeERC20.sol\":988:1033  abi.encodeWithSelector(0xa9059cbb, to, value) */\n      swap1\n        /* \"lib0.8/erc20/SafeERC20.sol\":968:1034  address(token).call(abi.encodeWithSelector(0xa9059cbb, to, value)) */\n      tag_85\n      jump\t// in\n    tag_84:\n      0x00\n      mload(0x40)\n      dup1\n      dup4\n      sub\n      dup2\n      0x00\n      dup7\n      gas\n      call\n      swap2\n      pop\n      pop\n      returndatasize\n      dup1\n      0x00\n      dup2\n      eq\n      tag_88\n      jumpi\n      mload(0x40)\n      swap2\n      pop\n      and(add(returndatasize, 0x3f), not(0x1f))\n      dup3\n      add\n      0x40\n      mstore\n      returndatasize\n      dup3\n      mstore\n      returndatasize\n      0x00\n      0x20\n      dup5\n      add\n      returndatacopy\n      jump(tag_87)\n    tag_88:\n      0x60\n      swap2\n      pop\n    tag_87:\n      pop\n        /* \"lib0.8/erc20/SafeERC20.sol\":932:1034  (bool success, bytes memory data) = address(token).call(abi.encodeWithSelector(0xa9059cbb, to, value)) */\n      swap2\n      pop\n      swap2\n      pop\n        /* \"lib0.8/erc20/SafeERC20.sol\":1052:1059  success */\n      dup2\n        /* \"lib0.8/erc20/SafeERC20.sol\":1052:1109  success && (data.length == 0 || abi.decode(data, (bool))) */\n      dup1\n      iszero\n      tag_91\n      jumpi\n      pop\n        /* \"lib0.8/erc20/SafeERC20.sol\":1064:1075  data.length */\n      dup1\n      mload\n        /* \"lib0.8/erc20/SafeERC20.sol\":1064:1080  data.length == 0 */\n      iszero\n      dup1\n        /* \"lib0.8/erc20/SafeERC20.sol\":1064:1108  data.length == 0 || abi.decode(data, (bool)) */\n      tag_91\n      jumpi\n      pop\n        /* \"lib0.8/erc20/SafeERC20.sol\":1095:1099  data */\n      dup1\n        /* \"lib0.8/erc20/SafeERC20.sol\":1084:1108  abi.decode(data, (bool)) */\n      dup1\n      0x20\n      add\n      swap1\n      mload\n      dup2\n      add\n      swap1\n      tag_91\n      swap2\n      swap1\n      tag_92\n      jump\t// in\n    tag_91:\n        /* \"lib0.8/erc20/SafeERC20.sol\":1044:1130  require(success && (data.length == 0 || abi.decode(data, (bool))), '!TRANSFER_FAILED') */\n      tag_93\n      jumpi\n      mload(0x40)\n      shl(0xe5, 0x461bcd)\n      dup2\n      mstore\n      tag_76\n      swap1\n      0x04\n      add\n      tag_95\n      jump\t// in\n    tag_93:\n        /* \"lib0.8/erc20/SafeERC20.sol\":787:1137  function safeTransfer(IERC20 token, address to, uint value) internal {... */\n      pop\n      pop\n      pop\n      pop\n      pop\n      jump\t// out\n        /* \"lib0.8/common/SafeMath.sol\":2187:2646  function mul(uint256 a, uint256 b) internal pure returns (uint256) {... */\n    tag_70:\n        /* \"lib0.8/common/SafeMath.sol\":2245:2252  uint256 */\n      0x00\n        /* \"lib0.8/common/SafeMath.sol\":2486:2492  a == 0 */\n      dup3\n        /* \"lib0.8/common/SafeMath.sol\":2482:2527  if (a == 0) {... */\n      tag_97\n      jumpi\n      pop\n        /* \"lib0.8/common/SafeMath.sol\":2515:2516  0 */\n      0x00\n        /* \"lib0.8/common/SafeMath.sol\":2508:2516  return 0 */\n      jump(tag_72)\n        /* \"lib0.8/common/SafeMath.sol\":2482:2527  if (a == 0) {... */\n    tag_97:\n        /* \"lib0.8/common/SafeMath.sol\":2537:2546  uint256 c */\n      0x00\n        /* \"lib0.8/common/SafeMath.sol\":2549:2554  a * b */\n      tag_98\n        /* \"lib0.8/common/SafeMath.sol\":2553:2554  b */\n      dup4\n        /* \"lib0.8/common/SafeMath.sol\":2549:2550  a */\n      dup6\n        /* \"lib0.8/common/SafeMath.sol\":2549:2554  a * b */\n      tag_99\n      jump\t// in\n    tag_98:\n        /* \"lib0.8/common/SafeMath.sol\":2537:2554  uint256 c = a * b */\n      swap1\n      pop\n        /* \"lib0.8/common/SafeMath.sol\":2581:2582  b */\n      dup3\n        /* \"lib0.8/common/SafeMath.sol\":2572:2577  c / a */\n      tag_100\n        /* \"lib0.8/common/SafeMath.sol\":2576:2577  a */\n      dup6\n        /* \"lib0.8/common/SafeMath.sol\":2537:2554  uint256 c = a * b */\n      dup4\n        /* \"lib0.8/common/SafeMath.sol\":2572:2577  c / a */\n      tag_101\n      jump\t// in\n    tag_100:\n        /* \"lib0.8/common/SafeMath.sol\":2572:2582  c / a == b */\n      eq\n        /* \"lib0.8/common/SafeMath.sol\":2564:2620  require(c / a == b, \"SafeMath: multiplication overflow\") */\n      tag_75\n      jumpi\n      mload(0x40)\n      shl(0xe5, 0x461bcd)\n      dup2\n      mstore\n      tag_76\n      swap1\n      0x04\n      add\n      tag_104\n      jump\t// in\n        /* \"lib0.8/common/SafeMath.sol\":3108:3238  function div(uint256 a, uint256 b) internal pure returns (uint256) {... */\n    tag_71:\n        /* \"lib0.8/common/SafeMath.sol\":3166:3173  uint256 */\n      0x00\n        /* \"lib0.8/common/SafeMath.sol\":3192:3231  div(a, b, \"SafeMath: division by zero\") */\n      tag_75\n        /* \"lib0.8/common/SafeMath.sol\":3196:3197  a */\n      dup4\n        /* \"lib0.8/common/SafeMath.sol\":3199:3200  b */\n      dup4\n        /* \"lib0.8/common/SafeMath.sol\":3192:3231  div(a, b, \"SafeMath: division by zero\") */\n      mload(0x40)\n      dup1\n      0x40\n      add\n      0x40\n      mstore\n      dup1\n      0x1a\n      dup2\n      mstore\n      0x20\n      add\n      0x536166654d6174683a206469766973696f6e206279207a65726f000000000000\n      dup2\n      mstore\n      pop\n        /* \"lib0.8/common/SafeMath.sol\":3192:3195  div */\n      tag_107\n        /* \"lib0.8/common/SafeMath.sol\":3192:3231  div(a, b, \"SafeMath: division by zero\") */\n      jump\t// in\n        /* \"lib0.8/common/SafeMath.sol\":1753:1940  function sub(uint256 a, uint256 b, string memory errorMessage) internal pure returns (uint256) {... */\n    tag_80:\n        /* \"lib0.8/common/SafeMath.sol\":1839:1846  uint256 */\n      0x00\n        /* \"lib0.8/common/SafeMath.sol\":1874:1886  errorMessage */\n      dup2\n        /* \"lib0.8/common/SafeMath.sol\":1866:1872  b <= a */\n      dup5\n      dup5\n      gt\n      iszero\n        /* \"lib0.8/common/SafeMath.sol\":1858:1887  require(b <= a, errorMessage) */\n      tag_109\n      jumpi\n      mload(0x40)\n      shl(0xe5, 0x461bcd)\n      dup2\n      mstore\n      tag_76\n      swap2\n      swap1\n      0x04\n      add\n      tag_111\n      jump\t// in\n    tag_109:\n      pop\n        /* \"lib0.8/common/SafeMath.sol\":1897:1906  uint256 c */\n      0x00\n        /* \"lib0.8/common/SafeMath.sol\":1909:1914  a - b */\n      tag_112\n        /* \"lib0.8/common/SafeMath.sol\":1913:1914  b */\n      dup5\n        /* \"lib0.8/common/SafeMath.sol\":1909:1910  a */\n      dup7\n        /* \"lib0.8/common/SafeMath.sol\":1909:1914  a - b */\n      tag_113\n      jump\t// in\n    tag_112:\n        /* \"lib0.8/common/SafeMath.sol\":1897:1914  uint256 c = a - b */\n      swap6\n        /* \"lib0.8/common/SafeMath.sol\":1753:1940  function sub(uint256 a, uint256 b, string memory errorMessage) internal pure returns (uint256) {... */\n      swap5\n      pop\n      pop\n      pop\n      pop\n      pop\n      jump\t// out\n        /* \"lib0.8/common/SafeMath.sol\":3720:3992  function div(uint256 a, uint256 b, string memory errorMessage) internal pure returns (uint256) {... */\n    tag_107:\n        /* \"lib0.8/common/SafeMath.sol\":3806:3813  uint256 */\n      0x00\n        /* \"lib0.8/common/SafeMath.sol\":3840:3852  errorMessage */\n      dup2\n        /* \"lib0.8/common/SafeMath.sol\":3833:3838  b > 0 */\n      dup4\n        /* \"lib0.8/common/SafeMath.sol\":3825:3853  require(b > 0, errorMessage) */\n      tag_115\n      jumpi\n      mload(0x40)\n      shl(0xe5, 0x461bcd)\n      dup2\n      mstore\n      tag_76\n      swap2\n      swap1\n      0x04\n      add\n      tag_111\n      jump\t// in\n    tag_115:\n      pop\n        /* \"lib0.8/common/SafeMath.sol\":3863:3872  uint256 c */\n      0x00\n        /* \"lib0.8/common/SafeMath.sol\":3875:3880  a / b */\n      tag_112\n        /* \"lib0.8/common/SafeMath.sol\":3879:3880  b */\n      dup5\n        /* \"lib0.8/common/SafeMath.sol\":3875:3876  a */\n      dup7\n        /* \"lib0.8/common/SafeMath.sol\":3875:3880  a / b */\n      tag_101\n      jump\t// in\n        /* \"#utility.yul\":14:320   */\n    tag_21:\n      0x00\n        /* \"#utility.yul\":126:128   */\n      0x20\n        /* \"#utility.yul\":114:123   */\n      dup3\n        /* \"#utility.yul\":105:112   */\n      dup5\n        /* \"#utility.yul\":101:124   */\n      sub\n        /* \"#utility.yul\":97:129   */\n      slt\n        /* \"#utility.yul\":94:96   */\n      iszero\n      tag_120\n      jumpi\n        /* \"#utility.yul\":147:153   */\n      dup1\n        /* \"#utility.yul\":139:145   */\n      dup2\n        /* \"#utility.yul\":132:154   */\n      revert\n        /* \"#utility.yul\":94:96   */\n    tag_120:\n        /* \"#utility.yul\":178:201   */\n      dup2\n      calldataload\n      sub(shl(0xa0, 0x01), 0x01)\n        /* \"#utility.yul\":230:261   */\n      dup2\n      and\n        /* \"#utility.yul\":220:262   */\n      dup2\n      eq\n        /* \"#utility.yul\":210:212   */\n      tag_75\n      jumpi\n        /* \"#utility.yul\":281:287   */\n      dup2\n        /* \"#utility.yul\":273:279   */\n      dup3\n        /* \"#utility.yul\":266:288   */\n      revert\n        /* \"#utility.yul\":325:622   */\n    tag_92:\n      0x00\n        /* \"#utility.yul\":445:447   */\n      0x20\n        /* \"#utility.yul\":433:442   */\n      dup3\n        /* \"#utility.yul\":424:431   */\n      dup5\n        /* \"#utility.yul\":420:443   */\n      sub\n        /* \"#utility.yul\":416:448   */\n      slt\n        /* \"#utility.yul\":413:415   */\n      iszero\n      tag_123\n      jumpi\n        /* \"#utility.yul\":466:472   */\n      dup1\n        /* \"#utility.yul\":458:464   */\n      dup2\n        /* \"#utility.yul\":451:473   */\n      revert\n        /* \"#utility.yul\":413:415   */\n    tag_123:\n        /* \"#utility.yul\":503:512   */\n      dup2\n        /* \"#utility.yul\":497:513   */\n      mload\n        /* \"#utility.yul\":556:561   */\n      dup1\n        /* \"#utility.yul\":549:562   */\n      iszero\n        /* \"#utility.yul\":542:563   */\n      iszero\n        /* \"#utility.yul\":535:540   */\n      dup2\n        /* \"#utility.yul\":532:564   */\n      eq\n        /* \"#utility.yul\":522:524   */\n      tag_75\n      jumpi\n        /* \"#utility.yul\":583:589   */\n      dup2\n        /* \"#utility.yul\":575:581   */\n      dup3\n        /* \"#utility.yul\":568:590   */\n      revert\n        /* \"#utility.yul\":627:821   */\n    tag_60:\n      0x00\n        /* \"#utility.yul\":750:752   */\n      0x20\n        /* \"#utility.yul\":738:747   */\n      dup3\n        /* \"#utility.yul\":729:736   */\n      dup5\n        /* \"#utility.yul\":725:748   */\n      sub\n        /* \"#utility.yul\":721:753   */\n      slt\n        /* \"#utility.yul\":718:720   */\n      iszero\n      tag_126\n      jumpi\n        /* \"#utility.yul\":771:777   */\n      dup1\n        /* \"#utility.yul\":763:769   */\n      dup2\n        /* \"#utility.yul\":756:778   */\n      revert\n        /* \"#utility.yul\":718:720   */\n    tag_126:\n      pop\n        /* \"#utility.yul\":799:815   */\n      mload\n      swap2\n        /* \"#utility.yul\":708:821   */\n      swap1\n      pop\n      jump\t// out\n        /* \"#utility.yul\":826:1100   */\n    tag_85:\n      0x00\n        /* \"#utility.yul\":993:999   */\n      dup3\n        /* \"#utility.yul\":987:1000   */\n      mload\n        /* \"#utility.yul\":1009:1062   */\n      tag_128\n        /* \"#utility.yul\":1055:1061   */\n      dup2\n        /* \"#utility.yul\":1050:1053   */\n      dup5\n        /* \"#utility.yul\":1043:1047   */\n      0x20\n        /* \"#utility.yul\":1035:1041   */\n      dup8\n        /* \"#utility.yul\":1031:1048   */\n      add\n        /* \"#utility.yul\":1009:1062   */\n      tag_129\n      jump\t// in\n    tag_128:\n        /* \"#utility.yul\":1078:1094   */\n      swap2\n      swap1\n      swap2\n      add\n      swap3\n        /* \"#utility.yul\":963:1100   */\n      swap2\n      pop\n      pop\n      jump\t// out\n        /* \"#utility.yul\":1105:1308   */\n    tag_34:\n      sub(shl(0xa0, 0x01), 0x01)\n        /* \"#utility.yul\":1269:1301   */\n      swap2\n      swap1\n      swap2\n      and\n        /* \"#utility.yul\":1251:1302   */\n      dup2\n      mstore\n        /* \"#utility.yul\":1239:1241   */\n      0x20\n        /* \"#utility.yul\":1224:1242   */\n      add\n      swap1\n        /* \"#utility.yul\":1206:1308   */\n      jump\t// out\n        /* \"#utility.yul\":1313:1587   */\n    tag_83:\n      sub(shl(0xa0, 0x01), 0x01)\n        /* \"#utility.yul\":1505:1537   */\n      swap3\n      swap1\n      swap3\n      and\n        /* \"#utility.yul\":1487:1538   */\n      dup3\n      mstore\n        /* \"#utility.yul\":1569:1571   */\n      0x20\n        /* \"#utility.yul\":1554:1572   */\n      dup3\n      add\n        /* \"#utility.yul\":1547:1581   */\n      mstore\n        /* \"#utility.yul\":1475:1477   */\n      0x40\n        /* \"#utility.yul\":1460:1478   */\n      add\n      swap1\n        /* \"#utility.yul\":1442:1587   */\n      jump\t// out\n        /* \"#utility.yul\":1592:1975   */\n    tag_111:\n      0x00\n        /* \"#utility.yul\":1741:1743   */\n      0x20\n        /* \"#utility.yul\":1730:1739   */\n      dup3\n        /* \"#utility.yul\":1723:1744   */\n      mstore\n        /* \"#utility.yul\":1773:1779   */\n      dup3\n        /* \"#utility.yul\":1767:1780   */\n      mload\n        /* \"#utility.yul\":1816:1822   */\n      dup1\n        /* \"#utility.yul\":1811:1813   */\n      0x20\n        /* \"#utility.yul\":1800:1809   */\n      dup5\n        /* \"#utility.yul\":1796:1814   */\n      add\n        /* \"#utility.yul\":1789:1823   */\n      mstore\n        /* \"#utility.yul\":1832:1898   */\n      tag_133\n        /* \"#utility.yul\":1891:1897   */\n      dup2\n        /* \"#utility.yul\":1886:1888   */\n      0x40\n        /* \"#utility.yul\":1875:1884   */\n      dup6\n        /* \"#utility.yul\":1871:1889   */\n      add\n        /* \"#utility.yul\":1866:1868   */\n      0x20\n        /* \"#utility.yul\":1858:1864   */\n      dup8\n        /* \"#utility.yul\":1854:1869   */\n      add\n        /* \"#utility.yul\":1832:1898   */\n      tag_129\n      jump\t// in\n    tag_133:\n        /* \"#utility.yul\":1959:1961   */\n      0x1f\n        /* \"#utility.yul\":1938:1953   */\n      add\n      not(0x1f)\n        /* \"#utility.yul\":1934:1963   */\n      and\n        /* \"#utility.yul\":1919:1964   */\n      swap2\n      swap1\n      swap2\n      add\n        /* \"#utility.yul\":1966:1968   */\n      0x40\n        /* \"#utility.yul\":1915:1969   */\n      add\n      swap3\n        /* \"#utility.yul\":1713:1975   */\n      swap2\n      pop\n      pop\n      jump\t// out\n        /* \"#utility.yul\":1980:2331   */\n    tag_77:\n        /* \"#utility.yul\":2182:2184   */\n      0x20\n        /* \"#utility.yul\":2164:2185   */\n      dup1\n      dup3\n      mstore\n        /* \"#utility.yul\":2221:2223   */\n      0x1b\n        /* \"#utility.yul\":2201:2219   */\n      swap1\n      dup3\n      add\n        /* \"#utility.yul\":2194:2224   */\n      mstore\n        /* \"#utility.yul\":2260:2289   */\n      0x536166654d6174683a206164646974696f6e206f766572666c6f770000000000\n        /* \"#utility.yul\":2255:2257   */\n      0x40\n        /* \"#utility.yul\":2240:2258   */\n      dup3\n      add\n        /* \"#utility.yul\":2233:2290   */\n      mstore\n        /* \"#utility.yul\":2322:2324   */\n      0x60\n        /* \"#utility.yul\":2307:2325   */\n      add\n      swap1\n        /* \"#utility.yul\":2154:2331   */\n      jump\t// out\n        /* \"#utility.yul\":2336:2733   */\n    tag_104:\n        /* \"#utility.yul\":2538:2540   */\n      0x20\n        /* \"#utility.yul\":2520:2541   */\n      dup1\n      dup3\n      mstore\n        /* \"#utility.yul\":2577:2579   */\n      0x21\n        /* \"#utility.yul\":2557:2575   */\n      swap1\n      dup3\n      add\n        /* \"#utility.yul\":2550:2580   */\n      mstore\n        /* \"#utility.yul\":2616:2650   */\n      0x536166654d6174683a206d756c7469706c69636174696f6e206f766572666c6f\n        /* \"#utility.yul\":2611:2613   */\n      0x40\n        /* \"#utility.yul\":2596:2614   */\n      dup3\n      add\n        /* \"#utility.yul\":2589:2651   */\n      mstore\n      shl(0xf8, 0x77)\n        /* \"#utility.yul\":2682:2684   */\n      0x60\n        /* \"#utility.yul\":2667:2685   */\n      dup3\n      add\n        /* \"#utility.yul\":2660:2691   */\n      mstore\n        /* \"#utility.yul\":2723:2726   */\n      0x80\n        /* \"#utility.yul\":2708:2727   */\n      add\n      swap1\n        /* \"#utility.yul\":2510:2733   */\n      jump\t// out\n        /* \"#utility.yul\":2738:3078   */\n    tag_95:\n        /* \"#utility.yul\":2940:2942   */\n      0x20\n        /* \"#utility.yul\":2922:2943   */\n      dup1\n      dup3\n      mstore\n        /* \"#utility.yul\":2979:2981   */\n      0x10\n        /* \"#utility.yul\":2959:2977   */\n      swap1\n      dup3\n      add\n        /* \"#utility.yul\":2952:2982   */\n      mstore\n      shl(0x82, 0x085514905394d1915497d19052531151)\n        /* \"#utility.yul\":3013:3015   */\n      0x40\n        /* \"#utility.yul\":2998:3016   */\n      dup3\n      add\n        /* \"#utility.yul\":2991:3037   */\n      mstore\n        /* \"#utility.yul\":3069:3071   */\n      0x60\n        /* \"#utility.yul\":3054:3072   */\n      add\n      swap1\n        /* \"#utility.yul\":2912:3078   */\n      jump\t// out\n        /* \"#utility.yul\":3083:3260   */\n    tag_15:\n        /* \"#utility.yul\":3229:3254   */\n      swap1\n      dup2\n      mstore\n        /* \"#utility.yul\":3217:3219   */\n      0x20\n        /* \"#utility.yul\":3202:3220   */\n      add\n      swap1\n        /* \"#utility.yul\":3184:3260   */\n      jump\t// out\n        /* \"#utility.yul\":3265:3393   */\n    tag_74:\n      0x00\n        /* \"#utility.yul\":3336:3337   */\n      dup3\n        /* \"#utility.yul\":3332:3338   */\n      not\n        /* \"#utility.yul\":3329:3330   */\n      dup3\n        /* \"#utility.yul\":3326:3339   */\n      gt\n        /* \"#utility.yul\":3323:3325   */\n      iszero\n      tag_140\n      jumpi\n        /* \"#utility.yul\":3342:3360   */\n      tag_140\n      tag_141\n      jump\t// in\n    tag_140:\n      pop\n        /* \"#utility.yul\":3378:3387   */\n      add\n      swap1\n        /* \"#utility.yul\":3313:3393   */\n      jump\t// out\n        /* \"#utility.yul\":3398:3615   */\n    tag_101:\n      0x00\n        /* \"#utility.yul\":3464:3465   */\n      dup3\n        /* \"#utility.yul\":3454:3456   */\n      tag_143\n      jumpi\n      shl(0xe0, 0x4e487b71)\n        /* \"#utility.yul\":3489:3520   */\n      dup2\n      mstore\n        /* \"#utility.yul\":3543:3547   */\n      0x12\n        /* \"#utility.yul\":3540:3541   */\n      0x04\n        /* \"#utility.yul\":3533:3548   */\n      mstore\n        /* \"#utility.yul\":3571:3575   */\n      0x24\n        /* \"#utility.yul\":3489:3520   */\n      dup2\n        /* \"#utility.yul\":3561:3576   */\n      revert\n        /* \"#utility.yul\":3454:3456   */\n    tag_143:\n      pop\n        /* \"#utility.yul\":3600:3609   */\n      div\n      swap1\n        /* \"#utility.yul\":3444:3615   */\n      jump\t// out\n        /* \"#utility.yul\":3620:3788   */\n    tag_99:\n      0x00\n        /* \"#utility.yul\":3726:3727   */\n      dup2\n        /* \"#utility.yul\":3722:3723   */\n      0x00\n        /* \"#utility.yul\":3718:3724   */\n      not\n        /* \"#utility.yul\":3714:3728   */\n      div\n        /* \"#utility.yul\":3711:3712   */\n      dup4\n        /* \"#utility.yul\":3708:3729   */\n      gt\n        /* \"#utility.yul\":3703:3704   */\n      dup3\n        /* \"#utility.yul\":3696:3705   */\n      iszero\n        /* \"#utility.yul\":3689:3706   */\n      iszero\n        /* \"#utility.yul\":3685:3730   */\n      and\n        /* \"#utility.yul\":3682:3684   */\n      iszero\n      tag_146\n      jumpi\n        /* \"#utility.yul\":3733:3751   */\n      tag_146\n      tag_141\n      jump\t// in\n    tag_146:\n      pop\n        /* \"#utility.yul\":3773:3782   */\n      mul\n      swap1\n        /* \"#utility.yul\":3672:3788   */\n      jump\t// out\n        /* \"#utility.yul\":3793:3918   */\n    tag_113:\n      0x00\n        /* \"#utility.yul\":3861:3862   */\n      dup3\n        /* \"#utility.yul\":3858:3859   */\n      dup3\n        /* \"#utility.yul\":3855:3863   */\n      lt\n        /* \"#utility.yul\":3852:3854   */\n      iszero\n      tag_149\n      jumpi\n        /* \"#utility.yul\":3866:3884   */\n      tag_149\n      tag_141\n      jump\t// in\n    tag_149:\n      pop\n        /* \"#utility.yul\":3903:3912   */\n      sub\n      swap1\n        /* \"#utility.yul\":3842:3918   */\n      jump\t// out\n        /* \"#utility.yul\":3923:4181   */\n    tag_129:\n        /* \"#utility.yul\":3995:3996   */\n      0x00\n        /* \"#utility.yul\":4005:4118   */\n    tag_151:\n        /* \"#utility.yul\":4019:4025   */\n      dup4\n        /* \"#utility.yul\":4016:4017   */\n      dup2\n        /* \"#utility.yul\":4013:4026   */\n      lt\n        /* \"#utility.yul\":4005:4118   */\n      iszero\n      tag_153\n      jumpi\n        /* \"#utility.yul\":4095:4106   */\n      dup2\n      dup2\n      add\n        /* \"#utility.yul\":4089:4107   */\n      mload\n        /* \"#utility.yul\":4076:4087   */\n      dup4\n      dup3\n      add\n        /* \"#utility.yul\":4069:4108   */\n      mstore\n        /* \"#utility.yul\":4041:4043   */\n      0x20\n        /* \"#utility.yul\":4034:4044   */\n      add\n        /* \"#utility.yul\":4005:4118   */\n      jump(tag_151)\n    tag_153:\n        /* \"#utility.yul\":4136:4142   */\n      dup4\n        /* \"#utility.yul\":4133:4134   */\n      dup2\n        /* \"#utility.yul\":4130:4143   */\n      gt\n        /* \"#utility.yul\":4127:4129   */\n      iszero\n      tag_154\n      jumpi\n        /* \"#utility.yul\":4171:4172   */\n      0x00\n        /* \"#utility.yul\":4162:4168   */\n      dup5\n        /* \"#utility.yul\":4157:4160   */\n      dup5\n        /* \"#utility.yul\":4153:4169   */\n      add\n        /* \"#utility.yul\":4146:4173   */\n      mstore\n        /* \"#utility.yul\":4127:4129   */\n    tag_154:\n      pop\n        /* \"#utility.yul\":3976:4181   */\n      pop\n      pop\n      pop\n      jump\t// out\n        /* \"#utility.yul\":4186:4313   */\n    tag_141:\n        /* \"#utility.yul\":4247:4257   */\n      0x4e487b71\n        /* \"#utility.yul\":4242:4245   */\n      0xe0\n        /* \"#utility.yul\":4238:4258   */\n      shl\n        /* \"#utility.yul\":4235:4236   */\n      0x00\n        /* \"#utility.yul\":4228:4259   */\n      mstore\n        /* \"#utility.yul\":4278:4282   */\n      0x11\n        /* \"#utility.yul\":4275:4276   */\n      0x04\n        /* \"#utility.yul\":4268:4283   */\n      mstore\n        /* \"#utility.yul\":4302:4306   */\n      0x24\n        /* \"#utility.yul\":4299:4300   */\n      0x00\n        /* \"#utility.yul\":4292:4307   */\n      revert\n\n    auxdata: 0xa26469706673582212203d72a5bcf0bafed2c64a8770028ca0ce8f23e49c1f6a9d79e1f9b0ec3436d8e764736f6c63430008000033\n}\n",
				"bytecode": {
					"linkReferences": {},
					"object": "608060405234801561001057600080fd5b5060405161098b38038061098b83398101604081905261002f916100d1565b6001600160a01b03841661004257600080fd5b8082111561004f57600080fd5b600080546001600160a01b0319166001600160a01b03861617905560038190556100848383610092602090811b61033817901c565b600155505060025550610175565b60008061009f8385610151565b9050838110156100ca5760405162461bcd60e51b81526004016100c19061011a565b60405180910390fd5b9392505050565b600080600080608085870312156100e6578384fd5b84516001600160a01b03811681146100fc578485fd5b60208601516040870151606090970151919890975090945092505050565b6020808252601b908201527f536166654d6174683a206164646974696f6e206f766572666c6f770000000000604082015260600190565b6000821982111561017057634e487b7160e01b81526011600452602481fd5b500190565b610807806101846000396000f3fe608060405234801561001057600080fd5b50600436106100885760003560e01c8063384711cc1161005b578063384711cc146100db57806338af3eed146100ee5780639852595c14610103578063be9a65551461011657610088565b80630fb5a6b41461008d57806313d033c0146100ab5780631726cbc8146100b357806319165587146100c6575b600080fd5b61009561011e565b6040516100a29190610714565b60405180910390f35b610095610124565b6100956100c1366004610597565b61012a565b6100d96100d4366004610597565b61015e565b005b6100956100e9366004610597565b610201565b6100f6610311565b6040516100a29190610612565b610095610111366004610597565b610320565b610095610332565b60035481565b60015481565b6001600160a01b0381166000908152600460205260408120546101569061015084610201565b90610379565b90505b919050565b60006101698261012a565b90506000811161017857600080fd5b6001600160a01b03821660009081526004602052604090205461019b9082610338565b6001600160a01b0380841660008181526004602052604081209390935591546101c6929116836103bb565b7ffb81f9b30d73d830c3544b34d827c08142579ee75710b490bab0b3995468c565816040516101f59190610714565b60405180910390a15050565b600080826001600160a01b03166370a08231306040518263ffffffff1660e01b81526004016102309190610612565b60206040518083038186803b15801561024857600080fd5b505afa15801561025c573d6000803e3d6000fd5b505050506040513d601f19601f8201168201806040525081019061028091906105de565b6001600160a01b038416600090815260046020526040812054919250906102a8908390610338565b90506001544210156102bf57600092505050610159565b6003546002546102ce91610338565b42106102dd5791506101599050565b6103086003546103026102fb6002544261037990919063ffffffff16565b84906104a8565b906104ed565b92505050610159565b6000546001600160a01b031681565b60046020526000908152604090205481565b60025481565b600080610345838561071d565b9050838110156103705760405162461bcd60e51b815260040161036790610672565b60405180910390fd5b90505b92915050565b600061037083836040518060400160405280601e81526020017f536166654d6174683a207375627472616374696f6e206f766572666c6f77000081525061052f565b600080846001600160a01b031663a9059cbb85856040516024016103e0929190610626565b6040516020818303038152906040529060e01b6020820180516001600160e01b03838183161783525050505060405161041991906105f6565b6000604051808303816000865af19150503d8060008114610456576040519150601f19603f3d011682016040523d82523d6000602084013e61045b565b606091505b509150915081801561048557508051158061048557508080602001905181019061048591906105be565b6104a15760405162461bcd60e51b8152600401610367906106ea565b5050505050565b6000826104b757506000610373565b60006104c38385610755565b9050826104d08583610735565b146103705760405162461bcd60e51b8152600401610367906106a9565b600061037083836040518060400160405280601a81526020017f536166654d6174683a206469766973696f6e206279207a65726f000000000000815250610569565b600081848411156105535760405162461bcd60e51b8152600401610367919061063f565b5060006105608486610774565b95945050505050565b6000818361058a5760405162461bcd60e51b8152600401610367919061063f565b5060006105608486610735565b6000602082840312156105a8578081fd5b81356001600160a01b0381168114610370578182fd5b6000602082840312156105cf578081fd5b81518015158114610370578182fd5b6000602082840312156105ef578081fd5b5051919050565b6000825161060881846020870161078b565b9190910192915050565b6001600160a01b0391909116815260200190565b6001600160a01b03929092168252602082015260400190565b600060208252825180602084015261065e81604085016020870161078b565b601f01601f19169190910160400192915050565b6020808252601b908201527f536166654d6174683a206164646974696f6e206f766572666c6f770000000000604082015260600190565b60208082526021908201527f536166654d6174683a206d756c7469706c69636174696f6e206f766572666c6f6040820152607760f81b606082015260800190565b60208082526010908201526f085514905394d1915497d1905253115160821b604082015260600190565b90815260200190565b60008219821115610730576107306107bb565b500190565b60008261075057634e487b7160e01b81526012600452602481fd5b500490565b600081600019048311821515161561076f5761076f6107bb565b500290565b600082821015610786576107866107bb565b500390565b60005b838110156107a657818101518382015260200161078e565b838111156107b5576000848401525b50505050565b634e487b7160e01b600052601160045260246000fdfea26469706673582212203d72a5bcf0bafed2c64a8770028ca0ce8f23e49c1f6a9d79e1f9b0ec3436d8e764736f6c63430008000033",
					"opcodes": "PUSH1 0x80 PUSH1 0x40 MSTORE CALLVALUE DUP1 ISZERO PUSH2 0x10 JUMPI PUSH1 0x0 DUP1 REVERT JUMPDEST POP PUSH1 0x40 MLOAD PUSH2 0x98B CODESIZE SUB DUP1 PUSH2 0x98B DUP4 CODECOPY DUP2 ADD PUSH1 0x40 DUP2 SWAP1 MSTORE PUSH2 0x2F SWAP2 PUSH2 0xD1 JUMP JUMPDEST PUSH1 0x1 PUSH1 0x1 PUSH1 0xA0 SHL SUB DUP5 AND PUSH2 0x42 JUMPI PUSH1 0x0 DUP1 REVERT JUMPDEST DUP1 DUP3 GT ISZERO PUSH2 0x4F JUMPI PUSH1 0x0 DUP1 REVERT JUMPDEST PUSH1 0x0 DUP1 SLOAD PUSH1 0x1 PUSH1 0x1 PUSH1 0xA0 SHL SUB NOT AND PUSH1 0x1 PUSH1 0x1 PUSH1 0xA0 SHL SUB DUP7 AND OR SWAP1 SSTORE PUSH1 0x3 DUP2 SWAP1 SSTORE PUSH2 0x84 DUP4 DUP4 PUSH2 0x92 PUSH1 0x20 SWAP1 DUP2 SHL PUSH2 0x338 OR SWAP1 SHR JUMP JUMPDEST PUSH1 0x1 SSTORE POP POP PUSH1 0x2 SSTORE POP PUSH2 0x175 JUMP JUMPDEST PUSH1 0x0 DUP1 PUSH2 0x9F DUP4 DUP6 PUSH2 0x151 JUMP JUMPDEST SWAP1 POP DUP4 DUP2 LT ISZERO PUSH2 0xCA JUMPI PUSH1 0x40 MLOAD PUSH3 0x461BCD PUSH1 0xE5 SHL DUP2 MSTORE PUSH1 0x4 ADD PUSH2 0xC1 SWAP1 PUSH2 0x11A JUMP JUMPDEST PUSH1 0x40 MLOAD DUP1 SWAP2 SUB SWAP1 REVERT JUMPDEST SWAP4 SWAP3 POP POP POP JUMP JUMPDEST PUSH1 0x0 DUP1 PUSH1 0x0 DUP1 PUSH1 0x80 DUP6 DUP8 SUB SLT ISZERO PUSH2 0xE6 JUMPI DUP4 DUP5 REVERT JUMPDEST DUP5 MLOAD PUSH1 0x1 PUSH1 0x1 PUSH1 0xA0 SHL SUB DUP2 AND DUP2 EQ PUSH2 0xFC JUMPI DUP5 DUP6 REVERT JUMPDEST PUSH1 0x20 DUP7 ADD MLOAD PUSH1 0x40 DUP8 ADD MLOAD PUSH1 0x60 SWAP1 SWAP8 ADD MLOAD SWAP2 SWAP9 SWAP1 SWAP8 POP SWAP1 SWAP5 POP SWAP3 POP POP POP JUMP JUMPDEST PUSH1 0x20 DUP1 DUP3 MSTORE PUSH1 0x1B SWAP1 DUP3 ADD MSTORE PUSH32 0x536166654D6174683A206164646974696F6E206F766572666C6F770000000000 PUSH1 0x40 DUP3 ADD MSTORE PUSH1 0x60 ADD SWAP1 JUMP JUMPDEST PUSH1 0x0 DUP3 NOT DUP3 GT ISZERO PUSH2 0x170 JUMPI PUSH4 0x4E487B71 PUSH1 0xE0 SHL DUP2 MSTORE PUSH1 0x11 PUSH1 0x4 MSTORE PUSH1 0x24 DUP2 REVERT JUMPDEST POP ADD SWAP1 JUMP JUMPDEST PUSH2 0x807 DUP1 PUSH2 0x184 PUSH1 0x0 CODECOPY PUSH1 0x0 RETURN INVALID PUSH1 0x80 PUSH1 0x40 MSTORE CALLVALUE DUP1 ISZERO PUSH2 0x10 JUMPI PUSH1 0x0 DUP1 REVERT JUMPDEST POP PUSH1 0x4 CALLDATASIZE LT PUSH2 0x88 JUMPI PUSH1 0x0 CALLDATALOAD PUSH1 0xE0 SHR DUP1 PUSH4 0x384711CC GT PUSH2 0x5B JUMPI DUP1 PUSH4 0x384711CC EQ PUSH2 0xDB JUMPI DUP1 PUSH4 0x38AF3EED EQ PUSH2 0xEE JUMPI DUP1 PUSH4 0x9852595C EQ PUSH2 0x103 JUMPI DUP1 PUSH4 0xBE9A6555 EQ PUSH2 0x116 JUMPI PUSH2 0x88 JUMP JUMPDEST DUP1 PUSH4 0xFB5A6B4 EQ PUSH2 0x8D JUMPI DUP1 PUSH4 0x13D033C0 EQ PUSH2 0xAB JUMPI DUP1 PUSH4 0x1726CBC8 EQ PUSH2 0xB3 JUMPI DUP1 PUSH4 0x19165587 EQ PUSH2 0xC6 JUMPI JUMPDEST PUSH1 0x0 DUP1 REVERT JUMPDEST PUSH2 0x95 PUSH2 0x11E JUMP JUMPDEST PUSH1 0x40 MLOAD PUSH2 0xA2 SWAP2 SWAP1 PUSH2 0x714 JUMP JUMPDEST PUSH1 0x40 MLOAD DUP1 SWAP2 SUB SWAP1 RETURN JUMPDEST PUSH2 0x95 PUSH2 0x124 JUMP JUMPDEST PUSH2 0x95 PUSH2 0xC1 CALLDATASIZE PUSH1 0x4 PUSH2 0x597 JUMP JUMPDEST PUSH2 0x12A JUMP JUMPDEST PUSH2 0xD9 PUSH2 0xD4 CALLDATASIZE PUSH1 0x4 PUSH2 0x597 JUMP JUMPDEST PUSH2 0x15E JUMP JUMPDEST STOP JUMPDEST PUSH2 0x95 PUSH2 0xE9 CALLDATASIZE PUSH1 0x4 PUSH2 0x597 JUMP JUMPDEST PUSH2 0x201 JUMP JUMPDEST PUSH2 0xF6 PUSH2 0x311 JUMP JUMPDEST PUSH1 0x40 MLOAD PUSH2 0xA2 SWAP2 SWAP1 PUSH2 0x612 JUMP JUMPDEST PUSH2 0x95 PUSH2 0x111 CALLDATASIZE PUSH1 0x4 PUSH2 0x597 JUMP JUMPDEST PUSH2 0x320 JUMP JUMPDEST PUSH2 0x95 PUSH2 0x332 JUMP JUMPDEST PUSH1 0x3 SLOAD DUP2 JUMP JUMPDEST PUSH1 0x1 SLOAD DUP2 JUMP JUMPDEST PUSH1 0x1 PUSH1 0x1 PUSH1 0xA0 SHL SUB DUP2 AND PUSH1 0x0 SWAP1 DUP2 MSTORE PUSH1 0x4 PUSH1 0x20 MSTORE PUSH1 0x40 DUP2 KECCAK256 SLOAD PUSH2 0x156 SWAP1 PUSH2 0x150 DUP5 PUSH2 0x201 JUMP JUMPDEST SWAP1 PUSH2 0x379 JUMP JUMPDEST SWAP1 POP JUMPDEST SWAP2 SWAP1 POP JUMP JUMPDEST PUSH1 0x0 PUSH2 0x169 DUP3 PUSH2 0x12A JUMP JUMPDEST SWAP1 POP PUSH1 0x0 DUP2 GT PUSH2 0x178 JUMPI PUSH1 0x0 DUP1 REVERT JUMPDEST PUSH1 0x1 PUSH1 0x1 PUSH1 0xA0 SHL SUB DUP3 AND PUSH1 0x0 SWAP1 DUP2 MSTORE PUSH1 0x4 PUSH1 0x20 MSTORE PUSH1 0x40 SWAP1 KECCAK256 SLOAD PUSH2 0x19B SWAP1 DUP3 PUSH2 0x338 JUMP JUMPDEST PUSH1 0x1 PUSH1 0x1 PUSH1 0xA0 SHL SUB DUP1 DUP5 AND PUSH1 0x0 DUP2 DUP2 MSTORE PUSH1 0x4 PUSH1 0x20 MSTORE PUSH1 0x40 DUP2 KECCAK256 SWAP4 SWAP1 SWAP4 SSTORE SWAP2 SLOAD PUSH2 0x1C6 SWAP3 SWAP2 AND DUP4 PUSH2 0x3BB JUMP JUMPDEST PUSH32 0xFB81F9B30D73D830C3544B34D827C08142579EE75710B490BAB0B3995468C565 DUP2 PUSH1 0x40 MLOAD PUSH2 0x1F5 SWAP2 SWAP1 PUSH2 0x714 JUMP JUMPDEST PUSH1 0x40 MLOAD DUP1 SWAP2 SUB SWAP1 LOG1 POP POP JUMP JUMPDEST PUSH1 0x0 DUP1 DUP3 PUSH1 0x1 PUSH1 0x1 PUSH1 0xA0 SHL SUB AND PUSH4 0x70A08231 ADDRESS PUSH1 0x40 MLOAD DUP3 PUSH4 0xFFFFFFFF AND PUSH1 0xE0 SHL DUP2 MSTORE PUSH1 0x4 ADD PUSH2 0x230 SWAP2 SWAP1 PUSH2 0x612 JUMP JUMPDEST PUSH1 0x20 PUSH1 0x40 MLOAD DUP1 DUP4 SUB DUP2 DUP7 DUP1 EXTCODESIZE ISZERO DUP1 ISZERO PUSH2 0x248 JUMPI PUSH1 0x0 DUP1 REVERT JUMPDEST POP GAS STATICCALL ISZERO DUP1 ISZERO PUSH2 0x25C JUMPI RETURNDATASIZE PUSH1 0x0 DUP1 RETURNDATACOPY RETURNDATASIZE PUSH1 0x0 REVERT JUMPDEST POP POP POP POP PUSH1 0x40 MLOAD RETURNDATASIZE PUSH1 0x1F NOT PUSH1 0x1F DUP3 ADD AND DUP3 ADD DUP1 PUSH1 0x40 MSTORE POP DUP2 ADD SWAP1 PUSH2 0x280 SWAP2 SWAP1 PUSH2 0x5DE JUMP JUMPDEST PUSH1 0x1 PUSH1 0x1 PUSH1 0xA0 SHL SUB DUP5 AND PUSH1 0x0 SWAP1 DUP2 MSTORE PUSH1 0x4 PUSH1 0x20 MSTORE PUSH1 0x40 DUP2 KECCAK256 SLOAD SWAP2 SWAP3 POP SWAP1 PUSH2 0x2A8 SWAP1 DUP4 SWAP1 PUSH2 0x338 JUMP JUMPDEST SWAP1 POP PUSH1 0x1 SLOAD TIMESTAMP LT ISZERO PUSH2 0x2BF JUMPI PUSH1 0x0 SWAP3 POP POP POP PUSH2 0x159 JUMP JUMPDEST PUSH1 0x3 SLOAD PUSH1 0x2 SLOAD PUSH2 0x2CE SWAP2 PUSH2 0x338 JUMP JUMPDEST TIMESTAMP LT PUSH2 0x2DD JUMPI SWAP2 POP PUSH2 0x159 SWAP1 POP JUMP JUMPDEST PUSH2 0x308 PUSH1 0x3 SLOAD PUSH2 0x302 PUSH2 0x2FB PUSH1 0x2 SLOAD TIMESTAMP PUSH2 0x379 SWAP1 SWAP2 SWAP1 PUSH4 0xFFFFFFFF AND JUMP JUMPDEST DUP5 SWAP1 PUSH2 0x4A8 JUMP JUMPDEST SWAP1 PUSH2 0x4ED JUMP JUMPDEST SWAP3 POP POP POP PUSH2 0x159 JUMP JUMPDEST PUSH1 0x0 SLOAD PUSH1 0x1 PUSH1 0x1 PUSH1 0xA0 SHL SUB AND DUP2 JUMP JUMPDEST PUSH1 0x4 PUSH1 0x20 MSTORE PUSH1 0x0 SWAP1 DUP2 MSTORE PUSH1 0x40 SWAP1 KECCAK256 SLOAD DUP2 JUMP JUMPDEST PUSH1 0x2 SLOAD DUP2 JUMP JUMPDEST PUSH1 0x0 DUP1 PUSH2 0x345 DUP4 DUP6 PUSH2 0x71D JUMP JUMPDEST SWAP1 POP DUP4 DUP2 LT ISZERO PUSH2 0x370 JUMPI PUSH1 0x40 MLOAD PUSH3 0x461BCD PUSH1 0xE5 SHL DUP2 MSTORE PUSH1 0x4 ADD PUSH2 0x367 SWAP1 PUSH2 0x672 JUMP JUMPDEST PUSH1 0x40 MLOAD DUP1 SWAP2 SUB SWAP1 REVERT JUMPDEST SWAP1 POP JUMPDEST SWAP3 SWAP2 POP POP JUMP JUMPDEST PUSH1 0x0 PUSH2 0x370 DUP4 DUP4 PUSH1 0x40 MLOAD DUP1 PUSH1 0x40 ADD PUSH1 0x40 MSTORE DUP1 PUSH1 0x1E DUP2 MSTORE PUSH1 0x20 ADD PUSH32 0x536166654D6174683A207375627472616374696F6E206F766572666C6F770000 DUP2 MSTORE POP PUSH2 0x52F JUMP JUMPDEST PUSH1 0x0 DUP1 DUP5 PUSH1 0x1 PUSH1 0x1 PUSH1 0xA0 SHL SUB AND PUSH4 0xA9059CBB DUP6 DUP6 PUSH1 0x40 MLOAD PUSH1 0x24 ADD PUSH2 0x3E0 SWAP3 SWAP2 SWAP1 PUSH2 0x626 JUMP JUMPDEST PUSH1 0x40 MLOAD PUSH1 0x20 DUP2 DUP4 SUB SUB DUP2 MSTORE SWAP1 PUSH1 0x40 MSTORE SWAP1 PUSH1 0xE0 SHL PUSH1 0x20 DUP3 ADD DUP1 MLOAD PUSH1 0x1 PUSH1 0x1 PUSH1 0xE0 SHL SUB DUP4 DUP2 DUP4 AND OR DUP4 MSTORE POP POP POP POP PUSH1 0x40 MLOAD PUSH2 0x419 SWAP2 SWAP1 PUSH2 0x5F6 JUMP JUMPDEST PUSH1 0x0 PUSH1 0x40 MLOAD DUP1 DUP4 SUB DUP2 PUSH1 0x0 DUP7 GAS CALL SWAP2 POP POP RETURNDATASIZE DUP1 PUSH1 0x0 DUP2 EQ PUSH2 0x456 JUMPI PUSH1 0x40 MLOAD SWAP2 POP PUSH1 0x1F NOT PUSH1 0x3F RETURNDATASIZE ADD AND DUP3 ADD PUSH1 0x40 MSTORE RETURNDATASIZE DUP3 MSTORE RETURNDATASIZE PUSH1 0x0 PUSH1 0x20 DUP5 ADD RETURNDATACOPY PUSH2 0x45B JUMP JUMPDEST PUSH1 0x60 SWAP2 POP JUMPDEST POP SWAP2 POP SWAP2 POP DUP2 DUP1 ISZERO PUSH2 0x485 JUMPI POP DUP1 MLOAD ISZERO DUP1 PUSH2 0x485 JUMPI POP DUP1 DUP1 PUSH1 0x20 ADD SWAP1 MLOAD DUP2 ADD SWAP1 PUSH2 0x485 SWAP2 SWAP1 PUSH2 0x5BE JUMP JUMPDEST PUSH2 0x4A1 JUMPI PUSH1 0x40 MLOAD PUSH3 0x461BCD PUSH1 0xE5 SHL DUP2 MSTORE PUSH1 0x4 ADD PUSH2 0x367 SWAP1 PUSH2 0x6EA JUMP JUMPDEST POP POP POP POP POP JUMP JUMPDEST PUSH1 0x0 DUP3 PUSH2 0x4B7 JUMPI POP PUSH1 0x0 PUSH2 0x373 JUMP JUMPDEST PUSH1 0x0 PUSH2 0x4C3 DUP4 DUP6 PUSH2 0x755 JUMP JUMPDEST SWAP1 POP DUP3 PUSH2 0x4D0 DUP6 DUP4 PUSH2 0x735 JUMP JUMPDEST EQ PUSH2 0x370 JUMPI PUSH1 0x40 MLOAD PUSH3 0x461BCD PUSH1 0xE5 SHL DUP2 MSTORE PUSH1 0x4 ADD PUSH2 0x367 SWAP1 PUSH2 0x6A9 JUMP JUMPDEST PUSH1 0x0 PUSH2 0x370 DUP4 DUP4 PUSH1 0x40 MLOAD DUP1 PUSH1 0x40 ADD PUSH1 0x40 MSTORE DUP1 PUSH1 0x1A DUP2 MSTORE PUSH1 0x20 ADD PUSH32 0x536166654D6174683A206469766973696F6E206279207A65726F000000000000 DUP2 MSTORE POP PUSH2 0x569 JUMP JUMPDEST PUSH1 0x0 DUP2 DUP5 DUP5 GT ISZERO PUSH2 0x553 JUMPI PUSH1 0x40 MLOAD PUSH3 0x461BCD PUSH1 0xE5 SHL DUP2 MSTORE PUSH1 0x4 ADD PUSH2 0x367 SWAP2 SWAP1 PUSH2 0x63F JUMP JUMPDEST POP PUSH1 0x0 PUSH2 0x560 DUP5 DUP7 PUSH2 0x774 JUMP JUMPDEST SWAP6 SWAP5 POP POP POP POP POP JUMP JUMPDEST PUSH1 0x0 DUP2 DUP4 PUSH2 0x58A JUMPI PUSH1 0x40 MLOAD PUSH3 0x461BCD PUSH1 0xE5 SHL DUP2 MSTORE PUSH1 0x4 ADD PUSH2 0x367 SWAP2 SWAP1 PUSH2 0x63F JUMP JUMPDEST POP PUSH1 0x0 PUSH2 0x560 DUP5 DUP7 PUSH2 0x735 JUMP JUMPDEST PUSH1 0x0 PUSH1 0x20 DUP3 DUP5 SUB SLT ISZERO PUSH2 0x5A8 JUMPI DUP1 DUP2 REVERT JUMPDEST DUP2 CALLDATALOAD PUSH1 0x1 PUSH1 0x1 PUSH1 0xA0 SHL SUB DUP2 AND DUP2 EQ PUSH2 0x370 JUMPI DUP2 DUP3 REVERT JUMPDEST PUSH1 0x0 PUSH1 0x20 DUP3 DUP5 SUB SLT ISZERO PUSH2 0x5CF JUMPI DUP1 DUP2 REVERT JUMPDEST DUP2 MLOAD DUP1 ISZERO ISZERO DUP2 EQ PUSH2 0x370 JUMPI DUP2 DUP3 REVERT JUMPDEST PUSH1 0x0 PUSH1 0x20 DUP3 DUP5 SUB SLT ISZERO PUSH2 0x5EF JUMPI DUP1 DUP2 REVERT JUMPDEST POP MLOAD SWAP2 SWAP1 POP JUMP JUMPDEST PUSH1 0x0 DUP3 MLOAD PUSH2 0x608 DUP2 DUP5 PUSH1 0x20 DUP8 ADD PUSH2 0x78B JUMP JUMPDEST SWAP2 SWAP1 SWAP2 ADD SWAP3 SWAP2 POP POP JUMP JUMPDEST PUSH1 0x1 PUSH1 0x1 PUSH1 0xA0 SHL SUB SWAP2 SWAP1 SWAP2 AND DUP2 MSTORE PUSH1 0x20 ADD SWAP1 JUMP JUMPDEST PUSH1 0x1 PUSH1 0x1 PUSH1 0xA0 SHL SUB SWAP3 SWAP1 SWAP3 AND DUP3 MSTORE PUSH1 0x20 DUP3 ADD MSTORE PUSH1 0x40 ADD SWAP1 JUMP JUMPDEST PUSH1 0x0 PUSH1 0x20 DUP3 MSTORE DUP3 MLOAD DUP1 PUSH1 0x20 DUP5 ADD MSTORE PUSH2 0x65E DUP2 PUSH1 0x40 DUP6 ADD PUSH1 0x20 DUP8 ADD PUSH2 0x78B JUMP JUMPDEST PUSH1 0x1F ADD PUSH1 0x1F NOT AND SWAP2 SWAP1 SWAP2 ADD PUSH1 0x40 ADD SWAP3 SWAP2 POP POP JUMP JUMPDEST PUSH1 0x20 DUP1 DUP3 MSTORE PUSH1 0x1B SWAP1 DUP3 ADD MSTORE PUSH32 0x536166654D6174683A206164646974696F6E206F766572666C6F770000000000 PUSH1 0x40 DUP3 ADD MSTORE PUSH1 0x60 ADD SWAP1 JUMP JUMPDEST PUSH1 0x20 DUP1 DUP3 MSTORE PUSH1 0x21 SWAP1 DUP3 ADD MSTORE PUSH32 0x536166654D6174683A206D756C7469706C69636174696F6E206F766572666C6F PUSH1 0x40 DUP3 ADD MSTORE PUSH1 0x77 PUSH1 0xF8 SHL PUSH1 0x60 DUP3 ADD MSTORE PUSH1 0x80 ADD SWAP1 JUMP JUMPDEST PUSH1 0x20 DUP1 DUP3 MSTORE PUSH1 0x10 SWAP1 DUP3 ADD MSTORE PUSH16 0x85514905394D1915497D19052531151 PUSH1 0x82 SHL PUSH1 0x40 DUP3 ADD MSTORE PUSH1 0x60 ADD SWAP1 JUMP JUMPDEST SWAP1 DUP2 MSTORE PUSH1 0x20 ADD SWAP1 JUMP JUMPDEST PUSH1 0x0 DUP3 NOT DUP3 GT ISZERO PUSH2 0x730 JUMPI PUSH2 0x730 PUSH2 0x7BB JUMP JUMPDEST POP ADD SWAP1 JUMP JUMPDEST PUSH1 0x0 DUP3 PUSH2 0x750 JUMPI PUSH4 0x4E487B71 PUSH1 0xE0 SHL DUP2 MSTORE PUSH1 0x12 PUSH1 0x4 MSTORE PUSH1 0x24 DUP2 REVERT JUMPDEST POP DIV SWAP1 JUMP JUMPDEST PUSH1 0x0 DUP2 PUSH1 0x0 NOT DIV DUP4 GT DUP3 ISZERO ISZERO AND ISZERO PUSH2 0x76F JUMPI PUSH2 0x76F PUSH2 0x7BB JUMP JUMPDEST POP MUL SWAP1 JUMP JUMPDEST PUSH1 0x0 DUP3 DUP3 LT ISZERO PUSH2 0x786 JUMPI PUSH2 0x786 PUSH2 0x7BB JUMP JUMPDEST POP SUB SWAP1 JUMP JUMPDEST PUSH1 0x0 JUMPDEST DUP4 DUP2 LT ISZERO PUSH2 0x7A6 JUMPI DUP2 DUP2 ADD MLOAD DUP4 DUP3 ADD MSTORE PUSH1 0x20 ADD PUSH2 0x78E JUMP JUMPDEST DUP4 DUP2 GT ISZERO PUSH2 0x7B5 JUMPI PUSH1 0x0 DUP5 DUP5 ADD MSTORE JUMPDEST POP POP POP POP JUMP JUMPDEST PUSH4 0x4E487B71 PUSH1 0xE0 SHL PUSH1 0x0 MSTORE PUSH1 0x11 PUSH1 0x4 MSTORE PUSH1 0x24 PUSH1 0x0 REVERT INVALID LOG2 PUSH5 0x6970667358 0x22 SLT KECCAK256 RETURNDATASIZE PUSH19 0xA5BCF0BAFED2C64A8770028CA0CE8F23E49C1F PUSH11 0x9D79E1F9B0EC3436D8E764 PUSH20 0x6F6C634300080000330000000000000000000000 "
				},
				"gasEstimates": {
					"creation": {
						"codeDepositCost": "411000",
						"executionCost": "infinite",
						"totalCost": "infinite"
					},
					"external": {
						"beneficiary()": "1092",
						"cliff()": "1051",
						"duration()": "1029",
						"releasableAmount(address)": "infinite",
						"release(address)": "infinite",
						"released(address)": "1265",
						"start()": "1094",
						"vestedAmount(address)": "infinite"
					}
				},
				"methodIdentifiers": {
					"beneficiary()": "38af3eed",
					"cliff()": "13d033c0",
					"duration()": "0fb5a6b4",
					"releasableAmount(address)": "1726cbc8",
					"release(address)": "19165587",
					"released(address)": "9852595c",
					"start()": "be9a6555",
					"vestedAmount(address)": "384711cc"
				}
			},
			"userdoc": {
				"kind": "user",
				"methods": {
					"release(address)": {
						"notice": "Transfers vested tokens to beneficiary."
					}
				},
				"version": 1
			}
		}
	}
}