{
	"test_project/contracts/Token.sol": {
		"Token": {
			"abi": [
				{
					"anonymous": false,
					"inputs": [
						{
							"indexed": true,
							"internalType": "address",
							"name": "owner",
							"type": "address"
						},
						{
							"indexed": true,
							"internalType": "address",
							"name": "spender",
							"type": "address"
						},
						{
							"indexed": false,
							"internalType": "uint256",
							"name": "value",
							"type": "uint256"
						}
					],
					"name": "Approval",
					"type": "event"
				},
				{
					"anonymous": false,
					"inputs": [
						{
							"indexed": true,
							"internalType": "address",
							"name": "previousOwner",
							"type": "address"
						},
						{
							"indexed": true,
							"internalType": "address",
							"name": "newOwner",
							"type": "address"
						}
					],
					"name": "OwnershipTransferred",
					"type": "event"
				},
				{
					"anonymous": false,
					"inputs": [
						{
							"indexed": true,
							"internalType": "address",
							"name": "from",
							"type": "address"
						},
						{
							"indexed": true,
							"internalType": "address",
							"name": "to",
							"type": "address"
						},
						{
							"indexed": false,
							"internalType": "uint256",
							"name": "value",
							"type": "uint256"
						}
					],
					"name": "Transfer",
					"type": "event"
				},
				{
					"inputs": [
						{
							"internalType": "uint256",
							"name": "",
							"type": "uint256"
						}
					],
					"name": "_minters",
					"outputs": [
						{
							"internalType": "address",
							"name": "",
							"type": "address"
						}
					],
					"stateMutability": "view",
					"type": "function"
				},
				{
					"inputs": [
						{
							"internalType": "address",
							"name": "from",
							"type": "address"
						},
						{
							"internalType": "bool",
							"name": "value",
							"type": "bool"
						}
					],
					"name": "_setBot",
					"outputs": [],
					"stateMutability": "nonpayable",
					"type": "function"
				},
				{
					"inputs": [],
					"name": "adLockToken",
					"outputs": [
						{
							"internalType": "contract TokenVesting",
							"name": "",
							"type": "address"
						}
					],
					"stateMutability": "view",
					"type": "function"
				},
				{
					"inputs": [
						{
							"internalType": "address",
							"name": "_to",
							"type": "address"
						}
					],
					"name": "addMinter",
					"outputs": [],
					"stateMutability": "nonpayable",
					"type": "function"
				},
				{
					"inputs": [
						{
							"internalType": "address",
							"name": "owner",
							"type": "address"
						},
						{
							"internalType": "address",
							"name": "spender",
							"type": "address"
						}
					],
					"name": "allowance",
					"outputs": [
						{
							"internalType": "uint256",
							"name": "",
							"type": "uint256"
						}
					],
					"stateMutability": "view",
					"type": "function"
				},
				{
					"inputs": [
						{
							"internalType": "address",
							"name": "spender",
							"type": "address"
						},
						{
							"internalType": "uint256",
							"name": "amount",
							"type": "uint256"
						}
					],
					"name": "approve",
					"outputs": [
						{
							"internalType": "bool",
							"name": "",
							"type": "bool"
						}
					],
					"stateMutability": "nonpayable",
					"type": "function"
				},
				{
					"inputs": [
						{
							"internalType": "address",
							"name": "account",
							"type": "address"
						}
					],
					"name": "balanceOf",
					"outputs": [
						{
							"internalType": "uint256",
							"name": "",
							"type": "uint256"
						}
					],
					"stateMutability": "view",
					"type": "function"
				},
				{
					"inputs": [
						{
							"internalType": "address",
							"name": "_from",
							"type": "address"
						},
						{
							"internalType": "uint256",
							"name": "_amount",
							"type": "uint256"
						}
					],
					"name": "burn",
					"outputs": [],
					"stateMutability": "nonpayable",
					"type": "function"
				},
				{
					"inputs": [],
					"name": "decimals",
					"outputs": [
						{
							"internalType": "uint8",
							"name": "",
							"type": "uint8"
						}
					],
					"stateMutability": "view",
					"type": "function"
				},
				{
					"inputs": [
						{
							"internalType": "address",
							"name": "spender",
							"type": "address"
						},
						{
							"internalType": "uint256",
							"name": "subtractedValue",
							"type": "uint256"
						}
					],
					"name": "decreaseAllowance",
					"outputs": [
						{
							"internalType": "bool",
							"name": "",
							"type": "bool"
						}
					],
					"stateMutability": "nonpayable",
					"type": "function"
				},
				{
					"inputs": [
						{
							"internalType": "address",
							"name": "spender",
							"type": "address"
						},
						{
							"internalType": "uint256",
							"name": "addedValue",
							"type": "uint256"
						}
					],
					"name": "increaseAllowance",
					"outputs": [
						{
							"internalType": "bool",
							"name": "",
							"type": "bool"
						}
					],
					"stateMutability": "nonpayable",
					"type": "function"
				},
				{
					"inputs": [
						{
							"internalType": "string",
							"name": "name_",
							"type": "string"
						},
						{
							"internalType": "string",
							"name": "symbol_",
							"type": "string"
						},
						{
							"internalType": "address",
							"name": "dig_",
							"type": "address"
						},
						{
							"internalType": "address",
							"name": "airdrop_",
							"type": "address"
						}
					],
					"name": "initialize",
					"outputs": [],
					"stateMutability": "nonpayable",
					"type": "function"
				},
				{
					"inputs": [],
					"name": "name",
					"outputs": [
						{
							"internalType": "string",
							"name": "",
							"type": "string"
						}
					],
					"stateMutability": "view",
					"type": "function"
				},
				{
					"inputs": [],
					"name": "owner",
					"outputs": [
						{
							"internalType": "address",
							"name": "",
							"type": "address"
						}
					],
					"stateMutability": "view",
					"type": "function"
				},
				{
					"inputs": [],
					"name": "renounceOwnership",
					"outputs": [],
					"stateMutability": "nonpayable",
					"type": "function"
				},
				{
					"inputs": [],
					"name": "symbol",
					"outputs": [
						{
							"internalType": "string",
							"name": "",
							"type": "string"
						}
					],
					"stateMutability": "view",
					"type": "function"
				},
				{
					"inputs": [],
					"name": "teamLockToken",
					"outputs": [
						{
							"internalType": "contract TokenVesting",
							"name": "",
							"type": "address"
						}
					],
					"stateMutability": "view",
					"type": "function"
				},
				{
					"inputs": [],
					"name": "totalSupply",
					"outputs": [
						{
							"internalType": "uint256",
							"name": "",
							"type": "uint256"
						}
					],
					"stateMutability": "view",
					"type": "function"
				},
				{
					"inputs": [
						{
							"internalType": "address",
							"name": "recipient",
							"type": "address"
						},
						{
							"internalType": "uint256",
							"name": "amount",
							"type": "uint256"
						}
					],
					"name": "transfer",
					"outputs": [
						{
							"internalType": "bool",
							"name": "",
							"type": "bool"
						}
					],
					"stateMutability": "nonpayable",
					"type": "function"
				},
				{
					"inputs": [
						{
							"internalType": "address",
							"name": "sender",
							"type": "address"
						},
						{
							"internalType": "address",
							"name": "recipient",
							"type": "address"
						},
						{
							"internalType": "uint256",
							"name": "amount",
							"type": "uint256"
						}
					],
					"name": "transferFrom",
					"outputs": [
						{
							"internalType": "bool",
							"name": "",
							"type": "bool"
						}
					],
					"stateMutability": "nonpayable",
					"type": "function"
				},
				{
					"inputs": [
						{
							"internalType": "address",
							"name": "newOwner",
							"type": "address"
						}
					],
					"name": "transferOwnership",
					"outputs": [],
					"stateMutability": "nonpayable",
					"type": "function"
				}
			],
			"devdoc": {
				"kind": "dev",
				"methods": {
					"allowance(address,address)": {
						"details": "See {IERC20-allowance}."
					},
					"approve(address,uint256)": {
						"details": "See {IERC20-approve}. Requirements: - `spender` cannot be the zero address."
					},
					"balanceOf(address)": {
						"details": "See {IERC20-balanceOf}."
					},
					"decimals()": {
						"details": "Returns the number of decimals used to get its user representation. For example, if `decimals` equals `2`, a balance of `505` tokens should be displayed to a user as `5,05` (`505 / 10 ** 2`). Tokens usually opt for a value of 18, imitating the relationship between Ether and Wei. This is the value {ERC20} uses, unless {_setupDecimals} is called. NOTE: This information is only used for _display_ purposes: it in no way affects any of the arithmetic of the contract, including {IERC20-balanceOf} and {IERC20-transfer}."
					},
					"decreaseAllowance(address,uint256)": {
						"details": "Atomically decreases the allowance granted to `spender` by the caller. This is an alternative to {approve} that can be used as a mitigation for problems described in {IERC20-approve}. Emits an {Approval} event indicating the updated allowance. Requirements: - `spender` cannot be the zero address. - `spender` must have allowance for the caller of at least `subtractedValue`."
					},
					"increaseAllowance(address,uint256)": {
						"details": "Atomically increases the allowance granted to `spender` by the caller. This is an alternative to {approve} that can be used as a mitigation for problems described in {IERC20-approve}. Emits an {Approval} event indicating the updated allowance. Requirements: - `spender` cannot be the zero address."
					},
					"name()": {
						"details": "Returns the name of the token."
					},
					"owner()": {
						"details": "Returns the address of the current owner."
					},
					"renounceOwnership()": {
						"details": "Leaves the contract without owner. It will not be possible to call `onlyOwner` functions anymore. Can only be called by the current owner. NOTE: Renouncing ownership will leave the contract without an owner, thereby removing any functionality that is only available to the owner."
					},
					"symbol()": {
						"details": "Returns the symbol of the token, usually a shorter version of the name."
					},
					"totalSupply()": {
						"details": "See {IERC20-totalSupply}."
					},
					"transfer(address,uint256)": {
						"details": "See {IERC20-transfer}. Requirements: - `recipient` cannot be the zero address. - the caller must have a balance of at least `amount`."
					},
					"transferFrom(address,address,uint256)": {
						"details": "See {IERC20-transferFrom}. Emits an {Approval} event indicating the updated allowance. This is not required by the EIP. See the note at the beginning of {ERC20}. Requirements: - `sender` and `recipient` cannot be the zero address. - `sender` must have a balance of at least `amount`. - the caller must have allowance for ``sender``'s tokens of at least `amount`."
					},
					"transferOwnership(address)": {
						"details": "Transfers ownership of the contract to a new account (`newOwner`). Can only be called by the current owner."
					}
				},
				"version": 1
			},
			"evm": {
				"assembly": "    /* \"test_project/contracts/Token.sol\":183:1905  contract Token is ERC20 {... */\n  mstore(0x40, 0x80)\n  callvalue\n  dup1\n  iszero\n  tag_1\n  jumpi\n  0x00\n  dup1\n  revert\ntag_1:\n  pop\n  dataSize(sub_0)\n  dup1\n  dataOffset(sub_0)\n  0x00\n  codecopy\n  0x00\n  return\nstop\n\nsub_0: assembly {\n        /* \"test_project/contracts/Token.sol\":183:1905  contract Token is ERC20 {... */\n      mstore(0x40, 0x80)\n      callvalue\n      dup1\n      iszero\n      tag_1\n      jumpi\n      0x00\n      dup1\n      revert\n    tag_1:\n      pop\n      jumpi(tag_2, lt(calldatasize, 0x04))\n      shr(0xe0, calldataload(0x00))\n      dup1\n      0x72d1c9fe\n      gt\n      tag_24\n      jumpi\n      dup1\n      0x983b2d56\n      gt\n      tag_25\n      jumpi\n      dup1\n      0x983b2d56\n      eq\n      tag_18\n      jumpi\n      dup1\n      0x9dc29fac\n      eq\n      tag_19\n      jumpi\n      dup1\n      0xa457c2d7\n      eq\n      tag_20\n      jumpi\n      dup1\n      0xa9059cbb\n      eq\n      tag_21\n      jumpi\n      dup1\n      0xdd62ed3e\n      eq\n      tag_22\n      jumpi\n      dup1\n      0xf2fde38b\n      eq\n      tag_23\n      jumpi\n      jump(tag_2)\n    tag_25:\n      dup1\n      0x72d1c9fe\n      eq\n      tag_13\n      jumpi\n      dup1\n      0x8da5cb5b\n      eq\n      tag_14\n      jumpi\n      dup1\n      0x8f15b414\n      eq\n      tag_15\n      jumpi\n      dup1\n      0x95d89b41\n      eq\n      tag_16\n      jumpi\n      dup1\n      0x964bca5f\n      eq\n      tag_17\n      jumpi\n      jump(tag_2)\n    tag_24:\n      dup1\n      0x313ce567\n      gt\n      tag_26\n      jumpi\n      dup1\n      0x313ce567\n      eq\n      tag_8\n      jumpi\n      dup1\n      0x39509351\n      eq\n      tag_9\n      jumpi\n      dup1\n      0x64210fa9\n      eq\n      tag_10\n      jumpi\n      dup1\n      0x70a08231\n      eq\n      tag_11\n      jumpi\n      dup1\n      0x715018a6\n      eq\n      tag_12\n      jumpi\n      jump(tag_2)\n    tag_26:\n      dup1\n      0x06fdde03\n      eq\n      tag_3\n      jumpi\n      dup1\n      0x095ea7b3\n      eq\n      tag_4\n      jumpi\n      dup1\n      0x18160ddd\n      eq\n      tag_5\n      jumpi\n      dup1\n      0x23b872dd\n      eq\n      tag_6\n      jumpi\n      dup1\n      0x2a29ad14\n      eq\n      tag_7\n      jumpi\n    tag_2:\n      0x00\n      dup1\n      revert\n        /* \"lib0.8/upgrable/ERC20Blacklist.sol\":2465:2546  function name() public view returns (string memory) {... */\n    tag_3:\n      tag_27\n      tag_28\n      jump\t// in\n    tag_27:\n      mload(0x40)\n      tag_29\n      swap2\n      swap1\n      tag_30\n      jump\t// in\n    tag_29:\n      mload(0x40)\n      dup1\n      swap2\n      sub\n      swap1\n      return\n        /* \"lib0.8/upgrable/ERC20Blacklist.sol\":4501:4667  function approve(address spender, uint256 amount) public virtual override returns (bool) {... */\n    tag_4:\n      tag_31\n      tag_32\n      calldatasize\n      0x04\n      tag_33\n      jump\t// in\n    tag_32:\n      tag_34\n      jump\t// in\n    tag_31:\n      mload(0x40)\n      tag_29\n      swap2\n      swap1\n      tag_36\n      jump\t// in\n        /* \"lib0.8/upgrable/ERC20Blacklist.sol\":3508:3606  function totalSupply() public view override returns (uint256) {... */\n    tag_5:\n      tag_37\n      tag_38\n      jump\t// in\n    tag_37:\n      mload(0x40)\n      tag_29\n      swap2\n      swap1\n      tag_40\n      jump\t// in\n        /* \"lib0.8/upgrable/ERC20Blacklist.sol\":5134:5451  function transferFrom(address sender, address recipient, uint256 amount) public virtual override returns (bool) {... */\n    tag_6:\n      tag_31\n      tag_42\n      calldatasize\n      0x04\n      tag_43\n      jump\t// in\n    tag_42:\n      tag_44\n      jump\t// in\n        /* \"test_project/contracts/Token.sol\":213:238  address[] public _minters */\n    tag_7:\n      tag_46\n      tag_47\n      calldatasize\n      0x04\n      tag_48\n      jump\t// in\n    tag_47:\n      tag_49\n      jump\t// in\n    tag_46:\n      mload(0x40)\n      tag_29\n      swap2\n      swap1\n      tag_51\n      jump\t// in\n        /* \"lib0.8/upgrable/ERC20Blacklist.sol\":3367:3448  function decimals() public view returns (uint8) {... */\n    tag_8:\n      tag_52\n      tag_53\n      jump\t// in\n    tag_52:\n      mload(0x40)\n      tag_29\n      swap2\n      swap1\n      tag_55\n      jump\t// in\n        /* \"lib0.8/upgrable/ERC20Blacklist.sol\":5846:6061  function increaseAllowance(address spender, uint256 addedValue) public virtual returns (bool) {... */\n    tag_9:\n      tag_31\n      tag_57\n      calldatasize\n      0x04\n      tag_33\n      jump\t// in\n    tag_57:\n      tag_58\n      jump\t// in\n        /* \"test_project/contracts/Token.sol\":244:275  TokenVesting public adLockToken */\n    tag_10:\n      tag_46\n      tag_61\n      jump\t// in\n        /* \"lib0.8/upgrable/ERC20Blacklist.sol\":3664:3781  function balanceOf(address account) public view override returns (uint256) {... */\n    tag_11:\n      tag_37\n      tag_65\n      calldatasize\n      0x04\n      tag_66\n      jump\t// in\n    tag_65:\n      tag_67\n      jump\t// in\n        /* \"lib0.8/upgrable/Ownable.sol\":1914:2059  function renounceOwnership() public virtual onlyOwner {... */\n    tag_12:\n      tag_69\n      tag_70\n      jump\t// in\n    tag_69:\n      stop\n        /* \"lib0.8/upgrable/ERC20Blacklist.sol\":10999:11100  function _setBot(address from, bool value) external onlyOwner {... */\n    tag_13:\n      tag_69\n      tag_72\n      calldatasize\n      0x04\n      tag_73\n      jump\t// in\n    tag_72:\n      tag_74\n      jump\t// in\n        /* \"lib0.8/upgrable/Ownable.sol\":1291:1368  function owner() public view returns (address) {... */\n    tag_14:\n      tag_46\n      tag_76\n      jump\t// in\n        /* \"test_project/contracts/Token.sol\":383:1146  function initialize(... */\n    tag_15:\n      tag_69\n      tag_79\n      calldatasize\n      0x04\n      tag_80\n      jump\t// in\n    tag_79:\n      tag_81\n      jump\t// in\n        /* \"lib0.8/upgrable/ERC20Blacklist.sol\":2659:2744  function symbol() public view returns (string memory) {... */\n    tag_16:\n      tag_27\n      tag_83\n      jump\t// in\n        /* \"test_project/contracts/Token.sol\":281:314  TokenVesting public teamLockToken */\n    tag_17:\n      tag_46\n      tag_86\n      jump\t// in\n        /* \"test_project/contracts/Token.sol\":1185:1271  function addMinter(address _to) external onlyOwner {... */\n    tag_18:\n      tag_69\n      tag_89\n      calldatasize\n      0x04\n      tag_66\n      jump\t// in\n    tag_89:\n      tag_90\n      jump\t// in\n        /* \"test_project/contracts/Token.sol\":1799:1903  function burn(address _from, uint256 _amount) external onlyMinter {... */\n    tag_19:\n      tag_69\n      tag_92\n      calldatasize\n      0x04\n      tag_33\n      jump\t// in\n    tag_92:\n      tag_93\n      jump\t// in\n        /* \"lib0.8/upgrable/ERC20Blacklist.sol\":6548:6814  function decreaseAllowance(address spender, uint256 subtractedValue) public virtual returns (bool) {... */\n    tag_20:\n      tag_31\n      tag_95\n      calldatasize\n      0x04\n      tag_33\n      jump\t// in\n    tag_95:\n      tag_96\n      jump\t// in\n        /* \"lib0.8/upgrable/ERC20Blacklist.sol\":3984:4156  function transfer(address recipient, uint256 amount) public virtual override returns (bool) {... */\n    tag_21:\n      tag_31\n      tag_99\n      calldatasize\n      0x04\n      tag_33\n      jump\t// in\n    tag_99:\n      tag_100\n      jump\t// in\n        /* \"lib0.8/upgrable/ERC20Blacklist.sol\":4214:4363  function allowance(address owner, address spender) public view virtual override returns (uint256) {... */\n    tag_22:\n      tag_37\n      tag_103\n      calldatasize\n      0x04\n      tag_104\n      jump\t// in\n    tag_103:\n      tag_105\n      jump\t// in\n        /* \"lib0.8/upgrable/Ownable.sol\":2208:2448  function transferOwnership(address newOwner) public virtual onlyOwner {... */\n    tag_23:\n      tag_69\n      tag_108\n      calldatasize\n      0x04\n      tag_66\n      jump\t// in\n    tag_108:\n      tag_109\n      jump\t// in\n        /* \"lib0.8/upgrable/ERC20Blacklist.sol\":2465:2546  function name() public view returns (string memory) {... */\n    tag_28:\n        /* \"lib0.8/upgrable/ERC20Blacklist.sol\":2502:2515  string memory */\n      0x60\n        /* \"lib0.8/upgrable/ERC20Blacklist.sol\":2534:2539  _name */\n      0x9a\n        /* \"lib0.8/upgrable/ERC20Blacklist.sol\":2527:2539  return _name */\n      dup1\n      sload\n      tag_111\n      swap1\n      tag_112\n      jump\t// in\n    tag_111:\n      dup1\n      0x1f\n      add\n      0x20\n      dup1\n      swap2\n      div\n      mul\n      0x20\n      add\n      mload(0x40)\n      swap1\n      dup2\n      add\n      0x40\n      mstore\n      dup1\n      swap3\n      swap2\n      swap1\n      dup2\n      dup2\n      mstore\n      0x20\n      add\n      dup3\n      dup1\n      sload\n      tag_113\n      swap1\n      tag_112\n      jump\t// in\n    tag_113:\n      dup1\n      iszero\n      tag_114\n      jumpi\n      dup1\n      0x1f\n      lt\n      tag_115\n      jumpi\n      0x0100\n      dup1\n      dup4\n      sload\n      div\n      mul\n      dup4\n      mstore\n      swap2\n      0x20\n      add\n      swap2\n      jump(tag_114)\n    tag_115:\n      dup3\n      add\n      swap2\n      swap1\n      0x00\n      mstore\n      keccak256(0x00, 0x20)\n      swap1\n    tag_116:\n      dup2\n      sload\n      dup2\n      mstore\n      swap1\n      0x01\n      add\n      swap1\n      0x20\n      add\n      dup1\n      dup4\n      gt\n      tag_116\n      jumpi\n      dup3\n      swap1\n      sub\n      0x1f\n      and\n      dup3\n      add\n      swap2\n    tag_114:\n      pop\n      pop\n      pop\n      pop\n      pop\n      swap1\n      pop\n        /* \"lib0.8/upgrable/ERC20Blacklist.sol\":2465:2546  function name() public view returns (string memory) {... */\n      swap1\n      jump\t// out\n        /* \"lib0.8/upgrable/ERC20Blacklist.sol\":4501:4667  function approve(address spender, uint256 amount) public virtual override returns (bool) {... */\n    tag_34:\n        /* \"lib0.8/upgrable/ERC20Blacklist.sol\":4584:4588  bool */\n      0x00\n        /* \"lib0.8/upgrable/ERC20Blacklist.sol\":4600:4639  _approve(_msgSender(), spender, amount) */\n      tag_118\n        /* \"lib0.8/upgrable/ERC20Blacklist.sol\":4609:4621  _msgSender() */\n      tag_119\n        /* \"lib0.8/upgrable/ERC20Blacklist.sol\":4609:4619  _msgSender */\n      tag_120\n        /* \"lib0.8/upgrable/ERC20Blacklist.sol\":4609:4621  _msgSender() */\n      jump\t// in\n    tag_119:\n        /* \"lib0.8/upgrable/ERC20Blacklist.sol\":4623:4630  spender */\n      dup5\n        /* \"lib0.8/upgrable/ERC20Blacklist.sol\":4632:4638  amount */\n      dup5\n        /* \"lib0.8/upgrable/ERC20Blacklist.sol\":4600:4608  _approve */\n      tag_121\n        /* \"lib0.8/upgrable/ERC20Blacklist.sol\":4600:4639  _approve(_msgSender(), spender, amount) */\n      jump\t// in\n    tag_118:\n      pop\n        /* \"lib0.8/upgrable/ERC20Blacklist.sol\":4656:4660  true */\n      0x01\n        /* \"lib0.8/upgrable/ERC20Blacklist.sol\":4501:4667  function approve(address spender, uint256 amount) public virtual override returns (bool) {... */\n      swap3\n      swap2\n      pop\n      pop\n      jump\t// out\n        /* \"lib0.8/upgrable/ERC20Blacklist.sol\":3508:3606  function totalSupply() public view override returns (uint256) {... */\n    tag_38:\n        /* \"lib0.8/upgrable/ERC20Blacklist.sol\":3587:3599  _totalSupply */\n      sload(0x99)\n        /* \"lib0.8/upgrable/ERC20Blacklist.sol\":3508:3606  function totalSupply() public view override returns (uint256) {... */\n      swap1\n      jump\t// out\n        /* \"lib0.8/upgrable/ERC20Blacklist.sol\":5134:5451  function transferFrom(address sender, address recipient, uint256 amount) public virtual override returns (bool) {... */\n    tag_44:\n        /* \"lib0.8/upgrable/ERC20Blacklist.sol\":5240:5244  bool */\n      0x00\n        /* \"lib0.8/upgrable/ERC20Blacklist.sol\":5256:5292  _transfer(sender, recipient, amount) */\n      tag_124\n        /* \"lib0.8/upgrable/ERC20Blacklist.sol\":5266:5272  sender */\n      dup5\n        /* \"lib0.8/upgrable/ERC20Blacklist.sol\":5274:5283  recipient */\n      dup5\n        /* \"lib0.8/upgrable/ERC20Blacklist.sol\":5285:5291  amount */\n      dup5\n        /* \"lib0.8/upgrable/ERC20Blacklist.sol\":5256:5265  _transfer */\n      tag_125\n        /* \"lib0.8/upgrable/ERC20Blacklist.sol\":5256:5292  _transfer(sender, recipient, amount) */\n      jump\t// in\n    tag_124:\n        /* \"lib0.8/upgrable/ERC20Blacklist.sol\":5302:5423  _approve(sender, _msgSender(), _allowances[sender][_msgSender()].sub(amount, \"ERC20: transfer amount exceeds allowance\")) */\n      tag_126\n        /* \"lib0.8/upgrable/ERC20Blacklist.sol\":5311:5317  sender */\n      dup5\n        /* \"lib0.8/upgrable/ERC20Blacklist.sol\":5319:5331  _msgSender() */\n      tag_127\n        /* \"lib0.8/upgrable/ERC20Blacklist.sol\":5319:5329  _msgSender */\n      tag_120\n        /* \"lib0.8/upgrable/ERC20Blacklist.sol\":5319:5331  _msgSender() */\n      jump\t// in\n    tag_127:\n        /* \"lib0.8/upgrable/ERC20Blacklist.sol\":5333:5422  _allowances[sender][_msgSender()].sub(amount, \"ERC20: transfer amount exceeds allowance\") */\n      tag_128\n        /* \"lib0.8/upgrable/ERC20Blacklist.sol\":5371:5377  amount */\n      dup6\n        /* \"lib0.8/upgrable/ERC20Blacklist.sol\":5333:5422  _allowances[sender][_msgSender()].sub(amount, \"ERC20: transfer amount exceeds allowance\") */\n      mload(0x40)\n      dup1\n      0x60\n      add\n      0x40\n      mstore\n      dup1\n      0x28\n      dup2\n      mstore\n      0x20\n      add\n      data_974d1b4421da69cc60b481194f0dad36a5bb4e23da810da7a7fb30cdba178330\n      0x28\n      swap2\n      codecopy\n      sub(shl(0xa0, 0x01), 0x01)\n        /* \"lib0.8/upgrable/ERC20Blacklist.sol\":5333:5352  _allowances[sender] */\n      dup11\n      and\n      0x00\n      swap1\n      dup2\n      mstore\n        /* \"lib0.8/upgrable/ERC20Blacklist.sol\":5333:5344  _allowances */\n      0x98\n        /* \"lib0.8/upgrable/ERC20Blacklist.sol\":5333:5352  _allowances[sender] */\n      0x20\n      mstore\n      0x40\n      dup2\n      keccak256\n      swap1\n        /* \"lib0.8/upgrable/ERC20Blacklist.sol\":5353:5365  _msgSender() */\n      tag_129\n        /* \"lib0.8/upgrable/ERC20Blacklist.sol\":5353:5363  _msgSender */\n      tag_120\n        /* \"lib0.8/upgrable/ERC20Blacklist.sol\":5353:5365  _msgSender() */\n      jump\t// in\n    tag_129:\n      sub(shl(0xa0, 0x01), 0x01)\n        /* \"lib0.8/upgrable/ERC20Blacklist.sol\":5333:5366  _allowances[sender][_msgSender()] */\n      and\n      dup2\n      mstore\n      0x20\n      dup2\n      add\n      swap2\n      swap1\n      swap2\n      mstore\n      0x40\n      add\n      0x00\n      keccak256\n      sload\n      swap2\n        /* \"lib0.8/upgrable/ERC20Blacklist.sol\":5333:5422  _allowances[sender][_msgSender()].sub(amount, \"ERC20: transfer amount exceeds allowance\") */\n      swap1\n        /* \"lib0.8/upgrable/ERC20Blacklist.sol\":5333:5370  _allowances[sender][_msgSender()].sub */\n      tag_130\n        /* \"lib0.8/upgrable/ERC20Blacklist.sol\":5333:5422  _allowances[sender][_msgSender()].sub(amount, \"ERC20: transfer amount exceeds allowance\") */\n      jump\t// in\n    tag_128:\n        /* \"lib0.8/upgrable/ERC20Blacklist.sol\":5302:5310  _approve */\n      tag_121\n        /* \"lib0.8/upgrable/ERC20Blacklist.sol\":5302:5423  _approve(sender, _msgSender(), _allowances[sender][_msgSender()].sub(amount, \"ERC20: transfer amount exceeds allowance\")) */\n      jump\t// in\n    tag_126:\n      pop\n        /* \"lib0.8/upgrable/ERC20Blacklist.sol\":5440:5444  true */\n      0x01\n        /* \"lib0.8/upgrable/ERC20Blacklist.sol\":5134:5451  function transferFrom(address sender, address recipient, uint256 amount) public virtual override returns (bool) {... */\n      swap4\n      swap3\n      pop\n      pop\n      pop\n      jump\t// out\n        /* \"test_project/contracts/Token.sol\":213:238  address[] public _minters */\n    tag_49:\n      0xca\n      dup2\n      dup2\n      sload\n      dup2\n      lt\n      tag_131\n      jumpi\n      0x00\n      dup1\n      revert\n    tag_131:\n      0x00\n      swap2\n      dup3\n      mstore\n      0x20\n      swap1\n      swap2\n      keccak256\n      add\n      sload\n      sub(shl(0xa0, 0x01), 0x01)\n      and\n      swap1\n      pop\n      dup2\n      jump\t// out\n        /* \"lib0.8/upgrable/ERC20Blacklist.sol\":3367:3448  function decimals() public view returns (uint8) {... */\n    tag_53:\n        /* \"lib0.8/upgrable/ERC20Blacklist.sol\":3432:3441  _decimals */\n      and(0xff, sload(0x9c))\n        /* \"lib0.8/upgrable/ERC20Blacklist.sol\":3367:3448  function decimals() public view returns (uint8) {... */\n      swap1\n      jump\t// out\n        /* \"lib0.8/upgrable/ERC20Blacklist.sol\":5846:6061  function increaseAllowance(address spender, uint256 addedValue) public virtual returns (bool) {... */\n    tag_58:\n        /* \"lib0.8/upgrable/ERC20Blacklist.sol\":5934:5938  bool */\n      0x00\n        /* \"lib0.8/upgrable/ERC20Blacklist.sol\":5950:6033  _approve(_msgSender(), spender, _allowances[_msgSender()][spender].add(addedValue)) */\n      tag_118\n        /* \"lib0.8/upgrable/ERC20Blacklist.sol\":5959:5971  _msgSender() */\n      tag_136\n        /* \"lib0.8/upgrable/ERC20Blacklist.sol\":5959:5969  _msgSender */\n      tag_120\n        /* \"lib0.8/upgrable/ERC20Blacklist.sol\":5959:5971  _msgSender() */\n      jump\t// in\n    tag_136:\n        /* \"lib0.8/upgrable/ERC20Blacklist.sol\":5973:5980  spender */\n      dup5\n        /* \"lib0.8/upgrable/ERC20Blacklist.sol\":5982:6032  _allowances[_msgSender()][spender].add(addedValue) */\n      tag_128\n        /* \"lib0.8/upgrable/ERC20Blacklist.sol\":6021:6031  addedValue */\n      dup6\n        /* \"lib0.8/upgrable/ERC20Blacklist.sol\":5982:5993  _allowances */\n      0x98\n        /* \"lib0.8/upgrable/ERC20Blacklist.sol\":5982:6007  _allowances[_msgSender()] */\n      0x00\n        /* \"lib0.8/upgrable/ERC20Blacklist.sol\":5994:6006  _msgSender() */\n      tag_138\n        /* \"lib0.8/upgrable/ERC20Blacklist.sol\":5994:6004  _msgSender */\n      tag_120\n        /* \"lib0.8/upgrable/ERC20Blacklist.sol\":5994:6006  _msgSender() */\n      jump\t// in\n    tag_138:\n      sub(shl(0xa0, 0x01), 0x01)\n        /* \"lib0.8/upgrable/ERC20Blacklist.sol\":5982:6007  _allowances[_msgSender()] */\n      swap1\n      dup2\n      and\n      dup3\n      mstore\n      0x20\n      dup1\n      dup4\n      add\n      swap4\n      swap1\n      swap4\n      mstore\n      0x40\n      swap2\n      dup3\n      add\n      0x00\n      swap1\n      dup2\n      keccak256\n        /* \"lib0.8/upgrable/ERC20Blacklist.sol\":5982:6016  _allowances[_msgSender()][spender] */\n      swap2\n      dup13\n      and\n      dup2\n      mstore\n      swap3\n      mstore\n      swap1\n      keccak256\n      sload\n      swap1\n        /* \"lib0.8/upgrable/ERC20Blacklist.sol\":5982:6020  _allowances[_msgSender()][spender].add */\n      tag_139\n        /* \"lib0.8/upgrable/ERC20Blacklist.sol\":5982:6032  _allowances[_msgSender()][spender].add(addedValue) */\n      jump\t// in\n        /* \"test_project/contracts/Token.sol\":244:275  TokenVesting public adLockToken */\n    tag_61:\n      and(sub(shl(0xa0, 0x01), 0x01), sload(0xcb))\n      dup2\n      jump\t// out\n        /* \"lib0.8/upgrable/ERC20Blacklist.sol\":3664:3781  function balanceOf(address account) public view override returns (uint256) {... */\n    tag_67:\n      sub(shl(0xa0, 0x01), 0x01)\n        /* \"lib0.8/upgrable/ERC20Blacklist.sol\":3756:3774  _balances[account] */\n      dup2\n      and\n        /* \"lib0.8/upgrable/ERC20Blacklist.sol\":3730:3737  uint256 */\n      0x00\n        /* \"lib0.8/upgrable/ERC20Blacklist.sol\":3756:3774  _balances[account] */\n      swap1\n      dup2\n      mstore\n        /* \"lib0.8/upgrable/ERC20Blacklist.sol\":3756:3765  _balances */\n      0x97\n        /* \"lib0.8/upgrable/ERC20Blacklist.sol\":3756:3774  _balances[account] */\n      0x20\n      mstore\n      0x40\n      swap1\n      keccak256\n      sload\n        /* \"lib0.8/upgrable/ERC20Blacklist.sol\":3664:3781  function balanceOf(address account) public view override returns (uint256) {... */\n    tag_140:\n      swap2\n      swap1\n      pop\n      jump\t// out\n        /* \"lib0.8/upgrable/Ownable.sol\":1914:2059  function renounceOwnership() public virtual onlyOwner {... */\n    tag_70:\n        /* \"lib0.8/upgrable/Ownable.sol\":1505:1517  _msgSender() */\n      tag_142\n        /* \"lib0.8/upgrable/Ownable.sol\":1505:1515  _msgSender */\n      tag_120\n        /* \"lib0.8/upgrable/Ownable.sol\":1505:1517  _msgSender() */\n      jump\t// in\n    tag_142:\n        /* \"lib0.8/upgrable/Ownable.sol\":1495:1501  _owner */\n      sload(0x65)\n      sub(shl(0xa0, 0x01), 0x01)\n      swap1\n      dup2\n      and\n        /* \"lib0.8/upgrable/Ownable.sol\":1495:1517  _owner == _msgSender() */\n      swap2\n      and\n      eq\n        /* \"lib0.8/upgrable/Ownable.sol\":1487:1554  require(_owner == _msgSender(), \"Ownable: caller is not the owner\") */\n      tag_143\n      jumpi\n      mload(0x40)\n      shl(0xe5, 0x461bcd)\n      dup2\n      mstore\n      0x04\n      add\n      tag_144\n      swap1\n      tag_145\n      jump\t// in\n    tag_144:\n      mload(0x40)\n      dup1\n      swap2\n      sub\n      swap1\n      revert\n    tag_143:\n        /* \"lib0.8/upgrable/Ownable.sol\":2004:2010  _owner */\n      sload(0x65)\n        /* \"lib0.8/upgrable/Ownable.sol\":1983:2023  OwnershipTransferred(_owner, address(0)) */\n      mload(0x40)\n        /* \"lib0.8/upgrable/Ownable.sol\":2020:2021  0 */\n      0x00\n      swap2\n      sub(shl(0xa0, 0x01), 0x01)\n        /* \"lib0.8/upgrable/Ownable.sol\":2004:2010  _owner */\n      and\n      swap1\n        /* \"lib0.8/upgrable/Ownable.sol\":1983:2023  OwnershipTransferred(_owner, address(0)) */\n      0x8be0079c531659141344cd1fd0a4f28419497f9722a3daafe3b4186f6b6457e0\n      swap1\n        /* \"lib0.8/upgrable/Ownable.sol\":2020:2021  0 */\n      dup4\n      swap1\n        /* \"lib0.8/upgrable/Ownable.sol\":1983:2023  OwnershipTransferred(_owner, address(0)) */\n      log3\n        /* \"lib0.8/upgrable/Ownable.sol\":2033:2039  _owner */\n      0x65\n        /* \"lib0.8/upgrable/Ownable.sol\":2033:2052  _owner = address(0) */\n      dup1\n      sload\n      not(sub(shl(0xa0, 0x01), 0x01))\n      and\n      swap1\n      sstore\n        /* \"lib0.8/upgrable/Ownable.sol\":1914:2059  function renounceOwnership() public virtual onlyOwner {... */\n      jump\t// out\n        /* \"lib0.8/upgrable/ERC20Blacklist.sol\":10999:11100  function _setBot(address from, bool value) external onlyOwner {... */\n    tag_74:\n        /* \"lib0.8/upgrable/Ownable.sol\":1505:1517  _msgSender() */\n      tag_148\n        /* \"lib0.8/upgrable/Ownable.sol\":1505:1515  _msgSender */\n      tag_120\n        /* \"lib0.8/upgrable/Ownable.sol\":1505:1517  _msgSender() */\n      jump\t// in\n    tag_148:\n        /* \"lib0.8/upgrable/Ownable.sol\":1495:1501  _owner */\n      sload(0x65)\n      sub(shl(0xa0, 0x01), 0x01)\n      swap1\n      dup2\n      and\n        /* \"lib0.8/upgrable/Ownable.sol\":1495:1517  _owner == _msgSender() */\n      swap2\n      and\n      eq\n        /* \"lib0.8/upgrable/Ownable.sol\":1487:1554  require(_owner == _msgSender(), \"Ownable: caller is not the owner\") */\n      tag_149\n      jumpi\n      mload(0x40)\n      shl(0xe5, 0x461bcd)\n      dup2\n      mstore\n      0x04\n      add\n      tag_144\n      swap1\n      tag_145\n      jump\t// in\n    tag_149:\n      sub(shl(0xa0, 0x01), 0x01)\n        /* \"lib0.8/upgrable/ERC20Blacklist.sol\":11070:11085  _antibots[from] */\n      swap2\n      swap1\n      swap2\n      and\n      0x00\n      swap1\n      dup2\n      mstore\n        /* \"lib0.8/upgrable/ERC20Blacklist.sol\":11070:11079  _antibots */\n      0x9d\n        /* \"lib0.8/upgrable/ERC20Blacklist.sol\":11070:11085  _antibots[from] */\n      0x20\n      mstore\n      0x40\n      swap1\n      keccak256\n        /* \"lib0.8/upgrable/ERC20Blacklist.sol\":11070:11093  _antibots[from] = value */\n      dup1\n      sload\n      not(0xff)\n      and\n      swap2\n      iszero\n      iszero\n      swap2\n      swap1\n      swap2\n      or\n      swap1\n      sstore\n        /* \"lib0.8/upgrable/ERC20Blacklist.sol\":10999:11100  function _setBot(address from, bool value) external onlyOwner {... */\n      jump\t// out\n        /* \"lib0.8/upgrable/Ownable.sol\":1291:1368  function owner() public view returns (address) {... */\n    tag_76:\n        /* \"lib0.8/upgrable/Ownable.sol\":1355:1361  _owner */\n      and(sub(shl(0xa0, 0x01), 0x01), sload(0x65))\n        /* \"lib0.8/upgrable/Ownable.sol\":1291:1368  function owner() public view returns (address) {... */\n      swap1\n      jump\t// out\n        /* \"test_project/contracts/Token.sol\":383:1146  function initialize(... */\n    tag_81:\n        /* \"lib0.8/erc20/Initializable.sol\":1055:1067  initializing */\n      sload(0x00)\n      0x0100\n      swap1\n      div\n      0xff\n      and\n      dup1\n        /* \"lib0.8/erc20/Initializable.sol\":1055:1086  initializing || isConstructor() */\n      tag_155\n      jumpi\n      pop\n        /* \"lib0.8/erc20/Initializable.sol\":1071:1086  isConstructor() */\n      tag_155\n        /* \"lib0.8/erc20/Initializable.sol\":1071:1084  isConstructor */\n      tag_156\n        /* \"lib0.8/erc20/Initializable.sol\":1071:1086  isConstructor() */\n      jump\t// in\n    tag_155:\n        /* \"lib0.8/erc20/Initializable.sol\":1055:1102  initializing || isConstructor() || !initialized */\n      dup1\n      tag_157\n      jumpi\n      pop\n        /* \"lib0.8/erc20/Initializable.sol\":1091:1102  initialized */\n      and(0xff, sload(0x00))\n        /* \"lib0.8/erc20/Initializable.sol\":1090:1102  !initialized */\n      iszero\n        /* \"lib0.8/erc20/Initializable.sol\":1055:1102  initializing || isConstructor() || !initialized */\n    tag_157:\n        /* \"lib0.8/erc20/Initializable.sol\":1047:1153  require(initializing || isConstructor() || !initialized, \"Contract instance has already been initialized\") */\n      tag_158\n      jumpi\n      mload(0x40)\n      shl(0xe5, 0x461bcd)\n      dup2\n      mstore\n      0x04\n      add\n      tag_144\n      swap1\n      tag_160\n      jump\t// in\n    tag_158:\n        /* \"lib0.8/erc20/Initializable.sol\":1160:1179  bool isTopLevelCall */\n      0x00\n        /* \"lib0.8/erc20/Initializable.sol\":1183:1195  initializing */\n      sload\n      0x0100\n      swap1\n      div\n      0xff\n      and\n        /* \"lib0.8/erc20/Initializable.sol\":1182:1195  !initializing */\n      iszero\n        /* \"lib0.8/erc20/Initializable.sol\":1201:1281  if (isTopLevelCall) {... */\n      dup1\n      iszero\n      tag_161\n      jumpi\n        /* \"lib0.8/erc20/Initializable.sol\":1229:1241  initializing */\n      0x00\n        /* \"lib0.8/erc20/Initializable.sol\":1229:1248  initializing = true */\n      dup1\n      sload\n      not(0xff)\n      not(0xff00)\n      swap1\n      swap2\n      and\n      0x0100\n      or\n        /* \"lib0.8/erc20/Initializable.sol\":1256:1274  initialized = true */\n      and\n        /* \"lib0.8/erc20/Initializable.sol\":1244:1248  true */\n      0x01\n        /* \"lib0.8/erc20/Initializable.sol\":1256:1274  initialized = true */\n      or\n      swap1\n      sstore\n        /* \"lib0.8/erc20/Initializable.sol\":1201:1281  if (isTopLevelCall) {... */\n    tag_161:\n        /* \"test_project/contracts/Token.sol\":546:570  Ownable.__Ownable_init() */\n      tag_163\n        /* \"test_project/contracts/Token.sol\":546:568  Ownable.__Ownable_init */\n      tag_164\n        /* \"test_project/contracts/Token.sol\":546:570  Ownable.__Ownable_init() */\n      jump\t// in\n    tag_163:\n        /* \"test_project/contracts/Token.sol\":580:614  ERC20.__ERC20_init(name_, symbol_) */\n      tag_165\n        /* \"test_project/contracts/Token.sol\":599:604  name_ */\n      dup6\n        /* \"test_project/contracts/Token.sol\":606:613  symbol_ */\n      dup6\n        /* \"test_project/contracts/Token.sol\":580:598  ERC20.__ERC20_init */\n      tag_166\n        /* \"test_project/contracts/Token.sol\":580:614  ERC20.__ERC20_init(name_, symbol_) */\n      jump\t// in\n    tag_165:\n        /* \"test_project/contracts/Token.sol\":671:681  msg.sender */\n      caller\n        /* \"test_project/contracts/Token.sol\":695:710  block.timestamp */\n      timestamp\n        /* \"test_project/contracts/Token.sol\":724:731  30 days */\n      0x278d00\n        /* \"test_project/contracts/Token.sol\":745:753  300 days */\n      0x018b8200\n        /* \"test_project/contracts/Token.sol\":641:763  new TokenVesting(... */\n      mload(0x40)\n      tag_167\n      swap1\n      tag_168\n      jump\t// in\n    tag_167:\n      tag_169\n      swap5\n      swap4\n      swap3\n      swap2\n      swap1\n      tag_174\n      jump\t// in\n    tag_169:\n      mload(0x40)\n      dup1\n      swap2\n      sub\n      swap1\n      0x00\n      create\n      dup1\n      iszero\n      dup1\n      iszero\n      tag_171\n      jumpi\n      returndatasize\n      0x00\n      dup1\n      returndatacopy\n      revert(0x00, returndatasize)\n    tag_171:\n      pop\n        /* \"test_project/contracts/Token.sol\":625:638  teamLockToken */\n      0xcc\n      0x00\n        /* \"test_project/contracts/Token.sol\":625:763  teamLockToken = new TokenVesting(... */\n      0x0100\n      exp\n      dup2\n      sload\n      dup2\n      sub(shl(0xa0, 0x01), 0x01)\n      mul\n      not\n      and\n      swap1\n      dup4\n      sub(shl(0xa0, 0x01), 0x01)\n      and\n      mul\n      or\n      swap1\n      sstore\n      pop\n        /* \"test_project/contracts/Token.sol\":817:827  msg.sender */\n      caller\n        /* \"test_project/contracts/Token.sol\":841:856  block.timestamp */\n      timestamp\n        /* \"test_project/contracts/Token.sol\":870:877  30 days */\n      0x278d00\n        /* \"test_project/contracts/Token.sol\":891:899  150 days */\n      0xc5c100\n        /* \"test_project/contracts/Token.sol\":787:909  new TokenVesting(... */\n      mload(0x40)\n      tag_172\n      swap1\n      tag_168\n      jump\t// in\n    tag_172:\n      tag_173\n      swap5\n      swap4\n      swap3\n      swap2\n      swap1\n      tag_174\n      jump\t// in\n    tag_173:\n      mload(0x40)\n      dup1\n      swap2\n      sub\n      swap1\n      0x00\n      create\n      dup1\n      iszero\n      dup1\n      iszero\n      tag_175\n      jumpi\n      returndatasize\n      0x00\n      dup1\n      returndatacopy\n      revert(0x00, returndatasize)\n    tag_175:\n      pop\n        /* \"test_project/contracts/Token.sol\":773:784  adLockToken */\n      0xcb\n        /* \"test_project/contracts/Token.sol\":773:909  adLockToken = new TokenVesting(... */\n      dup1\n      sload\n      not(sub(shl(0xa0, 0x01), 0x01))\n      and\n      sub(shl(0xa0, 0x01), 0x01)\n      swap3\n      swap1\n      swap3\n      and\n      swap2\n      swap1\n      swap2\n      or\n      swap1\n      sstore\n        /* \"test_project/contracts/Token.sol\":920:953  _mint(msg.sender, 1 * 1e8 * 1e18) */\n      tag_176\n        /* \"test_project/contracts/Token.sol\":926:936  msg.sender */\n      caller\n        /* \"test_project/contracts/Token.sol\":938:952  1 * 1e8 * 1e18 */\n      0x52b7d2dcc80cd2e4000000\n        /* \"test_project/contracts/Token.sol\":920:925  _mint */\n      tag_177\n        /* \"test_project/contracts/Token.sol\":920:953  _mint(msg.sender, 1 * 1e8 * 1e18) */\n      jump\t// in\n    tag_176:\n        /* \"test_project/contracts/Token.sol\":963:990  _mint(dig_, 7 * 1e8 * 1e18) */\n      tag_178\n        /* \"test_project/contracts/Token.sol\":969:973  dig_ */\n      dup4\n        /* \"test_project/contracts/Token.sol\":975:989  7 * 1e8 * 1e18 */\n      0x024306c4097859c43c000000\n        /* \"test_project/contracts/Token.sol\":963:968  _mint */\n      tag_177\n        /* \"test_project/contracts/Token.sol\":963:990  _mint(dig_, 7 * 1e8 * 1e18) */\n      jump\t// in\n    tag_178:\n        /* \"test_project/contracts/Token.sol\":1000:1031  _mint(airdrop_, 1 * 1e8 * 1e18) */\n      tag_179\n        /* \"test_project/contracts/Token.sol\":1006:1014  airdrop_ */\n      dup3\n        /* \"test_project/contracts/Token.sol\":1016:1030  1 * 1e8 * 1e18 */\n      0x52b7d2dcc80cd2e4000000\n        /* \"test_project/contracts/Token.sol\":1000:1005  _mint */\n      tag_177\n        /* \"test_project/contracts/Token.sol\":1000:1031  _mint(airdrop_, 1 * 1e8 * 1e18) */\n      jump\t// in\n    tag_179:\n        /* \"test_project/contracts/Token.sol\":1055:1068  teamLockToken */\n      sload(0xcc)\n        /* \"test_project/contracts/Token.sol\":1041:1086  _mint(address(teamLockToken), 5 * 1e7 * 1e18) */\n      tag_180\n      swap1\n      sub(shl(0xa0, 0x01), 0x01)\n        /* \"test_project/contracts/Token.sol\":1055:1068  teamLockToken */\n      and\n        /* \"test_project/contracts/Token.sol\":1071:1085  5 * 1e7 * 1e18 */\n      0x295be96e64066972000000\n        /* \"test_project/contracts/Token.sol\":1041:1046  _mint */\n      tag_177\n        /* \"test_project/contracts/Token.sol\":1041:1086  _mint(address(teamLockToken), 5 * 1e7 * 1e18) */\n      jump\t// in\n    tag_180:\n        /* \"test_project/contracts/Token.sol\":1110:1121  adLockToken */\n      sload(0xcb)\n        /* \"test_project/contracts/Token.sol\":1096:1139  _mint(address(adLockToken), 5 * 1e7 * 1e18) */\n      tag_181\n      swap1\n      sub(shl(0xa0, 0x01), 0x01)\n        /* \"test_project/contracts/Token.sol\":1110:1121  adLockToken */\n      and\n        /* \"test_project/contracts/Token.sol\":1124:1138  5 * 1e7 * 1e18 */\n      0x295be96e64066972000000\n        /* \"test_project/contracts/Token.sol\":1096:1101  _mint */\n      tag_177\n        /* \"test_project/contracts/Token.sol\":1096:1139  _mint(address(adLockToken), 5 * 1e7 * 1e18) */\n      jump\t// in\n    tag_181:\n        /* \"lib0.8/erc20/Initializable.sol\":1299:1313  isTopLevelCall */\n      dup1\n        /* \"lib0.8/erc20/Initializable.sol\":1295:1350  if (isTopLevelCall) {... */\n      iszero\n      tag_182\n      jumpi\n        /* \"lib0.8/erc20/Initializable.sol\":1338:1343  false */\n      0x00\n        /* \"lib0.8/erc20/Initializable.sol\":1323:1343  initializing = false */\n      dup1\n      sload\n      not(0xff00)\n      and\n      swap1\n      sstore\n        /* \"lib0.8/erc20/Initializable.sol\":1295:1350  if (isTopLevelCall) {... */\n    tag_182:\n        /* \"test_project/contracts/Token.sol\":383:1146  function initialize(... */\n      pop\n      pop\n      pop\n      pop\n      pop\n      jump\t// out\n        /* \"lib0.8/upgrable/ERC20Blacklist.sol\":2659:2744  function symbol() public view returns (string memory) {... */\n    tag_83:\n        /* \"lib0.8/upgrable/ERC20Blacklist.sol\":2698:2711  string memory */\n      0x60\n        /* \"lib0.8/upgrable/ERC20Blacklist.sol\":2730:2737  _symbol */\n      0x9b\n        /* \"lib0.8/upgrable/ERC20Blacklist.sol\":2723:2737  return _symbol */\n      dup1\n      sload\n      tag_111\n      swap1\n      tag_112\n      jump\t// in\n        /* \"test_project/contracts/Token.sol\":281:314  TokenVesting public teamLockToken */\n    tag_86:\n      and(sub(shl(0xa0, 0x01), 0x01), sload(0xcc))\n      dup2\n      jump\t// out\n        /* \"test_project/contracts/Token.sol\":1185:1271  function addMinter(address _to) external onlyOwner {... */\n    tag_90:\n        /* \"lib0.8/upgrable/Ownable.sol\":1505:1517  _msgSender() */\n      tag_190\n        /* \"lib0.8/upgrable/Ownable.sol\":1505:1515  _msgSender */\n      tag_120\n        /* \"lib0.8/upgrable/Ownable.sol\":1505:1517  _msgSender() */\n      jump\t// in\n    tag_190:\n        /* \"lib0.8/upgrable/Ownable.sol\":1495:1501  _owner */\n      sload(0x65)\n      sub(shl(0xa0, 0x01), 0x01)\n      swap1\n      dup2\n      and\n        /* \"lib0.8/upgrable/Ownable.sol\":1495:1517  _owner == _msgSender() */\n      swap2\n      and\n      eq\n        /* \"lib0.8/upgrable/Ownable.sol\":1487:1554  require(_owner == _msgSender(), \"Ownable: caller is not the owner\") */\n      tag_191\n      jumpi\n      mload(0x40)\n      shl(0xe5, 0x461bcd)\n      dup2\n      mstore\n      0x04\n      add\n      tag_144\n      swap1\n      tag_145\n      jump\t// in\n    tag_191:\n        /* \"test_project/contracts/Token.sol\":1246:1254  _minters */\n      0xca\n        /* \"test_project/contracts/Token.sol\":1246:1264  _minters.push(_to) */\n      dup1\n      sload\n      0x01\n      dup2\n      add\n      dup3\n      sstore\n      0x00\n      swap2\n      swap1\n      swap2\n      mstore\n      0x42d72674974f694b5f5159593243114d38a5c39c89d6b62fee061ff523240ee1\n      add\n      dup1\n      sload\n      not(sub(shl(0xa0, 0x01), 0x01))\n      and\n      sub(shl(0xa0, 0x01), 0x01)\n      swap3\n      swap1\n      swap3\n      and\n      swap2\n      swap1\n      swap2\n      or\n      swap1\n      sstore\n        /* \"test_project/contracts/Token.sol\":1185:1271  function addMinter(address _to) external onlyOwner {... */\n      jump\t// out\n        /* \"test_project/contracts/Token.sol\":1799:1903  function burn(address _from, uint256 _amount) external onlyMinter {... */\n    tag_93:\n        /* \"test_project/contracts/Token.sol\":1309:1322  bool isMinter */\n      0x00\n        /* \"test_project/contracts/Token.sol\":1345:1354  uint256 i */\n      dup1\n        /* \"test_project/contracts/Token.sol\":1340:1514  for (uint256 i = 0; i < _minters.length; i++) {... */\n    tag_196:\n        /* \"test_project/contracts/Token.sol\":1364:1372  _minters */\n      0xca\n        /* \"test_project/contracts/Token.sol\":1364:1379  _minters.length */\n      sload\n        /* \"test_project/contracts/Token.sol\":1360:1379  i < _minters.length */\n      dup2\n      lt\n        /* \"test_project/contracts/Token.sol\":1340:1514  for (uint256 i = 0; i < _minters.length; i++) {... */\n      iszero\n      tag_197\n      jumpi\n        /* \"test_project/contracts/Token.sol\":1419:1431  _msgSender() */\n      tag_199\n        /* \"test_project/contracts/Token.sol\":1419:1429  _msgSender */\n      tag_120\n        /* \"test_project/contracts/Token.sol\":1419:1431  _msgSender() */\n      jump\t// in\n    tag_199:\n      sub(shl(0xa0, 0x01), 0x01)\n        /* \"test_project/contracts/Token.sol\":1404:1431  _minters[i] == _msgSender() */\n      and\n        /* \"test_project/contracts/Token.sol\":1404:1412  _minters */\n      0xca\n        /* \"test_project/contracts/Token.sol\":1413:1414  i */\n      dup3\n        /* \"test_project/contracts/Token.sol\":1404:1415  _minters[i] */\n      dup2\n      sload\n      dup2\n      lt\n      tag_200\n      jumpi\n      mstore(0x00, shl(0xe0, 0x4e487b71))\n      mstore(0x04, 0x32)\n      revert(0x00, 0x24)\n    tag_200:\n      0x00\n      swap2\n      dup3\n      mstore\n      0x20\n      swap1\n      swap2\n      keccak256\n      add\n      sload\n      sub(shl(0xa0, 0x01), 0x01)\n      and\n        /* \"test_project/contracts/Token.sol\":1404:1431  _minters[i] == _msgSender() */\n      eq\n        /* \"test_project/contracts/Token.sol\":1400:1504  if (_minters[i] == _msgSender()) {... */\n      iszero\n      tag_202\n      jumpi\n        /* \"test_project/contracts/Token.sol\":1462:1466  true */\n      0x01\n        /* \"test_project/contracts/Token.sol\":1451:1466  isMinter = true */\n      swap2\n      pop\n        /* \"test_project/contracts/Token.sol\":1484:1489  break */\n      jump(tag_197)\n        /* \"test_project/contracts/Token.sol\":1400:1504  if (_minters[i] == _msgSender()) {... */\n    tag_202:\n        /* \"test_project/contracts/Token.sol\":1381:1384  i++ */\n      dup1\n      tag_203\n      dup2\n      tag_204\n      jump\t// in\n    tag_203:\n      swap2\n      pop\n      pop\n        /* \"test_project/contracts/Token.sol\":1340:1514  for (uint256 i = 0; i < _minters.length; i++) {... */\n      jump(tag_196)\n    tag_197:\n      pop\n        /* \"test_project/contracts/Token.sol\":1531:1539  isMinter */\n      dup1\n        /* \"test_project/contracts/Token.sol\":1523:1580  require(isMinter, \"!IsMinter: caller is not from minter\") */\n      tag_205\n      jumpi\n      mload(0x40)\n      shl(0xe5, 0x461bcd)\n      dup2\n      mstore\n      0x04\n      add\n      tag_144\n      swap1\n      tag_207\n      jump\t// in\n    tag_205:\n        /* \"test_project/contracts/Token.sol\":1875:1896  _burn(_from, _amount) */\n      tag_209\n        /* \"test_project/contracts/Token.sol\":1881:1886  _from */\n      dup4\n        /* \"test_project/contracts/Token.sol\":1888:1895  _amount */\n      dup4\n        /* \"test_project/contracts/Token.sol\":1875:1880  _burn */\n      tag_210\n        /* \"test_project/contracts/Token.sol\":1875:1896  _burn(_from, _amount) */\n      jump\t// in\n    tag_209:\n        /* \"test_project/contracts/Token.sol\":1799:1903  function burn(address _from, uint256 _amount) external onlyMinter {... */\n      pop\n      pop\n      pop\n      jump\t// out\n        /* \"lib0.8/upgrable/ERC20Blacklist.sol\":6548:6814  function decreaseAllowance(address spender, uint256 subtractedValue) public virtual returns (bool) {... */\n    tag_96:\n        /* \"lib0.8/upgrable/ERC20Blacklist.sol\":6641:6645  bool */\n      0x00\n        /* \"lib0.8/upgrable/ERC20Blacklist.sol\":6657:6786  _approve(_msgSender(), spender, _allowances[_msgSender()][spender].sub(subtractedValue, \"ERC20: decreased allowance below zero\")) */\n      tag_118\n        /* \"lib0.8/upgrable/ERC20Blacklist.sol\":6666:6678  _msgSender() */\n      tag_213\n        /* \"lib0.8/upgrable/ERC20Blacklist.sol\":6666:6676  _msgSender */\n      tag_120\n        /* \"lib0.8/upgrable/ERC20Blacklist.sol\":6666:6678  _msgSender() */\n      jump\t// in\n    tag_213:\n        /* \"lib0.8/upgrable/ERC20Blacklist.sol\":6680:6687  spender */\n      dup5\n        /* \"lib0.8/upgrable/ERC20Blacklist.sol\":6689:6785  _allowances[_msgSender()][spender].sub(subtractedValue, \"ERC20: decreased allowance below zero\") */\n      tag_128\n        /* \"lib0.8/upgrable/ERC20Blacklist.sol\":6728:6743  subtractedValue */\n      dup6\n        /* \"lib0.8/upgrable/ERC20Blacklist.sol\":6689:6785  _allowances[_msgSender()][spender].sub(subtractedValue, \"ERC20: decreased allowance below zero\") */\n      mload(0x40)\n      dup1\n      0x60\n      add\n      0x40\n      mstore\n      dup1\n      0x25\n      dup2\n      mstore\n      0x20\n      add\n      data_f8b476f7d28209d77d4a4ac1fe36b9f8259aa1bb6bddfa6e89de7e51615cf8a8\n      0x25\n      swap2\n      codecopy\n        /* \"lib0.8/upgrable/ERC20Blacklist.sol\":6689:6700  _allowances */\n      0x98\n        /* \"lib0.8/upgrable/ERC20Blacklist.sol\":6689:6714  _allowances[_msgSender()] */\n      0x00\n        /* \"lib0.8/upgrable/ERC20Blacklist.sol\":6701:6713  _msgSender() */\n      tag_215\n        /* \"lib0.8/upgrable/ERC20Blacklist.sol\":6701:6711  _msgSender */\n      tag_120\n        /* \"lib0.8/upgrable/ERC20Blacklist.sol\":6701:6713  _msgSender() */\n      jump\t// in\n    tag_215:\n      sub(shl(0xa0, 0x01), 0x01)\n        /* \"lib0.8/upgrable/ERC20Blacklist.sol\":6689:6714  _allowances[_msgSender()] */\n      swap1\n      dup2\n      and\n      dup3\n      mstore\n      0x20\n      dup1\n      dup4\n      add\n      swap4\n      swap1\n      swap4\n      mstore\n      0x40\n      swap2\n      dup3\n      add\n      0x00\n      swap1\n      dup2\n      keccak256\n        /* \"lib0.8/upgrable/ERC20Blacklist.sol\":6689:6723  _allowances[_msgSender()][spender] */\n      swap2\n      dup14\n      and\n      dup2\n      mstore\n      swap3\n      mstore\n      swap1\n      keccak256\n      sload\n      swap2\n        /* \"lib0.8/upgrable/ERC20Blacklist.sol\":6689:6785  _allowances[_msgSender()][spender].sub(subtractedValue, \"ERC20: decreased allowance below zero\") */\n      swap1\n        /* \"lib0.8/upgrable/ERC20Blacklist.sol\":6689:6727  _allowances[_msgSender()][spender].sub */\n      tag_130\n        /* \"lib0.8/upgrable/ERC20Blacklist.sol\":6689:6785  _allowances[_msgSender()][spender].sub(subtractedValue, \"ERC20: decreased allowance below zero\") */\n      jump\t// in\n        /* \"lib0.8/upgrable/ERC20Blacklist.sol\":3984:4156  function transfer(address recipient, uint256 amount) public virtual override returns (bool) {... */\n    tag_100:\n        /* \"lib0.8/upgrable/ERC20Blacklist.sol\":4070:4074  bool */\n      0x00\n        /* \"lib0.8/upgrable/ERC20Blacklist.sol\":4086:4128  _transfer(_msgSender(), recipient, amount) */\n      tag_118\n        /* \"lib0.8/upgrable/ERC20Blacklist.sol\":4096:4108  _msgSender() */\n      tag_218\n        /* \"lib0.8/upgrable/ERC20Blacklist.sol\":4096:4106  _msgSender */\n      tag_120\n        /* \"lib0.8/upgrable/ERC20Blacklist.sol\":4096:4108  _msgSender() */\n      jump\t// in\n    tag_218:\n        /* \"lib0.8/upgrable/ERC20Blacklist.sol\":4110:4119  recipient */\n      dup5\n        /* \"lib0.8/upgrable/ERC20Blacklist.sol\":4121:4127  amount */\n      dup5\n        /* \"lib0.8/upgrable/ERC20Blacklist.sol\":4086:4095  _transfer */\n      tag_125\n        /* \"lib0.8/upgrable/ERC20Blacklist.sol\":4086:4128  _transfer(_msgSender(), recipient, amount) */\n      jump\t// in\n        /* \"lib0.8/upgrable/ERC20Blacklist.sol\":4214:4363  function allowance(address owner, address spender) public view virtual override returns (uint256) {... */\n    tag_105:\n      sub(shl(0xa0, 0x01), 0x01)\n        /* \"lib0.8/upgrable/ERC20Blacklist.sol\":4329:4347  _allowances[owner] */\n      swap2\n      dup3\n      and\n        /* \"lib0.8/upgrable/ERC20Blacklist.sol\":4303:4310  uint256 */\n      0x00\n        /* \"lib0.8/upgrable/ERC20Blacklist.sol\":4329:4347  _allowances[owner] */\n      swap1\n      dup2\n      mstore\n        /* \"lib0.8/upgrable/ERC20Blacklist.sol\":4329:4340  _allowances */\n      0x98\n        /* \"lib0.8/upgrable/ERC20Blacklist.sol\":4329:4347  _allowances[owner] */\n      0x20\n      swap1\n      dup2\n      mstore\n      0x40\n      dup1\n      dup4\n      keccak256\n        /* \"lib0.8/upgrable/ERC20Blacklist.sol\":4329:4356  _allowances[owner][spender] */\n      swap4\n      swap1\n      swap5\n      and\n      dup3\n      mstore\n      swap2\n      swap1\n      swap2\n      mstore\n      keccak256\n      sload\n      swap1\n        /* \"lib0.8/upgrable/ERC20Blacklist.sol\":4214:4363  function allowance(address owner, address spender) public view virtual override returns (uint256) {... */\n      jump\t// out\n        /* \"lib0.8/upgrable/Ownable.sol\":2208:2448  function transferOwnership(address newOwner) public virtual onlyOwner {... */\n    tag_109:\n        /* \"lib0.8/upgrable/Ownable.sol\":1505:1517  _msgSender() */\n      tag_221\n        /* \"lib0.8/upgrable/Ownable.sol\":1505:1515  _msgSender */\n      tag_120\n        /* \"lib0.8/upgrable/Ownable.sol\":1505:1517  _msgSender() */\n      jump\t// in\n    tag_221:\n        /* \"lib0.8/upgrable/Ownable.sol\":1495:1501  _owner */\n      sload(0x65)\n      sub(shl(0xa0, 0x01), 0x01)\n      swap1\n      dup2\n      and\n        /* \"lib0.8/upgrable/Ownable.sol\":1495:1517  _owner == _msgSender() */\n      swap2\n      and\n      eq\n        /* \"lib0.8/upgrable/Ownable.sol\":1487:1554  require(_owner == _msgSender(), \"Ownable: caller is not the owner\") */\n      tag_222\n      jumpi\n      mload(0x40)\n      shl(0xe5, 0x461bcd)\n      dup2\n      mstore\n      0x04\n      add\n      tag_144\n      swap1\n      tag_145\n      jump\t// in\n    tag_222:\n      sub(shl(0xa0, 0x01), 0x01)\n        /* \"lib0.8/upgrable/Ownable.sol\":2296:2318  newOwner != address(0) */\n      dup2\n      and\n        /* \"lib0.8/upgrable/Ownable.sol\":2288:2361  require(newOwner != address(0), \"Ownable: new owner is the zero address\") */\n      tag_225\n      jumpi\n      mload(0x40)\n      shl(0xe5, 0x461bcd)\n      dup2\n      mstore\n      0x04\n      add\n      tag_144\n      swap1\n      tag_227\n      jump\t// in\n    tag_225:\n        /* \"lib0.8/upgrable/Ownable.sol\":2397:2403  _owner */\n      sload(0x65)\n        /* \"lib0.8/upgrable/Ownable.sol\":2376:2414  OwnershipTransferred(_owner, newOwner) */\n      mload(0x40)\n      sub(shl(0xa0, 0x01), 0x01)\n      dup1\n      dup5\n      and\n      swap3\n        /* \"lib0.8/upgrable/Ownable.sol\":2397:2403  _owner */\n      and\n      swap1\n        /* \"lib0.8/upgrable/Ownable.sol\":2376:2414  OwnershipTransferred(_owner, newOwner) */\n      0x8be0079c531659141344cd1fd0a4f28419497f9722a3daafe3b4186f6b6457e0\n      swap1\n        /* \"lib0.8/upgrable/Ownable.sol\":2397:2403  _owner */\n      0x00\n      swap1\n        /* \"lib0.8/upgrable/Ownable.sol\":2376:2414  OwnershipTransferred(_owner, newOwner) */\n      log3\n        /* \"lib0.8/upgrable/Ownable.sol\":2424:2430  _owner */\n      0x65\n        /* \"lib0.8/upgrable/Ownable.sol\":2424:2441  _owner = newOwner */\n      dup1\n      sload\n      not(sub(shl(0xa0, 0x01), 0x01))\n      and\n      sub(shl(0xa0, 0x01), 0x01)\n      swap3\n      swap1\n      swap3\n      and\n      swap2\n      swap1\n      swap2\n      or\n      swap1\n      sstore\n        /* \"lib0.8/upgrable/Ownable.sol\":2208:2448  function transferOwnership(address newOwner) public virtual onlyOwner {... */\n      jump\t// out\n        /* \"lib0.8/upgrable/Context.sol\":966:1079  function _msgSender() internal view virtual returns (address payable) {... */\n    tag_120:\n        /* \"lib0.8/upgrable/Context.sol\":1061:1071  msg.sender */\n      caller\n        /* \"lib0.8/upgrable/Context.sol\":966:1079  function _msgSender() internal view virtual returns (address payable) {... */\n      swap1\n      jump\t// out\n        /* \"lib0.8/upgrable/ERC20Blacklist.sol\":9612:9952  function _approve(address owner, address spender, uint256 amount) internal virtual {... */\n    tag_121:\n      sub(shl(0xa0, 0x01), 0x01)\n        /* \"lib0.8/upgrable/ERC20Blacklist.sol\":9713:9732  owner != address(0) */\n      dup4\n      and\n        /* \"lib0.8/upgrable/ERC20Blacklist.sol\":9705:9773  require(owner != address(0), \"ERC20: approve from the zero address\") */\n      tag_230\n      jumpi\n      mload(0x40)\n      shl(0xe5, 0x461bcd)\n      dup2\n      mstore\n      0x04\n      add\n      tag_144\n      swap1\n      tag_232\n      jump\t// in\n    tag_230:\n      sub(shl(0xa0, 0x01), 0x01)\n        /* \"lib0.8/upgrable/ERC20Blacklist.sol\":9791:9812  spender != address(0) */\n      dup3\n      and\n        /* \"lib0.8/upgrable/ERC20Blacklist.sol\":9783:9851  require(spender != address(0), \"ERC20: approve to the zero address\") */\n      tag_233\n      jumpi\n      mload(0x40)\n      shl(0xe5, 0x461bcd)\n      dup2\n      mstore\n      0x04\n      add\n      tag_144\n      swap1\n      tag_235\n      jump\t// in\n    tag_233:\n      sub(shl(0xa0, 0x01), 0x01)\n        /* \"lib0.8/upgrable/ERC20Blacklist.sol\":9862:9880  _allowances[owner] */\n      dup1\n      dup5\n      and\n      0x00\n      dup2\n      dup2\n      mstore\n        /* \"lib0.8/upgrable/ERC20Blacklist.sol\":9862:9873  _allowances */\n      0x98\n        /* \"lib0.8/upgrable/ERC20Blacklist.sol\":9862:9880  _allowances[owner] */\n      0x20\n      swap1\n      dup2\n      mstore\n      0x40\n      dup1\n      dup4\n      keccak256\n        /* \"lib0.8/upgrable/ERC20Blacklist.sol\":9862:9889  _allowances[owner][spender] */\n      swap5\n      dup8\n      and\n      dup1\n      dup5\n      mstore\n      swap5\n      swap1\n      swap2\n      mstore\n      swap1\n      dup2\n      swap1\n      keccak256\n        /* \"lib0.8/upgrable/ERC20Blacklist.sol\":9862:9898  _allowances[owner][spender] = amount */\n      dup5\n      swap1\n      sstore\n        /* \"lib0.8/upgrable/ERC20Blacklist.sol\":9913:9945  Approval(owner, spender, amount) */\n      mload\n      0x8c5be1e5ebec7d5bd14f71427d1e84f3dd0314c0f7b2291e5b200ac8c7c3b925\n      swap1\n      tag_236\n      swap1\n        /* \"lib0.8/upgrable/ERC20Blacklist.sol\":9892:9898  amount */\n      dup6\n      swap1\n        /* \"lib0.8/upgrable/ERC20Blacklist.sol\":9913:9945  Approval(owner, spender, amount) */\n      tag_40\n      jump\t// in\n    tag_236:\n      mload(0x40)\n      dup1\n      swap2\n      sub\n      swap1\n      log3\n        /* \"lib0.8/upgrable/ERC20Blacklist.sol\":9612:9952  function _approve(address owner, address spender, uint256 amount) internal virtual {... */\n      pop\n      pop\n      pop\n      jump\t// out\n        /* \"lib0.8/upgrable/ERC20Blacklist.sol\":7288:7818  function _transfer(address sender, address recipient, uint256 amount) internal virtual {... */\n    tag_125:\n      sub(shl(0xa0, 0x01), 0x01)\n        /* \"lib0.8/upgrable/ERC20Blacklist.sol\":7393:7413  sender != address(0) */\n      dup4\n      and\n        /* \"lib0.8/upgrable/ERC20Blacklist.sol\":7385:7455  require(sender != address(0), \"ERC20: transfer from the zero address\") */\n      tag_238\n      jumpi\n      mload(0x40)\n      shl(0xe5, 0x461bcd)\n      dup2\n      mstore\n      0x04\n      add\n      tag_144\n      swap1\n      tag_240\n      jump\t// in\n    tag_238:\n      sub(shl(0xa0, 0x01), 0x01)\n        /* \"lib0.8/upgrable/ERC20Blacklist.sol\":7473:7496  recipient != address(0) */\n      dup3\n      and\n        /* \"lib0.8/upgrable/ERC20Blacklist.sol\":7465:7536  require(recipient != address(0), \"ERC20: transfer to the zero address\") */\n      tag_241\n      jumpi\n      mload(0x40)\n      shl(0xe5, 0x461bcd)\n      dup2\n      mstore\n      0x04\n      add\n      tag_144\n      swap1\n      tag_243\n      jump\t// in\n    tag_241:\n        /* \"lib0.8/upgrable/ERC20Blacklist.sol\":7547:7594  _beforeTokenTransfer(sender, recipient, amount) */\n      tag_244\n        /* \"lib0.8/upgrable/ERC20Blacklist.sol\":7568:7574  sender */\n      dup4\n        /* \"lib0.8/upgrable/ERC20Blacklist.sol\":7576:7585  recipient */\n      dup4\n        /* \"lib0.8/upgrable/ERC20Blacklist.sol\":7587:7593  amount */\n      dup4\n        /* \"lib0.8/upgrable/ERC20Blacklist.sol\":7547:7567  _beforeTokenTransfer */\n      tag_245\n        /* \"lib0.8/upgrable/ERC20Blacklist.sol\":7547:7594  _beforeTokenTransfer(sender, recipient, amount) */\n      jump\t// in\n    tag_244:\n        /* \"lib0.8/upgrable/ERC20Blacklist.sol\":7625:7696  _balances[sender].sub(amount, \"ERC20: transfer amount exceeds balance\") */\n      tag_246\n        /* \"lib0.8/upgrable/ERC20Blacklist.sol\":7647:7653  amount */\n      dup2\n        /* \"lib0.8/upgrable/ERC20Blacklist.sol\":7625:7696  _balances[sender].sub(amount, \"ERC20: transfer amount exceeds balance\") */\n      mload(0x40)\n      dup1\n      0x60\n      add\n      0x40\n      mstore\n      dup1\n      0x26\n      dup2\n      mstore\n      0x20\n      add\n      data_4107e8a8b9e94bf8ff83080ddec1c0bffe897ebc2241b89d44f66b3d274088b6\n      0x26\n      swap2\n      codecopy\n      sub(shl(0xa0, 0x01), 0x01)\n        /* \"lib0.8/upgrable/ERC20Blacklist.sol\":7625:7642  _balances[sender] */\n      dup7\n      and\n      0x00\n      swap1\n      dup2\n      mstore\n        /* \"lib0.8/upgrable/ERC20Blacklist.sol\":7625:7634  _balances */\n      0x97\n        /* \"lib0.8/upgrable/ERC20Blacklist.sol\":7625:7642  _balances[sender] */\n      0x20\n      mstore\n      0x40\n      swap1\n      keccak256\n      sload\n      swap2\n        /* \"lib0.8/upgrable/ERC20Blacklist.sol\":7625:7696  _balances[sender].sub(amount, \"ERC20: transfer amount exceeds balance\") */\n      swap1\n        /* \"lib0.8/upgrable/ERC20Blacklist.sol\":7625:7646  _balances[sender].sub */\n      tag_130\n        /* \"lib0.8/upgrable/ERC20Blacklist.sol\":7625:7696  _balances[sender].sub(amount, \"ERC20: transfer amount exceeds balance\") */\n      jump\t// in\n    tag_246:\n      sub(shl(0xa0, 0x01), 0x01)\n        /* \"lib0.8/upgrable/ERC20Blacklist.sol\":7605:7622  _balances[sender] */\n      dup1\n      dup6\n      and\n      0x00\n      swap1\n      dup2\n      mstore\n        /* \"lib0.8/upgrable/ERC20Blacklist.sol\":7605:7614  _balances */\n      0x97\n        /* \"lib0.8/upgrable/ERC20Blacklist.sol\":7605:7622  _balances[sender] */\n      0x20\n      mstore\n      0x40\n      dup1\n      dup3\n      keccak256\n        /* \"lib0.8/upgrable/ERC20Blacklist.sol\":7605:7696  _balances[sender] = _balances[sender].sub(amount, \"ERC20: transfer amount exceeds balance\") */\n      swap4\n      swap1\n      swap4\n      sstore\n        /* \"lib0.8/upgrable/ERC20Blacklist.sol\":7729:7749  _balances[recipient] */\n      swap1\n      dup5\n      and\n      dup2\n      mstore\n      keccak256\n      sload\n        /* \"lib0.8/upgrable/ERC20Blacklist.sol\":7729:7761  _balances[recipient].add(amount) */\n      tag_247\n      swap1\n        /* \"lib0.8/upgrable/ERC20Blacklist.sol\":7754:7760  amount */\n      dup3\n        /* \"lib0.8/upgrable/ERC20Blacklist.sol\":7729:7753  _balances[recipient].add */\n      tag_139\n        /* \"lib0.8/upgrable/ERC20Blacklist.sol\":7729:7761  _balances[recipient].add(amount) */\n      jump\t// in\n    tag_247:\n      sub(shl(0xa0, 0x01), 0x01)\n        /* \"lib0.8/upgrable/ERC20Blacklist.sol\":7706:7726  _balances[recipient] */\n      dup1\n      dup5\n      and\n      0x00\n      dup2\n      dup2\n      mstore\n        /* \"lib0.8/upgrable/ERC20Blacklist.sol\":7706:7715  _balances */\n      0x97\n        /* \"lib0.8/upgrable/ERC20Blacklist.sol\":7706:7726  _balances[recipient] */\n      0x20\n      mstore\n      0x40\n      swap1\n      dup2\n      swap1\n      keccak256\n        /* \"lib0.8/upgrable/ERC20Blacklist.sol\":7706:7761  _balances[recipient] = _balances[recipient].add(amount) */\n      swap4\n      swap1\n      swap4\n      sstore\n        /* \"lib0.8/upgrable/ERC20Blacklist.sol\":7776:7811  Transfer(sender, recipient, amount) */\n      swap2\n      mload\n      swap1\n      dup6\n      and\n      swap1\n      0xddf252ad1be2c89b69c2b068fc378daa952ba7f163c4a11628f55a4df523b3ef\n      swap1\n      tag_236\n      swap1\n        /* \"lib0.8/upgrable/ERC20Blacklist.sol\":7804:7810  amount */\n      dup6\n      swap1\n        /* \"lib0.8/upgrable/ERC20Blacklist.sol\":7776:7811  Transfer(sender, recipient, amount) */\n      tag_40\n      jump\t// in\n        /* \"lib0.8/common/SafeMath.sol\":1753:1940  function sub(uint256 a, uint256 b, string memory errorMessage) internal pure returns (uint256) {... */\n    tag_130:\n        /* \"lib0.8/common/SafeMath.sol\":1839:1846  uint256 */\n      0x00\n        /* \"lib0.8/common/SafeMath.sol\":1874:1886  errorMessage */\n      dup2\n        /* \"lib0.8/common/SafeMath.sol\":1866:1872  b <= a */\n      dup5\n      dup5\n      gt\n      iszero\n        /* \"lib0.8/common/SafeMath.sol\":1858:1887  require(b <= a, errorMessage) */\n      tag_250\n      jumpi\n      mload(0x40)\n      shl(0xe5, 0x461bcd)\n      dup2\n      mstore\n      0x04\n      add\n      tag_144\n      swap2\n      swap1\n      tag_30\n      jump\t// in\n    tag_250:\n      pop\n        /* \"lib0.8/common/SafeMath.sol\":1897:1906  uint256 c */\n      0x00\n        /* \"lib0.8/common/SafeMath.sol\":1909:1914  a - b */\n      tag_252\n        /* \"lib0.8/common/SafeMath.sol\":1913:1914  b */\n      dup5\n        /* \"lib0.8/common/SafeMath.sol\":1909:1910  a */\n      dup7\n        /* \"lib0.8/common/SafeMath.sol\":1909:1914  a - b */\n      tag_253\n      jump\t// in\n    tag_252:\n        /* \"lib0.8/common/SafeMath.sol\":1897:1914  uint256 c = a - b */\n      swap6\n        /* \"lib0.8/common/SafeMath.sol\":1753:1940  function sub(uint256 a, uint256 b, string memory errorMessage) internal pure returns (uint256) {... */\n      swap5\n      pop\n      pop\n      pop\n      pop\n      pop\n      jump\t// out\n        /* \"lib0.8/common/SafeMath.sol\":881:1057  function add(uint256 a, uint256 b) internal pure returns (uint256) {... */\n    tag_139:\n        /* \"lib0.8/common/SafeMath.sol\":939:946  uint256 */\n      0x00\n      dup1\n        /* \"lib0.8/common/SafeMath.sol\":970:975  a + b */\n      tag_255\n        /* \"lib0.8/common/SafeMath.sol\":974:975  b */\n      dup4\n        /* \"lib0.8/common/SafeMath.sol\":970:971  a */\n      dup6\n        /* \"lib0.8/common/SafeMath.sol\":970:975  a + b */\n      tag_256\n      jump\t// in\n    tag_255:\n        /* \"lib0.8/common/SafeMath.sol\":958:975  uint256 c = a + b */\n      swap1\n      pop\n        /* \"lib0.8/common/SafeMath.sol\":998:999  a */\n      dup4\n        /* \"lib0.8/common/SafeMath.sol\":993:994  c */\n      dup2\n        /* \"lib0.8/common/SafeMath.sol\":993:999  c >= a */\n      lt\n      iszero\n        /* \"lib0.8/common/SafeMath.sol\":985:1031  require(c >= a, \"SafeMath: addition overflow\") */\n      tag_257\n      jumpi\n      mload(0x40)\n      shl(0xe5, 0x461bcd)\n      dup2\n      mstore\n      0x04\n      add\n      tag_144\n      swap1\n      tag_259\n      jump\t// in\n    tag_257:\n        /* \"lib0.8/common/SafeMath.sol\":1049:1050  c */\n      swap4\n        /* \"lib0.8/common/SafeMath.sol\":881:1057  function add(uint256 a, uint256 b) internal pure returns (uint256) {... */\n      swap3\n      pop\n      pop\n      pop\n      jump\t// out\n        /* \"lib0.8/erc20/Initializable.sol\":1440:1938  function isConstructor() private view returns (bool) {... */\n    tag_156:\n        /* \"lib0.8/erc20/Initializable.sol\":1851:1855  this */\n      address\n        /* \"lib0.8/erc20/Initializable.sol\":1895:1912  extcodesize(self) */\n      extcodesize\n        /* \"lib0.8/erc20/Initializable.sol\":1926:1933  cs == 0 */\n      iszero\n        /* \"lib0.8/erc20/Initializable.sol\":1440:1938  function isConstructor() private view returns (bool) {... */\n      swap1\n      jump\t// out\n        /* \"lib0.8/upgrable/Ownable.sol\":887:1013  function __Ownable_init() internal initializer {... */\n    tag_164:\n        /* \"lib0.8/erc20/Initializable.sol\":1055:1067  initializing */\n      sload(0x00)\n      0x0100\n      swap1\n      div\n      0xff\n      and\n      dup1\n        /* \"lib0.8/erc20/Initializable.sol\":1055:1086  initializing || isConstructor() */\n      tag_263\n      jumpi\n      pop\n        /* \"lib0.8/erc20/Initializable.sol\":1071:1086  isConstructor() */\n      tag_263\n        /* \"lib0.8/erc20/Initializable.sol\":1071:1084  isConstructor */\n      tag_156\n        /* \"lib0.8/erc20/Initializable.sol\":1071:1086  isConstructor() */\n      jump\t// in\n    tag_263:\n        /* \"lib0.8/erc20/Initializable.sol\":1055:1102  initializing || isConstructor() || !initialized */\n      dup1\n      tag_264\n      jumpi\n      pop\n        /* \"lib0.8/erc20/Initializable.sol\":1091:1102  initialized */\n      and(0xff, sload(0x00))\n        /* \"lib0.8/erc20/Initializable.sol\":1090:1102  !initialized */\n      iszero\n        /* \"lib0.8/erc20/Initializable.sol\":1055:1102  initializing || isConstructor() || !initialized */\n    tag_264:\n        /* \"lib0.8/erc20/Initializable.sol\":1047:1153  require(initializing || isConstructor() || !initialized, \"Contract instance has already been initialized\") */\n      tag_265\n      jumpi\n      mload(0x40)\n      shl(0xe5, 0x461bcd)\n      dup2\n      mstore\n      0x04\n      add\n      tag_144\n      swap1\n      tag_160\n      jump\t// in\n    tag_265:\n        /* \"lib0.8/erc20/Initializable.sol\":1160:1179  bool isTopLevelCall */\n      0x00\n        /* \"lib0.8/erc20/Initializable.sol\":1183:1195  initializing */\n      sload\n      0x0100\n      swap1\n      div\n      0xff\n      and\n        /* \"lib0.8/erc20/Initializable.sol\":1182:1195  !initializing */\n      iszero\n        /* \"lib0.8/erc20/Initializable.sol\":1201:1281  if (isTopLevelCall) {... */\n      dup1\n      iszero\n      tag_267\n      jumpi\n        /* \"lib0.8/erc20/Initializable.sol\":1229:1241  initializing */\n      0x00\n        /* \"lib0.8/erc20/Initializable.sol\":1229:1248  initializing = true */\n      dup1\n      sload\n      not(0xff)\n      not(0xff00)\n      swap1\n      swap2\n      and\n      0x0100\n      or\n        /* \"lib0.8/erc20/Initializable.sol\":1256:1274  initialized = true */\n      and\n        /* \"lib0.8/erc20/Initializable.sol\":1244:1248  true */\n      0x01\n        /* \"lib0.8/erc20/Initializable.sol\":1256:1274  initialized = true */\n      or\n      swap1\n      sstore\n        /* \"lib0.8/erc20/Initializable.sol\":1201:1281  if (isTopLevelCall) {... */\n    tag_267:\n        /* \"lib0.8/upgrable/Ownable.sol\":944:970  __Context_init_unchained() */\n      tag_269\n        /* \"lib0.8/upgrable/Ownable.sol\":944:968  __Context_init_unchained */\n      tag_270\n        /* \"lib0.8/upgrable/Ownable.sol\":944:970  __Context_init_unchained() */\n      jump\t// in\n    tag_269:\n        /* \"lib0.8/upgrable/Ownable.sol\":980:1006  __Ownable_init_unchained() */\n      tag_271\n        /* \"lib0.8/upgrable/Ownable.sol\":980:1004  __Ownable_init_unchained */\n      tag_272\n        /* \"lib0.8/upgrable/Ownable.sol\":980:1006  __Ownable_init_unchained() */\n      jump\t// in\n    tag_271:\n        /* \"lib0.8/erc20/Initializable.sol\":1299:1313  isTopLevelCall */\n      dup1\n        /* \"lib0.8/erc20/Initializable.sol\":1295:1350  if (isTopLevelCall) {... */\n      iszero\n      tag_273\n      jumpi\n        /* \"lib0.8/erc20/Initializable.sol\":1338:1343  false */\n      0x00\n        /* \"lib0.8/erc20/Initializable.sol\":1323:1343  initializing = false */\n      dup1\n      sload\n      not(0xff00)\n      and\n      swap1\n      sstore\n        /* \"lib0.8/erc20/Initializable.sol\":1295:1350  if (isTopLevelCall) {... */\n    tag_273:\n        /* \"lib0.8/upgrable/Ownable.sol\":887:1013  function __Ownable_init() internal initializer {... */\n      pop\n      jump\t// out\n        /* \"lib0.8/upgrable/ERC20Blacklist.sol\":2038:2216  function __ERC20_init(string memory name_, string memory symbol_) internal initializer {... */\n    tag_166:\n        /* \"lib0.8/erc20/Initializable.sol\":1055:1067  initializing */\n      sload(0x00)\n      0x0100\n      swap1\n      div\n      0xff\n      and\n      dup1\n        /* \"lib0.8/erc20/Initializable.sol\":1055:1086  initializing || isConstructor() */\n      tag_276\n      jumpi\n      pop\n        /* \"lib0.8/erc20/Initializable.sol\":1071:1086  isConstructor() */\n      tag_276\n        /* \"lib0.8/erc20/Initializable.sol\":1071:1084  isConstructor */\n      tag_156\n        /* \"lib0.8/erc20/Initializable.sol\":1071:1086  isConstructor() */\n      jump\t// in\n    tag_276:\n        /* \"lib0.8/erc20/Initializable.sol\":1055:1102  initializing || isConstructor() || !initialized */\n      dup1\n      tag_277\n      jumpi\n      pop\n        /* \"lib0.8/erc20/Initializable.sol\":1091:1102  initialized */\n      and(0xff, sload(0x00))\n        /* \"lib0.8/erc20/Initializable.sol\":1090:1102  !initialized */\n      iszero\n        /* \"lib0.8/erc20/Initializable.sol\":1055:1102  initializing || isConstructor() || !initialized */\n    tag_277:\n        /* \"lib0.8/erc20/Initializable.sol\":1047:1153  require(initializing || isConstructor() || !initialized, \"Contract instance has already been initialized\") */\n      tag_278\n      jumpi\n      mload(0x40)\n      shl(0xe5, 0x461bcd)\n      dup2\n      mstore\n      0x04\n      add\n      tag_144\n      swap1\n      tag_160\n      jump\t// in\n    tag_278:\n        /* \"lib0.8/erc20/Initializable.sol\":1160:1179  bool isTopLevelCall */\n      0x00\n        /* \"lib0.8/erc20/Initializable.sol\":1183:1195  initializing */\n      sload\n      0x0100\n      swap1\n      div\n      0xff\n      and\n        /* \"lib0.8/erc20/Initializable.sol\":1182:1195  !initializing */\n      iszero\n        /* \"lib0.8/erc20/Initializable.sol\":1201:1281  if (isTopLevelCall) {... */\n      dup1\n      iszero\n      tag_280\n      jumpi\n        /* \"lib0.8/erc20/Initializable.sol\":1229:1241  initializing */\n      0x00\n        /* \"lib0.8/erc20/Initializable.sol\":1229:1248  initializing = true */\n      dup1\n      sload\n      not(0xff)\n      not(0xff00)\n      swap1\n      swap2\n      and\n      0x0100\n      or\n        /* \"lib0.8/erc20/Initializable.sol\":1256:1274  initialized = true */\n      and\n        /* \"lib0.8/erc20/Initializable.sol\":1244:1248  true */\n      0x01\n        /* \"lib0.8/erc20/Initializable.sol\":1256:1274  initialized = true */\n      or\n      swap1\n      sstore\n        /* \"lib0.8/erc20/Initializable.sol\":1201:1281  if (isTopLevelCall) {... */\n    tag_280:\n        /* \"lib0.8/upgrable/ERC20Blacklist.sol\":2135:2161  __Context_init_unchained() */\n      tag_282\n        /* \"lib0.8/upgrable/ERC20Blacklist.sol\":2135:2159  __Context_init_unchained */\n      tag_270\n        /* \"lib0.8/upgrable/ERC20Blacklist.sol\":2135:2161  __Context_init_unchained() */\n      jump\t// in\n    tag_282:\n        /* \"lib0.8/upgrable/ERC20Blacklist.sol\":2171:2209  __ERC20_init_unchained(name_, symbol_) */\n      tag_283\n        /* \"lib0.8/upgrable/ERC20Blacklist.sol\":2194:2199  name_ */\n      dup4\n        /* \"lib0.8/upgrable/ERC20Blacklist.sol\":2201:2208  symbol_ */\n      dup4\n        /* \"lib0.8/upgrable/ERC20Blacklist.sol\":2171:2193  __ERC20_init_unchained */\n      tag_284\n        /* \"lib0.8/upgrable/ERC20Blacklist.sol\":2171:2209  __ERC20_init_unchained(name_, symbol_) */\n      jump\t// in\n    tag_283:\n        /* \"lib0.8/erc20/Initializable.sol\":1299:1313  isTopLevelCall */\n      dup1\n        /* \"lib0.8/erc20/Initializable.sol\":1295:1350  if (isTopLevelCall) {... */\n      iszero\n      tag_209\n      jumpi\n        /* \"lib0.8/erc20/Initializable.sol\":1338:1343  false */\n      0x00\n        /* \"lib0.8/erc20/Initializable.sol\":1323:1343  initializing = false */\n      dup1\n      sload\n      not(0xff00)\n      and\n      swap1\n      sstore\n        /* \"lib0.8/upgrable/ERC20Blacklist.sol\":2038:2216  function __ERC20_init(string memory name_, string memory symbol_) internal initializer {... */\n      pop\n      pop\n      pop\n      jump\t// out\n        /* \"lib0.8/upgrable/ERC20Blacklist.sol\":8089:8459  function _mint(address account, uint256 amount) internal virtual {... */\n    tag_177:\n      sub(shl(0xa0, 0x01), 0x01)\n        /* \"lib0.8/upgrable/ERC20Blacklist.sol\":8172:8193  account != address(0) */\n      dup3\n      and\n        /* \"lib0.8/upgrable/ERC20Blacklist.sol\":8164:8229  require(account != address(0), \"ERC20: mint to the zero address\") */\n      tag_287\n      jumpi\n      mload(0x40)\n      shl(0xe5, 0x461bcd)\n      dup2\n      mstore\n      0x04\n      add\n      tag_144\n      swap1\n      tag_289\n      jump\t// in\n    tag_287:\n        /* \"lib0.8/upgrable/ERC20Blacklist.sol\":8240:8289  _beforeTokenTransfer(address(0), account, amount) */\n      tag_290\n        /* \"lib0.8/upgrable/ERC20Blacklist.sol\":8269:8270  0 */\n      0x00\n        /* \"lib0.8/upgrable/ERC20Blacklist.sol\":8273:8280  account */\n      dup4\n        /* \"lib0.8/upgrable/ERC20Blacklist.sol\":8282:8288  amount */\n      dup4\n        /* \"lib0.8/upgrable/ERC20Blacklist.sol\":8240:8260  _beforeTokenTransfer */\n      tag_245\n        /* \"lib0.8/upgrable/ERC20Blacklist.sol\":8240:8289  _beforeTokenTransfer(address(0), account, amount) */\n      jump\t// in\n    tag_290:\n        /* \"lib0.8/upgrable/ERC20Blacklist.sol\":8315:8327  _totalSupply */\n      sload(0x99)\n        /* \"lib0.8/upgrable/ERC20Blacklist.sol\":8315:8339  _totalSupply.add(amount) */\n      tag_291\n      swap1\n        /* \"lib0.8/upgrable/ERC20Blacklist.sol\":8332:8338  amount */\n      dup3\n        /* \"lib0.8/upgrable/ERC20Blacklist.sol\":8315:8331  _totalSupply.add */\n      tag_139\n        /* \"lib0.8/upgrable/ERC20Blacklist.sol\":8315:8339  _totalSupply.add(amount) */\n      jump\t// in\n    tag_291:\n        /* \"lib0.8/upgrable/ERC20Blacklist.sol\":8300:8312  _totalSupply */\n      0x99\n        /* \"lib0.8/upgrable/ERC20Blacklist.sol\":8300:8339  _totalSupply = _totalSupply.add(amount) */\n      sstore\n      sub(shl(0xa0, 0x01), 0x01)\n        /* \"lib0.8/upgrable/ERC20Blacklist.sol\":8370:8388  _balances[account] */\n      dup3\n      and\n      0x00\n      swap1\n      dup2\n      mstore\n        /* \"lib0.8/upgrable/ERC20Blacklist.sol\":8370:8379  _balances */\n      0x97\n        /* \"lib0.8/upgrable/ERC20Blacklist.sol\":8370:8388  _balances[account] */\n      0x20\n      mstore\n      0x40\n      swap1\n      keccak256\n      sload\n        /* \"lib0.8/upgrable/ERC20Blacklist.sol\":8370:8400  _balances[account].add(amount) */\n      tag_292\n      swap1\n        /* \"lib0.8/upgrable/ERC20Blacklist.sol\":8393:8399  amount */\n      dup3\n        /* \"lib0.8/upgrable/ERC20Blacklist.sol\":8370:8392  _balances[account].add */\n      tag_139\n        /* \"lib0.8/upgrable/ERC20Blacklist.sol\":8370:8400  _balances[account].add(amount) */\n      jump\t// in\n    tag_292:\n      sub(shl(0xa0, 0x01), 0x01)\n        /* \"lib0.8/upgrable/ERC20Blacklist.sol\":8349:8367  _balances[account] */\n      dup4\n      and\n      0x00\n      dup2\n      dup2\n      mstore\n        /* \"lib0.8/upgrable/ERC20Blacklist.sol\":8349:8358  _balances */\n      0x97\n        /* \"lib0.8/upgrable/ERC20Blacklist.sol\":8349:8367  _balances[account] */\n      0x20\n      mstore\n      0x40\n      dup1\n      dup3\n      keccak256\n        /* \"lib0.8/upgrable/ERC20Blacklist.sol\":8349:8400  _balances[account] = _balances[account].add(amount) */\n      swap4\n      swap1\n      swap4\n      sstore\n        /* \"lib0.8/upgrable/ERC20Blacklist.sol\":8415:8452  Transfer(address(0), account, amount) */\n      swap2\n      mload\n        /* \"lib0.8/upgrable/ERC20Blacklist.sol\":8349:8367  _balances[account] */\n      swap1\n      swap2\n      swap1\n        /* \"lib0.8/upgrable/ERC20Blacklist.sol\":8415:8452  Transfer(address(0), account, amount) */\n      0xddf252ad1be2c89b69c2b068fc378daa952ba7f163c4a11628f55a4df523b3ef\n      swap1\n      tag_293\n      swap1\n        /* \"lib0.8/upgrable/ERC20Blacklist.sol\":8445:8451  amount */\n      dup6\n      swap1\n        /* \"lib0.8/upgrable/ERC20Blacklist.sol\":8415:8452  Transfer(address(0), account, amount) */\n      tag_40\n      jump\t// in\n    tag_293:\n      mload(0x40)\n      dup1\n      swap2\n      sub\n      swap1\n      log3\n        /* \"lib0.8/upgrable/ERC20Blacklist.sol\":8089:8459  function _mint(address account, uint256 amount) internal virtual {... */\n      pop\n      pop\n      jump\t// out\n        /* \"lib0.8/upgrable/ERC20Blacklist.sol\":8779:9189  function _burn(address account, uint256 amount) internal virtual {... */\n    tag_210:\n      sub(shl(0xa0, 0x01), 0x01)\n        /* \"lib0.8/upgrable/ERC20Blacklist.sol\":8862:8883  account != address(0) */\n      dup3\n      and\n        /* \"lib0.8/upgrable/ERC20Blacklist.sol\":8854:8921  require(account != address(0), \"ERC20: burn from the zero address\") */\n      tag_295\n      jumpi\n      mload(0x40)\n      shl(0xe5, 0x461bcd)\n      dup2\n      mstore\n      0x04\n      add\n      tag_144\n      swap1\n      tag_297\n      jump\t// in\n    tag_295:\n        /* \"lib0.8/upgrable/ERC20Blacklist.sol\":8932:8981  _beforeTokenTransfer(account, address(0), amount) */\n      tag_298\n        /* \"lib0.8/upgrable/ERC20Blacklist.sol\":8953:8960  account */\n      dup3\n        /* \"lib0.8/upgrable/ERC20Blacklist.sol\":8970:8971  0 */\n      0x00\n        /* \"lib0.8/upgrable/ERC20Blacklist.sol\":8974:8980  amount */\n      dup4\n        /* \"lib0.8/upgrable/ERC20Blacklist.sol\":8932:8952  _beforeTokenTransfer */\n      tag_245\n        /* \"lib0.8/upgrable/ERC20Blacklist.sol\":8932:8981  _beforeTokenTransfer(account, address(0), amount) */\n      jump\t// in\n    tag_298:\n        /* \"lib0.8/upgrable/ERC20Blacklist.sol\":9013:9081  _balances[account].sub(amount, \"ERC20: burn amount exceeds balance\") */\n      tag_299\n        /* \"lib0.8/upgrable/ERC20Blacklist.sol\":9036:9042  amount */\n      dup2\n        /* \"lib0.8/upgrable/ERC20Blacklist.sol\":9013:9081  _balances[account].sub(amount, \"ERC20: burn amount exceeds balance\") */\n      mload(0x40)\n      dup1\n      0x60\n      add\n      0x40\n      mstore\n      dup1\n      0x22\n      dup2\n      mstore\n      0x20\n      add\n      data_149b126e7125232b4200af45303d04fba8b74653b1a295a6a561a528c33fefdd\n      0x22\n      swap2\n      codecopy\n      sub(shl(0xa0, 0x01), 0x01)\n        /* \"lib0.8/upgrable/ERC20Blacklist.sol\":9013:9031  _balances[account] */\n      dup6\n      and\n      0x00\n      swap1\n      dup2\n      mstore\n        /* \"lib0.8/upgrable/ERC20Blacklist.sol\":9013:9022  _balances */\n      0x97\n        /* \"lib0.8/upgrable/ERC20Blacklist.sol\":9013:9031  _balances[account] */\n      0x20\n      mstore\n      0x40\n      swap1\n      keccak256\n      sload\n      swap2\n        /* \"lib0.8/upgrable/ERC20Blacklist.sol\":9013:9081  _balances[account].sub(amount, \"ERC20: burn amount exceeds balance\") */\n      swap1\n        /* \"lib0.8/upgrable/ERC20Blacklist.sol\":9013:9035  _balances[account].sub */\n      tag_130\n        /* \"lib0.8/upgrable/ERC20Blacklist.sol\":9013:9081  _balances[account].sub(amount, \"ERC20: burn amount exceeds balance\") */\n      jump\t// in\n    tag_299:\n      sub(shl(0xa0, 0x01), 0x01)\n        /* \"lib0.8/upgrable/ERC20Blacklist.sol\":8992:9010  _balances[account] */\n      dup4\n      and\n      0x00\n      swap1\n      dup2\n      mstore\n        /* \"lib0.8/upgrable/ERC20Blacklist.sol\":8992:9001  _balances */\n      0x97\n        /* \"lib0.8/upgrable/ERC20Blacklist.sol\":8992:9010  _balances[account] */\n      0x20\n      mstore\n      0x40\n      swap1\n      keccak256\n        /* \"lib0.8/upgrable/ERC20Blacklist.sol\":8992:9081  _balances[account] = _balances[account].sub(amount, \"ERC20: burn amount exceeds balance\") */\n      sstore\n        /* \"lib0.8/upgrable/ERC20Blacklist.sol\":9106:9118  _totalSupply */\n      sload(0x99)\n        /* \"lib0.8/upgrable/ERC20Blacklist.sol\":9106:9130  _totalSupply.sub(amount) */\n      tag_300\n      swap1\n        /* \"lib0.8/upgrable/ERC20Blacklist.sol\":9123:9129  amount */\n      dup3\n        /* \"lib0.8/upgrable/ERC20Blacklist.sol\":9106:9122  _totalSupply.sub */\n      tag_301\n        /* \"lib0.8/upgrable/ERC20Blacklist.sol\":9106:9130  _totalSupply.sub(amount) */\n      jump\t// in\n    tag_300:\n        /* \"lib0.8/upgrable/ERC20Blacklist.sol\":9091:9103  _totalSupply */\n      0x99\n        /* \"lib0.8/upgrable/ERC20Blacklist.sol\":9091:9130  _totalSupply = _totalSupply.sub(amount) */\n      sstore\n        /* \"lib0.8/upgrable/ERC20Blacklist.sol\":9145:9182  Transfer(account, address(0), amount) */\n      mload(0x40)\n        /* \"lib0.8/upgrable/ERC20Blacklist.sol\":9171:9172  0 */\n      0x00\n      swap1\n      sub(shl(0xa0, 0x01), 0x01)\n        /* \"lib0.8/upgrable/ERC20Blacklist.sol\":9145:9182  Transfer(account, address(0), amount) */\n      dup5\n      and\n      swap1\n      0xddf252ad1be2c89b69c2b068fc378daa952ba7f163c4a11628f55a4df523b3ef\n      swap1\n      tag_293\n      swap1\n        /* \"lib0.8/upgrable/ERC20Blacklist.sol\":9175:9181  amount */\n      dup6\n      swap1\n        /* \"lib0.8/upgrable/ERC20Blacklist.sol\":9145:9182  Transfer(account, address(0), amount) */\n      tag_40\n      jump\t// in\n        /* \"lib0.8/upgrable/ERC20Blacklist.sol\":11105:11241  function _beforeTokenTransfer(address from, address to, uint256 amount) internal virtual view {... */\n    tag_245:\n      sub(shl(0xa0, 0x01), 0x01)\n        /* \"lib0.8/upgrable/ERC20Blacklist.sol\":11218:11233  _antibots[from] */\n      dup4\n      and\n      0x00\n      swap1\n      dup2\n      mstore\n        /* \"lib0.8/upgrable/ERC20Blacklist.sol\":11218:11227  _antibots */\n      0x9d\n        /* \"lib0.8/upgrable/ERC20Blacklist.sol\":11218:11233  _antibots[from] */\n      0x20\n      mstore\n      0x40\n      swap1\n      keccak256\n      sload\n      0xff\n      and\n        /* \"lib0.8/upgrable/ERC20Blacklist.sol\":11217:11233  !_antibots[from] */\n      iszero\n        /* \"lib0.8/upgrable/ERC20Blacklist.sol\":11209:11234  require(!_antibots[from]) */\n      tag_209\n      jumpi\n      0x00\n      dup1\n      revert\n        /* \"lib0.8/upgrable/Context.sol\":894:960  function __Context_init_unchained() internal initializer {... */\n    tag_270:\n        /* \"lib0.8/erc20/Initializable.sol\":1055:1067  initializing */\n      sload(0x00)\n      0x0100\n      swap1\n      div\n      0xff\n      and\n      dup1\n        /* \"lib0.8/erc20/Initializable.sol\":1055:1086  initializing || isConstructor() */\n      tag_307\n      jumpi\n      pop\n        /* \"lib0.8/erc20/Initializable.sol\":1071:1086  isConstructor() */\n      tag_307\n        /* \"lib0.8/erc20/Initializable.sol\":1071:1084  isConstructor */\n      tag_156\n        /* \"lib0.8/erc20/Initializable.sol\":1071:1086  isConstructor() */\n      jump\t// in\n    tag_307:\n        /* \"lib0.8/erc20/Initializable.sol\":1055:1102  initializing || isConstructor() || !initialized */\n      dup1\n      tag_308\n      jumpi\n      pop\n        /* \"lib0.8/erc20/Initializable.sol\":1091:1102  initialized */\n      and(0xff, sload(0x00))\n        /* \"lib0.8/erc20/Initializable.sol\":1090:1102  !initialized */\n      iszero\n        /* \"lib0.8/erc20/Initializable.sol\":1055:1102  initializing || isConstructor() || !initialized */\n    tag_308:\n        /* \"lib0.8/erc20/Initializable.sol\":1047:1153  require(initializing || isConstructor() || !initialized, \"Contract instance has already been initialized\") */\n      tag_309\n      jumpi\n      mload(0x40)\n      shl(0xe5, 0x461bcd)\n      dup2\n      mstore\n      0x04\n      add\n      tag_144\n      swap1\n      tag_160\n      jump\t// in\n    tag_309:\n        /* \"lib0.8/erc20/Initializable.sol\":1160:1179  bool isTopLevelCall */\n      0x00\n        /* \"lib0.8/erc20/Initializable.sol\":1183:1195  initializing */\n      sload\n      0x0100\n      swap1\n      div\n      0xff\n      and\n        /* \"lib0.8/erc20/Initializable.sol\":1182:1195  !initializing */\n      iszero\n        /* \"lib0.8/erc20/Initializable.sol\":1201:1281  if (isTopLevelCall) {... */\n      dup1\n      iszero\n      tag_271\n      jumpi\n        /* \"lib0.8/erc20/Initializable.sol\":1229:1241  initializing */\n      0x00\n        /* \"lib0.8/erc20/Initializable.sol\":1229:1248  initializing = true */\n      dup1\n      sload\n      not(0xff)\n      not(0xff00)\n      swap1\n      swap2\n      and\n      0x0100\n      or\n        /* \"lib0.8/erc20/Initializable.sol\":1256:1274  initialized = true */\n      and\n        /* \"lib0.8/erc20/Initializable.sol\":1244:1248  true */\n      0x01\n        /* \"lib0.8/erc20/Initializable.sol\":1256:1274  initialized = true */\n      or\n      swap1\n      sstore\n        /* \"lib0.8/erc20/Initializable.sol\":1299:1313  isTopLevelCall */\n      dup1\n        /* \"lib0.8/erc20/Initializable.sol\":1295:1350  if (isTopLevelCall) {... */\n      iszero\n      tag_273\n      jumpi\n        /* \"lib0.8/erc20/Initializable.sol\":1338:1343  false */\n      0x00\n        /* \"lib0.8/erc20/Initializable.sol\":1323:1343  initializing = false */\n      dup1\n      sload\n      not(0xff00)\n      and\n      swap1\n      sstore\n        /* \"lib0.8/upgrable/Context.sol\":894:960  function __Context_init_unchained() internal initializer {... */\n      pop\n      jump\t// out\n        /* \"lib0.8/upgrable/Ownable.sol\":1019:1214  function __Ownable_init_unchained() internal initializer {... */\n    tag_272:\n        /* \"lib0.8/erc20/Initializable.sol\":1055:1067  initializing */\n      sload(0x00)\n      0x0100\n      swap1\n      div\n      0xff\n      and\n      dup1\n        /* \"lib0.8/erc20/Initializable.sol\":1055:1086  initializing || isConstructor() */\n      tag_316\n      jumpi\n      pop\n        /* \"lib0.8/erc20/Initializable.sol\":1071:1086  isConstructor() */\n      tag_316\n        /* \"lib0.8/erc20/Initializable.sol\":1071:1084  isConstructor */\n      tag_156\n        /* \"lib0.8/erc20/Initializable.sol\":1071:1086  isConstructor() */\n      jump\t// in\n    tag_316:\n        /* \"lib0.8/erc20/Initializable.sol\":1055:1102  initializing || isConstructor() || !initialized */\n      dup1\n      tag_317\n      jumpi\n      pop\n        /* \"lib0.8/erc20/Initializable.sol\":1091:1102  initialized */\n      and(0xff, sload(0x00))\n        /* \"lib0.8/erc20/Initializable.sol\":1090:1102  !initialized */\n      iszero\n        /* \"lib0.8/erc20/Initializable.sol\":1055:1102  initializing || isConstructor() || !initialized */\n    tag_317:\n        /* \"lib0.8/erc20/Initializable.sol\":1047:1153  require(initializing || isConstructor() || !initialized, \"Contract instance has already been initialized\") */\n      tag_318\n      jumpi\n      mload(0x40)\n      shl(0xe5, 0x461bcd)\n      dup2\n      mstore\n      0x04\n      add\n      tag_144\n      swap1\n      tag_160\n      jump\t// in\n    tag_318:\n        /* \"lib0.8/erc20/Initializable.sol\":1160:1179  bool isTopLevelCall */\n      0x00\n        /* \"lib0.8/erc20/Initializable.sol\":1183:1195  initializing */\n      sload\n      0x0100\n      swap1\n      div\n      0xff\n      and\n        /* \"lib0.8/erc20/Initializable.sol\":1182:1195  !initializing */\n      iszero\n        /* \"lib0.8/erc20/Initializable.sol\":1201:1281  if (isTopLevelCall) {... */\n      dup1\n      iszero\n      tag_320\n      jumpi\n        /* \"lib0.8/erc20/Initializable.sol\":1229:1241  initializing */\n      0x00\n        /* \"lib0.8/erc20/Initializable.sol\":1229:1248  initializing = true */\n      dup1\n      sload\n      not(0xff)\n      not(0xff00)\n      swap1\n      swap2\n      and\n      0x0100\n      or\n        /* \"lib0.8/erc20/Initializable.sol\":1256:1274  initialized = true */\n      and\n        /* \"lib0.8/erc20/Initializable.sol\":1244:1248  true */\n      0x01\n        /* \"lib0.8/erc20/Initializable.sol\":1256:1274  initialized = true */\n      or\n      swap1\n      sstore\n        /* \"lib0.8/erc20/Initializable.sol\":1201:1281  if (isTopLevelCall) {... */\n    tag_320:\n        /* \"lib0.8/upgrable/Ownable.sol\":1088:1105  address msgSender */\n      0x00\n        /* \"lib0.8/upgrable/Ownable.sol\":1108:1120  _msgSender() */\n      tag_322\n        /* \"lib0.8/upgrable/Ownable.sol\":1108:1118  _msgSender */\n      tag_120\n        /* \"lib0.8/upgrable/Ownable.sol\":1108:1120  _msgSender() */\n      jump\t// in\n    tag_322:\n        /* \"lib0.8/upgrable/Ownable.sol\":1130:1136  _owner */\n      0x65\n        /* \"lib0.8/upgrable/Ownable.sol\":1130:1148  _owner = msgSender */\n      dup1\n      sload\n      not(sub(shl(0xa0, 0x01), 0x01))\n      and\n      sub(shl(0xa0, 0x01), 0x01)\n      dup4\n      and\n      swap1\n      dup2\n      or\n      swap1\n      swap2\n      sstore\n        /* \"lib0.8/upgrable/Ownable.sol\":1163:1206  OwnershipTransferred(address(0), msgSender) */\n      mload(0x40)\n        /* \"lib0.8/upgrable/Ownable.sol\":1130:1148  _owner = msgSender */\n      swap2\n      swap3\n      pop\n      swap1\n      0x00\n      swap1\n        /* \"lib0.8/upgrable/Ownable.sol\":1163:1206  OwnershipTransferred(address(0), msgSender) */\n      0x8be0079c531659141344cd1fd0a4f28419497f9722a3daafe3b4186f6b6457e0\n      swap1\n      dup3\n      swap1\n      log3\n        /* \"lib0.8/erc20/Initializable.sol\":1287:1288  _ */\n      pop\n        /* \"lib0.8/erc20/Initializable.sol\":1299:1313  isTopLevelCall */\n      dup1\n        /* \"lib0.8/erc20/Initializable.sol\":1295:1350  if (isTopLevelCall) {... */\n      iszero\n      tag_273\n      jumpi\n        /* \"lib0.8/erc20/Initializable.sol\":1338:1343  false */\n      0x00\n        /* \"lib0.8/erc20/Initializable.sol\":1323:1343  initializing = false */\n      dup1\n      sload\n      not(0xff00)\n      and\n      swap1\n      sstore\n        /* \"lib0.8/upgrable/Ownable.sol\":1019:1214  function __Ownable_init_unchained() internal initializer {... */\n      pop\n      jump\t// out\n        /* \"lib0.8/upgrable/ERC20Blacklist.sol\":2222:2400  function __ERC20_init_unchained(string memory name_, string memory symbol_) internal initializer {... */\n    tag_284:\n        /* \"lib0.8/erc20/Initializable.sol\":1055:1067  initializing */\n      sload(0x00)\n      0x0100\n      swap1\n      div\n      0xff\n      and\n      dup1\n        /* \"lib0.8/erc20/Initializable.sol\":1055:1086  initializing || isConstructor() */\n      tag_326\n      jumpi\n      pop\n        /* \"lib0.8/erc20/Initializable.sol\":1071:1086  isConstructor() */\n      tag_326\n        /* \"lib0.8/erc20/Initializable.sol\":1071:1084  isConstructor */\n      tag_156\n        /* \"lib0.8/erc20/Initializable.sol\":1071:1086  isConstructor() */\n      jump\t// in\n    tag_326:\n        /* \"lib0.8/erc20/Initializable.sol\":1055:1102  initializing || isConstructor() || !initialized */\n      dup1\n      tag_327\n      jumpi\n      pop\n        /* \"lib0.8/erc20/Initializable.sol\":1091:1102  initialized */\n      and(0xff, sload(0x00))\n        /* \"lib0.8/erc20/Initializable.sol\":1090:1102  !initialized */\n      iszero\n        /* \"lib0.8/erc20/Initializable.sol\":1055:1102  initializing || isConstructor() || !initialized */\n    tag_327:\n        /* \"lib0.8/erc20/Initializable.sol\":1047:1153  require(initializing || isConstructor() || !initialized, \"Contract instance has already been initialized\") */\n      tag_328\n      jumpi\n      mload(0x40)\n      shl(0xe5, 0x461bcd)\n      dup2\n      mstore\n      0x04\n      add\n      tag_144\n      swap1\n      tag_160\n      jump\t// in\n    tag_328:\n        /* \"lib0.8/erc20/Initializable.sol\":1160:1179  bool isTopLevelCall */\n      0x00\n        /* \"lib0.8/erc20/Initializable.sol\":1183:1195  initializing */\n      sload\n      0x0100\n      swap1\n      div\n      0xff\n      and\n        /* \"lib0.8/erc20/Initializable.sol\":1182:1195  !initializing */\n      iszero\n        /* \"lib0.8/erc20/Initializable.sol\":1201:1281  if (isTopLevelCall) {... */\n      dup1\n      iszero\n      tag_330\n      jumpi\n        /* \"lib0.8/erc20/Initializable.sol\":1229:1241  initializing */\n      0x00\n        /* \"lib0.8/erc20/Initializable.sol\":1229:1248  initializing = true */\n      dup1\n      sload\n      not(0xff)\n      not(0xff00)\n      swap1\n      swap2\n      and\n      0x0100\n      or\n        /* \"lib0.8/erc20/Initializable.sol\":1256:1274  initialized = true */\n      and\n        /* \"lib0.8/erc20/Initializable.sol\":1244:1248  true */\n      0x01\n        /* \"lib0.8/erc20/Initializable.sol\":1256:1274  initialized = true */\n      or\n      swap1\n      sstore\n        /* \"lib0.8/erc20/Initializable.sol\":1201:1281  if (isTopLevelCall) {... */\n    tag_330:\n        /* \"lib0.8/upgrable/ERC20Blacklist.sol\":2329:2342  _name = name_ */\n      dup3\n      mload\n      tag_332\n      swap1\n        /* \"lib0.8/upgrable/ERC20Blacklist.sol\":2329:2334  _name */\n      0x9a\n      swap1\n        /* \"lib0.8/upgrable/ERC20Blacklist.sol\":2329:2342  _name = name_ */\n      0x20\n      dup7\n      add\n      swap1\n      tag_333\n      jump\t// in\n    tag_332:\n      pop\n        /* \"lib0.8/upgrable/ERC20Blacklist.sol\":2352:2369  _symbol = symbol_ */\n      dup2\n      mload\n      tag_334\n      swap1\n        /* \"lib0.8/upgrable/ERC20Blacklist.sol\":2352:2359  _symbol */\n      0x9b\n      swap1\n        /* \"lib0.8/upgrable/ERC20Blacklist.sol\":2352:2369  _symbol = symbol_ */\n      0x20\n      dup6\n      add\n      swap1\n      tag_333\n      jump\t// in\n    tag_334:\n      pop\n        /* \"lib0.8/upgrable/ERC20Blacklist.sol\":2379:2388  _decimals */\n      0x9c\n        /* \"lib0.8/upgrable/ERC20Blacklist.sol\":2379:2393  _decimals = 18 */\n      dup1\n      sload\n      not(0xff)\n      and\n        /* \"lib0.8/upgrable/ERC20Blacklist.sol\":2391:2393  18 */\n      0x12\n        /* \"lib0.8/upgrable/ERC20Blacklist.sol\":2379:2393  _decimals = 18 */\n      or\n      swap1\n      sstore\n        /* \"lib0.8/erc20/Initializable.sol\":1295:1350  if (isTopLevelCall) {... */\n      dup1\n      iszero\n      tag_209\n      jumpi\n        /* \"lib0.8/erc20/Initializable.sol\":1338:1343  false */\n      0x00\n        /* \"lib0.8/erc20/Initializable.sol\":1323:1343  initializing = false */\n      dup1\n      sload\n      not(0xff00)\n      and\n      swap1\n      sstore\n        /* \"lib0.8/upgrable/ERC20Blacklist.sol\":2222:2400  function __ERC20_init_unchained(string memory name_, string memory symbol_) internal initializer {... */\n      pop\n      pop\n      pop\n      jump\t// out\n        /* \"lib0.8/common/SafeMath.sol\":1328:1462  function sub(uint256 a, uint256 b) internal pure returns (uint256) {... */\n    tag_301:\n        /* \"lib0.8/common/SafeMath.sol\":1386:1393  uint256 */\n      0x00\n        /* \"lib0.8/common/SafeMath.sol\":1412:1455  sub(a, b, \"SafeMath: subtraction overflow\") */\n      tag_257\n        /* \"lib0.8/common/SafeMath.sol\":1416:1417  a */\n      dup4\n        /* \"lib0.8/common/SafeMath.sol\":1419:1420  b */\n      dup4\n        /* \"lib0.8/common/SafeMath.sol\":1412:1455  sub(a, b, \"SafeMath: subtraction overflow\") */\n      mload(0x40)\n      dup1\n      0x40\n      add\n      0x40\n      mstore\n      dup1\n      0x1e\n      dup2\n      mstore\n      0x20\n      add\n      0x536166654d6174683a207375627472616374696f6e206f766572666c6f770000\n      dup2\n      mstore\n      pop\n        /* \"lib0.8/common/SafeMath.sol\":1412:1415  sub */\n      tag_130\n        /* \"lib0.8/common/SafeMath.sol\":1412:1455  sub(a, b, \"SafeMath: subtraction overflow\") */\n      jump\t// in\n    tag_168:\n      dataSize(sub_0)\n      dup1\n      dataOffset(sub_0)\n      dup4\n      codecopy\n      add\n      swap1\n      jump\t// out\n    tag_333:\n      dup3\n      dup1\n      sload\n      tag_338\n      swap1\n      tag_112\n      jump\t// in\n    tag_338:\n      swap1\n      0x00\n      mstore\n      keccak256(0x00, 0x20)\n      swap1\n      0x1f\n      add\n      0x20\n      swap1\n      div\n      dup2\n      add\n      swap3\n      dup3\n      tag_340\n      jumpi\n      0x00\n      dup6\n      sstore\n      jump(tag_343)\n    tag_340:\n      dup3\n      0x1f\n      lt\n      tag_341\n      jumpi\n      dup1\n      mload\n      not(0xff)\n      and\n      dup4\n      dup1\n      add\n      or\n      dup6\n      sstore\n      jump(tag_343)\n    tag_341:\n      dup3\n      dup1\n      add\n      0x01\n      add\n      dup6\n      sstore\n      dup3\n      iszero\n      tag_343\n      jumpi\n      swap2\n      dup3\n      add\n    tag_342:\n      dup3\n      dup2\n      gt\n      iszero\n      tag_343\n      jumpi\n      dup3\n      mload\n      dup3\n      sstore\n      swap2\n      0x20\n      add\n      swap2\n      swap1\n      0x01\n      add\n      swap1\n      jump(tag_342)\n    tag_343:\n      pop\n      tag_344\n      swap3\n      swap2\n      pop\n      tag_345\n      jump\t// in\n    tag_344:\n      pop\n      swap1\n      jump\t// out\n    tag_345:\n    tag_346:\n      dup1\n      dup3\n      gt\n      iszero\n      tag_344\n      jumpi\n      0x00\n      dup2\n      sstore\n      0x01\n      add\n      jump(tag_346)\n        /* \"#utility.yul\":14:189   */\n    tag_349:\n        /* \"#utility.yul\":84:104   */\n      dup1\n      calldataload\n      sub(shl(0xa0, 0x01), 0x01)\n        /* \"#utility.yul\":133:164   */\n      dup2\n      and\n        /* \"#utility.yul\":123:165   */\n      dup2\n      eq\n        /* \"#utility.yul\":113:115   */\n      tag_140\n      jumpi\n        /* \"#utility.yul\":179:180   */\n      0x00\n        /* \"#utility.yul\":176:177   */\n      dup1\n        /* \"#utility.yul\":169:181   */\n      revert\n        /* \"#utility.yul\":194:907   */\n    tag_352:\n      0x00\n        /* \"#utility.yul\":292:295   */\n      dup3\n        /* \"#utility.yul\":285:289   */\n      0x1f\n        /* \"#utility.yul\":277:283   */\n      dup4\n        /* \"#utility.yul\":273:290   */\n      add\n        /* \"#utility.yul\":269:296   */\n      slt\n        /* \"#utility.yul\":259:261   */\n      tag_354\n      jumpi\n        /* \"#utility.yul\":314:319   */\n      dup1\n        /* \"#utility.yul\":307:312   */\n      dup2\n        /* \"#utility.yul\":300:320   */\n      revert\n        /* \"#utility.yul\":259:261   */\n    tag_354:\n        /* \"#utility.yul\":354:360   */\n      dup2\n        /* \"#utility.yul\":341:361   */\n      calldataload\n        /* \"#utility.yul\":380:398   */\n      0xffffffffffffffff\n        /* \"#utility.yul\":417:419   */\n      dup1\n        /* \"#utility.yul\":413:415   */\n      dup3\n        /* \"#utility.yul\":410:420   */\n      gt\n        /* \"#utility.yul\":407:409   */\n      iszero\n      tag_356\n      jumpi\n        /* \"#utility.yul\":423:441   */\n      tag_356\n      tag_357\n      jump\t// in\n    tag_356:\n        /* \"#utility.yul\":472:474   */\n      0x40\n        /* \"#utility.yul\":466:475   */\n      mload\n        /* \"#utility.yul\":541:543   */\n      0x1f\n        /* \"#utility.yul\":522:535   */\n      dup4\n      add\n      not(0x1f)\n        /* \"#utility.yul\":518:545   */\n      and\n        /* \"#utility.yul\":506:546   */\n      dup2\n      add\n        /* \"#utility.yul\":548:552   */\n      0x20\n        /* \"#utility.yul\":502:553   */\n      add\n        /* \"#utility.yul\":568:586   */\n      dup3\n      dup2\n      gt\n        /* \"#utility.yul\":588:610   */\n      dup3\n      dup3\n      lt\n        /* \"#utility.yul\":565:611   */\n      or\n        /* \"#utility.yul\":562:564   */\n      iszero\n      tag_359\n      jumpi\n        /* \"#utility.yul\":614:632   */\n      tag_359\n      tag_357\n      jump\t// in\n    tag_359:\n        /* \"#utility.yul\":650:652   */\n      0x40\n        /* \"#utility.yul\":643:665   */\n      mstore\n        /* \"#utility.yul\":674:692   */\n      dup3\n      dup2\n      mstore\n        /* \"#utility.yul\":711:726   */\n      dup5\n      dup4\n      add\n        /* \"#utility.yul\":728:732   */\n      0x20\n        /* \"#utility.yul\":707:733   */\n      add\n        /* \"#utility.yul\":704:739   */\n      dup7\n      lt\n        /* \"#utility.yul\":701:703   */\n      iszero\n      tag_360\n      jumpi\n        /* \"#utility.yul\":756:761   */\n      dup4\n        /* \"#utility.yul\":749:754   */\n      dup5\n        /* \"#utility.yul\":742:762   */\n      revert\n        /* \"#utility.yul\":701:703   */\n    tag_360:\n        /* \"#utility.yul\":824:826   */\n      dup3\n        /* \"#utility.yul\":817:821   */\n      0x20\n        /* \"#utility.yul\":809:815   */\n      dup7\n        /* \"#utility.yul\":805:822   */\n      add\n        /* \"#utility.yul\":798:802   */\n      0x20\n        /* \"#utility.yul\":790:796   */\n      dup4\n        /* \"#utility.yul\":786:803   */\n      add\n        /* \"#utility.yul\":773:827   */\n      calldatacopy\n        /* \"#utility.yul\":847:862   */\n      swap2\n      dup3\n      add\n        /* \"#utility.yul\":864:868   */\n      0x20\n        /* \"#utility.yul\":843:869   */\n      add\n        /* \"#utility.yul\":836:877   */\n      swap3\n      swap1\n      swap3\n      mstore\n        /* \"#utility.yul\":851:857   */\n      swap4\n        /* \"#utility.yul\":249:907   */\n      swap3\n      pop\n      pop\n      pop\n      jump\t// out\n        /* \"#utility.yul\":912:1110   */\n    tag_66:\n      0x00\n        /* \"#utility.yul\":1024:1026   */\n      0x20\n        /* \"#utility.yul\":1012:1021   */\n      dup3\n        /* \"#utility.yul\":1003:1010   */\n      dup5\n        /* \"#utility.yul\":999:1022   */\n      sub\n        /* \"#utility.yul\":995:1027   */\n      slt\n        /* \"#utility.yul\":992:994   */\n      iszero\n      tag_362\n      jumpi\n        /* \"#utility.yul\":1045:1051   */\n      dup1\n        /* \"#utility.yul\":1037:1043   */\n      dup2\n        /* \"#utility.yul\":1030:1052   */\n      revert\n        /* \"#utility.yul\":992:994   */\n    tag_362:\n        /* \"#utility.yul\":1073:1104   */\n      tag_257\n        /* \"#utility.yul\":1094:1103   */\n      dup3\n        /* \"#utility.yul\":1073:1104   */\n      tag_349\n      jump\t// in\n        /* \"#utility.yul\":1115:1389   */\n    tag_104:\n      0x00\n      dup1\n        /* \"#utility.yul\":1244:1246   */\n      0x40\n        /* \"#utility.yul\":1232:1241   */\n      dup4\n        /* \"#utility.yul\":1223:1230   */\n      dup6\n        /* \"#utility.yul\":1219:1242   */\n      sub\n        /* \"#utility.yul\":1215:1247   */\n      slt\n        /* \"#utility.yul\":1212:1214   */\n      iszero\n      tag_365\n      jumpi\n        /* \"#utility.yul\":1265:1271   */\n      dup1\n        /* \"#utility.yul\":1257:1263   */\n      dup2\n        /* \"#utility.yul\":1250:1272   */\n      revert\n        /* \"#utility.yul\":1212:1214   */\n    tag_365:\n        /* \"#utility.yul\":1293:1324   */\n      tag_366\n        /* \"#utility.yul\":1314:1323   */\n      dup4\n        /* \"#utility.yul\":1293:1324   */\n      tag_349\n      jump\t// in\n    tag_366:\n        /* \"#utility.yul\":1283:1324   */\n      swap2\n      pop\n        /* \"#utility.yul\":1343:1383   */\n      tag_367\n        /* \"#utility.yul\":1379:1381   */\n      0x20\n        /* \"#utility.yul\":1368:1377   */\n      dup5\n        /* \"#utility.yul\":1364:1382   */\n      add\n        /* \"#utility.yul\":1343:1383   */\n      tag_349\n      jump\t// in\n    tag_367:\n        /* \"#utility.yul\":1333:1383   */\n      swap1\n      pop\n        /* \"#utility.yul\":1202:1389   */\n      swap3\n      pop\n      swap3\n      swap1\n      pop\n      jump\t// out\n        /* \"#utility.yul\":1394:1736   */\n    tag_43:\n      0x00\n      dup1\n      0x00\n        /* \"#utility.yul\":1540:1542   */\n      0x60\n        /* \"#utility.yul\":1528:1537   */\n      dup5\n        /* \"#utility.yul\":1519:1526   */\n      dup7\n        /* \"#utility.yul\":1515:1538   */\n      sub\n        /* \"#utility.yul\":1511:1543   */\n      slt\n        /* \"#utility.yul\":1508:1510   */\n      iszero\n      tag_369\n      jumpi\n        /* \"#utility.yul\":1561:1567   */\n      dup1\n        /* \"#utility.yul\":1553:1559   */\n      dup2\n        /* \"#utility.yul\":1546:1568   */\n      revert\n        /* \"#utility.yul\":1508:1510   */\n    tag_369:\n        /* \"#utility.yul\":1589:1620   */\n      tag_370\n        /* \"#utility.yul\":1610:1619   */\n      dup5\n        /* \"#utility.yul\":1589:1620   */\n      tag_349\n      jump\t// in\n    tag_370:\n        /* \"#utility.yul\":1579:1620   */\n      swap3\n      pop\n        /* \"#utility.yul\":1639:1679   */\n      tag_371\n        /* \"#utility.yul\":1675:1677   */\n      0x20\n        /* \"#utility.yul\":1664:1673   */\n      dup6\n        /* \"#utility.yul\":1660:1678   */\n      add\n        /* \"#utility.yul\":1639:1679   */\n      tag_349\n      jump\t// in\n    tag_371:\n        /* \"#utility.yul\":1629:1679   */\n      swap2\n      pop\n        /* \"#utility.yul\":1726:1728   */\n      0x40\n        /* \"#utility.yul\":1715:1724   */\n      dup5\n        /* \"#utility.yul\":1711:1729   */\n      add\n        /* \"#utility.yul\":1698:1730   */\n      calldataload\n        /* \"#utility.yul\":1688:1730   */\n      swap1\n      pop\n        /* \"#utility.yul\":1498:1736   */\n      swap3\n      pop\n      swap3\n      pop\n      swap3\n      jump\t// out\n        /* \"#utility.yul\":1741:2110   */\n    tag_73:\n      0x00\n      dup1\n        /* \"#utility.yul\":1867:1869   */\n      0x40\n        /* \"#utility.yul\":1855:1864   */\n      dup4\n        /* \"#utility.yul\":1846:1853   */\n      dup6\n        /* \"#utility.yul\":1842:1865   */\n      sub\n        /* \"#utility.yul\":1838:1870   */\n      slt\n        /* \"#utility.yul\":1835:1837   */\n      iszero\n      tag_373\n      jumpi\n        /* \"#utility.yul\":1888:1894   */\n      dup2\n        /* \"#utility.yul\":1880:1886   */\n      dup3\n        /* \"#utility.yul\":1873:1895   */\n      revert\n        /* \"#utility.yul\":1835:1837   */\n    tag_373:\n        /* \"#utility.yul\":1916:1947   */\n      tag_374\n        /* \"#utility.yul\":1937:1946   */\n      dup4\n        /* \"#utility.yul\":1916:1947   */\n      tag_349\n      jump\t// in\n    tag_374:\n        /* \"#utility.yul\":1906:1947   */\n      swap2\n      pop\n        /* \"#utility.yul\":1997:1999   */\n      0x20\n        /* \"#utility.yul\":1986:1995   */\n      dup4\n        /* \"#utility.yul\":1982:2000   */\n      add\n        /* \"#utility.yul\":1969:2001   */\n      calldataload\n        /* \"#utility.yul\":2044:2049   */\n      dup1\n        /* \"#utility.yul\":2037:2050   */\n      iszero\n        /* \"#utility.yul\":2030:2051   */\n      iszero\n        /* \"#utility.yul\":2023:2028   */\n      dup2\n        /* \"#utility.yul\":2020:2052   */\n      eq\n        /* \"#utility.yul\":2010:2012   */\n      tag_375\n      jumpi\n        /* \"#utility.yul\":2071:2077   */\n      dup2\n        /* \"#utility.yul\":2063:2069   */\n      dup3\n        /* \"#utility.yul\":2056:2078   */\n      revert\n        /* \"#utility.yul\":2010:2012   */\n    tag_375:\n        /* \"#utility.yul\":2099:2104   */\n      dup1\n        /* \"#utility.yul\":2089:2104   */\n      swap2\n      pop\n      pop\n        /* \"#utility.yul\":1825:2110   */\n      swap3\n      pop\n      swap3\n      swap1\n      pop\n      jump\t// out\n        /* \"#utility.yul\":2115:2381   */\n    tag_33:\n      0x00\n      dup1\n        /* \"#utility.yul\":2244:2246   */\n      0x40\n        /* \"#utility.yul\":2232:2241   */\n      dup4\n        /* \"#utility.yul\":2223:2230   */\n      dup6\n        /* \"#utility.yul\":2219:2242   */\n      sub\n        /* \"#utility.yul\":2215:2247   */\n      slt\n        /* \"#utility.yul\":2212:2214   */\n      iszero\n      tag_377\n      jumpi\n        /* \"#utility.yul\":2265:2271   */\n      dup2\n        /* \"#utility.yul\":2257:2263   */\n      dup3\n        /* \"#utility.yul\":2250:2272   */\n      revert\n        /* \"#utility.yul\":2212:2214   */\n    tag_377:\n        /* \"#utility.yul\":2293:2324   */\n      tag_378\n        /* \"#utility.yul\":2314:2323   */\n      dup4\n        /* \"#utility.yul\":2293:2324   */\n      tag_349\n      jump\t// in\n    tag_378:\n        /* \"#utility.yul\":2283:2324   */\n      swap5\n        /* \"#utility.yul\":2371:2373   */\n      0x20\n        /* \"#utility.yul\":2356:2374   */\n      swap4\n      swap1\n      swap4\n      add\n        /* \"#utility.yul\":2343:2375   */\n      calldataload\n      swap4\n      pop\n      pop\n      pop\n        /* \"#utility.yul\":2202:2381   */\n      jump\t// out\n        /* \"#utility.yul\":2386:3116   */\n    tag_80:\n      0x00\n      dup1\n      0x00\n      dup1\n        /* \"#utility.yul\":2569:2572   */\n      0x80\n        /* \"#utility.yul\":2557:2566   */\n      dup6\n        /* \"#utility.yul\":2548:2555   */\n      dup8\n        /* \"#utility.yul\":2544:2567   */\n      sub\n        /* \"#utility.yul\":2540:2573   */\n      slt\n        /* \"#utility.yul\":2537:2539   */\n      iszero\n      tag_380\n      jumpi\n        /* \"#utility.yul\":2591:2597   */\n      dup1\n        /* \"#utility.yul\":2583:2589   */\n      dup2\n        /* \"#utility.yul\":2576:2598   */\n      revert\n        /* \"#utility.yul\":2537:2539   */\n    tag_380:\n        /* \"#utility.yul\":2636:2645   */\n      dup5\n        /* \"#utility.yul\":2623:2646   */\n      calldataload\n        /* \"#utility.yul\":2665:2683   */\n      0xffffffffffffffff\n        /* \"#utility.yul\":2706:2708   */\n      dup1\n        /* \"#utility.yul\":2698:2704   */\n      dup3\n        /* \"#utility.yul\":2695:2709   */\n      gt\n        /* \"#utility.yul\":2692:2694   */\n      iszero\n      tag_381\n      jumpi\n        /* \"#utility.yul\":2727:2733   */\n      dup3\n        /* \"#utility.yul\":2719:2725   */\n      dup4\n        /* \"#utility.yul\":2712:2734   */\n      revert\n        /* \"#utility.yul\":2692:2694   */\n    tag_381:\n        /* \"#utility.yul\":2755:2807   */\n      tag_382\n        /* \"#utility.yul\":2799:2806   */\n      dup9\n        /* \"#utility.yul\":2790:2796   */\n      dup4\n        /* \"#utility.yul\":2779:2788   */\n      dup10\n        /* \"#utility.yul\":2775:2797   */\n      add\n        /* \"#utility.yul\":2755:2807   */\n      tag_352\n      jump\t// in\n    tag_382:\n        /* \"#utility.yul\":2745:2807   */\n      swap6\n      pop\n        /* \"#utility.yul\":2860:2862   */\n      0x20\n        /* \"#utility.yul\":2849:2858   */\n      dup8\n        /* \"#utility.yul\":2845:2863   */\n      add\n        /* \"#utility.yul\":2832:2864   */\n      calldataload\n        /* \"#utility.yul\":2816:2864   */\n      swap2\n      pop\n        /* \"#utility.yul\":2889:2891   */\n      dup1\n        /* \"#utility.yul\":2879:2887   */\n      dup3\n        /* \"#utility.yul\":2876:2892   */\n      gt\n        /* \"#utility.yul\":2873:2875   */\n      iszero\n      tag_383\n      jumpi\n        /* \"#utility.yul\":2910:2916   */\n      dup3\n        /* \"#utility.yul\":2902:2908   */\n      dup4\n        /* \"#utility.yul\":2895:2917   */\n      revert\n        /* \"#utility.yul\":2873:2875   */\n    tag_383:\n      pop\n        /* \"#utility.yul\":2938:2992   */\n      tag_384\n        /* \"#utility.yul\":2984:2991   */\n      dup8\n        /* \"#utility.yul\":2973:2981   */\n      dup3\n        /* \"#utility.yul\":2962:2971   */\n      dup9\n        /* \"#utility.yul\":2958:2982   */\n      add\n        /* \"#utility.yul\":2938:2992   */\n      tag_352\n      jump\t// in\n    tag_384:\n        /* \"#utility.yul\":2928:2992   */\n      swap4\n      pop\n      pop\n        /* \"#utility.yul\":3011:3051   */\n      tag_385\n        /* \"#utility.yul\":3047:3049   */\n      0x40\n        /* \"#utility.yul\":3036:3045   */\n      dup7\n        /* \"#utility.yul\":3032:3050   */\n      add\n        /* \"#utility.yul\":3011:3051   */\n      tag_349\n      jump\t// in\n    tag_385:\n        /* \"#utility.yul\":3001:3051   */\n      swap2\n      pop\n        /* \"#utility.yul\":3070:3110   */\n      tag_386\n        /* \"#utility.yul\":3106:3108   */\n      0x60\n        /* \"#utility.yul\":3095:3104   */\n      dup7\n        /* \"#utility.yul\":3091:3109   */\n      add\n        /* \"#utility.yul\":3070:3110   */\n      tag_349\n      jump\t// in\n    tag_386:\n        /* \"#utility.yul\":3060:3110   */\n      swap1\n      pop\n        /* \"#utility.yul\":2527:3116   */\n      swap3\n      swap6\n      swap2\n      swap5\n      pop\n      swap3\n      pop\n      jump\t// out\n        /* \"#utility.yul\":3121:3311   */\n    tag_48:\n      0x00\n        /* \"#utility.yul\":3233:3235   */\n      0x20\n        /* \"#utility.yul\":3221:3230   */\n      dup3\n        /* \"#utility.yul\":3212:3219   */\n      dup5\n        /* \"#utility.yul\":3208:3231   */\n      sub\n        /* \"#utility.yul\":3204:3236   */\n      slt\n        /* \"#utility.yul\":3201:3203   */\n      iszero\n      tag_388\n      jumpi\n        /* \"#utility.yul\":3254:3260   */\n      dup1\n        /* \"#utility.yul\":3246:3252   */\n      dup2\n        /* \"#utility.yul\":3239:3261   */\n      revert\n        /* \"#utility.yul\":3201:3203   */\n    tag_388:\n      pop\n        /* \"#utility.yul\":3282:3305   */\n      calldataload\n      swap2\n        /* \"#utility.yul\":3191:3311   */\n      swap1\n      pop\n      jump\t// out\n        /* \"#utility.yul\":3316:3519   */\n    tag_51:\n      sub(shl(0xa0, 0x01), 0x01)\n        /* \"#utility.yul\":3480:3512   */\n      swap2\n      swap1\n      swap2\n      and\n        /* \"#utility.yul\":3462:3513   */\n      dup2\n      mstore\n        /* \"#utility.yul\":3450:3452   */\n      0x20\n        /* \"#utility.yul\":3435:3453   */\n      add\n      swap1\n        /* \"#utility.yul\":3417:3519   */\n      jump\t// out\n        /* \"#utility.yul\":3524:3970   */\n    tag_174:\n      sub(shl(0xa0, 0x01), 0x01)\n        /* \"#utility.yul\":3802:3834   */\n      swap5\n      swap1\n      swap5\n      and\n        /* \"#utility.yul\":3784:3835   */\n      dup5\n      mstore\n        /* \"#utility.yul\":3866:3868   */\n      0x20\n        /* \"#utility.yul\":3851:3869   */\n      dup5\n      add\n        /* \"#utility.yul\":3844:3878   */\n      swap3\n      swap1\n      swap3\n      mstore\n        /* \"#utility.yul\":3909:3911   */\n      0x40\n        /* \"#utility.yul\":3894:3912   */\n      dup4\n      add\n        /* \"#utility.yul\":3887:3921   */\n      mstore\n        /* \"#utility.yul\":3952:3954   */\n      0x60\n        /* \"#utility.yul\":3937:3955   */\n      dup3\n      add\n        /* \"#utility.yul\":3930:3964   */\n      mstore\n        /* \"#utility.yul\":3771:3774   */\n      0x80\n        /* \"#utility.yul\":3756:3775   */\n      add\n      swap1\n        /* \"#utility.yul\":3738:3970   */\n      jump\t// out\n        /* \"#utility.yul\":4426:4613   */\n    tag_36:\n        /* \"#utility.yul\":4591:4605   */\n      swap1\n      iszero\n        /* \"#utility.yul\":4584:4606   */\n      iszero\n        /* \"#utility.yul\":4566:4607   */\n      dup2\n      mstore\n        /* \"#utility.yul\":4554:4556   */\n      0x20\n        /* \"#utility.yul\":4539:4557   */\n      add\n      swap1\n        /* \"#utility.yul\":4521:4613   */\n      jump\t// out\n        /* \"#utility.yul\":4847:5450   */\n    tag_30:\n      0x00\n        /* \"#utility.yul\":4988:4990   */\n      0x20\n        /* \"#utility.yul\":5017:5019   */\n      dup1\n        /* \"#utility.yul\":5006:5015   */\n      dup4\n        /* \"#utility.yul\":4999:5020   */\n      mstore\n        /* \"#utility.yul\":5049:5055   */\n      dup4\n        /* \"#utility.yul\":5043:5056   */\n      mload\n        /* \"#utility.yul\":5092:5098   */\n      dup1\n        /* \"#utility.yul\":5087:5089   */\n      dup3\n        /* \"#utility.yul\":5076:5085   */\n      dup6\n        /* \"#utility.yul\":5072:5090   */\n      add\n        /* \"#utility.yul\":5065:5099   */\n      mstore\n        /* \"#utility.yul\":5117:5121   */\n      dup3\n        /* \"#utility.yul\":5130:5270   */\n    tag_395:\n        /* \"#utility.yul\":5144:5150   */\n      dup2\n        /* \"#utility.yul\":5141:5142   */\n      dup2\n        /* \"#utility.yul\":5138:5151   */\n      lt\n        /* \"#utility.yul\":5130:5270   */\n      iszero\n      tag_397\n      jumpi\n        /* \"#utility.yul\":5239:5253   */\n      dup6\n      dup2\n      add\n        /* \"#utility.yul\":5235:5258   */\n      dup4\n      add\n        /* \"#utility.yul\":5229:5259   */\n      mload\n        /* \"#utility.yul\":5205:5222   */\n      dup6\n      dup3\n      add\n        /* \"#utility.yul\":5224:5226   */\n      0x40\n        /* \"#utility.yul\":5201:5227   */\n      add\n        /* \"#utility.yul\":5194:5260   */\n      mstore\n        /* \"#utility.yul\":5159:5169   */\n      dup3\n      add\n        /* \"#utility.yul\":5130:5270   */\n      jump(tag_395)\n    tag_397:\n        /* \"#utility.yul\":5288:5294   */\n      dup2\n        /* \"#utility.yul\":5285:5286   */\n      dup2\n        /* \"#utility.yul\":5282:5295   */\n      gt\n        /* \"#utility.yul\":5279:5281   */\n      iszero\n      tag_398\n      jumpi\n        /* \"#utility.yul\":5358:5362   */\n      dup4\n        /* \"#utility.yul\":5353:5355   */\n      0x40\n        /* \"#utility.yul\":5344:5350   */\n      dup4\n        /* \"#utility.yul\":5333:5342   */\n      dup8\n        /* \"#utility.yul\":5329:5351   */\n      add\n        /* \"#utility.yul\":5325:5356   */\n      add\n        /* \"#utility.yul\":5318:5363   */\n      mstore\n        /* \"#utility.yul\":5279:5281   */\n    tag_398:\n      pop\n        /* \"#utility.yul\":5434:5436   */\n      0x1f\n        /* \"#utility.yul\":5413:5428   */\n      add\n      not(0x1f)\n        /* \"#utility.yul\":5409:5438   */\n      and\n        /* \"#utility.yul\":5394:5439   */\n      swap3\n      swap1\n      swap3\n      add\n        /* \"#utility.yul\":5441:5443   */\n      0x40\n        /* \"#utility.yul\":5390:5444   */\n      add\n      swap4\n        /* \"#utility.yul\":4968:5450   */\n      swap3\n      pop\n      pop\n      pop\n      jump\t// out\n        /* \"#utility.yul\":5455:5854   */\n    tag_243:\n        /* \"#utility.yul\":5657:5659   */\n      0x20\n        /* \"#utility.yul\":5639:5660   */\n      dup1\n      dup3\n      mstore\n        /* \"#utility.yul\":5696:5698   */\n      0x23\n        /* \"#utility.yul\":5676:5694   */\n      swap1\n      dup3\n      add\n        /* \"#utility.yul\":5669:5699   */\n      mstore\n        /* \"#utility.yul\":5735:5769   */\n      0x45524332303a207472616e7366657220746f20746865207a65726f2061646472\n        /* \"#utility.yul\":5730:5732   */\n      0x40\n        /* \"#utility.yul\":5715:5733   */\n      dup3\n      add\n        /* \"#utility.yul\":5708:5770   */\n      mstore\n      shl(0xe8, 0x657373)\n        /* \"#utility.yul\":5801:5803   */\n      0x60\n        /* \"#utility.yul\":5786:5804   */\n      dup3\n      add\n        /* \"#utility.yul\":5779:5812   */\n      mstore\n        /* \"#utility.yul\":5844:5847   */\n      0x80\n        /* \"#utility.yul\":5829:5848   */\n      add\n      swap1\n        /* \"#utility.yul\":5629:5854   */\n      jump\t// out\n        /* \"#utility.yul\":5859:6261   */\n    tag_227:\n        /* \"#utility.yul\":6061:6063   */\n      0x20\n        /* \"#utility.yul\":6043:6064   */\n      dup1\n      dup3\n      mstore\n        /* \"#utility.yul\":6100:6102   */\n      0x26\n        /* \"#utility.yul\":6080:6098   */\n      swap1\n      dup3\n      add\n        /* \"#utility.yul\":6073:6103   */\n      mstore\n        /* \"#utility.yul\":6139:6173   */\n      0x4f776e61626c653a206e6577206f776e657220697320746865207a65726f2061\n        /* \"#utility.yul\":6134:6136   */\n      0x40\n        /* \"#utility.yul\":6119:6137   */\n      dup3\n      add\n        /* \"#utility.yul\":6112:6174   */\n      mstore\n      shl(0xd0, 0x646472657373)\n        /* \"#utility.yul\":6205:6207   */\n      0x60\n        /* \"#utility.yul\":6190:6208   */\n      dup3\n      add\n        /* \"#utility.yul\":6183:6219   */\n      mstore\n        /* \"#utility.yul\":6251:6254   */\n      0x80\n        /* \"#utility.yul\":6236:6255   */\n      add\n      swap1\n        /* \"#utility.yul\":6033:6261   */\n      jump\t// out\n        /* \"#utility.yul\":6266:6664   */\n    tag_235:\n        /* \"#utility.yul\":6468:6470   */\n      0x20\n        /* \"#utility.yul\":6450:6471   */\n      dup1\n      dup3\n      mstore\n        /* \"#utility.yul\":6507:6509   */\n      0x22\n        /* \"#utility.yul\":6487:6505   */\n      swap1\n      dup3\n      add\n        /* \"#utility.yul\":6480:6510   */\n      mstore\n        /* \"#utility.yul\":6546:6580   */\n      0x45524332303a20617070726f766520746f20746865207a65726f206164647265\n        /* \"#utility.yul\":6541:6543   */\n      0x40\n        /* \"#utility.yul\":6526:6544   */\n      dup3\n      add\n        /* \"#utility.yul\":6519:6581   */\n      mstore\n      shl(0xf0, 0x7373)\n        /* \"#utility.yul\":6612:6614   */\n      0x60\n        /* \"#utility.yul\":6597:6615   */\n      dup3\n      add\n        /* \"#utility.yul\":6590:6622   */\n      mstore\n        /* \"#utility.yul\":6654:6657   */\n      0x80\n        /* \"#utility.yul\":6639:6658   */\n      add\n      swap1\n        /* \"#utility.yul\":6440:6664   */\n      jump\t// out\n        /* \"#utility.yul\":6669:7020   */\n    tag_259:\n        /* \"#utility.yul\":6871:6873   */\n      0x20\n        /* \"#utility.yul\":6853:6874   */\n      dup1\n      dup3\n      mstore\n        /* \"#utility.yul\":6910:6912   */\n      0x1b\n        /* \"#utility.yul\":6890:6908   */\n      swap1\n      dup3\n      add\n        /* \"#utility.yul\":6883:6913   */\n      mstore\n        /* \"#utility.yul\":6949:6978   */\n      0x536166654d6174683a206164646974696f6e206f766572666c6f770000000000\n        /* \"#utility.yul\":6944:6946   */\n      0x40\n        /* \"#utility.yul\":6929:6947   */\n      dup3\n      add\n        /* \"#utility.yul\":6922:6979   */\n      mstore\n        /* \"#utility.yul\":7011:7013   */\n      0x60\n        /* \"#utility.yul\":6996:7014   */\n      add\n      swap1\n        /* \"#utility.yul\":6843:7020   */\n      jump\t// out\n        /* \"#utility.yul\":7025:7381   */\n    tag_145:\n        /* \"#utility.yul\":7227:7229   */\n      0x20\n        /* \"#utility.yul\":7209:7230   */\n      dup1\n      dup3\n      mstore\n        /* \"#utility.yul\":7246:7264   */\n      dup2\n      dup2\n      add\n        /* \"#utility.yul\":7239:7269   */\n      mstore\n        /* \"#utility.yul\":7305:7339   */\n      0x4f776e61626c653a2063616c6c6572206973206e6f7420746865206f776e6572\n        /* \"#utility.yul\":7300:7302   */\n      0x40\n        /* \"#utility.yul\":7285:7303   */\n      dup3\n      add\n        /* \"#utility.yul\":7278:7340   */\n      mstore\n        /* \"#utility.yul\":7372:7374   */\n      0x60\n        /* \"#utility.yul\":7357:7375   */\n      add\n      swap1\n        /* \"#utility.yul\":7199:7381   */\n      jump\t// out\n        /* \"#utility.yul\":7386:7796   */\n    tag_160:\n        /* \"#utility.yul\":7588:7590   */\n      0x20\n        /* \"#utility.yul\":7570:7591   */\n      dup1\n      dup3\n      mstore\n        /* \"#utility.yul\":7627:7629   */\n      0x2e\n        /* \"#utility.yul\":7607:7625   */\n      swap1\n      dup3\n      add\n        /* \"#utility.yul\":7600:7630   */\n      mstore\n        /* \"#utility.yul\":7666:7700   */\n      0x436f6e747261637420696e7374616e63652068617320616c7265616479206265\n        /* \"#utility.yul\":7661:7663   */\n      0x40\n        /* \"#utility.yul\":7646:7664   */\n      dup3\n      add\n        /* \"#utility.yul\":7639:7701   */\n      mstore\n      shl(0x92, 0x195b881a5b9a5d1a585b1a5e9959)\n        /* \"#utility.yul\":7732:7734   */\n      0x60\n        /* \"#utility.yul\":7717:7735   */\n      dup3\n      add\n        /* \"#utility.yul\":7710:7754   */\n      mstore\n        /* \"#utility.yul\":7786:7789   */\n      0x80\n        /* \"#utility.yul\":7771:7790   */\n      add\n      swap1\n        /* \"#utility.yul\":7560:7796   */\n      jump\t// out\n        /* \"#utility.yul\":7801:8201   */\n    tag_207:\n        /* \"#utility.yul\":8003:8005   */\n      0x20\n        /* \"#utility.yul\":7985:8006   */\n      dup1\n      dup3\n      mstore\n        /* \"#utility.yul\":8042:8044   */\n      0x24\n        /* \"#utility.yul\":8022:8040   */\n      swap1\n      dup3\n      add\n        /* \"#utility.yul\":8015:8045   */\n      mstore\n        /* \"#utility.yul\":8081:8115   */\n      0x2149734d696e7465723a2063616c6c6572206973206e6f742066726f6d206d69\n        /* \"#utility.yul\":8076:8078   */\n      0x40\n        /* \"#utility.yul\":8061:8079   */\n      dup3\n      add\n        /* \"#utility.yul\":8054:8116   */\n      mstore\n      shl(0xe1, 0x373a32b9)\n        /* \"#utility.yul\":8147:8149   */\n      0x60\n        /* \"#utility.yul\":8132:8150   */\n      dup3\n      add\n        /* \"#utility.yul\":8125:8159   */\n      mstore\n        /* \"#utility.yul\":8191:8194   */\n      0x80\n        /* \"#utility.yul\":8176:8195   */\n      add\n      swap1\n        /* \"#utility.yul\":7975:8201   */\n      jump\t// out\n        /* \"#utility.yul\":8206:8603   */\n    tag_297:\n        /* \"#utility.yul\":8408:8410   */\n      0x20\n        /* \"#utility.yul\":8390:8411   */\n      dup1\n      dup3\n      mstore\n        /* \"#utility.yul\":8447:8449   */\n      0x21\n        /* \"#utility.yul\":8427:8445   */\n      swap1\n      dup3\n      add\n        /* \"#utility.yul\":8420:8450   */\n      mstore\n        /* \"#utility.yul\":8486:8520   */\n      0x45524332303a206275726e2066726f6d20746865207a65726f20616464726573\n        /* \"#utility.yul\":8481:8483   */\n      0x40\n        /* \"#utility.yul\":8466:8484   */\n      dup3\n      add\n        /* \"#utility.yul\":8459:8521   */\n      mstore\n      shl(0xf8, 0x73)\n        /* \"#utility.yul\":8552:8554   */\n      0x60\n        /* \"#utility.yul\":8537:8555   */\n      dup3\n      add\n        /* \"#utility.yul\":8530:8561   */\n      mstore\n        /* \"#utility.yul\":8593:8596   */\n      0x80\n        /* \"#utility.yul\":8578:8597   */\n      add\n      swap1\n        /* \"#utility.yul\":8380:8603   */\n      jump\t// out\n        /* \"#utility.yul\":8608:9009   */\n    tag_240:\n        /* \"#utility.yul\":8810:8812   */\n      0x20\n        /* \"#utility.yul\":8792:8813   */\n      dup1\n      dup3\n      mstore\n        /* \"#utility.yul\":8849:8851   */\n      0x25\n        /* \"#utility.yul\":8829:8847   */\n      swap1\n      dup3\n      add\n        /* \"#utility.yul\":8822:8852   */\n      mstore\n        /* \"#utility.yul\":8888:8922   */\n      0x45524332303a207472616e736665722066726f6d20746865207a65726f206164\n        /* \"#utility.yul\":8883:8885   */\n      0x40\n        /* \"#utility.yul\":8868:8886   */\n      dup3\n      add\n        /* \"#utility.yul\":8861:8923   */\n      mstore\n      shl(0xd8, 0x6472657373)\n        /* \"#utility.yul\":8954:8956   */\n      0x60\n        /* \"#utility.yul\":8939:8957   */\n      dup3\n      add\n        /* \"#utility.yul\":8932:8967   */\n      mstore\n        /* \"#utility.yul\":8999:9002   */\n      0x80\n        /* \"#utility.yul\":8984:9003   */\n      add\n      swap1\n        /* \"#utility.yul\":8782:9009   */\n      jump\t// out\n        /* \"#utility.yul\":9014:9414   */\n    tag_232:\n        /* \"#utility.yul\":9216:9218   */\n      0x20\n        /* \"#utility.yul\":9198:9219   */\n      dup1\n      dup3\n      mstore\n        /* \"#utility.yul\":9255:9257   */\n      0x24\n        /* \"#utility.yul\":9235:9253   */\n      swap1\n      dup3\n      add\n        /* \"#utility.yul\":9228:9258   */\n      mstore\n        /* \"#utility.yul\":9294:9328   */\n      0x45524332303a20617070726f76652066726f6d20746865207a65726f20616464\n        /* \"#utility.yul\":9289:9291   */\n      0x40\n        /* \"#utility.yul\":9274:9292   */\n      dup3\n      add\n        /* \"#utility.yul\":9267:9329   */\n      mstore\n      shl(0xe0, 0x72657373)\n        /* \"#utility.yul\":9360:9362   */\n      0x60\n        /* \"#utility.yul\":9345:9363   */\n      dup3\n      add\n        /* \"#utility.yul\":9338:9372   */\n      mstore\n        /* \"#utility.yul\":9404:9407   */\n      0x80\n        /* \"#utility.yul\":9389:9408   */\n      add\n      swap1\n        /* \"#utility.yul\":9188:9414   */\n      jump\t// out\n        /* \"#utility.yul\":9419:9774   */\n    tag_289:\n        /* \"#utility.yul\":9621:9623   */\n      0x20\n        /* \"#utility.yul\":9603:9624   */\n      dup1\n      dup3\n      mstore\n        /* \"#utility.yul\":9660:9662   */\n      0x1f\n        /* \"#utility.yul\":9640:9658   */\n      swap1\n      dup3\n      add\n        /* \"#utility.yul\":9633:9663   */\n      mstore\n        /* \"#utility.yul\":9699:9732   */\n      0x45524332303a206d696e7420746f20746865207a65726f206164647265737300\n        /* \"#utility.yul\":9694:9696   */\n      0x40\n        /* \"#utility.yul\":9679:9697   */\n      dup3\n      add\n        /* \"#utility.yul\":9672:9733   */\n      mstore\n        /* \"#utility.yul\":9765:9767   */\n      0x60\n        /* \"#utility.yul\":9750:9768   */\n      add\n      swap1\n        /* \"#utility.yul\":9593:9774   */\n      jump\t// out\n        /* \"#utility.yul\":9779:9956   */\n    tag_40:\n        /* \"#utility.yul\":9925:9950   */\n      swap1\n      dup2\n      mstore\n        /* \"#utility.yul\":9913:9915   */\n      0x20\n        /* \"#utility.yul\":9898:9916   */\n      add\n      swap1\n        /* \"#utility.yul\":9880:9956   */\n      jump\t// out\n        /* \"#utility.yul\":9961:10145   */\n    tag_55:\n        /* \"#utility.yul\":10133:10137   */\n      0xff\n        /* \"#utility.yul\":10121:10138   */\n      swap2\n      swap1\n      swap2\n      and\n        /* \"#utility.yul\":10103:10139   */\n      dup2\n      mstore\n        /* \"#utility.yul\":10091:10093   */\n      0x20\n        /* \"#utility.yul\":10076:10094   */\n      add\n      swap1\n        /* \"#utility.yul\":10058:10145   */\n      jump\t// out\n        /* \"#utility.yul\":10150:10278   */\n    tag_256:\n      0x00\n        /* \"#utility.yul\":10221:10222   */\n      dup3\n        /* \"#utility.yul\":10217:10223   */\n      not\n        /* \"#utility.yul\":10214:10215   */\n      dup3\n        /* \"#utility.yul\":10211:10224   */\n      gt\n        /* \"#utility.yul\":10208:10210   */\n      iszero\n      tag_414\n      jumpi\n        /* \"#utility.yul\":10227:10245   */\n      tag_414\n      tag_415\n      jump\t// in\n    tag_414:\n      pop\n        /* \"#utility.yul\":10263:10272   */\n      add\n      swap1\n        /* \"#utility.yul\":10198:10278   */\n      jump\t// out\n        /* \"#utility.yul\":10283:10408   */\n    tag_253:\n      0x00\n        /* \"#utility.yul\":10351:10352   */\n      dup3\n        /* \"#utility.yul\":10348:10349   */\n      dup3\n        /* \"#utility.yul\":10345:10353   */\n      lt\n        /* \"#utility.yul\":10342:10344   */\n      iszero\n      tag_418\n      jumpi\n        /* \"#utility.yul\":10356:10374   */\n      tag_418\n      tag_415\n      jump\t// in\n    tag_418:\n      pop\n        /* \"#utility.yul\":10393:10402   */\n      sub\n      swap1\n        /* \"#utility.yul\":10332:10408   */\n      jump\t// out\n        /* \"#utility.yul\":10413:10793   */\n    tag_112:\n        /* \"#utility.yul\":10498:10499   */\n      0x02\n        /* \"#utility.yul\":10488:10500   */\n      dup2\n      div\n        /* \"#utility.yul\":10545:10546   */\n      0x01\n        /* \"#utility.yul\":10535:10547   */\n      dup3\n      and\n      dup1\n        /* \"#utility.yul\":10556:10558   */\n      tag_420\n      jumpi\n        /* \"#utility.yul\":10610:10614   */\n      0x7f\n        /* \"#utility.yul\":10602:10608   */\n      dup3\n        /* \"#utility.yul\":10598:10615   */\n      and\n        /* \"#utility.yul\":10588:10615   */\n      swap2\n      pop\n        /* \"#utility.yul\":10556:10558   */\n    tag_420:\n        /* \"#utility.yul\":10663:10665   */\n      0x20\n        /* \"#utility.yul\":10655:10661   */\n      dup3\n        /* \"#utility.yul\":10652:10666   */\n      lt\n        /* \"#utility.yul\":10632:10650   */\n      dup2\n        /* \"#utility.yul\":10629:10667   */\n      eq\n        /* \"#utility.yul\":10626:10628   */\n      iszero\n      tag_421\n      jumpi\n        /* \"#utility.yul\":10709:10719   */\n      0x4e487b71\n        /* \"#utility.yul\":10704:10707   */\n      0xe0\n        /* \"#utility.yul\":10700:10720   */\n      shl\n        /* \"#utility.yul\":10697:10698   */\n      0x00\n        /* \"#utility.yul\":10690:10721   */\n      mstore\n        /* \"#utility.yul\":10744:10748   */\n      0x22\n        /* \"#utility.yul\":10741:10742   */\n      0x04\n        /* \"#utility.yul\":10734:10749   */\n      mstore\n        /* \"#utility.yul\":10772:10776   */\n      0x24\n        /* \"#utility.yul\":10769:10770   */\n      0x00\n        /* \"#utility.yul\":10762:10777   */\n      revert\n        /* \"#utility.yul\":10626:10628   */\n    tag_421:\n      pop\n        /* \"#utility.yul\":10468:10793   */\n      swap2\n      swap1\n      pop\n      jump\t// out\n        /* \"#utility.yul\":10798:10933   */\n    tag_204:\n      0x00\n      not(0x00)\n        /* \"#utility.yul\":10858:10875   */\n      dup3\n      eq\n        /* \"#utility.yul\":10855:10857   */\n      iszero\n      tag_424\n      jumpi\n        /* \"#utility.yul\":10878:10896   */\n      tag_424\n      tag_415\n      jump\t// in\n    tag_424:\n      pop\n        /* \"#utility.yul\":10925:10926   */\n      0x01\n        /* \"#utility.yul\":10914:10927   */\n      add\n      swap1\n        /* \"#utility.yul\":10845:10933   */\n      jump\t// out\n        /* \"#utility.yul\":10938:11065   */\n    tag_415:\n        /* \"#utility.yul\":10999:11009   */\n      0x4e487b71\n        /* \"#utility.yul\":10994:10997   */\n      0xe0\n        /* \"#utility.yul\":10990:11010   */\n      shl\n        /* \"#utility.yul\":10987:10988   */\n      0x00\n        /* \"#utility.yul\":10980:11011   */\n      mstore\n        /* \"#utility.yul\":11030:11034   */\n      0x11\n        /* \"#utility.yul\":11027:11028   */\n      0x04\n        /* \"#utility.yul\":11020:11035   */\n      mstore\n        /* \"#utility.yul\":11054:11058   */\n      0x24\n        /* \"#utility.yul\":11051:11052   */\n      0x00\n        /* \"#utility.yul\":11044:11059   */\n      revert\n        /* \"#utility.yul\":11070:11197   */\n    tag_357:\n        /* \"#utility.yul\":11131:11141   */\n      0x4e487b71\n        /* \"#utility.yul\":11126:11129   */\n      0xe0\n        /* \"#utility.yul\":11122:11142   */\n      shl\n        /* \"#utility.yul\":11119:11120   */\n      0x00\n        /* \"#utility.yul\":11112:11143   */\n      mstore\n        /* \"#utility.yul\":11162:11166   */\n      0x41\n        /* \"#utility.yul\":11159:11160   */\n      0x04\n        /* \"#utility.yul\":11152:11167   */\n      mstore\n        /* \"#utility.yul\":11186:11190   */\n      0x24\n        /* \"#utility.yul\":11183:11184   */\n      0x00\n        /* \"#utility.yul\":11176:11191   */\n      revert\n    stop\n    data_149b126e7125232b4200af45303d04fba8b74653b1a295a6a561a528c33fefdd 45524332303a206275726e20616d6f756e7420657863656564732062616c616e6365\n    data_4107e8a8b9e94bf8ff83080ddec1c0bffe897ebc2241b89d44f66b3d274088b6 45524332303a207472616e7366657220616d6f756e7420657863656564732062616c616e6365\n    data_974d1b4421da69cc60b481194f0dad36a5bb4e23da810da7a7fb30cdba178330 45524332303a207472616e7366657220616d6f756e74206578636565647320616c6c6f77616e6365\n    data_f8b476f7d28209d77d4a4ac1fe36b9f8259aa1bb6bddfa6e89de7e51615cf8a8 45524332303a2064656372656173656420616c6c6f77616e63652062656c6f77207a65726f\n\n    sub_0: assembly {\n            /* \"test_project/contracts/TokenVesting.sol\":397:4397  contract TokenVesting {... */\n          mstore(0x40, 0x80)\n            /* \"test_project/contracts/TokenVesting.sol\":1362:2053  constructor(... */\n          callvalue\n          dup1\n          iszero\n          tag_1\n          jumpi\n          0x00\n          dup1\n          revert\n        tag_1:\n          pop\n          mload(0x40)\n          sub(codesize, bytecodeSize)\n          dup1\n          bytecodeSize\n          dup4\n          codecopy\n          dup2\n          add\n          0x40\n          dup2\n          swap1\n          mstore\n          tag_2\n          swap2\n          tag_3\n          jump\t// in\n        tag_2:\n          sub(shl(0xa0, 0x01), 0x01)\n            /* \"test_project/contracts/TokenVesting.sol\":1854:1880  _beneficiary != address(0) */\n          dup5\n          and\n            /* \"test_project/contracts/TokenVesting.sol\":1846:1881  require(_beneficiary != address(0)) */\n          tag_6\n          jumpi\n          0x00\n          dup1\n          revert\n        tag_6:\n            /* \"test_project/contracts/TokenVesting.sol\":1909:1918  _duration */\n          dup1\n            /* \"test_project/contracts/TokenVesting.sol\":1899:1905  _cliff */\n          dup3\n            /* \"test_project/contracts/TokenVesting.sol\":1899:1918  _cliff <= _duration */\n          gt\n          iszero\n            /* \"test_project/contracts/TokenVesting.sol\":1891:1919  require(_cliff <= _duration) */\n          tag_7\n          jumpi\n          0x00\n          dup1\n          revert\n        tag_7:\n            /* \"test_project/contracts/TokenVesting.sol\":1930:1941  beneficiary */\n          0x00\n            /* \"test_project/contracts/TokenVesting.sol\":1930:1956  beneficiary = _beneficiary */\n          dup1\n          sload\n          not(sub(shl(0xa0, 0x01), 0x01))\n          and\n          sub(shl(0xa0, 0x01), 0x01)\n          dup7\n          and\n          or\n          swap1\n          sstore\n            /* \"test_project/contracts/TokenVesting.sol\":1966:1974  duration */\n          0x03\n            /* \"test_project/contracts/TokenVesting.sol\":1966:1986  duration = _duration */\n          dup2\n          swap1\n          sstore\n            /* \"test_project/contracts/TokenVesting.sol\":2004:2022  _start.add(_cliff) */\n          tag_8\n            /* \"test_project/contracts/TokenVesting.sol\":2004:2010  _start */\n          dup4\n            /* \"test_project/contracts/TokenVesting.sol\":2015:2021  _cliff */\n          dup4\n            /* \"test_project/contracts/TokenVesting.sol\":2004:2014  _start.add */\n          tag_9\n          0x20\n          swap1\n          dup2\n          shl\n          tag_0_42\n          or\n            /* \"test_project/contracts/TokenVesting.sol\":2004:2022  _start.add(_cliff) */\n          swap1\n          shr\n          jump\t// in\n        tag_8:\n            /* \"test_project/contracts/TokenVesting.sol\":1996:2001  cliff */\n          0x01\n            /* \"test_project/contracts/TokenVesting.sol\":1996:2022  cliff = _start.add(_cliff) */\n          sstore\n          pop\n          pop\n            /* \"test_project/contracts/TokenVesting.sol\":2032:2037  start */\n          0x02\n            /* \"test_project/contracts/TokenVesting.sol\":2032:2046  start = _start */\n          sstore\n          pop\n            /* \"test_project/contracts/TokenVesting.sol\":397:4397  contract TokenVesting {... */\n          jump(tag_17)\n            /* \"lib0.8/common/SafeMath.sol\":881:1057  function add(uint256 a, uint256 b) internal pure returns (uint256) {... */\n        tag_9:\n            /* \"lib0.8/common/SafeMath.sol\":939:946  uint256 */\n          0x00\n          dup1\n            /* \"lib0.8/common/SafeMath.sol\":970:975  a + b */\n          tag_12\n            /* \"lib0.8/common/SafeMath.sol\":974:975  b */\n          dup4\n            /* \"lib0.8/common/SafeMath.sol\":970:971  a */\n          dup6\n            /* \"lib0.8/common/SafeMath.sol\":970:975  a + b */\n          tag_13\n          jump\t// in\n        tag_12:\n            /* \"lib0.8/common/SafeMath.sol\":958:975  uint256 c = a + b */\n          swap1\n          pop\n            /* \"lib0.8/common/SafeMath.sol\":998:999  a */\n          dup4\n            /* \"lib0.8/common/SafeMath.sol\":993:994  c */\n          dup2\n            /* \"lib0.8/common/SafeMath.sol\":993:999  c >= a */\n          lt\n          iszero\n            /* \"lib0.8/common/SafeMath.sol\":985:1031  require(c >= a, \"SafeMath: addition overflow\") */\n          tag_14\n          jumpi\n          mload(0x40)\n          shl(0xe5, 0x461bcd)\n          dup2\n          mstore\n          tag_15\n          swap1\n          0x04\n          add\n          tag_16\n          jump\t// in\n        tag_15:\n          mload(0x40)\n          dup1\n          swap2\n          sub\n          swap1\n          revert\n        tag_14:\n            /* \"lib0.8/common/SafeMath.sol\":1049:1050  c */\n          swap4\n            /* \"lib0.8/common/SafeMath.sol\":881:1057  function add(uint256 a, uint256 b) internal pure returns (uint256) {... */\n          swap3\n          pop\n          pop\n          pop\n          jump\t// out\n            /* \"#utility.yul\":14:508   */\n        tag_3:\n          0x00\n          dup1\n          0x00\n          dup1\n            /* \"#utility.yul\":188:191   */\n          0x80\n            /* \"#utility.yul\":176:185   */\n          dup6\n            /* \"#utility.yul\":167:174   */\n          dup8\n            /* \"#utility.yul\":163:186   */\n          sub\n            /* \"#utility.yul\":159:192   */\n          slt\n            /* \"#utility.yul\":156:158   */\n          iszero\n          tag_19\n          jumpi\n            /* \"#utility.yul\":210:216   */\n          dup4\n            /* \"#utility.yul\":202:208   */\n          dup5\n            /* \"#utility.yul\":195:217   */\n          revert\n            /* \"#utility.yul\":156:158   */\n        tag_19:\n            /* \"#utility.yul\":241:257   */\n          dup5\n          mload\n          sub(shl(0xa0, 0x01), 0x01)\n            /* \"#utility.yul\":286:317   */\n          dup2\n          and\n            /* \"#utility.yul\":276:318   */\n          dup2\n          eq\n            /* \"#utility.yul\":266:268   */\n          tag_20\n          jumpi\n            /* \"#utility.yul\":337:343   */\n          dup5\n            /* \"#utility.yul\":329:335   */\n          dup6\n            /* \"#utility.yul\":322:344   */\n          revert\n            /* \"#utility.yul\":266:268   */\n        tag_20:\n            /* \"#utility.yul\":410:412   */\n          0x20\n            /* \"#utility.yul\":395:413   */\n          dup7\n          add\n            /* \"#utility.yul\":389:414   */\n          mload\n            /* \"#utility.yul\":454:456   */\n          0x40\n            /* \"#utility.yul\":439:457   */\n          dup8\n          add\n            /* \"#utility.yul\":433:458   */\n          mload\n            /* \"#utility.yul\":498:500   */\n          0x60\n            /* \"#utility.yul\":483:501   */\n          swap1\n          swap8\n          add\n            /* \"#utility.yul\":477:502   */\n          mload\n            /* \"#utility.yul\":365:370   */\n          swap2\n          swap9\n            /* \"#utility.yul\":389:414   */\n          swap1\n          swap8\n          pop\n            /* \"#utility.yul\":477:502   */\n          swap1\n          swap5\n          pop\n            /* \"#utility.yul\":146:508   */\n          swap3\n          pop\n          pop\n          pop\n          jump\t// out\n            /* \"#utility.yul\":513:864   */\n        tag_16:\n            /* \"#utility.yul\":715:717   */\n          0x20\n            /* \"#utility.yul\":697:718   */\n          dup1\n          dup3\n          mstore\n            /* \"#utility.yul\":754:756   */\n          0x1b\n            /* \"#utility.yul\":734:752   */\n          swap1\n          dup3\n          add\n            /* \"#utility.yul\":727:757   */\n          mstore\n            /* \"#utility.yul\":793:822   */\n          0x536166654d6174683a206164646974696f6e206f766572666c6f770000000000\n            /* \"#utility.yul\":788:790   */\n          0x40\n            /* \"#utility.yul\":773:791   */\n          dup3\n          add\n            /* \"#utility.yul\":766:823   */\n          mstore\n            /* \"#utility.yul\":855:857   */\n          0x60\n            /* \"#utility.yul\":840:858   */\n          add\n          swap1\n            /* \"#utility.yul\":687:864   */\n          jump\t// out\n            /* \"#utility.yul\":869:1098   */\n        tag_13:\n          0x00\n            /* \"#utility.yul\":940:941   */\n          dup3\n            /* \"#utility.yul\":936:942   */\n          not\n            /* \"#utility.yul\":933:934   */\n          dup3\n            /* \"#utility.yul\":930:943   */\n          gt\n            /* \"#utility.yul\":927:929   */\n          iszero\n          tag_23\n          jumpi\n          shl(0xe0, 0x4e487b71)\n            /* \"#utility.yul\":966:999   */\n          dup2\n          mstore\n            /* \"#utility.yul\":1022:1026   */\n          0x11\n            /* \"#utility.yul\":1019:1020   */\n          0x04\n            /* \"#utility.yul\":1012:1027   */\n          mstore\n            /* \"#utility.yul\":1052:1056   */\n          0x24\n            /* \"#utility.yul\":966:999   */\n          dup2\n            /* \"#utility.yul\":1040:1057   */\n          revert\n            /* \"#utility.yul\":927:929   */\n        tag_23:\n          pop\n            /* \"#utility.yul\":1083:1092   */\n          add\n          swap1\n            /* \"#utility.yul\":917:1098   */\n          jump\t// out\n        tag_17:\n            /* \"test_project/contracts/TokenVesting.sol\":397:4397  contract TokenVesting {... */\n          dataSize(sub_0)\n          dup1\n          dataOffset(sub_0)\n          0x00\n          codecopy\n          0x00\n          return\n        stop\n\n        sub_0: assembly {\n                /* \"test_project/contracts/TokenVesting.sol\":397:4397  contract TokenVesting {... */\n              mstore(0x40, 0x80)\n              callvalue\n              dup1\n              iszero\n              tag_1\n              jumpi\n              0x00\n              dup1\n              revert\n            tag_1:\n              pop\n              jumpi(tag_2, lt(calldatasize, 0x04))\n              shr(0xe0, calldataload(0x00))\n              dup1\n              0x384711cc\n              gt\n              tag_11\n              jumpi\n              dup1\n              0x384711cc\n              eq\n              tag_7\n              jumpi\n              dup1\n              0x38af3eed\n              eq\n              tag_8\n              jumpi\n              dup1\n              0x9852595c\n              eq\n              tag_9\n              jumpi\n              dup1\n              0xbe9a6555\n              eq\n              tag_10\n              jumpi\n              jump(tag_2)\n            tag_11:\n              dup1\n              0x0fb5a6b4\n              eq\n              tag_3\n              jumpi\n              dup1\n              0x13d033c0\n              eq\n              tag_4\n              jumpi\n              dup1\n              0x1726cbc8\n              eq\n              tag_5\n              jumpi\n              dup1\n              0x19165587\n              eq\n              tag_6\n              jumpi\n            tag_2:\n              0x00\n              dup1\n              revert\n                /* \"test_project/contracts/TokenVesting.sol\":649:672  uint256 public duration */\n            tag_3:\n              tag_12\n              tag_13\n              jump\t// in\n            tag_12:\n              mload(0x40)\n              tag_14\n              swap2\n              swap1\n              tag_15\n              jump\t// in\n            tag_14:\n              mload(0x40)\n              dup1\n              swap2\n              sub\n              swap1\n              return\n                /* \"test_project/contracts/TokenVesting.sol\":597:617  uint256 public cliff */\n            tag_4:\n              tag_12\n              tag_17\n              jump\t// in\n                /* \"test_project/contracts/TokenVesting.sol\":2987:3234  function releasableAmount(address token) public view returns (uint256) {... */\n            tag_5:\n              tag_12\n              tag_20\n              calldatasize\n              0x04\n              tag_21\n              jump\t// in\n            tag_20:\n              tag_22\n              jump\t// in\n                /* \"test_project/contracts/TokenVesting.sol\":2235:2715  function release(address token) public {... */\n            tag_6:\n              tag_24\n              tag_25\n              calldatasize\n              0x04\n              tag_21\n              jump\t// in\n            tag_25:\n              tag_26\n              jump\t// in\n            tag_24:\n              stop\n                /* \"test_project/contracts/TokenVesting.sol\":3430:4395  function vestedAmount(address token) public view returns (uint256) {... */\n            tag_7:\n              tag_12\n              tag_28\n              calldatasize\n              0x04\n              tag_21\n              jump\t// in\n            tag_28:\n              tag_29\n              jump\t// in\n                /* \"test_project/contracts/TokenVesting.sol\":564:590  address public beneficiary */\n            tag_8:\n              tag_31\n              tag_32\n              jump\t// in\n            tag_31:\n              mload(0x40)\n              tag_14\n              swap2\n              swap1\n              tag_34\n              jump\t// in\n                /* \"test_project/contracts/TokenVesting.sol\":679:722  mapping(address => uint256) public released */\n            tag_9:\n              tag_12\n              tag_36\n              calldatasize\n              0x04\n              tag_21\n              jump\t// in\n            tag_36:\n              tag_37\n              jump\t// in\n                /* \"test_project/contracts/TokenVesting.sol\":623:643  uint256 public start */\n            tag_10:\n              tag_12\n              tag_40\n              jump\t// in\n                /* \"test_project/contracts/TokenVesting.sol\":649:672  uint256 public duration */\n            tag_13:\n              sload(0x03)\n              dup2\n              jump\t// out\n                /* \"test_project/contracts/TokenVesting.sol\":597:617  uint256 public cliff */\n            tag_17:\n              sload(0x01)\n              dup2\n              jump\t// out\n                /* \"test_project/contracts/TokenVesting.sol\":2987:3234  function releasableAmount(address token) public view returns (uint256) {... */\n            tag_22:\n              sub(shl(0xa0, 0x01), 0x01)\n                /* \"test_project/contracts/TokenVesting.sol\":3211:3226  released[token] */\n              dup2\n              and\n                /* \"test_project/contracts/TokenVesting.sol\":3049:3056  uint256 */\n              0x00\n                /* \"test_project/contracts/TokenVesting.sol\":3211:3226  released[token] */\n              swap1\n              dup2\n              mstore\n                /* \"test_project/contracts/TokenVesting.sol\":3211:3219  released */\n              0x04\n                /* \"test_project/contracts/TokenVesting.sol\":3211:3226  released[token] */\n              0x20\n              mstore\n              0x40\n              dup2\n              keccak256\n              sload\n                /* \"test_project/contracts/TokenVesting.sol\":3187:3227  vestedAmount(token).sub(released[token]) */\n              tag_44\n              swap1\n                /* \"test_project/contracts/TokenVesting.sol\":3187:3206  vestedAmount(token) */\n              tag_45\n                /* \"test_project/contracts/TokenVesting.sol\":3211:3226  released[token] */\n              dup5\n                /* \"test_project/contracts/TokenVesting.sol\":3187:3199  vestedAmount */\n              tag_29\n                /* \"test_project/contracts/TokenVesting.sol\":3187:3206  vestedAmount(token) */\n              jump\t// in\n            tag_45:\n                /* \"test_project/contracts/TokenVesting.sol\":3187:3210  vestedAmount(token).sub */\n              swap1\n              tag_46\n                /* \"test_project/contracts/TokenVesting.sol\":3187:3227  vestedAmount(token).sub(released[token]) */\n              jump\t// in\n            tag_44:\n                /* \"test_project/contracts/TokenVesting.sol\":3180:3227  return vestedAmount(token).sub(released[token]) */\n              swap1\n              pop\n                /* \"test_project/contracts/TokenVesting.sol\":2987:3234  function releasableAmount(address token) public view returns (uint256) {... */\n            tag_43:\n              swap2\n              swap1\n              pop\n              jump\t// out\n                /* \"test_project/contracts/TokenVesting.sol\":2235:2715  function release(address token) public {... */\n            tag_26:\n                /* \"test_project/contracts/TokenVesting.sol\":2318:2336  uint256 unreleased */\n              0x00\n                /* \"test_project/contracts/TokenVesting.sol\":2339:2362  releasableAmount(token) */\n              tag_48\n                /* \"test_project/contracts/TokenVesting.sol\":2356:2361  token */\n              dup3\n                /* \"test_project/contracts/TokenVesting.sol\":2339:2355  releasableAmount */\n              tag_22\n                /* \"test_project/contracts/TokenVesting.sol\":2339:2362  releasableAmount(token) */\n              jump\t// in\n            tag_48:\n                /* \"test_project/contracts/TokenVesting.sol\":2318:2362  uint256 unreleased = releasableAmount(token) */\n              swap1\n              pop\n                /* \"test_project/contracts/TokenVesting.sol\":2394:2395  0 */\n              0x00\n                /* \"test_project/contracts/TokenVesting.sol\":2381:2391  unreleased */\n              dup2\n                /* \"test_project/contracts/TokenVesting.sol\":2381:2395  unreleased > 0 */\n              gt\n                /* \"test_project/contracts/TokenVesting.sol\":2373:2396  require(unreleased > 0) */\n              tag_49\n              jumpi\n              0x00\n              dup1\n              revert\n            tag_49:\n              sub(shl(0xa0, 0x01), 0x01)\n                /* \"test_project/contracts/TokenVesting.sol\":2531:2546  released[token] */\n              dup3\n              and\n              0x00\n              swap1\n              dup2\n              mstore\n                /* \"test_project/contracts/TokenVesting.sol\":2531:2539  released */\n              0x04\n                /* \"test_project/contracts/TokenVesting.sol\":2531:2546  released[token] */\n              0x20\n              mstore\n              0x40\n              swap1\n              keccak256\n              sload\n                /* \"test_project/contracts/TokenVesting.sol\":2531:2562  released[token].add(unreleased) */\n              tag_50\n              swap1\n                /* \"test_project/contracts/TokenVesting.sol\":2551:2561  unreleased */\n              dup3\n                /* \"test_project/contracts/TokenVesting.sol\":2531:2550  released[token].add */\n              tag_42\n                /* \"test_project/contracts/TokenVesting.sol\":2531:2562  released[token].add(unreleased) */\n              jump\t// in\n            tag_50:\n              sub(shl(0xa0, 0x01), 0x01)\n                /* \"test_project/contracts/TokenVesting.sol\":2513:2528  released[token] */\n              dup4\n              dup2\n              and\n              0x00\n              dup2\n              dup2\n              mstore\n                /* \"test_project/contracts/TokenVesting.sol\":2513:2521  released */\n              0x04\n                /* \"test_project/contracts/TokenVesting.sol\":2513:2528  released[token] */\n              0x20\n              mstore\n              0x40\n              dup2\n              keccak256\n                /* \"test_project/contracts/TokenVesting.sol\":2513:2562  released[token] = released[token].add(unreleased) */\n              swap4\n              swap1\n              swap4\n              sstore\n                /* \"test_project/contracts/TokenVesting.sol\":2648:2659  beneficiary */\n              swap2\n              sload\n                /* \"test_project/contracts/TokenVesting.sol\":2621:2672  IERC20(token).safeTransfer(beneficiary, unreleased) */\n              tag_51\n              swap3\n                /* \"test_project/contracts/TokenVesting.sol\":2513:2528  released[token] */\n              swap2\n                /* \"test_project/contracts/TokenVesting.sol\":2648:2659  beneficiary */\n              and\n                /* \"test_project/contracts/TokenVesting.sol\":2661:2671  unreleased */\n              dup4\n                /* \"test_project/contracts/TokenVesting.sol\":2621:2647  IERC20(token).safeTransfer */\n              tag_52\n                /* \"test_project/contracts/TokenVesting.sol\":2621:2672  IERC20(token).safeTransfer(beneficiary, unreleased) */\n              jump\t// in\n            tag_51:\n                /* \"test_project/contracts/TokenVesting.sol\":2688:2708  Released(unreleased) */\n              0xfb81f9b30d73d830c3544b34d827c08142579ee75710b490bab0b3995468c565\n                /* \"test_project/contracts/TokenVesting.sol\":2697:2707  unreleased */\n              dup2\n                /* \"test_project/contracts/TokenVesting.sol\":2688:2708  Released(unreleased) */\n              mload(0x40)\n              tag_53\n              swap2\n              swap1\n              tag_15\n              jump\t// in\n            tag_53:\n              mload(0x40)\n              dup1\n              swap2\n              sub\n              swap1\n              log1\n                /* \"test_project/contracts/TokenVesting.sol\":2235:2715  function release(address token) public {... */\n              pop\n              pop\n              jump\t// out\n                /* \"test_project/contracts/TokenVesting.sol\":3430:4395  function vestedAmount(address token) public view returns (uint256) {... */\n            tag_29:\n                /* \"test_project/contracts/TokenVesting.sol\":3711:3749  IERC20(token).balanceOf(address(this)) */\n              mload(0x40)\n              shl(0xe0, 0x70a08231)\n              dup2\n              mstore\n                /* \"test_project/contracts/TokenVesting.sol\":3488:3495  uint256 */\n              0x00\n              swap1\n              dup2\n              swap1\n              sub(shl(0xa0, 0x01), 0x01)\n                /* \"test_project/contracts/TokenVesting.sol\":3711:3734  IERC20(token).balanceOf */\n              dup5\n              and\n              swap1\n              0x70a08231\n              swap1\n                /* \"test_project/contracts/TokenVesting.sol\":3711:3749  IERC20(token).balanceOf(address(this)) */\n              tag_55\n              swap1\n                /* \"test_project/contracts/TokenVesting.sol\":3743:3747  this */\n              address\n              swap1\n                /* \"test_project/contracts/TokenVesting.sol\":3711:3749  IERC20(token).balanceOf(address(this)) */\n              0x04\n              add\n              tag_34\n              jump\t// in\n            tag_55:\n              0x20\n              mload(0x40)\n              dup1\n              dup4\n              sub\n              dup2\n              dup7\n              dup1\n              extcodesize\n              iszero\n              dup1\n              iszero\n              tag_56\n              jumpi\n              0x00\n              dup1\n              revert\n            tag_56:\n              pop\n              gas\n              staticcall\n              iszero\n              dup1\n              iszero\n              tag_58\n              jumpi\n              returndatasize\n              0x00\n              dup1\n              returndatacopy\n              revert(0x00, returndatasize)\n            tag_58:\n              pop\n              pop\n              pop\n              pop\n              mload(0x40)\n              returndatasize\n              not(0x1f)\n              0x1f\n              dup3\n              add\n              and\n              dup3\n              add\n              dup1\n              0x40\n              mstore\n              pop\n              dup2\n              add\n              swap1\n              tag_59\n              swap2\n              swap1\n              tag_60\n              jump\t// in\n            tag_59:\n              sub(shl(0xa0, 0x01), 0x01)\n                /* \"test_project/contracts/TokenVesting.sol\":3963:3978  released[token] */\n              dup5\n              and\n                /* \"test_project/contracts/TokenVesting.sol\":3921:3941  uint256 totalBalance */\n              0x00\n                /* \"test_project/contracts/TokenVesting.sol\":3963:3978  released[token] */\n              swap1\n              dup2\n              mstore\n                /* \"test_project/contracts/TokenVesting.sol\":3963:3971  released */\n              0x04\n                /* \"test_project/contracts/TokenVesting.sol\":3963:3978  released[token] */\n              0x20\n              mstore\n              0x40\n              dup2\n              keccak256\n              sload\n                /* \"test_project/contracts/TokenVesting.sol\":3686:3749  uint256 currentBalance = IERC20(token).balanceOf(address(this)) */\n              swap2\n              swap3\n              pop\n                /* \"test_project/contracts/TokenVesting.sol\":3921:3941  uint256 totalBalance */\n              swap1\n                /* \"test_project/contracts/TokenVesting.sol\":3944:3979  currentBalance.add(released[token]) */\n              tag_61\n              swap1\n                /* \"test_project/contracts/TokenVesting.sol\":3686:3749  uint256 currentBalance = IERC20(token).balanceOf(address(this)) */\n              dup4\n              swap1\n                /* \"test_project/contracts/TokenVesting.sol\":3944:3962  currentBalance.add */\n              tag_42\n                /* \"test_project/contracts/TokenVesting.sol\":3944:3979  currentBalance.add(released[token]) */\n              jump\t// in\n            tag_61:\n                /* \"test_project/contracts/TokenVesting.sol\":3921:3979  uint256 totalBalance = currentBalance.add(released[token]) */\n              swap1\n              pop\n                /* \"test_project/contracts/TokenVesting.sol\":4012:4017  cliff */\n              sload(0x01)\n                /* \"test_project/contracts/TokenVesting.sol\":3994:4009  block.timestamp */\n              timestamp\n                /* \"test_project/contracts/TokenVesting.sol\":3994:4017  block.timestamp < cliff */\n              lt\n                /* \"test_project/contracts/TokenVesting.sol\":3990:4389  if (block.timestamp < cliff) {... */\n              iszero\n              tag_62\n              jumpi\n                /* \"test_project/contracts/TokenVesting.sol\":4040:4041  0 */\n              0x00\n                /* \"test_project/contracts/TokenVesting.sol\":4033:4041  return 0 */\n              swap3\n              pop\n              pop\n              pop\n              jump(tag_43)\n                /* \"test_project/contracts/TokenVesting.sol\":3990:4389  if (block.timestamp < cliff) {... */\n            tag_62:\n                /* \"test_project/contracts/TokenVesting.sol\":4124:4132  duration */\n              sload(0x03)\n                /* \"test_project/contracts/TokenVesting.sol\":4114:4119  start */\n              sload(0x02)\n                /* \"test_project/contracts/TokenVesting.sol\":4114:4133  start.add(duration) */\n              tag_64\n              swap2\n                /* \"test_project/contracts/TokenVesting.sol\":4114:4123  start.add */\n              tag_42\n                /* \"test_project/contracts/TokenVesting.sol\":4114:4133  start.add(duration) */\n              jump\t// in\n            tag_64:\n                /* \"test_project/contracts/TokenVesting.sol\":4095:4110  block.timestamp */\n              timestamp\n                /* \"test_project/contracts/TokenVesting.sol\":4095:4133  block.timestamp >= start.add(duration) */\n              lt\n                /* \"test_project/contracts/TokenVesting.sol\":4091:4389  if (block.timestamp >= start.add(duration)) {... */\n              tag_65\n              jumpi\n                /* \"test_project/contracts/TokenVesting.sol\":4156:4168  totalBalance */\n              swap2\n              pop\n                /* \"test_project/contracts/TokenVesting.sol\":4149:4168  return totalBalance */\n              tag_43\n              swap1\n              pop\n              jump\n                /* \"test_project/contracts/TokenVesting.sol\":4091:4389  if (block.timestamp >= start.add(duration)) {... */\n            tag_65:\n                /* \"test_project/contracts/TokenVesting.sol\":4320:4378  totalBalance.mul(block.timestamp.sub(start)).div(duration) */\n              tag_67\n                /* \"test_project/contracts/TokenVesting.sol\":4369:4377  duration */\n              sload(0x03)\n                /* \"test_project/contracts/TokenVesting.sol\":4320:4364  totalBalance.mul(block.timestamp.sub(start)) */\n              tag_68\n                /* \"test_project/contracts/TokenVesting.sol\":4337:4363  block.timestamp.sub(start) */\n              tag_69\n                /* \"test_project/contracts/TokenVesting.sol\":4357:4362  start */\n              sload(0x02)\n                /* \"test_project/contracts/TokenVesting.sol\":4337:4352  block.timestamp */\n              timestamp\n                /* \"test_project/contracts/TokenVesting.sol\":4337:4356  block.timestamp.sub */\n              tag_46\n              swap1\n                /* \"test_project/contracts/TokenVesting.sol\":4337:4363  block.timestamp.sub(start) */\n              swap2\n              swap1\n              0xffffffff\n              and\n              jump\t// in\n            tag_69:\n                /* \"test_project/contracts/TokenVesting.sol\":4320:4332  totalBalance */\n              dup5\n              swap1\n                /* \"test_project/contracts/TokenVesting.sol\":4320:4336  totalBalance.mul */\n              tag_70\n                /* \"test_project/contracts/TokenVesting.sol\":4320:4364  totalBalance.mul(block.timestamp.sub(start)) */\n              jump\t// in\n            tag_68:\n                /* \"test_project/contracts/TokenVesting.sol\":4320:4368  totalBalance.mul(block.timestamp.sub(start)).div */\n              swap1\n              tag_71\n                /* \"test_project/contracts/TokenVesting.sol\":4320:4378  totalBalance.mul(block.timestamp.sub(start)).div(duration) */\n              jump\t// in\n            tag_67:\n                /* \"test_project/contracts/TokenVesting.sol\":4313:4378  return totalBalance.mul(block.timestamp.sub(start)).div(duration) */\n              swap3\n              pop\n              pop\n              pop\n              jump(tag_43)\n                /* \"test_project/contracts/TokenVesting.sol\":564:590  address public beneficiary */\n            tag_32:\n              and(sub(shl(0xa0, 0x01), 0x01), sload(0x00))\n              dup2\n              jump\t// out\n                /* \"test_project/contracts/TokenVesting.sol\":679:722  mapping(address => uint256) public released */\n            tag_37:\n              mstore(0x20, 0x04)\n              0x00\n              swap1\n              dup2\n              mstore\n              0x40\n              swap1\n              keccak256\n              sload\n              dup2\n              jump\t// out\n                /* \"test_project/contracts/TokenVesting.sol\":623:643  uint256 public start */\n            tag_40:\n              sload(0x02)\n              dup2\n              jump\t// out\n                /* \"lib0.8/common/SafeMath.sol\":881:1057  function add(uint256 a, uint256 b) internal pure returns (uint256) {... */\n            tag_42:\n                /* \"lib0.8/common/SafeMath.sol\":939:946  uint256 */\n              0x00\n              dup1\n                /* \"lib0.8/common/SafeMath.sol\":970:975  a + b */\n              tag_73\n                /* \"lib0.8/common/SafeMath.sol\":974:975  b */\n              dup4\n                /* \"lib0.8/common/SafeMath.sol\":970:971  a */\n              dup6\n                /* \"lib0.8/common/SafeMath.sol\":970:975  a + b */\n              tag_74\n              jump\t// in\n            tag_73:\n                /* \"lib0.8/common/SafeMath.sol\":958:975  uint256 c = a + b */\n              swap1\n              pop\n                /* \"lib0.8/common/SafeMath.sol\":998:999  a */\n              dup4\n                /* \"lib0.8/common/SafeMath.sol\":993:994  c */\n              dup2\n                /* \"lib0.8/common/SafeMath.sol\":993:999  c >= a */\n              lt\n              iszero\n                /* \"lib0.8/common/SafeMath.sol\":985:1031  require(c >= a, \"SafeMath: addition overflow\") */\n              tag_75\n              jumpi\n              mload(0x40)\n              shl(0xe5, 0x461bcd)\n              dup2\n              mstore\n              tag_76\n              swap1\n              0x04\n              add\n              tag_77\n              jump\t// in\n            tag_76:\n              mload(0x40)\n              dup1\n              swap2\n              sub\n              swap1\n              revert\n            tag_75:\n                /* \"lib0.8/common/SafeMath.sol\":1049:1050  c */\n              swap1\n              pop\n                /* \"lib0.8/common/SafeMath.sol\":881:1057  function add(uint256 a, uint256 b) internal pure returns (uint256) {... */\n            tag_72:\n              swap3\n              swap2\n              pop\n              pop\n              jump\t// out\n                /* \"lib0.8/common/SafeMath.sol\":1328:1462  function sub(uint256 a, uint256 b) internal pure returns (uint256) {... */\n            tag_46:\n                /* \"lib0.8/common/SafeMath.sol\":1386:1393  uint256 */\n              0x00\n                /* \"lib0.8/common/SafeMath.sol\":1412:1455  sub(a, b, \"SafeMath: subtraction overflow\") */\n              tag_75\n                /* \"lib0.8/common/SafeMath.sol\":1416:1417  a */\n              dup4\n                /* \"lib0.8/common/SafeMath.sol\":1419:1420  b */\n              dup4\n                /* \"lib0.8/common/SafeMath.sol\":1412:1455  sub(a, b, \"SafeMath: subtraction overflow\") */\n              mload(0x40)\n              dup1\n              0x40\n              add\n              0x40\n              mstore\n              dup1\n              0x1e\n              dup2\n              mstore\n              0x20\n              add\n              0x536166654d6174683a207375627472616374696f6e206f766572666c6f770000\n              dup2\n              mstore\n              pop\n                /* \"lib0.8/common/SafeMath.sol\":1412:1415  sub */\n              tag_80\n                /* \"lib0.8/common/SafeMath.sol\":1412:1455  sub(a, b, \"SafeMath: subtraction overflow\") */\n              jump\t// in\n                /* \"lib0.8/erc20/SafeERC20.sol\":787:1137  function safeTransfer(IERC20 token, address to, uint value) internal {... */\n            tag_52:\n                /* \"lib0.8/erc20/SafeERC20.sol\":933:945  bool success */\n              0x00\n                /* \"lib0.8/erc20/SafeERC20.sol\":947:964  bytes memory data */\n              dup1\n                /* \"lib0.8/erc20/SafeERC20.sol\":976:981  token */\n              dup5\n              0x01\n              dup1\n              0xa0\n              shl\n              sub\n                /* \"lib0.8/erc20/SafeERC20.sol\":968:987  address(token).call */\n              and\n                /* \"lib0.8/erc20/SafeERC20.sol\":1011:1021  0xa9059cbb */\n              0xa9059cbb\n                /* \"lib0.8/erc20/SafeERC20.sol\":1023:1025  to */\n              dup6\n                /* \"lib0.8/erc20/SafeERC20.sol\":1027:1032  value */\n              dup6\n                /* \"lib0.8/erc20/SafeERC20.sol\":988:1033  abi.encodeWithSelector(0xa9059cbb, to, value) */\n              add(0x24, mload(0x40))\n              tag_82\n              swap3\n              swap2\n              swap1\n              tag_83\n              jump\t// in\n            tag_82:\n              0x40\n              dup1\n              mload\n              not(0x1f)\n              dup2\n              dup5\n              sub\n              add\n              dup2\n              mstore\n              swap2\n              dup2\n              mstore\n              0x20\n              dup3\n              add\n              dup1\n              mload\n              sub(shl(0xe0, 0x01), 0x01)\n              and\n              0xe0\n              swap5\n              swap1\n              swap5\n              shl\n              swap4\n              swap1\n              swap4\n              or\n              swap1\n              swap3\n              mstore\n                /* \"lib0.8/erc20/SafeERC20.sol\":968:1034  address(token).call(abi.encodeWithSelector(0xa9059cbb, to, value)) */\n              swap1\n              mload\n              tag_84\n              swap2\n                /* \"lib0.8/erc20/SafeERC20.sol\":988:1033  abi.encodeWithSelector(0xa9059cbb, to, value) */\n              swap1\n                /* \"lib0.8/erc20/SafeERC20.sol\":968:1034  address(token).call(abi.encodeWithSelector(0xa9059cbb, to, value)) */\n              tag_85\n              jump\t// in\n            tag_84:\n              0x00\n              mload(0x40)\n              dup1\n              dup4\n              sub\n              dup2\n              0x00\n              dup7\n              gas\n              call\n              swap2\n              pop\n              pop\n              returndatasize\n              dup1\n              0x00\n              dup2\n              eq\n              tag_88\n              jumpi\n              mload(0x40)\n              swap2\n              pop\n              and(add(returndatasize, 0x3f), not(0x1f))\n              dup3\n              add\n              0x40\n              mstore\n              returndatasize\n              dup3\n              mstore\n              returndatasize\n              0x00\n              0x20\n              dup5\n              add\n              returndatacopy\n              jump(tag_87)\n            tag_88:\n              0x60\n              swap2\n              pop\n            tag_87:\n              pop\n                /* \"lib0.8/erc20/SafeERC20.sol\":932:1034  (bool success, bytes memory data) = address(token).call(abi.encodeWithSelector(0xa9059cbb, to, value)) */\n              swap2\n              pop\n              swap2\n              pop\n                /* \"lib0.8/erc20/SafeERC20.sol\":1052:1059  success */\n              dup2\n                /* \"lib0.8/erc20/SafeERC20.sol\":1052:1109  success && (data.length == 0 || abi.decode(data, (bool))) */\n              dup1\n              iszero\n              tag_91\n              jumpi\n              pop\n                /* \"lib0.8/erc20/SafeERC20.sol\":1064:1075  data.length */\n              dup1\n              mload\n                /* \"lib0.8/erc20/SafeERC20.sol\":1064:1080  data.length == 0 */\n              iszero\n              dup1\n                /* \"lib0.8/erc20/SafeERC20.sol\":1064:1108  data.length == 0 || abi.decode(data, (bool)) */\n              tag_91\n              jumpi\n              pop\n                /* \"lib0.8/erc20/SafeERC20.sol\":1095:1099  data */\n              dup1\n                /* \"lib0.8/erc20/SafeERC20.sol\":1084:1108  abi.decode(data, (bool)) */\n              dup1\n              0x20\n              add\n              swap1\n              mload\n              dup2\n              add\n              swap1\n              tag_91\n              swap2\n              swap1\n              tag_92\n              jump\t// in\n            tag_91:\n                /* \"lib0.8/erc20/SafeERC20.sol\":1044:1130  require(success && (data.length == 0 || abi.decode(data, (bool))), '!TRANSFER_FAILED') */\n              tag_93\n              jumpi\n              mload(0x40)\n              shl(0xe5, 0x461bcd)\n              dup2\n              mstore\n              tag_76\n              swap1\n              0x04\n              add\n              tag_95\n              jump\t// in\n            tag_93:\n                /* \"lib0.8/erc20/SafeERC20.sol\":787:1137  function safeTransfer(IERC20 token, address to, uint value) internal {... */\n              pop\n              pop\n              pop\n              pop\n              pop\n              jump\t// out\n                /* \"lib0.8/common/SafeMath.sol\":2187:2646  function mul(uint256 a, uint256 b) internal pure returns (uint256) {... */\n            tag_70:\n                /* \"lib0.8/common/SafeMath.sol\":2245:2252  uint256 */\n              0x00\n                /* \"lib0.8/common/SafeMath.sol\":2486:2492  a == 0 */\n              dup3\n                /* \"lib0.8/common/SafeMath.sol\":2482:2527  if (a == 0) {... */\n              tag_97\n              jumpi\n              pop\n                /* \"lib0.8/common/SafeMath.sol\":2515:2516  0 */\n              0x00\n                /* \"lib0.8/common/SafeMath.sol\":2508:2516  return 0 */\n              jump(tag_72)\n                /* \"lib0.8/common/SafeMath.sol\":2482:2527  if (a == 0) {... */\n            tag_97:\n                /* \"lib0.8/common/SafeMath.sol\":2537:2546  uint256 c */\n              0x00\n                /* \"lib0.8/common/SafeMath.sol\":2549:2554  a * b */\n              tag_98\n                /* \"lib0.8/common/SafeMath.sol\":2553:2554  b */\n              dup4\n                /* \"lib0.8/common/SafeMath.sol\":2549:2550  a */\n              dup6\n                /* \"lib0.8/common/SafeMath.sol\":2549:2554  a * b */\n              tag_99\n              jump\t// in\n            tag_98:\n                /* \"lib0.8/common/SafeMath.sol\":2537:2554  uint256 c = a * b */\n              swap1\n              pop\n                /* \"lib0.8/common/SafeMath.sol\":2581:2582  b */\n              dup3\n                /* \"lib0.8/common/SafeMath.sol\":2572:2577  c / a */\n              tag_100\n                /* \"lib0.8/common/SafeMath.sol\":2576:2577  a */\n              dup6\n                /* \"lib0.8/common/SafeMath.sol\":2537:2554  uint256 c = a * b */\n              dup4\n                /* \"lib0.8/common/SafeMath.sol\":2572:2577  c / a */\n              tag_101\n              jump\t// in\n            tag_100:\n                /* \"lib0.8/common/SafeMath.sol\":2572:2582  c / a == b */\n              eq\n                /* \"lib0.8/common/SafeMath.sol\":2564:2620  require(c / a == b, \"SafeMath: multiplication overflow\") */\n              tag_75\n              jumpi\n              mload(0x40)\n              shl(0xe5, 0x461bcd)\n              dup2\n              mstore\n              tag_76\n              swap1\n              0x04\n              add\n              tag_104\n              jump\t// in\n                /* \"lib0.8/common/SafeMath.sol\":3108:3238  function div(uint256 a, uint256 b) internal pure returns (uint256) {... */\n            tag_71:\n                /* \"lib0.8/common/SafeMath.sol\":3166:3173  uint256 */\n              0x00\n                /* \"lib0.8/common/SafeMath.sol\":3192:3231  div(a, b, \"SafeMath: division by zero\") */\n              tag_75\n                /* \"lib0.8/common/SafeMath.sol\":3196:3197  a */\n              dup4\n                /* \"lib0.8/common/SafeMath.sol\":3199:3200  b */\n              dup4\n                /* \"lib0.8/common/SafeMath.sol\":3192:3231  div(a, b, \"SafeMath: division by zero\") */\n              mload(0x40)\n              dup1\n              0x40\n              add\n              0x40\n              mstore\n              dup1\n              0x1a\n              dup2\n              mstore\n              0x20\n              add\n              0x536166654d6174683a206469766973696f6e206279207a65726f000000000000\n              dup2\n              mstore\n              pop\n                /* \"lib0.8/common/SafeMath.sol\":3192:3195  div */\n              tag_107\n                /* \"lib0.8/common/SafeMath.sol\":3192:3231  div(a, b, \"SafeMath: division by zero\") */\n              jump\t// in\n                /* \"lib0.8/common/SafeMath.sol\":1753:1940  function sub(uint256 a, uint256 b, string memory errorMessage) internal pure returns (uint256) {... */\n            tag_80:\n                /* \"lib0.8/common/SafeMath.sol\":1839:1846  uint256 */\n              0x00\n                /* \"lib0.8/common/SafeMath.sol\":1874:1886  errorMessage */\n              dup2\n                /* \"lib0.8/common/SafeMath.sol\":1866:1872  b <= a */\n              dup5\n              dup5\n              gt\n              iszero\n                /* \"lib0.8/common/SafeMath.sol\":1858:1887  require(b <= a, errorMessage) */\n              tag_109\n              jumpi\n              mload(0x40)\n              shl(0xe5, 0x461bcd)\n              dup2\n              mstore\n              tag_76\n              swap2\n              swap1\n              0x04\n              add\n              tag_111\n              jump\t// in\n            tag_109:\n              pop\n                /* \"lib0.8/common/SafeMath.sol\":1897:1906  uint256 c */\n              0x00\n                /* \"lib0.8/common/SafeMath.sol\":1909:1914  a - b */\n              tag_112\n                /* \"lib0.8/common/SafeMath.sol\":1913:1914  b */\n              dup5\n                /* \"lib0.8/common/SafeMath.sol\":1909:1910  a */\n              dup7\n                /* \"lib0.8/common/SafeMath.sol\":1909:1914  a - b */\n              tag_113\n              jump\t// in\n            tag_112:\n                /* \"lib0.8/common/SafeMath.sol\":1897:1914  uint256 c = a - b */\n              swap6\n                /* \"lib0.8/common/SafeMath.sol\":1753:1940  function sub(uint256 a, uint256 b, string memory errorMessage) internal pure returns (uint256) {... */\n              swap5\n              pop\n              pop\n              pop\n              pop\n              pop\n              jump\t// out\n                /* \"lib0.8/common/SafeMath.sol\":3720:3992  function div(uint256 a, uint256 b, string memory errorMessage) internal pure returns (uint256) {... */\n            tag_107:\n                /* \"lib0.8/common/SafeMath.sol\":3806:3813  uint256 */\n              0x00\n                /* \"lib0.8/common/SafeMath.sol\":3840:3852  errorMessage */\n              dup2\n                /* \"lib0.8/common/SafeMath.sol\":3833:3838  b > 0 */\n              dup4\n                /* \"lib0.8/common/SafeMath.sol\":3825:3853  require(b > 0, errorMessage) */\n              tag_115\n              jumpi\n              mload(0x40)\n              shl(0xe5, 0x461bcd)\n              dup2\n              mstore\n              tag_76\n              swap2\n              swap1\n              0x04\n              add\n              tag_111\n              jump\t// in\n            tag_115:\n              pop\n                /* \"lib0.8/common/SafeMath.sol\":3863:3872  uint256 c */\n              0x00\n                /* \"lib0.8/common/SafeMath.sol\":3875:3880  a / b */\n              tag_112\n                /* \"lib0.8/common/SafeMath.sol\":3879:3880  b */\n              dup5\n                /* \"lib0.8/common/SafeMath.sol\":3875:3876  a */\n              dup7\n                /* \"lib0.8/common/SafeMath.sol\":3875:3880  a / b */\n              tag_101\n              jump\t// in\n                /* \"#utility.yul\":14:320   */\n            tag_21:\n              0x00\n                /* \"#utility.yul\":126:128   */\n              0x20\n                /* \"#utility.yul\":114:123   */\n              dup3\n                /* \"#utility.yul\":105:112   */\n              dup5\n                /* \"#utility.yul\":101:124   */\n              sub\n                /* \"#utility.yul\":97:129   */\n              slt\n                /* \"#utility.yul\":94:96   */\n              iszero\n              tag_120\n              jumpi\n                /* \"#utility.yul\":147:153   */\n              dup1\n                /* \"#utility.yul\":139:145   */\n              dup2\n                /* \"#utility.yul\":132:154   */\n              revert\n                /* \"#utility.yul\":94:96   */\n            tag_120:\n                /* \"#utility.yul\":178:201   */\n              dup2\n              calldataload\n              sub(shl(0xa0, 0x01), 0x01)\n                /* \"#utility.yul\":230:261   */\n              dup2\n              and\n                /* \"#utility.yul\":220:262   */\n              dup2\n              eq\n                /* \"#utility.yul\":210:212   */\n              tag_75\n              jumpi\n                /* \"#utility.yul\":281:287   */\n              dup2\n                /* \"#utility.yul\":273:279   */\n              dup3\n                /* \"#utility.yul\":266:288   */\n              revert\n                /* \"#utility.yul\":325:622   */\n            tag_92:\n              0x00\n                /* \"#utility.yul\":445:447   */\n              0x20\n                /* \"#utility.yul\":433:442   */\n              dup3\n                /* \"#utility.yul\":424:431   */\n              dup5\n                /* \"#utility.yul\":420:443   */\n              sub\n                /* \"#utility.yul\":416:448   */\n              slt\n                /* \"#utility.yul\":413:415   */\n              iszero\n              tag_123\n              jumpi\n                /* \"#utility.yul\":466:472   */\n              dup1\n                /* \"#utility.yul\":458:464   */\n              dup2\n                /* \"#utility.yul\":451:473   */\n              revert\n                /* \"#utility.yul\":413:415   */\n            tag_123:\n                /* \"#utility.yul\":503:512   */\n              dup2\n                /* \"#utility.yul\":497:513   */\n              mload\n                /* \"#utility.yul\":556:561   */\n              dup1\n                /* \"#utility.yul\":549:562   */\n              iszero\n                /* \"#utility.yul\":542:563   */\n              iszero\n                /* \"#utility.yul\":535:540   */\n              dup2\n                /* \"#utility.yul\":532:564   */\n              eq\n                /* \"#utility.yul\":522:524   */\n              tag_75\n              jumpi\n                /* \"#utility.yul\":583:589   */\n              dup2\n                /* \"#utility.yul\":575:581   */\n              dup3\n                /* \"#utility.yul\":568:590   */\n              revert\n                /* \"#utility.yul\":627:821   */\n            tag_60:\n              0x00\n                /* \"#utility.yul\":750:752   */\n              0x20\n                /* \"#utility.yul\":738:747   */\n              dup3\n                /* \"#utility.yul\":729:736   */\n              dup5\n                /* \"#utility.yul\":725:748   */\n              sub\n                /* \"#utility.yul\":721:753   */\n              slt\n                /* \"#utility.yul\":718:720   */\n              iszero\n              tag_126\n              jumpi\n                /* \"#utility.yul\":771:777   */\n              dup1\n                /* \"#utility.yul\":763:769   */\n              dup2\n                /* \"#utility.yul\":756:778   */\n              revert\n                /* \"#utility.yul\":718:720   */\n            tag_126:\n              pop\n                /* \"#utility.yul\":799:815   */\n              mload\n              swap2\n                /* \"#utility.yul\":708:821   */\n              swap1\n              pop\n              jump\t// out\n                /* \"#utility.yul\":826:1100   */\n            tag_85:\n              0x00\n                /* \"#utility.yul\":993:999   */\n              dup3\n                /* \"#utility.yul\":987:1000   */\n              mload\n                /* \"#utility.yul\":1009:1062   */\n              tag_128\n                /* \"#utility.yul\":1055:1061   */\n              dup2\n                /* \"#utility.yul\":1050:1053   */\n              dup5\n                /* \"#utility.yul\":1043:1047   */\n              0x20\n                /* \"#utility.yul\":1035:1041   */\n              dup8\n                /* \"#utility.yul\":1031:1048   */\n              add\n                /* \"#utility.yul\":1009:1062   */\n              tag_129\n              jump\t// in\n            tag_128:\n                /* \"#utility.yul\":1078:1094   */\n              swap2\n              swap1\n              swap2\n              add\n              swap3\n                /* \"#utility.yul\":963:1100   */\n              swap2\n              pop\n              pop\n              jump\t// out\n                /* \"#utility.yul\":1105:1308   */\n            tag_34:\n              sub(shl(0xa0, 0x01), 0x01)\n                /* \"#utility.yul\":1269:1301   */\n              swap2\n              swap1\n              swap2\n              and\n                /* \"#utility.yul\":1251:1302   */\n              dup2\n              mstore\n                /* \"#utility.yul\":1239:1241   */\n              0x20\n                /* \"#utility.yul\":1224:1242   */\n              add\n              swap1\n                /* \"#utility.yul\":1206:1308   */\n              jump\t// out\n                /* \"#utility.yul\":1313:1587   */\n            tag_83:\n              sub(shl(0xa0, 0x01), 0x01)\n                /* \"#utility.yul\":1505:1537   */\n              swap3\n              swap1\n              swap3\n              and\n                /* \"#utility.yul\":1487:1538   */\n              dup3\n              mstore\n                /* \"#utility.yul\":1569:1571   */\n              0x20\n                /* \"#utility.yul\":1554:1572   */\n              dup3\n              add\n                /* \"#utility.yul\":1547:1581   */\n              mstore\n                /* \"#utility.yul\":1475:1477   */\n              0x40\n                /* \"#utility.yul\":1460:1478   */\n              add\n              swap1\n                /* \"#utility.yul\":1442:1587   */\n              jump\t// out\n                /* \"#utility.yul\":1592:1975   */\n            tag_111:\n              0x00\n                /* \"#utility.yul\":1741:1743   */\n              0x20\n                /* \"#utility.yul\":1730:1739   */\n              dup3\n                /* \"#utility.yul\":1723:1744   */\n              mstore\n                /* \"#utility.yul\":1773:1779   */\n              dup3\n                /* \"#utility.yul\":1767:1780   */\n              mload\n                /* \"#utility.yul\":1816:1822   */\n              dup1\n                /* \"#utility.yul\":1811:1813   */\n              0x20\n                /* \"#utility.yul\":1800:1809   */\n              dup5\n                /* \"#utility.yul\":1796:1814   */\n              add\n                /* \"#utility.yul\":1789:1823   */\n              mstore\n                /* \"#utility.yul\":1832:1898   */\n              tag_133\n                /* \"#utility.yul\":1891:1897   */\n              dup2\n                /* \"#utility.yul\":1886:1888   */\n              0x40\n                /* \"#utility.yul\":1875:1884   */\n              dup6\n                /* \"#utility.yul\":1871:1889   */\n              add\n                /* \"#utility.yul\":1866:1868   */\n              0x20\n                /* \"#utility.yul\":1858:1864   */\n              dup8\n                /* \"#utility.yul\":1854:1869   */\n              add\n                /* \"#utility.yul\":1832:1898   */\n              tag_129\n              jump\t// in\n            tag_133:\n                /* \"#utility.yul\":1959:1961   */\n              0x1f\n                /* \"#utility.yul\":1938:1953   */\n              add\n              not(0x1f)\n                /* \"#utility.yul\":1934:1963   */\n              and\n                /* \"#utility.yul\":1919:1964   */\n              swap2\n              swap1\n              swap2\n              add\n                /* \"#utility.yul\":1966:1968   */\n              0x40\n                /* \"#utility.yul\":1915:1969   */\n              add\n              swap3\n                /* \"#utility.yul\":1713:1975   */\n              swap2\n              pop\n              pop\n              jump\t// out\n                /* \"#utility.yul\":1980:2331   */\n            tag_77:\n                /* \"#utility.yul\":2182:2184   */\n              0x20\n                /* \"#utility.yul\":2164:2185   */\n              dup1\n              dup3\n              mstore\n                /* \"#utility.yul\":2221:2223   */\n              0x1b\n                /* \"#utility.yul\":2201:2219   */\n              swap1\n              dup3\n              add\n                /* \"#utility.yul\":2194:2224   */\n              mstore\n                /* \"#utility.yul\":2260:2289   */\n              0x536166654d6174683a206164646974696f6e206f766572666c6f770000000000\n                /* \"#utility.yul\":2255:2257   */\n              0x40\n                /* \"#utility.yul\":2240:2258   */\n              dup3\n              add\n                /* \"#utility.yul\":2233:2290   */\n              mstore\n                /* \"#utility.yul\":2322:2324   */\n              0x60\n                /* \"#utility.yul\":2307:2325   */\n              add\n              swap1\n                /* \"#utility.yul\":2154:2331   */\n              jump\t// out\n                /* \"#utility.yul\":2336:2733   */\n            tag_104:\n                /* \"#utility.yul\":2538:2540   */\n              0x20\n                /* \"#utility.yul\":2520:2541   */\n              dup1\n              dup3\n              mstore\n                /* \"#utility.yul\":2577:2579   */\n              0x21\n                /* \"#utility.yul\":2557:2575   */\n              swap1\n              dup3\n              add\n                /* \"#utility.yul\":2550:2580   */\n              mstore\n                /* \"#utility.yul\":2616:2650   */\n              0x536166654d6174683a206d756c7469706c69636174696f6e206f766572666c6f\n                /* \"#utility.yul\":2611:2613   */\n              0x40\n                /* \"#utility.yul\":2596:2614   */\n              dup3\n              add\n                /* \"#utility.yul\":2589:2651   */\n              mstore\n              shl(0xf8, 0x77)\n                /* \"#utility.yul\":2682:2684   */\n              0x60\n                /* \"#utility.yul\":2667:2685   */\n              dup3\n              add\n                /* \"#utility.yul\":2660:2691   */\n              mstore\n                /* \"#utility.yul\":2723:2726   */\n              0x80\n                /* \"#utility.yul\":2708:2727   */\n              add\n              swap1\n                /* \"#utility.yul\":2510:2733   */\n              jump\t// out\n                /* \"#utility.yul\":2738:3078   */\n            tag_95:\n                /* \"#utility.yul\":2940:2942   */\n              0x20\n                /* \"#utility.yul\":2922:2943   */\n              dup1\n              dup3\n              mstore\n                /* \"#utility.yul\":2979:2981   */\n              0x10\n                /* \"#utility.yul\":2959:2977   */\n              swap1\n              dup3\n              add\n                /* \"#utility.yul\":2952:2982   */\n              mstore\n              shl(0x82, 0x085514905394d1915497d19052531151)\n                /* \"#utility.yul\":3013:3015   */\n              0x40\n                /* \"#utility.yul\":2998:3016   */\n              dup3\n              add\n                /* \"#utility.yul\":2991:3037   */\n              mstore\n                /* \"#utility.yul\":3069:3071   */\n              0x60\n                /* \"#utility.yul\":3054:3072   */\n              add\n              swap1\n                /* \"#utility.yul\":2912:3078   */\n              jump\t// out\n                /* \"#utility.yul\":3083:3260   */\n            tag_15:\n                /* \"#utility.yul\":3229:3254   */\n              swap1\n              dup2\n              mstore\n                /* \"#utility.yul\":3217:3219   */\n              0x20\n                /* \"#utility.yul\":3202:3220   */\n              add\n              swap1\n                /* \"#utility.yul\":3184:3260   */\n              jump\t// out\n                /* \"#utility.yul\":3265:3393   */\n            tag_74:\n              0x00\n                /* \"#utility.yul\":3336:3337   */\n              dup3\n                /* \"#utility.yul\":3332:3338   */\n              not\n                /* \"#utility.yul\":3329:3330   */\n              dup3\n                /* \"#utility.yul\":3326:3339   */\n              gt\n                /* \"#utility.yul\":3323:3325   */\n              iszero\n              tag_140\n              jumpi\n                /* \"#utility.yul\":3342:3360   */\n              tag_140\n              tag_141\n              jump\t// in\n            tag_140:\n              pop\n                /* \"#utility.yul\":3378:3387   */\n              add\n              swap1\n                /* \"#utility.yul\":3313:3393   */\n              jump\t// out\n                /* \"#utility.yul\":3398:3615   */\n            tag_101:\n              0x00\n                /* \"#utility.yul\":3464:3465   */\n              dup3\n                /* \"#utility.yul\":3454:3456   */\n              tag_143\n              jumpi\n              shl(0xe0, 0x4e487b71)\n                /* \"#utility.yul\":3489:3520   */\n              dup2\n              mstore\n                /* \"#utility.yul\":3543:3547   */\n              0x12\n                /* \"#utility.yul\":3540:3541   */\n              0x04\n                /* \"#utility.yul\":3533:3548   */\n              mstore\n                /* \"#utility.yul\":3571:3575   */\n              0x24\n                /* \"#utility.yul\":3489:3520   */\n              dup2\n                /* \"#utility.yul\":3561:3576   */\n              revert\n                /* \"#utility.yul\":3454:3456   */\n            tag_143:\n              pop\n                /* \"#utility.yul\":3600:3609   */\n              div\n              swap1\n                /* \"#utility.yul\":3444:3615   */\n              jump\t// out\n                /* \"#utility.yul\":3620:3788   */\n            tag_99:\n              0x00\n                /* \"#utility.yul\":3726:3727   */\n              dup2\n                /* \"#utility.yul\":3722:3723   */\n              0x00\n                /* \"#utility.yul\":3718:3724   */\n              not\n                /* \"#utility.yul\":3714:3728   */\n              div\n                /* \"#utility.yul\":3711:3712   */\n              dup4\n                /* \"#utility.yul\":3708:3729   */\n              gt\n                /* \"#utility.yul\":3703:3704   */\n              dup3\n                /* \"#utility.yul\":3696:3705   */\n              iszero\n                /* \"#utility.yul\":3689:3706   */\n              iszero\n                /* \"#utility.yul\":3685:3730   */\n              and\n                /* \"#utility.yul\":3682:3684   */\n              iszero\n              tag_146\n              jumpi\n                /* \"#utility.yul\":3733:3751   */\n              tag_146\n              tag_141\n              jump\t// in\n            tag_146:\n              pop\n                /* \"#utility.yul\":3773:3782   */\n              mul\n              swap1\n                /* \"#utility.yul\":3672:3788   */\n              jump\t// out\n                /* \"#utility.yul\":3793:3918   */\n            tag_113:\n              0x00\n                /* \"#utility.yul\":3861:3862   */\n              dup3\n                /* \"#utility.yul\":3858:3859   */\n              dup3\n                /* \"#utility.yul\":3855:3863   */\n              lt\n                /* \"#utility.yul\":3852:3854   */\n              iszero\n              tag_149\n              jumpi\n                /* \"#utility.yul\":3866:3884   */\n              tag_149\n              tag_141\n              jump\t// in\n            tag_149:\n              pop\n                /* \"#utility.yul\":3903:3912   */\n              sub\n              swap1\n                /* \"#utility.yul\":3842:3918   */\n              jump\t// out\n                /* \"#utility.yul\":3923:4181   */\n            tag_129:\n                /* \"#utility.yul\":3995:3996   */\n              0x00\n                /* \"#utility.yul\":4005:4118   */\n            tag_151:\n                /* \"#utility.yul\":4019:4025   */\n              dup4\n                /* \"#utility.yul\":4016:4017   */\n              dup2\n                /* \"#utility.yul\":4013:4026   */\n              lt\n                /* \"#utility.yul\":4005:4118   */\n              iszero\n              tag_153\n              jumpi\n                /* \"#utility.yul\":4095:4106   */\n              dup2\n              dup2\n              add\n                /* \"#utility.yul\":4089:4107   */\n              mload\n                /* \"#utility.yul\":4076:4087   */\n              dup4\n              dup3\n              add\n                /* \"#utility.yul\":4069:4108   */\n              mstore\n                /* \"#utility.yul\":4041:4043   */\n              0x20\n                /* \"#utility.yul\":4034:4044   */\n              add\n                /* \"#utility.yul\":4005:4118   */\n              jump(tag_151)\n            tag_153:\n                /* \"#utility.yul\":4136:4142   */\n              dup4\n                /* \"#utility.yul\":4133:4134   */\n              dup2\n                /* \"#utility.yul\":4130:4143   */\n              gt\n                /* \"#utility.yul\":4127:4129   */\n              iszero\n              tag_154\n              jumpi\n                /* \"#utility.yul\":4171:4172   */\n              0x00\n                /* \"#utility.yul\":4162:4168   */\n              dup5\n                /* \"#utility.yul\":4157:4160   */\n              dup5\n                /* \"#utility.yul\":4153:4169   */\n              add\n                /* \"#utility.yul\":4146:4173   */\n              mstore\n                /* \"#utility.yul\":4127:4129   */\n            tag_154:\n              pop\n                /* \"#utility.yul\":3976:4181   */\n              pop\n              pop\n              pop\n              jump\t// out\n                /* \"#utility.yul\":4186:4313   */\n            tag_141:\n                /* \"#utility.yul\":4247:4257   */\n              0x4e487b71\n                /* \"#utility.yul\":4242:4245   */\n              0xe0\n                /* \"#utility.yul\":4238:4258   */\n              shl\n                /* \"#utility.yul\":4235:4236   */\n              0x00\n                /* \"#utility.yul\":4228:4259   */\n              mstore\n                /* \"#utility.yul\":4278:4282   */\n              0x11\n                /* \"#utility.yul\":4275:4276   */\n              0x04\n                /* \"#utility.yul\":4268:4283   */\n              mstore\n                /* \"#utility.yul\":4302:4306   */\n              0x24\n                /* \"#utility.yul\":4299:4300   */\n              0x00\n                /* \"#utility.yul\":4292:4307   */\n              revert\n\n            auxdata: 0xa26469706673582212203d72a5bcf0bafed2c64a8770028ca0ce8f23e49c1f6a9d79e1f9b0ec3436d8e764736f6c63430008000033\n        }\n    }\n\n    auxdata: 0xa2646970667358221220613fd641469e06f5032358b3958cba28c952bae3e75da247cbbd18cc243a23d164736f6c63430008000033\n}\n",
				"bytecode": {
					"linkReferences": {},
					"object": "608060405234801561001057600080fd5b50612482806100206000396000f3fe60806040523480156200001157600080fd5b5060043610620001545760003560e01c806372d1c9fe11620000c9578063983b2d561162000087578063983b2d5614620002a05780639dc29fac14620002b7578063a457c2d714620002ce578063a9059cbb14620002e5578063dd62ed3e14620002fc578063f2fde38b14620003135762000154565b806372d1c9fe14620002545780638da5cb5b146200026b5780638f15b414146200027557806395d89b41146200028c578063964bca5f14620002965762000154565b8063313ce5671162000117578063313ce56714620001f757806339509351146200021057806364210fa9146200022757806370a082311462000231578063715018a614620002485762000154565b806306fdde031462000159578063095ea7b3146200017b57806318160ddd14620001a157806323b872dd14620001ba5780632a29ad1414620001d1575b600080fd5b620001636200032a565b60405162000172919062001639565b60405180910390f35b620001926200018c36600462001522565b620003c4565b6040516200017291906200162e565b620001ab620003e5565b60405162000172919062001959565b62000192620001cb366004620014a4565b620003eb565b620001e8620001e2366004620015db565b6200047d565b604051620001729190620015f4565b62000201620004a8565b60405162000172919062001962565b620001926200022136600462001522565b620004b1565b620001e862000506565b620001ab6200024236600462001450565b62000515565b6200025262000534565b005b6200025262000265366004620014e4565b620005c1565b620001e862000626565b62000252620002863660046200154e565b62000635565b6200016362000838565b620001e862000849565b62000252620002b136600462001450565b62000858565b62000252620002c836600462001522565b620008e4565b62000192620002df36600462001522565b62000995565b62000192620002f636600462001522565b62000a05565b620001ab6200030d3660046200146d565b62000a1d565b620002526200032436600462001450565b62000a48565b6060609a80546200033b90620019a5565b80601f01602080910402602001604051908101604052809291908181526020018280546200036990620019a5565b8015620003ba5780601f106200038e57610100808354040283529160200191620003ba565b820191906000526020600020905b8154815290600101906020018083116200039c57829003601f168201915b5050505050905090565b6000620003dc620003d462000b07565b848462000b0b565b50600192915050565b60995490565b6000620003fa84848462000bc7565b62000473846200040962000b07565b6200046d8560405180606001604052806028815260200162002400602891396001600160a01b038a166000908152609860205260408120906200044b62000b07565b6001600160a01b03168152602081019190915260400160002054919062000ceb565b62000b0b565b5060019392505050565b60ca81815481106200048e57600080fd5b6000918252602090912001546001600160a01b0316905081565b609c5460ff1690565b6000620003dc620004c162000b07565b846200046d8560986000620004d562000b07565b6001600160a01b03908116825260208083019390935260409182016000908120918c16815292529020549062000d2a565b60cb546001600160a01b031681565b6001600160a01b0381166000908152609760205260409020545b919050565b6200053e62000b07565b6065546001600160a01b03908116911614620005775760405162461bcd60e51b81526004016200056e9062001791565b60405180910390fd5b6065546040516000916001600160a01b0316907f8be0079c531659141344cd1fd0a4f28419497f9722a3daafe3b4186f6b6457e0908390a3606580546001600160a01b0319169055565b620005cb62000b07565b6065546001600160a01b03908116911614620005fb5760405162461bcd60e51b81526004016200056e9062001791565b6001600160a01b03919091166000908152609d60205260409020805460ff1916911515919091179055565b6065546001600160a01b031690565b600054610100900460ff16806200065157506200065162000d65565b8062000660575060005460ff16155b6200067f5760405162461bcd60e51b81526004016200056e90620017c6565b600054610100900460ff16158015620006ab576000805460ff1961ff0019909116610100171660011790555b620006b562000d6b565b620006c1858562000e0b565b334262278d0063018b8200604051620006da90620012fb565b620006e9949392919062001608565b604051809103906000f08015801562000706573d6000803e3d6000fd5b5060cc60006101000a8154816001600160a01b0302191690836001600160a01b03160217905550334262278d0062c5c1006040516200074590620012fb565b62000754949392919062001608565b604051809103906000f08015801562000771573d6000803e3d6000fd5b5060cb80546001600160a01b0319166001600160a01b0392909216919091179055620007a9336a52b7d2dcc80cd2e400000062000eae565b620007c1836b024306c4097859c43c00000062000eae565b620007d8826a52b7d2dcc80cd2e400000062000eae565b60cc54620007fb906001600160a01b03166a295be96e6406697200000062000eae565b60cb546200081e906001600160a01b03166a295be96e6406697200000062000eae565b801562000831576000805461ff00191690555b5050505050565b6060609b80546200033b90620019a5565b60cc546001600160a01b031681565b6200086262000b07565b6065546001600160a01b03908116911614620008925760405162461bcd60e51b81526004016200056e9062001791565b60ca80546001810182556000919091527f42d72674974f694b5f5159593243114d38a5c39c89d6b62fee061ff523240ee10180546001600160a01b0319166001600160a01b0392909216919091179055565b6000805b60ca548110156200096357620008fd62000b07565b6001600160a01b031660ca82815481106200092857634e487b7160e01b600052603260045260246000fd5b6000918252602090912001546001600160a01b031614156200094e576001915062000963565b806200095a81620019e2565b915050620008e8565b5080620009845760405162461bcd60e51b81526004016200056e9062001814565b62000990838362000f79565b505050565b6000620003dc620009a562000b07565b846200046d85604051806060016040528060258152602001620024286025913960986000620009d362000b07565b6001600160a01b03908116825260208083019390935260409182016000908120918d1681529252902054919062000ceb565b6000620003dc62000a1562000b07565b848462000bc7565b6001600160a01b03918216600090815260986020908152604080832093909416825291909152205490565b62000a5262000b07565b6065546001600160a01b0390811691161462000a825760405162461bcd60e51b81526004016200056e9062001791565b6001600160a01b03811662000aab5760405162461bcd60e51b81526004016200056e90620016d2565b6065546040516001600160a01b038084169216907f8be0079c531659141344cd1fd0a4f28419497f9722a3daafe3b4186f6b6457e090600090a3606580546001600160a01b0319166001600160a01b0392909216919091179055565b3390565b6001600160a01b03831662000b345760405162461bcd60e51b81526004016200056e90620018de565b6001600160a01b03821662000b5d5760405162461bcd60e51b81526004016200056e9062001718565b6001600160a01b0380841660008181526098602090815260408083209487168084529490915290819020849055517f8c5be1e5ebec7d5bd14f71427d1e84f3dd0314c0f7b2291e5b200ac8c7c3b9259062000bba90859062001959565b60405180910390a3505050565b6001600160a01b03831662000bf05760405162461bcd60e51b81526004016200056e9062001899565b6001600160a01b03821662000c195760405162461bcd60e51b81526004016200056e906200168f565b62000c268383836200105b565b62000c6681604051806060016040528060268152602001620023da602691396001600160a01b038616600090815260976020526040902054919062000ceb565b6001600160a01b03808516600090815260976020526040808220939093559084168152205462000c97908262000d2a565b6001600160a01b0380841660008181526097602052604090819020939093559151908516907fddf252ad1be2c89b69c2b068fc378daa952ba7f163c4a11628f55a4df523b3ef9062000bba90859062001959565b6000818484111562000d125760405162461bcd60e51b81526004016200056e919062001639565b50600062000d2184866200198b565b95945050505050565b60008062000d39838562001970565b90508381101562000d5e5760405162461bcd60e51b81526004016200056e906200175a565b9392505050565b303b1590565b600054610100900460ff168062000d87575062000d8762000d65565b8062000d96575060005460ff16155b62000db55760405162461bcd60e51b81526004016200056e90620017c6565b600054610100900460ff1615801562000de1576000805460ff1961ff0019909116610100171660011790555b62000deb62001082565b62000df56200110c565b801562000e08576000805461ff00191690555b50565b600054610100900460ff168062000e27575062000e2762000d65565b8062000e36575060005460ff16155b62000e555760405162461bcd60e51b81526004016200056e90620017c6565b600054610100900460ff1615801562000e81576000805460ff1961ff0019909116610100171660011790555b62000e8b62001082565b62000e978383620011f1565b801562000990576000805461ff0019169055505050565b6001600160a01b03821662000ed75760405162461bcd60e51b81526004016200056e9062001922565b62000ee5600083836200105b565b60995462000ef4908262000d2a565b6099556001600160a01b03821660009081526097602052604090205462000f1c908262000d2a565b6001600160a01b0383166000818152609760205260408082209390935591519091907fddf252ad1be2c89b69c2b068fc378daa952ba7f163c4a11628f55a4df523b3ef9062000f6d90859062001959565b60405180910390a35050565b6001600160a01b03821662000fa25760405162461bcd60e51b81526004016200056e9062001858565b62000fb0826000836200105b565b62000ff081604051806060016040528060228152602001620023b8602291396001600160a01b038516600090815260976020526040902054919062000ceb565b6001600160a01b038316600090815260976020526040902055609954620010189082620012b7565b6099556040516000906001600160a01b038416907fddf252ad1be2c89b69c2b068fc378daa952ba7f163c4a11628f55a4df523b3ef9062000f6d90859062001959565b6001600160a01b0383166000908152609d602052604090205460ff16156200099057600080fd5b600054610100900460ff16806200109e57506200109e62000d65565b80620010ad575060005460ff16155b620010cc5760405162461bcd60e51b81526004016200056e90620017c6565b600054610100900460ff1615801562000df5576000805460ff1961ff001990911661010017166001179055801562000e08576000805461ff001916905550565b600054610100900460ff16806200112857506200112862000d65565b8062001137575060005460ff16155b620011565760405162461bcd60e51b81526004016200056e90620017c6565b600054610100900460ff1615801562001182576000805460ff1961ff0019909116610100171660011790555b60006200118e62000b07565b606580546001600160a01b0319166001600160a01b038316908117909155604051919250906000907f8be0079c531659141344cd1fd0a4f28419497f9722a3daafe3b4186f6b6457e0908290a350801562000e08576000805461ff001916905550565b600054610100900460ff16806200120d57506200120d62000d65565b806200121c575060005460ff16155b6200123b5760405162461bcd60e51b81526004016200056e90620017c6565b600054610100900460ff1615801562001267576000805460ff1961ff0019909116610100171660011790555b82516200127c90609a90602086019062001309565b5081516200129290609b90602085019062001309565b50609c805460ff19166012179055801562000990576000805461ff0019169055505050565b600062000d5e83836040518060400160405280601e81526020017f536166654d6174683a207375627472616374696f6e206f766572666c6f77000081525062000ceb565b61098b8062001a2d83390190565b8280546200131790620019a5565b90600052602060002090601f0160209004810192826200133b576000855562001386565b82601f106200135657805160ff191683800117855562001386565b8280016001018555821562001386579182015b828111156200138657825182559160200191906001019062001369565b506200139492915062001398565b5090565b5b8082111562001394576000815560010162001399565b80356001600160a01b03811681146200052f57600080fd5b600082601f830112620013d8578081fd5b813567ffffffffffffffff80821115620013f657620013f662001a16565b604051601f8301601f1916810160200182811182821017156200141d576200141d62001a16565b60405282815284830160200186101562001435578384fd5b82602086016020830137918201602001929092529392505050565b60006020828403121562001462578081fd5b62000d5e82620013af565b6000806040838503121562001480578081fd5b6200148b83620013af565b91506200149b60208401620013af565b90509250929050565b600080600060608486031215620014b9578081fd5b620014c484620013af565b9250620014d460208501620013af565b9150604084013590509250925092565b60008060408385031215620014f7578182fd5b6200150283620013af565b91506020830135801515811462001517578182fd5b809150509250929050565b6000806040838503121562001535578182fd5b6200154083620013af565b946020939093013593505050565b6000806000806080858703121562001564578081fd5b843567ffffffffffffffff808211156200157c578283fd5b6200158a88838901620013c7565b95506020870135915080821115620015a0578283fd5b50620015af87828801620013c7565b935050620015c060408601620013af565b9150620015d060608601620013af565b905092959194509250565b600060208284031215620015ed578081fd5b5035919050565b6001600160a01b0391909116815260200190565b6001600160a01b0394909416845260208401929092526040830152606082015260800190565b901515815260200190565b6000602080835283518082850152825b81811015620016675785810183015185820160400152820162001649565b81811115620016795783604083870101525b50601f01601f1916929092016040019392505050565b60208082526023908201527f45524332303a207472616e7366657220746f20746865207a65726f206164647260408201526265737360e81b606082015260800190565b60208082526026908201527f4f776e61626c653a206e6577206f776e657220697320746865207a65726f206160408201526564647265737360d01b606082015260800190565b60208082526022908201527f45524332303a20617070726f766520746f20746865207a65726f206164647265604082015261737360f01b606082015260800190565b6020808252601b908201527f536166654d6174683a206164646974696f6e206f766572666c6f770000000000604082015260600190565b6020808252818101527f4f776e61626c653a2063616c6c6572206973206e6f7420746865206f776e6572604082015260600190565b6020808252602e908201527f436f6e747261637420696e7374616e63652068617320616c726561647920626560408201526d195b881a5b9a5d1a585b1a5e995960921b606082015260800190565b60208082526024908201527f2149734d696e7465723a2063616c6c6572206973206e6f742066726f6d206d69604082015263373a32b960e11b606082015260800190565b60208082526021908201527f45524332303a206275726e2066726f6d20746865207a65726f206164647265736040820152607360f81b606082015260800190565b60208082526025908201527f45524332303a207472616e736665722066726f6d20746865207a65726f206164604082015264647265737360d81b606082015260800190565b60208082526024908201527f45524332303a20617070726f76652066726f6d20746865207a65726f206164646040820152637265737360e01b606082015260800190565b6020808252601f908201527f45524332303a206d696e7420746f20746865207a65726f206164647265737300604082015260600190565b90815260200190565b60ff91909116815260200190565b6000821982111562001986576200198662001a00565b500190565b600082821015620019a057620019a062001a00565b500390565b600281046001821680620019ba57607f821691505b60208210811415620019dc57634e487b7160e01b600052602260045260246000fd5b50919050565b6000600019821415620019f957620019f962001a00565b5060010190565b634e487b7160e01b600052601160045260246000fd5b634e487b7160e01b600052604160045260246000fdfe608060405234801561001057600080fd5b5060405161098b38038061098b83398101604081905261002f916100d1565b6001600160a01b03841661004257600080fd5b8082111561004f57600080fd5b600080546001600160a01b0319166001600160a01b03861617905560038190556100848383610092602090811b61033817901c565b600155505060025550610175565b60008061009f8385610151565b9050838110156100ca5760405162461bcd60e51b81526004016100c19061011a565b60405180910390fd5b9392505050565b600080600080608085870312156100e6578384fd5b84516001600160a01b03811681146100fc578485fd5b60208601516040870151606090970151919890975090945092505050565b6020808252601b908201527f536166654d6174683a206164646974696f6e206f766572666c6f770000000000604082015260600190565b6000821982111561017057634e487b7160e01b81526011600452602481fd5b500190565b610807806101846000396000f3fe608060405234801561001057600080fd5b50600436106100885760003560e01c8063384711cc1161005b578063384711cc146100db57806338af3eed146100ee5780639852595c14610103578063be9a65551461011657610088565b80630fb5a6b41461008d57806313d033c0146100ab5780631726cbc8146100b357806319165587146100c6575b600080fd5b61009561011e565b6040516100a29190610714565b60405180910390f35b610095610124565b6100956100c1366004610597565b61012a565b6100d96100d4366004610597565b61015e565b005b6100956100e9366004610597565b610201565b6100f6610311565b6040516100a29190610612565b610095610111366004610597565b610320565b610095610332565b60035481565b60015481565b6001600160a01b0381166000908152600460205260408120546101569061015084610201565b90610379565b90505b919050565b60006101698261012a565b90506000811161017857600080fd5b6001600160a01b03821660009081526004602052604090205461019b9082610338565b6001600160a01b0380841660008181526004602052604081209390935591546101c6929116836103bb565b7ffb81f9b30d73d830c3544b34d827c08142579ee75710b490bab0b3995468c565816040516101f59190610714565b60405180910390a15050565b600080826001600160a01b03166370a08231306040518263ffffffff1660e01b81526004016102309190610612565b60206040518083038186803b15801561024857600080fd5b505afa15801561025c573d6000803e3d6000fd5b505050506040513d601f19601f8201168201806040525081019061028091906105de565b6001600160a01b038416600090815260046020526040812054919250906102a8908390610338565b90506001544210156102bf57600092505050610159565b6003546002546102ce91610338565b42106102dd5791506101599050565b6103086003546103026102fb6002544261037990919063ffffffff16565b84906104a8565b906104ed565b92505050610159565b6000546001600160a01b031681565b60046020526000908152604090205481565b60025481565b600080610345838561071d565b9050838110156103705760405162461bcd60e51b815260040161036790610672565b60405180910390fd5b90505b92915050565b600061037083836040518060400160405280601e81526020017f536166654d6174683a207375627472616374696f6e206f766572666c6f77000081525061052f565b600080846001600160a01b031663a9059cbb85856040516024016103e0929190610626565b6040516020818303038152906040529060e01b6020820180516001600160e01b03838183161783525050505060405161041991906105f6565b6000604051808303816000865af19150503d8060008114610456576040519150601f19603f3d011682016040523d82523d6000602084013e61045b565b606091505b509150915081801561048557508051158061048557508080602001905181019061048591906105be565b6104a15760405162461bcd60e51b8152600401610367906106ea565b5050505050565b6000826104b757506000610373565b60006104c38385610755565b9050826104d08583610735565b146103705760405162461bcd60e51b8152600401610367906106a9565b600061037083836040518060400160405280601a81526020017f536166654d6174683a206469766973696f6e206279207a65726f000000000000815250610569565b600081848411156105535760405162461bcd60e51b8152600401610367919061063f565b5060006105608486610774565b95945050505050565b6000818361058a5760405162461bcd60e51b8152600401610367919061063f565b5060006105608486610735565b6000602082840312156105a8578081fd5b81356001600160a01b0381168114610370578182fd5b6000602082840312156105cf578081fd5b81518015158114610370578182fd5b6000602082840312156105ef578081fd5b5051919050565b6000825161060881846020870161078b565b9190910192915050565b6001600160a01b0391909116815260200190565b6001600160a01b03929092168252602082015260400190565b600060208252825180602084015261065e81604085016020870161078b565b601f01601f19169190910160400192915050565b6020808252601b908201527f536166654d6174683a206164646974696f6e206f766572666c6f770000000000604082015260600190565b60208082526021908201527f536166654d6174683a206d756c7469706c69636174696f6e206f766572666c6f6040820152607760f81b606082015260800190565b60208082526010908201526f085514905394d1915497d1905253115160821b604082015260600190565b90815260200190565b60008219821115610730576107306107bb565b500190565b60008261075057634e487b7160e01b81526012600452602481fd5b500490565b600081600019048311821515161561076f5761076f6107bb565b500290565b600082821015610786576107866107bb565b500390565b60005b838110156107a657818101518382015260200161078e565b838111156107b5576000848401525b50505050565b634e487b7160e01b600052601160045260246000fdfea26469706673582212203d72a5bcf0bafed2c64a8770028ca0ce8f23e49c1f6a9d79e1f9b0ec3436d8e764736f6c6343000800003345524332303a206275726e20616d6f756e7420657863656564732062616c616e636545524332303a207472616e7366657220616d6f756e7420657863656564732062616c616e636545524332303a207472616e7366657220616d6f756e74206578636565647320616c6c6f77616e636545524332303a2064656372656173656420616c6c6f77616e63652062656c6f77207a65726fa2646970667358221220613fd641469e06f5032358b3958cba28c952bae3e75da247cbbd18cc243a23d164736f6c63430008000033",
					"opcodes": "PUSH1 0x80 PUSH1 0x40 MSTORE CALLVALUE DUP1 ISZERO PUSH2 0x10 JUMPI PUSH1 0x0 DUP1 REVERT JUMPDEST POP PUSH2 0x2482 DUP1 PUSH2 0x20 PUSH1 0x0 CODECOPY PUSH1 0x0 RETURN INVALID PUSH1 0x80 PUSH1 0x40 MSTORE CALLVALUE DUP1 ISZERO PUSH3 0x11 JUMPI PUSH1 0x0 DUP1 REVERT JUMPDEST POP PUSH1 0x4 CALLDATASIZE LT PUSH3 0x154 JUMPI PUSH1 0x0 CALLDATALOAD PUSH1 0xE0 SHR DUP1 PUSH4 0x72D1C9FE GT PUSH3 0xC9 JUMPI DUP1 PUSH4 0x983B2D56 GT PUSH3 0x87 JUMPI DUP1 PUSH4 0x983B2D56 EQ PUSH3 0x2A0 JUMPI DUP1 PUSH4 0x9DC29FAC EQ PUSH3 0x2B7 JUMPI DUP1 PUSH4 0xA457C2D7 EQ PUSH3 0x2CE JUMPI DUP1 PUSH4 0xA9059CBB EQ PUSH3 0x2E5 JUMPI DUP1 PUSH4 0xDD62ED3E EQ PUSH3 0x2FC JUMPI DUP1 PUSH4 0xF2FDE38B EQ PUSH3 0x313 JUMPI PUSH3 0x154 JUMP JUMPDEST DUP1 PUSH4 0x72D1C9FE EQ PUSH3 0x254 JUMPI DUP1 PUSH4 0x8DA5CB5B EQ PUSH3 0x26B JUMPI DUP1 PUSH4 0x8F15B414 EQ PUSH3 0x275 JUMPI DUP1 PUSH4 0x95D89B41 EQ PUSH3 0x28C JUMPI DUP1 PUSH4 0x964BCA5F EQ PUSH3 0x296 JUMPI PUSH3 0x154 JUMP JUMPDEST DUP1 PUSH4 0x313CE567 GT PUSH3 0x117 JUMPI DUP1 PUSH4 0x313CE567 EQ PUSH3 0x1F7 JUMPI DUP1 PUSH4 0x39509351 EQ PUSH3 0x210 JUMPI DUP1 PUSH4 0x64210FA9 EQ PUSH3 0x227 JUMPI DUP1 PUSH4 0x70A08231 EQ PUSH3 0x231 JUMPI DUP1 PUSH4 0x715018A6 EQ PUSH3 0x248 JUMPI PUSH3 0x154 JUMP JUMPDEST DUP1 PUSH4 0x6FDDE03 EQ PUSH3 0x159 JUMPI DUP1 PUSH4 0x95EA7B3 EQ PUSH3 0x17B JUMPI DUP1 PUSH4 0x18160DDD EQ PUSH3 0x1A1 JUMPI DUP1 PUSH4 0x23B872DD EQ PUSH3 0x1BA JUMPI DUP1 PUSH4 0x2A29AD14 EQ PUSH3 0x1D1 JUMPI JUMPDEST PUSH1 0x0 DUP1 REVERT JUMPDEST PUSH3 0x163 PUSH3 0x32A JUMP JUMPDEST PUSH1 0x40 MLOAD PUSH3 0x172 SWAP2 SWAP1 PUSH3 0x1639 JUMP JUMPDEST PUSH1 0x40 MLOAD DUP1 SWAP2 SUB SWAP1 RETURN JUMPDEST PUSH3 0x192 PUSH3 0x18C CALLDATASIZE PUSH1 0x4 PUSH3 0x1522 JUMP JUMPDEST PUSH3 0x3C4 JUMP JUMPDEST PUSH1 0x40 MLOAD PUSH3 0x172 SWAP2 SWAP1 PUSH3 0x162E JUMP JUMPDEST PUSH3 0x1AB PUSH3 0x3E5 JUMP JUMPDEST PUSH1 0x40 MLOAD PUSH3 0x172 SWAP2 SWAP1 PUSH3 0x1959 JUMP JUMPDEST PUSH3 0x192 PUSH3 0x1CB CALLDATASIZE PUSH1 0x4 PUSH3 0x14A4 JUMP JUMPDEST PUSH3 0x3EB JUMP JUMPDEST PUSH3 0x1E8 PUSH3 0x1E2 CALLDATASIZE PUSH1 0x4 PUSH3 0x15DB JUMP JUMPDEST PUSH3 0x47D JUMP JUMPDEST PUSH1 0x40 MLOAD PUSH3 0x172 SWAP2 SWAP1 PUSH3 0x15F4 JUMP JUMPDEST PUSH3 0x201 PUSH3 0x4A8 JUMP JUMPDEST PUSH1 0x40 MLOAD PUSH3 0x172 SWAP2 SWAP1 PUSH3 0x1962 JUMP JUMPDEST PUSH3 0x192 PUSH3 0x221 CALLDATASIZE PUSH1 0x4 PUSH3 0x1522 JUMP JUMPDEST PUSH3 0x4B1 JUMP JUMPDEST PUSH3 0x1E8 PUSH3 0x506 JUMP JUMPDEST PUSH3 0x1AB PUSH3 0x242 CALLDATASIZE PUSH1 0x4 PUSH3 0x1450 JUMP JUMPDEST PUSH3 0x515 JUMP JUMPDEST PUSH3 0x252 PUSH3 0x534 JUMP JUMPDEST STOP JUMPDEST PUSH3 0x252 PUSH3 0x265 CALLDATASIZE PUSH1 0x4 PUSH3 0x14E4 JUMP JUMPDEST PUSH3 0x5C1 JUMP JUMPDEST PUSH3 0x1E8 PUSH3 0x626 JUMP JUMPDEST PUSH3 0x252 PUSH3 0x286 CALLDATASIZE PUSH1 0x4 PUSH3 0x154E JUMP JUMPDEST PUSH3 0x635 JUMP JUMPDEST PUSH3 0x163 PUSH3 0x838 JUMP JUMPDEST PUSH3 0x1E8 PUSH3 0x849 JUMP JUMPDEST PUSH3 0x252 PUSH3 0x2B1 CALLDATASIZE PUSH1 0x4 PUSH3 0x1450 JUMP JUMPDEST PUSH3 0x858 JUMP JUMPDEST PUSH3 0x252 PUSH3 0x2C8 CALLDATASIZE PUSH1 0x4 PUSH3 0x1522 JUMP JUMPDEST PUSH3 0x8E4 JUMP JUMPDEST PUSH3 0x192 PUSH3 0x2DF CALLDATASIZE PUSH1 0x4 PUSH3 0x1522 JUMP JUMPDEST PUSH3 0x995 JUMP JUMPDEST PUSH3 0x192 PUSH3 0x2F6 CALLDATASIZE PUSH1 0x4 PUSH3 0x1522 JUMP JUMPDEST PUSH3 0xA05 JUMP JUMPDEST PUSH3 0x1AB PUSH3 0x30D CALLDATASIZE PUSH1 0x4 PUSH3 0x146D JUMP JUMPDEST PUSH3 0xA1D JUMP JUMPDEST PUSH3 0x252 PUSH3 0x324 CALLDATASIZE PUSH1 0x4 PUSH3 0x1450 JUMP JUMPDEST PUSH3 0xA48 JUMP JUMPDEST PUSH1 0x60 PUSH1 0x9A DUP1 SLOAD PUSH3 0x33B SWAP1 PUSH3 0x19A5 JUMP JUMPDEST DUP1 PUSH1 0x1F ADD PUSH1 0x20 DUP1 SWAP2 DIV MUL PUSH1 0x20 ADD PUSH1 0x40 MLOAD SWAP1 DUP2 ADD PUSH1 0x40 MSTORE DUP1 SWAP3 SWAP2 SWAP1 DUP2 DUP2 MSTORE PUSH1 0x20 ADD DUP3 DUP1 SLOAD PUSH3 0x369 SWAP1 PUSH3 0x19A5 JUMP JUMPDEST DUP1 ISZERO PUSH3 0x3BA JUMPI DUP1 PUSH1 0x1F LT PUSH3 0x38E JUMPI PUSH2 0x100 DUP1 DUP4 SLOAD DIV MUL DUP4 MSTORE SWAP2 PUSH1 0x20 ADD SWAP2 PUSH3 0x3BA JUMP JUMPDEST DUP3 ADD SWAP2 SWAP1 PUSH1 0x0 MSTORE PUSH1 0x20 PUSH1 0x0 KECCAK256 SWAP1 JUMPDEST DUP2 SLOAD DUP2 MSTORE SWAP1 PUSH1 0x1 ADD SWAP1 PUSH1 0x20 ADD DUP1 DUP4 GT PUSH3 0x39C JUMPI DUP3 SWAP1 SUB PUSH1 0x1F AND DUP3 ADD SWAP2 JUMPDEST POP POP POP POP POP SWAP1 POP SWAP1 JUMP JUMPDEST PUSH1 0x0 PUSH3 0x3DC PUSH3 0x3D4 PUSH3 0xB07 JUMP JUMPDEST DUP5 DUP5 PUSH3 0xB0B JUMP JUMPDEST POP PUSH1 0x1 SWAP3 SWAP2 POP POP JUMP JUMPDEST PUSH1 0x99 SLOAD SWAP1 JUMP JUMPDEST PUSH1 0x0 PUSH3 0x3FA DUP5 DUP5 DUP5 PUSH3 0xBC7 JUMP JUMPDEST PUSH3 0x473 DUP5 PUSH3 0x409 PUSH3 0xB07 JUMP JUMPDEST PUSH3 0x46D DUP6 PUSH1 0x40 MLOAD DUP1 PUSH1 0x60 ADD PUSH1 0x40 MSTORE DUP1 PUSH1 0x28 DUP2 MSTORE PUSH1 0x20 ADD PUSH3 0x2400 PUSH1 0x28 SWAP2 CODECOPY PUSH1 0x1 PUSH1 0x1 PUSH1 0xA0 SHL SUB DUP11 AND PUSH1 0x0 SWAP1 DUP2 MSTORE PUSH1 0x98 PUSH1 0x20 MSTORE PUSH1 0x40 DUP2 KECCAK256 SWAP1 PUSH3 0x44B PUSH3 0xB07 JUMP JUMPDEST PUSH1 0x1 PUSH1 0x1 PUSH1 0xA0 SHL SUB AND DUP2 MSTORE PUSH1 0x20 DUP2 ADD SWAP2 SWAP1 SWAP2 MSTORE PUSH1 0x40 ADD PUSH1 0x0 KECCAK256 SLOAD SWAP2 SWAP1 PUSH3 0xCEB JUMP JUMPDEST PUSH3 0xB0B JUMP JUMPDEST POP PUSH1 0x1 SWAP4 SWAP3 POP POP POP JUMP JUMPDEST PUSH1 0xCA DUP2 DUP2 SLOAD DUP2 LT PUSH3 0x48E JUMPI PUSH1 0x0 DUP1 REVERT JUMPDEST PUSH1 0x0 SWAP2 DUP3 MSTORE PUSH1 0x20 SWAP1 SWAP2 KECCAK256 ADD SLOAD PUSH1 0x1 PUSH1 0x1 PUSH1 0xA0 SHL SUB AND SWAP1 POP DUP2 JUMP JUMPDEST PUSH1 0x9C SLOAD PUSH1 0xFF AND SWAP1 JUMP JUMPDEST PUSH1 0x0 PUSH3 0x3DC PUSH3 0x4C1 PUSH3 0xB07 JUMP JUMPDEST DUP5 PUSH3 0x46D DUP6 PUSH1 0x98 PUSH1 0x0 PUSH3 0x4D5 PUSH3 0xB07 JUMP JUMPDEST PUSH1 0x1 PUSH1 0x1 PUSH1 0xA0 SHL SUB SWAP1 DUP2 AND DUP3 MSTORE PUSH1 0x20 DUP1 DUP4 ADD SWAP4 SWAP1 SWAP4 MSTORE PUSH1 0x40 SWAP2 DUP3 ADD PUSH1 0x0 SWAP1 DUP2 KECCAK256 SWAP2 DUP13 AND DUP2 MSTORE SWAP3 MSTORE SWAP1 KECCAK256 SLOAD SWAP1 PUSH3 0xD2A JUMP JUMPDEST PUSH1 0xCB SLOAD PUSH1 0x1 PUSH1 0x1 PUSH1 0xA0 SHL SUB AND DUP2 JUMP JUMPDEST PUSH1 0x1 PUSH1 0x1 PUSH1 0xA0 SHL SUB DUP2 AND PUSH1 0x0 SWAP1 DUP2 MSTORE PUSH1 0x97 PUSH1 0x20 MSTORE PUSH1 0x40 SWAP1 KECCAK256 SLOAD JUMPDEST SWAP2 SWAP1 POP JUMP JUMPDEST PUSH3 0x53E PUSH3 0xB07 JUMP JUMPDEST PUSH1 0x65 SLOAD PUSH1 0x1 PUSH1 0x1 PUSH1 0xA0 SHL SUB SWAP1 DUP2 AND SWAP2 AND EQ PUSH3 0x577 JUMPI PUSH1 0x40 MLOAD PUSH3 0x461BCD PUSH1 0xE5 SHL DUP2 MSTORE PUSH1 0x4 ADD PUSH3 0x56E SWAP1 PUSH3 0x1791 JUMP JUMPDEST PUSH1 0x40 MLOAD DUP1 SWAP2 SUB SWAP1 REVERT JUMPDEST PUSH1 0x65 SLOAD PUSH1 0x40 MLOAD PUSH1 0x0 SWAP2 PUSH1 0x1 PUSH1 0x1 PUSH1 0xA0 SHL SUB AND SWAP1 PUSH32 0x8BE0079C531659141344CD1FD0A4F28419497F9722A3DAAFE3B4186F6B6457E0 SWAP1 DUP4 SWAP1 LOG3 PUSH1 0x65 DUP1 SLOAD PUSH1 0x1 PUSH1 0x1 PUSH1 0xA0 SHL SUB NOT AND SWAP1 SSTORE JUMP JUMPDEST PUSH3 0x5CB PUSH3 0xB07 JUMP JUMPDEST PUSH1 0x65 SLOAD PUSH1 0x1 PUSH1 0x1 PUSH1 0xA0 SHL SUB SWAP1 DUP2 AND SWAP2 AND EQ PUSH3 0x5FB JUMPI PUSH1 0x40 MLOAD PUSH3 0x461BCD PUSH1 0xE5 SHL DUP2 MSTORE PUSH1 0x4 ADD PUSH3 0x56E SWAP1 PUSH3 0x1791 JUMP JUMPDEST PUSH1 0x1 PUSH1 0x1 PUSH1 0xA0 SHL SUB SWAP2 SWAP1 SWAP2 AND PUSH1 0x0 SWAP1 DUP2 MSTORE PUSH1 0x9D PUSH1 0x20 MSTORE PUSH1 0x40 SWAP1 KECCAK256 DUP1 SLOAD PUSH1 0xFF NOT AND SWAP2 ISZERO ISZERO SWAP2 SWAP1 SWAP2 OR SWAP1 SSTORE JUMP JUMPDEST PUSH1 0x65 SLOAD PUSH1 0x1 PUSH1 0x1 PUSH1 0xA0 SHL SUB AND SWAP1 JUMP JUMPDEST PUSH1 0x0 SLOAD PUSH2 0x100 SWAP1 DIV PUSH1 0xFF AND DUP1 PUSH3 0x651 JUMPI POP PUSH3 0x651 PUSH3 0xD65 JUMP JUMPDEST DUP1 PUSH3 0x660 JUMPI POP PUSH1 0x0 SLOAD PUSH1 0xFF AND ISZERO JUMPDEST PUSH3 0x67F JUMPI PUSH1 0x40 MLOAD PUSH3 0x461BCD PUSH1 0xE5 SHL DUP2 MSTORE PUSH1 0x4 ADD PUSH3 0x56E SWAP1 PUSH3 0x17C6 JUMP JUMPDEST PUSH1 0x0 SLOAD PUSH2 0x100 SWAP1 DIV PUSH1 0xFF AND ISZERO DUP1 ISZERO PUSH3 0x6AB JUMPI PUSH1 0x0 DUP1 SLOAD PUSH1 0xFF NOT PUSH2 0xFF00 NOT SWAP1 SWAP2 AND PUSH2 0x100 OR AND PUSH1 0x1 OR SWAP1 SSTORE JUMPDEST PUSH3 0x6B5 PUSH3 0xD6B JUMP JUMPDEST PUSH3 0x6C1 DUP6 DUP6 PUSH3 0xE0B JUMP JUMPDEST CALLER TIMESTAMP PUSH3 0x278D00 PUSH4 0x18B8200 PUSH1 0x40 MLOAD PUSH3 0x6DA SWAP1 PUSH3 0x12FB JUMP JUMPDEST PUSH3 0x6E9 SWAP5 SWAP4 SWAP3 SWAP2 SWAP1 PUSH3 0x1608 JUMP JUMPDEST PUSH1 0x40 MLOAD DUP1 SWAP2 SUB SWAP1 PUSH1 0x0 CREATE DUP1 ISZERO DUP1 ISZERO PUSH3 0x706 JUMPI RETURNDATASIZE PUSH1 0x0 DUP1 RETURNDATACOPY RETURNDATASIZE PUSH1 0x0 REVERT JUMPDEST POP PUSH1 0xCC PUSH1 0x0 PUSH2 0x100 EXP DUP2 SLOAD DUP2 PUSH1 0x1 PUSH1 0x1 PUSH1 0xA0 SHL SUB MUL NOT AND SWAP1 DUP4 PUSH1 0x1 PUSH1 0x1 PUSH1 0xA0 SHL SUB AND MUL OR SWAP1 SSTORE POP CALLER TIMESTAMP PUSH3 0x278D00 PUSH3 0xC5C100 PUSH1 0x40 MLOAD PUSH3 0x745 SWAP1 PUSH3 0x12FB JUMP JUMPDEST PUSH3 0x754 SWAP5 SWAP4 SWAP3 SWAP2 SWAP1 PUSH3 0x1608 JUMP JUMPDEST PUSH1 0x40 MLOAD DUP1 SWAP2 SUB SWAP1 PUSH1 0x0 CREATE DUP1 ISZERO DUP1 ISZERO PUSH3 0x771 JUMPI RETURNDATASIZE PUSH1 0x0 DUP1 RETURNDATACOPY RETURNDATASIZE PUSH1 0x0 REVERT JUMPDEST POP PUSH1 0xCB DUP1 SLOAD PUSH1 0x1 PUSH1 0x1 PUSH1 0xA0 SHL SUB NOT AND PUSH1 0x1 PUSH1 0x1 PUSH1 0xA0 SHL SUB SWAP3 SWAP1 SWAP3 AND SWAP2 SWAP1 SWAP2 OR SWAP1 SSTORE PUSH3 0x7A9 CALLER PUSH11 0x52B7D2DCC80CD2E4000000 PUSH3 0xEAE JUMP JUMPDEST PUSH3 0x7C1 DUP4 PUSH12 0x24306C4097859C43C000000 PUSH3 0xEAE JUMP JUMPDEST PUSH3 0x7D8 DUP3 PUSH11 0x52B7D2DCC80CD2E4000000 PUSH3 0xEAE JUMP JUMPDEST PUSH1 0xCC SLOAD PUSH3 0x7FB SWAP1 PUSH1 0x1 PUSH1 0x1 PUSH1 0xA0 SHL SUB AND PUSH11 0x295BE96E64066972000000 PUSH3 0xEAE JUMP JUMPDEST PUSH1 0xCB SLOAD PUSH3 0x81E SWAP1 PUSH1 0x1 PUSH1 0x1 PUSH1 0xA0 SHL SUB AND PUSH11 0x295BE96E64066972000000 PUSH3 0xEAE JUMP JUMPDEST DUP1 ISZERO PUSH3 0x831 JUMPI PUSH1 0x0 DUP1 SLOAD PUSH2 0xFF00 NOT AND SWAP1 SSTORE JUMPDEST POP POP POP POP POP JUMP JUMPDEST PUSH1 0x60 PUSH1 0x9B DUP1 SLOAD PUSH3 0x33B SWAP1 PUSH3 0x19A5 JUMP JUMPDEST PUSH1 0xCC SLOAD PUSH1 0x1 PUSH1 0x1 PUSH1 0xA0 SHL SUB AND DUP2 JUMP JUMPDEST PUSH3 0x862 PUSH3 0xB07 JUMP JUMPDEST PUSH1 0x65 SLOAD PUSH1 0x1 PUSH1 0x1 PUSH1 0xA0 SHL SUB SWAP1 DUP2 AND SWAP2 AND EQ PUSH3 0x892 JUMPI PUSH1 0x40 MLOAD PUSH3 0x461BCD PUSH1 0xE5 SHL DUP2 MSTORE PUSH1 0x4 ADD PUSH3 0x56E SWAP1 PUSH3 0x1791 JUMP JUMPDEST PUSH1 0xCA DUP1 SLOAD PUSH1 0x1 DUP2 ADD DUP3 SSTORE PUSH1 0x0 SWAP2 SWAP1 SWAP2 MSTORE PUSH32 0x42D72674974F694B5F5159593243114D38A5C39C89D6B62FEE061FF523240EE1 ADD DUP1 SLOAD PUSH1 0x1 PUSH1 0x1 PUSH1 0xA0 SHL SUB NOT AND PUSH1 0x1 PUSH1 0x1 PUSH1 0xA0 SHL SUB SWAP3 SWAP1 SWAP3 AND SWAP2 SWAP1 SWAP2 OR SWAP1 SSTORE JUMP JUMPDEST PUSH1 0x0 DUP1 JUMPDEST PUSH1 0xCA SLOAD DUP2 LT ISZERO PUSH3 0x963 JUMPI PUSH3 0x8FD PUSH3 0xB07 JUMP JUMPDEST PUSH1 0x1 PUSH1 0x1 PUSH1 0xA0 SHL SUB AND PUSH1 0xCA DUP3 DUP2 SLOAD DUP2 LT PUSH3 0x928 JUMPI PUSH4 0x4E487B71 PUSH1 0xE0 SHL PUSH1 0x0 MSTORE PUSH1 0x32 PUSH1 0x4 MSTORE PUSH1 0x24 PUSH1 0x0 REVERT JUMPDEST PUSH1 0x0 SWAP2 DUP3 MSTORE PUSH1 0x20 SWAP1 SWAP2 KECCAK256 ADD SLOAD PUSH1 0x1 PUSH1 0x1 PUSH1 0xA0 SHL SUB AND EQ ISZERO PUSH3 0x94E JUMPI PUSH1 0x1 SWAP2 POP PUSH3 0x963 JUMP JUMPDEST DUP1 PUSH3 0x95A DUP2 PUSH3 0x19E2 JUMP JUMPDEST SWAP2 POP POP PUSH3 0x8E8 JUMP JUMPDEST POP DUP1 PUSH3 0x984 JUMPI PUSH1 0x40 MLOAD PUSH3 0x461BCD PUSH1 0xE5 SHL DUP2 MSTORE PUSH1 0x4 ADD PUSH3 0x56E SWAP1 PUSH3 0x1814 JUMP JUMPDEST PUSH3 0x990 DUP4 DUP4 PUSH3 0xF79 JUMP JUMPDEST POP POP POP JUMP JUMPDEST PUSH1 0x0 PUSH3 0x3DC PUSH3 0x9A5 PUSH3 0xB07 JUMP JUMPDEST DUP5 PUSH3 0x46D DUP6 PUSH1 0x40 MLOAD DUP1 PUSH1 0x60 ADD PUSH1 0x40 MSTORE DUP1 PUSH1 0x25 DUP2 MSTORE PUSH1 0x20 ADD PUSH3 0x2428 PUSH1 0x25 SWAP2 CODECOPY PUSH1 0x98 PUSH1 0x0 PUSH3 0x9D3 PUSH3 0xB07 JUMP JUMPDEST PUSH1 0x1 PUSH1 0x1 PUSH1 0xA0 SHL SUB SWAP1 DUP2 AND DUP3 MSTORE PUSH1 0x20 DUP1 DUP4 ADD SWAP4 SWAP1 SWAP4 MSTORE PUSH1 0x40 SWAP2 DUP3 ADD PUSH1 0x0 SWAP1 DUP2 KECCAK256 SWAP2 DUP14 AND DUP2 MSTORE SWAP3 MSTORE SWAP1 KECCAK256 SLOAD SWAP2 SWAP1 PUSH3 0xCEB JUMP JUMPDEST PUSH1 0x0 PUSH3 0x3DC PUSH3 0xA15 PUSH3 0xB07 JUMP JUMPDEST DUP5 DUP5 PUSH3 0xBC7 JUMP JUMPDEST PUSH1 0x1 PUSH1 0x1 PUSH1 0xA0 SHL SUB SWAP2 DUP3 AND PUSH1 0x0 SWAP1 DUP2 MSTORE PUSH1 0x98 PUSH1 0x20 SWAP1 DUP2 MSTORE PUSH1 0x40 DUP1 DUP4 KECCAK256 SWAP4 SWAP1 SWAP5 AND DUP3 MSTORE SWAP2 SWAP1 SWAP2 MSTORE KECCAK256 SLOAD SWAP1 JUMP JUMPDEST PUSH3 0xA52 PUSH3 0xB07 JUMP JUMPDEST PUSH1 0x65 SLOAD PUSH1 0x1 PUSH1 0x1 PUSH1 0xA0 SHL SUB SWAP1 DUP2 AND SWAP2 AND EQ PUSH3 0xA82 JUMPI PUSH1 0x40 MLOAD PUSH3 0x461BCD PUSH1 0xE5 SHL DUP2 MSTORE PUSH1 0x4 ADD PUSH3 0x56E SWAP1 PUSH3 0x1791 JUMP JUMPDEST PUSH1 0x1 PUSH1 0x1 PUSH1 0xA0 SHL SUB DUP2 AND PUSH3 0xAAB JUMPI PUSH1 0x40 MLOAD PUSH3 0x461BCD PUSH1 0xE5 SHL DUP2 MSTORE PUSH1 0x4 ADD PUSH3 0x56E SWAP1 PUSH3 0x16D2 JUMP JUMPDEST PUSH1 0x65 SLOAD PUSH1 0x40 MLOAD PUSH1 0x1 PUSH1 0x1 PUSH1 0xA0 SHL SUB DUP1 DUP5 AND SWAP3 AND SWAP1 PUSH32 0x8BE0079C531659141344CD1FD0A4F28419497F9722A3DAAFE3B4186F6B6457E0 SWAP1 PUSH1 0x0 SWAP1 LOG3 PUSH1 0x65 DUP1 SLOAD PUSH1 0x1 PUSH1 0x1 PUSH1 0xA0 SHL SUB NOT AND PUSH1 0x1 PUSH1 0x1 PUSH1 0xA0 SHL SUB SWAP3 SWAP1 SWAP3 AND SWAP2 SWAP1 SWAP2 OR SWAP1 SSTORE JUMP JUMPDEST CALLER SWAP1 JUMP JUMPDEST PUSH1 0x1 PUSH1 0x1 PUSH1 0xA0 SHL SUB DUP4 AND PUSH3 0xB34 JUMPI PUSH1 0x40 MLOAD PUSH3 0x461BCD PUSH1 0xE5 SHL DUP2 MSTORE PUSH1 0x4 ADD PUSH3 0x56E SWAP1 PUSH3 0x18DE JUMP JUMPDEST PUSH1 0x1 PUSH1 0x1 PUSH1 0xA0 SHL SUB DUP3 AND PUSH3 0xB5D JUMPI PUSH1 0x40 MLOAD PUSH3 0x461BCD PUSH1 0xE5 SHL DUP2 MSTORE PUSH1 0x4 ADD PUSH3 0x56E SWAP1 PUSH3 0x1718 JUMP JUMPDEST PUSH1 0x1 PUSH1 0x1 PUSH1 0xA0 SHL SUB DUP1 DUP5 AND PUSH1 0x0 DUP2 DUP2 MSTORE PUSH1 0x98 PUSH1 0x20 SWAP1 DUP2 MSTORE PUSH1 0x40 DUP1 DUP4 KECCAK256 SWAP5 DUP8 AND DUP1 DUP5 MSTORE SWAP5 SWAP1 SWAP2 MSTORE SWAP1 DUP2 SWAP1 KECCAK256 DUP5 SWAP1 SSTORE MLOAD PUSH32 0x8C5BE1E5EBEC7D5BD14F71427D1E84F3DD0314C0F7B2291E5B200AC8C7C3B925 SWAP1 PUSH3 0xBBA SWAP1 DUP6 SWAP1 PUSH3 0x1959 JUMP JUMPDEST PUSH1 0x40 MLOAD DUP1 SWAP2 SUB SWAP1 LOG3 POP POP POP JUMP JUMPDEST PUSH1 0x1 PUSH1 0x1 PUSH1 0xA0 SHL SUB DUP4 AND PUSH3 0xBF0 JUMPI PUSH1 0x40 MLOAD PUSH3 0x461BCD PUSH1 0xE5 SHL DUP2 MSTORE PUSH1 0x4 ADD PUSH3 0x56E SWAP1 PUSH3 0x1899 JUMP JUMPDEST PUSH1 0x1 PUSH1 0x1 PUSH1 0xA0 SHL SUB DUP3 AND PUSH3 0xC19 JUMPI PUSH1 0x40 MLOAD PUSH3 0x461BCD PUSH1 0xE5 SHL DUP2 MSTORE PUSH1 0x4 ADD PUSH3 0x56E SWAP1 PUSH3 0x168F JUMP JUMPDEST PUSH3 0xC26 DUP4 DUP4 DUP4 PUSH3 0x105B JUMP JUMPDEST PUSH3 0xC66 DUP2 PUSH1 0x40 MLOAD DUP1 PUSH1 0x60 ADD PUSH1 0x40 MSTORE DUP1 PUSH1 0x26 DUP2 MSTORE PUSH1 0x20 ADD PUSH3 0x23DA PUSH1 0x26 SWAP2 CODECOPY PUSH1 0x1 PUSH1 0x1 PUSH1 0xA0 SHL SUB DUP7 AND PUSH1 0x0 SWAP1 DUP2 MSTORE PUSH1 0x97 PUSH1 0x20 MSTORE PUSH1 0x40 SWAP1 KECCAK256 SLOAD SWAP2 SWAP1 PUSH3 0xCEB JUMP JUMPDEST PUSH1 0x1 PUSH1 0x1 PUSH1 0xA0 SHL SUB DUP1 DUP6 AND PUSH1 0x0 SWAP1 DUP2 MSTORE PUSH1 0x97 PUSH1 0x20 MSTORE PUSH1 0x40 DUP1 DUP3 KECCAK256 SWAP4 SWAP1 SWAP4 SSTORE SWAP1 DUP5 AND DUP2 MSTORE KECCAK256 SLOAD PUSH3 0xC97 SWAP1 DUP3 PUSH3 0xD2A JUMP JUMPDEST PUSH1 0x1 PUSH1 0x1 PUSH1 0xA0 SHL SUB DUP1 DUP5 AND PUSH1 0x0 DUP2 DUP2 MSTORE PUSH1 0x97 PUSH1 0x20 MSTORE PUSH1 0x40 SWAP1 DUP2 SWAP1 KECCAK256 SWAP4 SWAP1 SWAP4 SSTORE SWAP2 MLOAD SWAP1 DUP6 AND SWAP1 PUSH32 0xDDF252AD1BE2C89B69C2B068FC378DAA952BA7F163C4A11628F55A4DF523B3EF SWAP1 PUSH3 0xBBA SWAP1 DUP6 SWAP1 PUSH3 0x1959 JUMP JUMPDEST PUSH1 0x0 DUP2 DUP5 DUP5 GT ISZERO PUSH3 0xD12 JUMPI PUSH1 0x40 MLOAD PUSH3 0x461BCD PUSH1 0xE5 SHL DUP2 MSTORE PUSH1 0x4 ADD PUSH3 0x56E SWAP2 SWAP1 PUSH3 0x1639 JUMP JUMPDEST POP PUSH1 0x0 PUSH3 0xD21 DUP5 DUP7 PUSH3 0x198B JUMP JUMPDEST SWAP6 SWAP5 POP POP POP POP POP JUMP JUMPDEST PUSH1 0x0 DUP1 PUSH3 0xD39 DUP4 DUP6 PUSH3 0x1970 JUMP JUMPDEST SWAP1 POP DUP4 DUP2 LT ISZERO PUSH3 0xD5E JUMPI PUSH1 0x40 MLOAD PUSH3 0x461BCD PUSH1 0xE5 SHL DUP2 MSTORE PUSH1 0x4 ADD PUSH3 0x56E SWAP1 PUSH3 0x175A JUMP JUMPDEST SWAP4 SWAP3 POP POP POP JUMP JUMPDEST ADDRESS EXTCODESIZE ISZERO SWAP1 JUMP JUMPDEST PUSH1 0x0 SLOAD PUSH2 0x100 SWAP1 DIV PUSH1 0xFF AND DUP1 PUSH3 0xD87 JUMPI POP PUSH3 0xD87 PUSH3 0xD65 JUMP JUMPDEST DUP1 PUSH3 0xD96 JUMPI POP PUSH1 0x0 SLOAD PUSH1 0xFF AND ISZERO JUMPDEST PUSH3 0xDB5 JUMPI PUSH1 0x40 MLOAD PUSH3 0x461BCD PUSH1 0xE5 SHL DUP2 MSTORE PUSH1 0x4 ADD PUSH3 0x56E SWAP1 PUSH3 0x17C6 JUMP JUMPDEST PUSH1 0x0 SLOAD PUSH2 0x100 SWAP1 DIV PUSH1 0xFF AND ISZERO DUP1 ISZERO PUSH3 0xDE1 JUMPI PUSH1 0x0 DUP1 SLOAD PUSH1 0xFF NOT PUSH2 0xFF00 NOT SWAP1 SWAP2 AND PUSH2 0x100 OR AND PUSH1 0x1 OR SWAP1 SSTORE JUMPDEST PUSH3 0xDEB PUSH3 0x1082 JUMP JUMPDEST PUSH3 0xDF5 PUSH3 0x110C JUMP JUMPDEST DUP1 ISZERO PUSH3 0xE08 JUMPI PUSH1 0x0 DUP1 SLOAD PUSH2 0xFF00 NOT AND SWAP1 SSTORE JUMPDEST POP JUMP JUMPDEST PUSH1 0x0 SLOAD PUSH2 0x100 SWAP1 DIV PUSH1 0xFF AND DUP1 PUSH3 0xE27 JUMPI POP PUSH3 0xE27 PUSH3 0xD65 JUMP JUMPDEST DUP1 PUSH3 0xE36 JUMPI POP PUSH1 0x0 SLOAD PUSH1 0xFF AND ISZERO JUMPDEST PUSH3 0xE55 JUMPI PUSH1 0x40 MLOAD PUSH3 0x461BCD PUSH1 0xE5 SHL DUP2 MSTORE PUSH1 0x4 ADD PUSH3 0x56E SWAP1 PUSH3 0x17C6 JUMP JUMPDEST PUSH1 0x0 SLOAD PUSH2 0x100 SWAP1 DIV PUSH1 0xFF AND ISZERO DUP1 ISZERO PUSH3 0xE81 JUMPI PUSH1 0x0 DUP1 SLOAD PUSH1 0xFF NOT PUSH2 0xFF00 NOT SWAP1 SWAP2 AND PUSH2 0x100 OR AND PUSH1 0x1 OR SWAP1 SSTORE JUMPDEST PUSH3 0xE8B PUSH3 0x1082 JUMP JUMPDEST PUSH3 0xE97 DUP4 DUP4 PUSH3 0x11F1 JUMP JUMPDEST DUP1 ISZERO PUSH3 0x990 JUMPI PUSH1 0x0 DUP1 SLOAD PUSH2 0xFF00 NOT AND SWAP1 SSTORE POP POP POP JUMP JUMPDEST PUSH1 0x1 PUSH1 0x1 PUSH1 0xA0 SHL SUB DUP3 AND PUSH3 0xED7 JUMPI PUSH1 0x40 MLOAD PUSH3 0x461BCD PUSH1 0xE5 SHL DUP2 MSTORE PUSH1 0x4 ADD PUSH3 0x56E SWAP1 PUSH3 0x1922 JUMP JUMPDEST PUSH3 0xEE5 PUSH1 0x0 DUP4 DUP4 PUSH3 0x105B JUMP JUMPDEST PUSH1 0x99 SLOAD PUSH3 0xEF4 SWAP1 DUP3 PUSH3 0xD2A JUMP JUMPDEST PUSH1 0x99 SSTORE PUSH1 0x1 PUSH1 0x1 PUSH1 0xA0 SHL SUB DUP3 AND PUSH1 0x0 SWAP1 DUP2 MSTORE PUSH1 0x97 PUSH1 0x20 MSTORE PUSH1 0x40 SWAP1 KECCAK256 SLOAD PUSH3 0xF1C SWAP1 DUP3 PUSH3 0xD2A JUMP JUMPDEST PUSH1 0x1 PUSH1 0x1 PUSH1 0xA0 SHL SUB DUP4 AND PUSH1 0x0 DUP2 DUP2 MSTORE PUSH1 0x97 PUSH1 0x20 MSTORE PUSH1 0x40 DUP1 DUP3 KECCAK256 SWAP4 SWAP1 SWAP4 SSTORE SWAP2 MLOAD SWAP1 SWAP2 SWAP1 PUSH32 0xDDF252AD1BE2C89B69C2B068FC378DAA952BA7F163C4A11628F55A4DF523B3EF SWAP1 PUSH3 0xF6D SWAP1 DUP6 SWAP1 PUSH3 0x1959 JUMP JUMPDEST PUSH1 0x40 MLOAD DUP1 SWAP2 SUB SWAP1 LOG3 POP POP JUMP JUMPDEST PUSH1 0x1 PUSH1 0x1 PUSH1 0xA0 SHL SUB DUP3 AND PUSH3 0xFA2 JUMPI PUSH1 0x40 MLOAD PUSH3 0x461BCD PUSH1 0xE5 SHL DUP2 MSTORE PUSH1 0x4 ADD PUSH3 0x56E SWAP1 PUSH3 0x1858 JUMP JUMPDEST PUSH3 0xFB0 DUP3 PUSH1 0x0 DUP4 PUSH3 0x105B JUMP JUMPDEST PUSH3 0xFF0 DUP2 PUSH1 0x40 MLOAD DUP1 PUSH1 0x60 ADD PUSH1 0x40 MSTORE DUP1 PUSH1 0x22 DUP2 MSTORE PUSH1 0x20 ADD PUSH3 0x23B8 PUSH1 0x22 SWAP2 CODECOPY PUSH1 0x1 PUSH1 0x1 PUSH1 0xA0 SHL SUB DUP6 AND PUSH1 0x0 SWAP1 DUP2 MSTORE PUSH1 0x97 PUSH1 0x20 MSTORE PUSH1 0x40 SWAP1 KECCAK256 SLOAD SWAP2 SWAP1 PUSH3 0xCEB JUMP JUMPDEST PUSH1 0x1 PUSH1 0x1 PUSH1 0xA0 SHL SUB DUP4 AND PUSH1 0x0 SWAP1 DUP2 MSTORE PUSH1 0x97 PUSH1 0x20 MSTORE PUSH1 0x40 SWAP1 KECCAK256 SSTORE PUSH1 0x99 SLOAD PUSH3 0x1018 SWAP1 DUP3 PUSH3 0x12B7 JUMP JUMPDEST PUSH1 0x99 SSTORE PUSH1 0x40 MLOAD PUSH1 0x0 SWAP1 PUSH1 0x1 PUSH1 0x1 PUSH1 0xA0 SHL SUB DUP5 AND SWAP1 PUSH32 0xDDF252AD1BE2C89B69C2B068FC378DAA952BA7F163C4A11628F55A4DF523B3EF SWAP1 PUSH3 0xF6D SWAP1 DUP6 SWAP1 PUSH3 0x1959 JUMP JUMPDEST PUSH1 0x1 PUSH1 0x1 PUSH1 0xA0 SHL SUB DUP4 AND PUSH1 0x0 SWAP1 DUP2 MSTORE PUSH1 0x9D PUSH1 0x20 MSTORE PUSH1 0x40 SWAP1 KECCAK256 SLOAD PUSH1 0xFF AND ISZERO PUSH3 0x990 JUMPI PUSH1 0x0 DUP1 REVERT JUMPDEST PUSH1 0x0 SLOAD PUSH2 0x100 SWAP1 DIV PUSH1 0xFF AND DUP1 PUSH3 0x109E JUMPI POP PUSH3 0x109E PUSH3 0xD65 JUMP JUMPDEST DUP1 PUSH3 0x10AD JUMPI POP PUSH1 0x0 SLOAD PUSH1 0xFF AND ISZERO JUMPDEST PUSH3 0x10CC JUMPI PUSH1 0x40 MLOAD PUSH3 0x461BCD PUSH1 0xE5 SHL DUP2 MSTORE PUSH1 0x4 ADD PUSH3 0x56E SWAP1 PUSH3 0x17C6 JUMP JUMPDEST PUSH1 0x0 SLOAD PUSH2 0x100 SWAP1 DIV PUSH1 0xFF AND ISZERO DUP1 ISZERO PUSH3 0xDF5 JUMPI PUSH1 0x0 DUP1 SLOAD PUSH1 0xFF NOT PUSH2 0xFF00 NOT SWAP1 SWAP2 AND PUSH2 0x100 OR AND PUSH1 0x1 OR SWAP1 SSTORE DUP1 ISZERO PUSH3 0xE08 JUMPI PUSH1 0x0 DUP1 SLOAD PUSH2 0xFF00 NOT AND SWAP1 SSTORE POP JUMP JUMPDEST PUSH1 0x0 SLOAD PUSH2 0x100 SWAP1 DIV PUSH1 0xFF AND DUP1 PUSH3 0x1128 JUMPI POP PUSH3 0x1128 PUSH3 0xD65 JUMP JUMPDEST DUP1 PUSH3 0x1137 JUMPI POP PUSH1 0x0 SLOAD PUSH1 0xFF AND ISZERO JUMPDEST PUSH3 0x1156 JUMPI PUSH1 0x40 MLOAD PUSH3 0x461BCD PUSH1 0xE5 SHL DUP2 MSTORE PUSH1 0x4 ADD PUSH3 0x56E SWAP1 PUSH3 0x17C6 JUMP JUMPDEST PUSH1 0x0 SLOAD PUSH2 0x100 SWAP1 DIV PUSH1 0xFF AND ISZERO DUP1 ISZERO PUSH3 0x1182 JUMPI PUSH1 0x0 DUP1 SLOAD PUSH1 0xFF NOT PUSH2 0xFF00 NOT SWAP1 SWAP2 AND PUSH2 0x100 OR AND PUSH1 0x1 OR SWAP1 SSTORE JUMPDEST PUSH1 0x0 PUSH3 0x118E PUSH3 0xB07 JUMP JUMPDEST PUSH1 0x65 DUP1 SLOAD PUSH1 0x1 PUSH1 0x1 PUSH1 0xA0 SHL SUB NOT AND PUSH1 0x1 PUSH1 0x1 PUSH1 0xA0 SHL SUB DUP4 AND SWAP1 DUP2 OR SWAP1 SWAP2 SSTORE PUSH1 0x40 MLOAD SWAP2 SWAP3 POP SWAP1 PUSH1 0x0 SWAP1 PUSH32 0x8BE0079C531659141344CD1FD0A4F28419497F9722A3DAAFE3B4186F6B6457E0 SWAP1 DUP3 SWAP1 LOG3 POP DUP1 ISZERO PUSH3 0xE08 JUMPI PUSH1 0x0 DUP1 SLOAD PUSH2 0xFF00 NOT AND SWAP1 SSTORE POP JUMP JUMPDEST PUSH1 0x0 SLOAD PUSH2 0x100 SWAP1 DIV PUSH1 0xFF AND DUP1 PUSH3 0x120D JUMPI POP PUSH3 0x120D PUSH3 0xD65 JUMP JUMPDEST DUP1 PUSH3 0x121C JUMPI POP PUSH1 0x0 SLOAD PUSH1 0xFF AND ISZERO JUMPDEST PUSH3 0x123B JUMPI PUSH1 0x40 MLOAD PUSH3 0x461BCD PUSH1 0xE5 SHL DUP2 MSTORE PUSH1 0x4 ADD PUSH3 0x56E SWAP1 PUSH3 0x17C6 JUMP JUMPDEST PUSH1 0x0 SLOAD PUSH2 0x100 SWAP1 DIV PUSH1 0xFF AND ISZERO DUP1 ISZERO PUSH3 0x1267 JUMPI PUSH1 0x0 DUP1 SLOAD PUSH1 0xFF NOT PUSH2 0xFF00 NOT SWAP1 SWAP2 AND PUSH2 0x100 OR AND PUSH1 0x1 OR SWAP1 SSTORE JUMPDEST DUP3 MLOAD PUSH3 0x127C SWAP1 PUSH1 0x9A SWAP1 PUSH1 0x20 DUP7 ADD SWAP1 PUSH3 0x1309 JUMP JUMPDEST POP DUP2 MLOAD PUSH3 0x1292 SWAP1 PUSH1 0x9B SWAP1 PUSH1 0x20 DUP6 ADD SWAP1 PUSH3 0x1309 JUMP JUMPDEST POP PUSH1 0x9C DUP1 SLOAD PUSH1 0xFF NOT AND PUSH1 0x12 OR SWAP1 SSTORE DUP1 ISZERO PUSH3 0x990 JUMPI PUSH1 0x0 DUP1 SLOAD PUSH2 0xFF00 NOT AND SWAP1 SSTORE POP POP POP JUMP JUMPDEST PUSH1 0x0 PUSH3 0xD5E DUP4 DUP4 PUSH1 0x40 MLOAD DUP1 PUSH1 0x40 ADD PUSH1 0x40 MSTORE DUP1 PUSH1 0x1E DUP2 MSTORE PUSH1 0x20 ADD PUSH32 0x536166654D6174683A207375627472616374696F6E206F766572666C6F770000 DUP2 MSTORE POP PUSH3 0xCEB JUMP JUMPDEST PUSH2 0x98B DUP1 PUSH3 0x1A2D DUP4 CODECOPY ADD SWAP1 JUMP JUMPDEST DUP3 DUP1 SLOAD PUSH3 0x1317 SWAP1 PUSH3 0x19A5 JUMP JUMPDEST SWAP1 PUSH1 0x0 MSTORE PUSH1 0x20 PUSH1 0x0 KECCAK256 SWAP1 PUSH1 0x1F ADD PUSH1 0x20 SWAP1 DIV DUP2 ADD SWAP3 DUP3 PUSH3 0x133B JUMPI PUSH1 0x0 DUP6 SSTORE PUSH3 0x1386 JUMP JUMPDEST DUP3 PUSH1 0x1F LT PUSH3 0x1356 JUMPI DUP1 MLOAD PUSH1 0xFF NOT AND DUP4 DUP1 ADD OR DUP6 SSTORE PUSH3 0x1386 JUMP JUMPDEST DUP3 DUP1 ADD PUSH1 0x1 ADD DUP6 SSTORE DUP3 ISZERO PUSH3 0x1386 JUMPI SWAP2 DUP3 ADD JUMPDEST DUP3 DUP2 GT ISZERO PUSH3 0x1386 JUMPI DUP3 MLOAD DUP3 SSTORE SWAP2 PUSH1 0x20 ADD SWAP2 SWAP1 PUSH1 0x1 ADD SWAP1 PUSH3 0x1369 JUMP JUMPDEST POP PUSH3 0x1394 SWAP3 SWAP2 POP PUSH3 0x1398 JUMP JUMPDEST POP SWAP1 JUMP JUMPDEST JUMPDEST DUP1 DUP3 GT ISZERO PUSH3 0x1394 JUMPI PUSH1 0x0 DUP2 SSTORE PUSH1 0x1 ADD PUSH3 0x1399 JUMP JUMPDEST DUP1 CALLDATALOAD PUSH1 0x1 PUSH1 0x1 PUSH1 0xA0 SHL SUB DUP2 AND DUP2 EQ PUSH3 0x52F JUMPI PUSH1 0x0 DUP1 REVERT JUMPDEST PUSH1 0x0 DUP3 PUSH1 0x1F DUP4 ADD SLT PUSH3 0x13D8 JUMPI DUP1 DUP2 REVERT JUMPDEST DUP2 CALLDATALOAD PUSH8 0xFFFFFFFFFFFFFFFF DUP1 DUP3 GT ISZERO PUSH3 0x13F6 JUMPI PUSH3 0x13F6 PUSH3 0x1A16 JUMP JUMPDEST PUSH1 0x40 MLOAD PUSH1 0x1F DUP4 ADD PUSH1 0x1F NOT AND DUP2 ADD PUSH1 0x20 ADD DUP3 DUP2 GT DUP3 DUP3 LT OR ISZERO PUSH3 0x141D JUMPI PUSH3 0x141D PUSH3 0x1A16 JUMP JUMPDEST PUSH1 0x40 MSTORE DUP3 DUP2 MSTORE DUP5 DUP4 ADD PUSH1 0x20 ADD DUP7 LT ISZERO PUSH3 0x1435 JUMPI DUP4 DUP5 REVERT JUMPDEST DUP3 PUSH1 0x20 DUP7 ADD PUSH1 0x20 DUP4 ADD CALLDATACOPY SWAP2 DUP3 ADD PUSH1 0x20 ADD SWAP3 SWAP1 SWAP3 MSTORE SWAP4 SWAP3 POP POP POP JUMP JUMPDEST PUSH1 0x0 PUSH1 0x20 DUP3 DUP5 SUB SLT ISZERO PUSH3 0x1462 JUMPI DUP1 DUP2 REVERT JUMPDEST PUSH3 0xD5E DUP3 PUSH3 0x13AF JUMP JUMPDEST PUSH1 0x0 DUP1 PUSH1 0x40 DUP4 DUP6 SUB SLT ISZERO PUSH3 0x1480 JUMPI DUP1 DUP2 REVERT JUMPDEST PUSH3 0x148B DUP4 PUSH3 0x13AF JUMP JUMPDEST SWAP2 POP PUSH3 0x149B PUSH1 0x20 DUP5 ADD PUSH3 0x13AF JUMP JUMPDEST SWAP1 POP SWAP3 POP SWAP3 SWAP1 POP JUMP JUMPDEST PUSH1 0x0 DUP1 PUSH1 0x0 PUSH1 0x60 DUP5 DUP7 SUB SLT ISZERO PUSH3 0x14B9 JUMPI DUP1 DUP2 REVERT JUMPDEST PUSH3 0x14C4 DUP5 PUSH3 0x13AF JUMP JUMPDEST SWAP3 POP PUSH3 0x14D4 PUSH1 0x20 DUP6 ADD PUSH3 0x13AF JUMP JUMPDEST SWAP2 POP PUSH1 0x40 DUP5 ADD CALLDATALOAD SWAP1 POP SWAP3 POP SWAP3 POP SWAP3 JUMP JUMPDEST PUSH1 0x0 DUP1 PUSH1 0x40 DUP4 DUP6 SUB SLT ISZERO PUSH3 0x14F7 JUMPI DUP2 DUP3 REVERT JUMPDEST PUSH3 0x1502 DUP4 PUSH3 0x13AF JUMP JUMPDEST SWAP2 POP PUSH1 0x20 DUP4 ADD CALLDATALOAD DUP1 ISZERO ISZERO DUP2 EQ PUSH3 0x1517 JUMPI DUP2 DUP3 REVERT JUMPDEST DUP1 SWAP2 POP POP SWAP3 POP SWAP3 SWAP1 POP JUMP JUMPDEST PUSH1 0x0 DUP1 PUSH1 0x40 DUP4 DUP6 SUB SLT ISZERO PUSH3 0x1535 JUMPI DUP2 DUP3 REVERT JUMPDEST PUSH3 0x1540 DUP4 PUSH3 0x13AF JUMP JUMPDEST SWAP5 PUSH1 0x20 SWAP4 SWAP1 SWAP4 ADD CALLDATALOAD SWAP4 POP POP POP JUMP JUMPDEST PUSH1 0x0 DUP1 PUSH1 0x0 DUP1 PUSH1 0x80 DUP6 DUP8 SUB SLT ISZERO PUSH3 0x1564 JUMPI DUP1 DUP2 REVERT JUMPDEST DUP5 CALLDATALOAD PUSH8 0xFFFFFFFFFFFFFFFF DUP1 DUP3 GT ISZERO PUSH3 0x157C JUMPI DUP3 DUP4 REVERT JUMPDEST PUSH3 0x158A DUP9 DUP4 DUP10 ADD PUSH3 0x13C7 JUMP JUMPDEST SWAP6 POP PUSH1 0x20 DUP8 ADD CALLDATALOAD SWAP2 POP DUP1 DUP3 GT ISZERO PUSH3 0x15A0 JUMPI DUP3 DUP4 REVERT JUMPDEST POP PUSH3 0x15AF DUP8 DUP3 DUP9 ADD PUSH3 0x13C7 JUMP JUMPDEST SWAP4 POP POP PUSH3 0x15C0 PUSH1 0x40 DUP7 ADD PUSH3 0x13AF JUMP JUMPDEST SWAP2 POP PUSH3 0x15D0 PUSH1 0x60 DUP7 ADD PUSH3 0x13AF JUMP JUMPDEST SWAP1 POP SWAP3 SWAP6 SWAP2 SWAP5 POP SWAP3 POP JUMP JUMPDEST PUSH1 0x0 PUSH1 0x20 DUP3 DUP5 SUB SLT ISZERO PUSH3 0x15ED JUMPI DUP1 DUP2 REVERT JUMPDEST POP CALLDATALOAD SWAP2 SWAP1 POP JUMP JUMPDEST PUSH1 0x1 PUSH1 0x1 PUSH1 0xA0 SHL SUB SWAP2 SWAP1 SWAP2 AND DUP2 MSTORE PUSH1 0x20 ADD SWAP1 JUMP JUMPDEST PUSH1 0x1 PUSH1 0x1 PUSH1 0xA0 SHL SUB SWAP5 SWAP1 SWAP5 AND DUP5 MSTORE PUSH1 0x20 DUP5 ADD SWAP3 SWAP1 SWAP3 MSTORE PUSH1 0x40 DUP4 ADD MSTORE PUSH1 0x60 DUP3 ADD MSTORE PUSH1 0x80 ADD SWAP1 JUMP JUMPDEST SWAP1 ISZERO ISZERO DUP2 MSTORE PUSH1 0x20 ADD SWAP1 JUMP JUMPDEST PUSH1 0x0 PUSH1 0x20 DUP1 DUP4 MSTORE DUP4 MLOAD DUP1 DUP3 DUP6 ADD MSTORE DUP3 JUMPDEST DUP2 DUP2 LT ISZERO PUSH3 0x1667 JUMPI DUP6 DUP2 ADD DUP4 ADD MLOAD DUP6 DUP3 ADD PUSH1 0x40 ADD MSTORE DUP3 ADD PUSH3 0x1649 JUMP JUMPDEST DUP2 DUP2 GT ISZERO PUSH3 0x1679 JUMPI DUP4 PUSH1 0x40 DUP4 DUP8 ADD ADD MSTORE JUMPDEST POP PUSH1 0x1F ADD PUSH1 0x1F NOT AND SWAP3 SWAP1 SWAP3 ADD PUSH1 0x40 ADD SWAP4 SWAP3 POP POP POP JUMP JUMPDEST PUSH1 0x20 DUP1 DUP3 MSTORE PUSH1 0x23 SWAP1 DUP3 ADD MSTORE PUSH32 0x45524332303A207472616E7366657220746F20746865207A65726F2061646472 PUSH1 0x40 DUP3 ADD MSTORE PUSH3 0x657373 PUSH1 0xE8 SHL PUSH1 0x60 DUP3 ADD MSTORE PUSH1 0x80 ADD SWAP1 JUMP JUMPDEST PUSH1 0x20 DUP1 DUP3 MSTORE PUSH1 0x26 SWAP1 DUP3 ADD MSTORE PUSH32 0x4F776E61626C653A206E6577206F776E657220697320746865207A65726F2061 PUSH1 0x40 DUP3 ADD MSTORE PUSH6 0x646472657373 PUSH1 0xD0 SHL PUSH1 0x60 DUP3 ADD MSTORE PUSH1 0x80 ADD SWAP1 JUMP JUMPDEST PUSH1 0x20 DUP1 DUP3 MSTORE PUSH1 0x22 SWAP1 DUP3 ADD MSTORE PUSH32 0x45524332303A20617070726F766520746F20746865207A65726F206164647265 PUSH1 0x40 DUP3 ADD MSTORE PUSH2 0x7373 PUSH1 0xF0 SHL PUSH1 0x60 DUP3 ADD MSTORE PUSH1 0x80 ADD SWAP1 JUMP JUMPDEST PUSH1 0x20 DUP1 DUP3 MSTORE PUSH1 0x1B SWAP1 DUP3 ADD MSTORE PUSH32 0x536166654D6174683A206164646974696F6E206F766572666C6F770000000000 PUSH1 0x40 DUP3 ADD MSTORE PUSH1 0x60 ADD SWAP1 JUMP JUMPDEST PUSH1 0x20 DUP1 DUP3 MSTORE DUP2 DUP2 ADD MSTORE PUSH32 0x4F776E61626C653A2063616C6C6572206973206E6F7420746865206F776E6572 PUSH1 0x40 DUP3 ADD MSTORE PUSH1 0x60 ADD SWAP1 JUMP JUMPDEST PUSH1 0x20 DUP1 DUP3 MSTORE PUSH1 0x2E SWAP1 DUP3 ADD MSTORE PUSH32 0x436F6E747261637420696E7374616E63652068617320616C7265616479206265 PUSH1 0x40 DUP3 ADD MSTORE PUSH14 0x195B881A5B9A5D1A585B1A5E9959 PUSH1 0x92 SHL PUSH1 0x60 DUP3 ADD MSTORE PUSH1 0x80 ADD SWAP1 JUMP JUMPDEST PUSH1 0x20 DUP1 DUP3 MSTORE PUSH1 0x24 SWAP1 DUP3 ADD MSTORE PUSH32 0x2149734D696E7465723A2063616C6C6572206973206E6F742066726F6D206D69 PUSH1 0x40 DUP3 ADD MSTORE PUSH4 0x373A32B9 PUSH1 0xE1 SHL PUSH1 0x60 DUP3 ADD MSTORE PUSH1 0x80 ADD SWAP1 JUMP JUMPDEST PUSH1 0x20 DUP1 DUP3 MSTORE PUSH1 0x21 SWAP1 DUP3 ADD MSTORE PUSH32 0x45524332303A206275726E2066726F6D20746865207A65726F20616464726573 PUSH1 0x40 DUP3 ADD MSTORE PUSH1 0x73 PUSH1 0xF8 SHL PUSH1 0x60 DUP3 ADD MSTORE PUSH1 0x80 ADD SWAP1 JUMP JUMPDEST PUSH1 0x20 DUP1 DUP3 MSTORE PUSH1 0x25 SWAP1 DUP3 ADD MSTORE PUSH32 0x45524332303A207472616E736665722066726F6D20746865207A65726F206164 PUSH1 0x40 DUP3 ADD MSTORE PUSH5 0x6472657373 PUSH1 0xD8 SHL PUSH1 0x60 DUP3 ADD MSTORE PUSH1 0x80 ADD SWAP1 JUMP JUMPDEST PUSH1 0x20 DUP1 DUP3 MSTORE PUSH1 0x24 SWAP1 DUP3 ADD MSTORE PUSH32 0x45524332303A20617070726F76652066726F6D20746865207A65726F20616464 PUSH1 0x40 DUP3 ADD MSTORE PUSH4 0x72657373 PUSH1 0xE0 SHL PUSH1 0x60 DUP3 ADD MSTORE PUSH1 0x80 ADD SWAP1 JUMP JUMPDEST PUSH1 0x20 DUP1 DUP3 MSTORE PUSH1 0x1F SWAP1 DUP3 ADD MSTORE PUSH32 0x45524332303A206D696E7420746F20746865207A65726F206164647265737300 PUSH1 0x40 DUP3 ADD MSTORE PUSH1 0x60 ADD SWAP1 JUMP JUMPDEST SWAP1 DUP2 MSTORE PUSH1 0x20 ADD SWAP1 JUMP JUMPDEST PUSH1 0xFF SWAP2 SWAP1 SWAP2 AND DUP2 MSTORE PUSH1 0x20 ADD SWAP1 JUMP JUMPDEST PUSH1 0x0 DUP3 NOT DUP3 GT ISZERO PUSH3 0x1986 JUMPI PUSH3 0x1986 PUSH3 0x1A00 JUMP JUMPDEST POP ADD SWAP1 JUMP JUMPDEST PUSH1 0x0 DUP3 DUP3 LT ISZERO PUSH3 0x19A0 JUMPI PUSH3 0x19A0 PUSH3 0x1A00 JUMP JUMPDEST POP SUB SWAP1 JUMP JUMPDEST PUSH1 0x2 DUP2 DIV PUSH1 0x1 DUP3 AND DUP1 PUSH3 0x19BA JUMPI PUSH1 0x7F DUP3 AND SWAP2 POP JUMPDEST PUSH1 0x20 DUP3 LT DUP2 EQ ISZERO PUSH3 0x19DC JUMPI PUSH4 0x4E487B71 PUSH1 0xE0 SHL PUSH1 0x0 MSTORE PUSH1 0x22 PUSH1 0x4 MSTORE PUSH1 0x24 PUSH1 0x0 REVERT JUMPDEST POP SWAP2 SWAP1 POP JUMP JUMPDEST PUSH1 0x0 PUSH1 0x0 NOT DUP3 EQ ISZERO PUSH3 0x19F9 JUMPI PUSH3 0x19F9 PUSH3 0x1A00 JUMP JUMPDEST POP PUSH1 0x1 ADD SWAP1 JUMP JUMPDEST PUSH4 0x4E487B71 PUSH1 0xE0 SHL PUSH1 0x0 MSTORE PUSH1 0x11 PUSH1 0x4 MSTORE PUSH1 0x24 PUSH1 0x0 REVERT JUMPDEST PUSH4 0x4E487B71 PUSH1 0xE0 SHL PUSH1 0x0 MSTORE PUSH1 0x41 PUSH1 0x4 MSTORE PUSH1 0x24 PUSH1 0x0 REVERT INVALID PUSH1 0x80 PUSH1 0x40 MSTORE CALLVALUE DUP1 ISZERO PUSH2 0x10 JUMPI PUSH1 0x0 DUP1 REVERT JUMPDEST POP PUSH1 0x40 MLOAD PUSH2 0x98B CODESIZE SUB DUP1 PUSH2 0x98B DUP4 CODECOPY DUP2 ADD PUSH1 0x40 DUP2 SWAP1 MSTORE PUSH2 0x2F SWAP2 PUSH2 0xD1 JUMP JUMPDEST PUSH1 0x1 PUSH1 0x1 PUSH1 0xA0 SHL SUB DUP5 AND PUSH2 0x42 JUMPI PUSH1 0x0 DUP1 REVERT JUMPDEST DUP1 DUP3 GT ISZERO PUSH2 0x4F JUMPI PUSH1 0x0 DUP1 REVERT JUMPDEST PUSH1 0x0 DUP1 SLOAD PUSH1 0x1 PUSH1 0x1 PUSH1 0xA0 SHL SUB NOT AND PUSH1 0x1 PUSH1 0x1 PUSH1 0xA0 SHL SUB DUP7 AND OR SWAP1 SSTORE PUSH1 0x3 DUP2 SWAP1 SSTORE PUSH2 0x84 DUP4 DUP4 PUSH2 0x92 PUSH1 0x20 SWAP1 DUP2 SHL PUSH2 0x338 OR SWAP1 SHR JUMP JUMPDEST PUSH1 0x1 SSTORE POP POP PUSH1 0x2 SSTORE POP PUSH2 0x175 JUMP JUMPDEST PUSH1 0x0 DUP1 PUSH2 0x9F DUP4 DUP6 PUSH2 0x151 JUMP JUMPDEST SWAP1 POP DUP4 DUP2 LT ISZERO PUSH2 0xCA JUMPI PUSH1 0x40 MLOAD PUSH3 0x461BCD PUSH1 0xE5 SHL DUP2 MSTORE PUSH1 0x4 ADD PUSH2 0xC1 SWAP1 PUSH2 0x11A JUMP JUMPDEST PUSH1 0x40 MLOAD DUP1 SWAP2 SUB SWAP1 REVERT JUMPDEST SWAP4 SWAP3 POP POP POP JUMP JUMPDEST PUSH1 0x0 DUP1 PUSH1 0x0 DUP1 PUSH1 0x80 DUP6 DUP8 SUB SLT ISZERO PUSH2 0xE6 JUMPI DUP4 DUP5 REVERT JUMPDEST DUP5 MLOAD PUSH1 0x1 PUSH1 0x1 PUSH1 0xA0 SHL SUB DUP2 AND DUP2 EQ PUSH2 0xFC JUMPI DUP5 DUP6 REVERT JUMPDEST PUSH1 0x20 DUP7 ADD MLOAD PUSH1 0x40 DUP8 ADD MLOAD PUSH1 0x60 SWAP1 SWAP8 ADD MLOAD SWAP2 SWAP9 SWAP1 SWAP8 POP SWAP1 SWAP5 POP SWAP3 POP POP POP JUMP JUMPDEST PUSH1 0x20 DUP1 DUP3 MSTORE PUSH1 0x1B SWAP1 DUP3 ADD MSTORE PUSH32 0x536166654D6174683A206164646974696F6E206F766572666C6F770000000000 PUSH1 0x40 DUP3 ADD MSTORE PUSH1 0x60 ADD SWAP1 JUMP JUMPDEST PUSH1 0x0 DUP3 NOT DUP3 GT ISZERO PUSH2 0x170 JUMPI PUSH4 0x4E487B71 PUSH1 0xE0 SHL DUP2 MSTORE PUSH1 0x11 PUSH1 0x4 MSTORE PUSH1 0x24 DUP2 REVERT JUMPDEST POP ADD SWAP1 JUMP JUMPDEST PUSH2 0x807 DUP1 PUSH2 0x184 PUSH1 0x0 CODECOPY PUSH1 0x0 RETURN INVALID PUSH1 0x80 PUSH1 0x40 MSTORE CALLVALUE DUP1 ISZERO PUSH2 0x10 JUMPI PUSH1 0x0 DUP1 REVERT JUMPDEST POP PUSH1 0x4 CALLDATASIZE LT PUSH2 0x88 JUMPI PUSH1 0x0 CALLDATALOAD PUSH1 0xE0 SHR DUP1 PUSH4 0x384711CC GT PUSH2 0x5B JUMPI DUP1 PUSH4 0x384711CC EQ PUSH2 0xDB JUMPI DUP1 PUSH4 0x38AF3EED EQ PUSH2 0xEE JUMPI DUP1 PUSH4 0x9852595C EQ PUSH2 0x103 JUMPI DUP1 PUSH4 0xBE9A6555 EQ PUSH2 0x116 JUMPI PUSH2 0x88 JUMP JUMPDEST DUP1 PUSH4 0xFB5A6B4 EQ PUSH2 0x8D JUMPI DUP1 PUSH4 0x13D033C0 EQ PUSH2 0xAB JUMPI DUP1 PUSH4 0x1726CBC8 EQ PUSH2 0xB3 JUMPI DUP1 PUSH4 0x19165587 EQ PUSH2 0xC6 JUMPI JUMPDEST PUSH1 0x0 DUP1 REVERT JUMPDEST PUSH2 0x95 PUSH2 0x11E JUMP JUMPDEST PUSH1 0x40 MLOAD PUSH2 0xA2 SWAP2 SWAP1 PUSH2 0x714 JUMP JUMPDEST PUSH1 0x40 MLOAD DUP1 SWAP2 SUB SWAP1 RETURN JUMPDEST PUSH2 0x95 PUSH2 0x124 JUMP JUMPDEST PUSH2 0x95 PUSH2 0xC1 CALLDATASIZE PUSH1 0x4 PUSH2 0x597 JUMP JUMPDEST PUSH2 0x12A JUMP JUMPDEST PUSH2 0xD9 PUSH2 0xD4 CALLDATASIZE PUSH1 0x4 PUSH2 0x597 JUMP JUMPDEST PUSH2 0x15E JUMP JUMPDEST STOP JUMPDEST PUSH2 0x95 PUSH2 0xE9 CALLDATASIZE PUSH1 0x4 PUSH2 0x597 JUMP JUMPDEST PUSH2 0x201 JUMP JUMPDEST PUSH2 0xF6 PUSH2 0x311 JUMP JUMPDEST PUSH1 0x40 MLOAD PUSH2 0xA2 SWAP2 SWAP1 PUSH2 0x612 JUMP JUMPDEST PUSH2 0x95 PUSH2 0x111 CALLDATASIZE PUSH1 0x4 PUSH2 0x597 JUMP JUMPDEST PUSH2 0x320 JUMP JUMPDEST PUSH2 0x95 PUSH2 0x332 JUMP JUMPDEST PUSH1 0x3 SLOAD DUP2 JUMP JUMPDEST PUSH1 0x1 SLOAD DUP2 JUMP JUMPDEST PUSH1 0x1 PUSH1 0x1 PUSH1 0xA0 SHL SUB DUP2 AND PUSH1 0x0 SWAP1 DUP2 MSTORE PUSH1 0x4 PUSH1 0x20 MSTORE PUSH1 0x40 DUP2 KECCAK256 SLOAD PUSH2 0x156 SWAP1 PUSH2 0x150 DUP5 PUSH2 0x201 JUMP JUMPDEST SWAP1 PUSH2 0x379 JUMP JUMPDEST SWAP1 POP JUMPDEST SWAP2 SWAP1 POP JUMP JUMPDEST PUSH1 0x0 PUSH2 0x169 DUP3 PUSH2 0x12A JUMP JUMPDEST SWAP1 POP PUSH1 0x0 DUP2 GT PUSH2 0x178 JUMPI PUSH1 0x0 DUP1 REVERT JUMPDEST PUSH1 0x1 PUSH1 0x1 PUSH1 0xA0 SHL SUB DUP3 AND PUSH1 0x0 SWAP1 DUP2 MSTORE PUSH1 0x4 PUSH1 0x20 MSTORE PUSH1 0x40 SWAP1 KECCAK256 SLOAD PUSH2 0x19B SWAP1 DUP3 PUSH2 0x338 JUMP JUMPDEST PUSH1 0x1 PUSH1 0x1 PUSH1 0xA0 SHL SUB DUP1 DUP5 AND PUSH1 0x0 DUP2 DUP2 MSTORE PUSH1 0x4 PUSH1 0x20 MSTORE PUSH1 0x40 DUP2 KECCAK256 SWAP4 SWAP1 SWAP4 SSTORE SWAP2 SLOAD PUSH2 0x1C6 SWAP3 SWAP2 AND DUP4 PUSH2 0x3BB JUMP JUMPDEST PUSH32 0xFB81F9B30D73D830C3544B34D827C08142579EE75710B490BAB0B3995468C565 DUP2 PUSH1 0x40 MLOAD PUSH2 0x1F5 SWAP2 SWAP1 PUSH2 0x714 JUMP JUMPDEST PUSH1 0x40 MLOAD DUP1 SWAP2 SUB SWAP1 LOG1 POP POP JUMP JUMPDEST PUSH1 0x0 DUP1 DUP3 PUSH1 0x1 PUSH1 0x1 PUSH1 0xA0 SHL SUB AND PUSH4 0x70A08231 ADDRESS PUSH1 0x40 MLOAD DUP3 PUSH4 0xFFFFFFFF AND PUSH1 0xE0 SHL DUP2 MSTORE PUSH1 0x4 ADD PUSH2 0x230 SWAP2 SWAP1 PUSH2 0x612 JUMP JUMPDEST PUSH1 0x20 PUSH1 0x40 MLOAD DUP1 DUP4 SUB DUP2 DUP7 DUP1 EXTCODESIZE ISZERO DUP1 ISZERO PUSH2 0x248 JUMPI PUSH1 0x0 DUP1 REVERT JUMPDEST POP GAS STATICCALL ISZERO DUP1 ISZERO PUSH2 0x25C JUMPI RETURNDATASIZE PUSH1 0x0 DUP1 RETURNDATACOPY RETURNDATASIZE PUSH1 0x0 REVERT JUMPDEST POP POP POP POP PUSH1 0x40 MLOAD RETURNDATASIZE PUSH1 0x1F NOT PUSH1 0x1F DUP3 ADD AND DUP3 ADD DUP1 PUSH1 0x40 MSTORE POP DUP2 ADD SWAP1 PUSH2 0x280 SWAP2 SWAP1 PUSH2 0x5DE JUMP JUMPDEST PUSH1 0x1 PUSH1 0x1 PUSH1 0xA0 SHL SUB DUP5 AND PUSH1 0x0 SWAP1 DUP2 MSTORE PUSH1 0x4 PUSH1 0x20 MSTORE PUSH1 0x40 DUP2 KECCAK256 SLOAD SWAP2 SWAP3 POP SWAP1 PUSH2 0x2A8 SWAP1 DUP4 SWAP1 PUSH2 0x338 JUMP JUMPDEST SWAP1 POP PUSH1 0x1 SLOAD TIMESTAMP LT ISZERO PUSH2 0x2BF JUMPI PUSH1 0x0 SWAP3 POP POP POP PUSH2 0x159 JUMP JUMPDEST PUSH1 0x3 SLOAD PUSH1 0x2 SLOAD PUSH2 0x2CE SWAP2 PUSH2 0x338 JUMP JUMPDEST TIMESTAMP LT PUSH2 0x2DD JUMPI SWAP2 POP PUSH2 0x159 SWAP1 POP JUMP JUMPDEST PUSH2 0x308 PUSH1 0x3 SLOAD PUSH2 0x302 PUSH2 0x2FB PUSH1 0x2 SLOAD TIMESTAMP PUSH2 0x379 SWAP1 SWAP2 SWAP1 PUSH4 0xFFFFFFFF AND JUMP JUMPDEST DUP5 SWAP1 PUSH2 0x4A8 JUMP JUMPDEST SWAP1 PUSH2 0x4ED JUMP JUMPDEST SWAP3 POP POP POP PUSH2 0x159 JUMP JUMPDEST PUSH1 0x0 SLOAD PUSH1 0x1 PUSH1 0x1 PUSH1 0xA0 SHL SUB AND DUP2 JUMP JUMPDEST PUSH1 0x4 PUSH1 0x20 MSTORE PUSH1 0x0 SWAP1 DUP2 MSTORE PUSH1 0x40 SWAP1 KECCAK256 SLOAD DUP2 JUMP JUMPDEST PUSH1 0x2 SLOAD DUP2 JUMP JUMPDEST PUSH1 0x0 DUP1 PUSH2 0x345 DUP4 DUP6 PUSH2 0x71D JUMP JUMPDEST SWAP1 POP DUP4 DUP2 LT ISZERO PUSH2 0x370 JUMPI PUSH1 0x40 MLOAD PUSH3 0x461BCD PUSH1 0xE5 SHL DUP2 MSTORE PUSH1 0x4 ADD PUSH2 0x367 SWAP1 PUSH2 0x672 JUMP JUMPDEST PUSH1 0x40 MLOAD DUP1 SWAP2 SUB SWAP1 REVERT JUMPDEST SWAP1 POP JUMPDEST SWAP3 SWAP2 POP POP JUMP JUMPDEST PUSH1 0x0 PUSH2 0x370 DUP4 DUP4 PUSH1 0x40 MLOAD DUP1 PUSH1 0x40 ADD PUSH1 0x40 MSTORE DUP1 PUSH1 0x1E DUP2 MSTORE PUSH1 0x20 ADD PUSH32 0x536166654D6174683A207375627472616374696F6E206F766572666C6F770000 DUP2 MSTORE POP PUSH2 0x52F JUMP JUMPDEST PUSH1 0x0 DUP1 DUP5 PUSH1 0x1 PUSH1 0x1 PUSH1 0xA0 SHL SUB AND PUSH4 0xA9059CBB DUP6 DUP6 PUSH1 0x40 MLOAD PUSH1 0x24 ADD PUSH2 0x3E0 SWAP3 SWAP2 SWAP1 PUSH2 0x626 JUMP JUMPDEST PUSH1 0x40 MLOAD PUSH1 0x20 DUP2 DUP4 SUB SUB DUP2 MSTORE SWAP1 PUSH1 0x40 MSTORE SWAP1 PUSH1 0xE0 SHL PUSH1 0x20 DUP3 ADD DUP1 MLOAD PUSH1 0x1 PUSH1 0x1 PUSH1 0xE0 SHL SUB DUP4 DUP2 DUP4 AND OR DUP4 MSTORE POP POP POP POP PUSH1 0x40 MLOAD PUSH2 0x419 SWAP2 SWAP1 PUSH2 0x5F6 JUMP JUMPDEST PUSH1 0x0 PUSH1 0x40 MLOAD DUP1 DUP4 SUB DUP2 PUSH1 0x0 DUP7 GAS CALL SWAP2 POP POP RETURNDATASIZE DUP1 PUSH1 0x0 DUP2 EQ PUSH2 0x456 JUMPI PUSH1 0x40 MLOAD SWAP2 POP PUSH1 0x1F NOT PUSH1 0x3F RETURNDATASIZE ADD AND DUP3 ADD PUSH1 0x40 MSTORE RETURNDATASIZE DUP3 MSTORE RETURNDATASIZE PUSH1 0x0 PUSH1 0x20 DUP5 ADD RETURNDATACOPY PUSH2 0x45B JUMP JUMPDEST PUSH1 0x60 SWAP2 POP JUMPDEST POP SWAP2 POP SWAP2 POP DUP2 DUP1 ISZERO PUSH2 0x485 JUMPI POP DUP1 MLOAD ISZERO DUP1 PUSH2 0x485 JUMPI POP DUP1 DUP1 PUSH1 0x20 ADD SWAP1 MLOAD DUP2 ADD SWAP1 PUSH2 0x485 SWAP2 SWAP1 PUSH2 0x5BE JUMP JUMPDEST PUSH2 0x4A1 JUMPI PUSH1 0x40 MLOAD PUSH3 0x461BCD PUSH1 0xE5 SHL DUP2 MSTORE PUSH1 0x4 ADD PUSH2 0x367 SWAP1 PUSH2 0x6EA JUMP JUMPDEST POP POP POP POP POP JUMP JUMPDEST PUSH1 0x0 DUP3 PUSH2 0x4B7 JUMPI POP PUSH1 0x0 PUSH2 0x373 JUMP JUMPDEST PUSH1 0x0 PUSH2 0x4C3 DUP4 DUP6 PUSH2 0x755 JUMP JUMPDEST SWAP1 POP DUP3 PUSH2 0x4D0 DUP6 DUP4 PUSH2 0x735 JUMP JUMPDEST EQ PUSH2 0x370 JUMPI PUSH1 0x40 MLOAD PUSH3 0x461BCD PUSH1 0xE5 SHL DUP2 MSTORE PUSH1 0x4 ADD PUSH2 0x367 SWAP1 PUSH2 0x6A9 JUMP JUMPDEST PUSH1 0x0 PUSH2 0x370 DUP4 DUP4 PUSH1 0x40 MLOAD DUP1 PUSH1 0x40 ADD PUSH1 0x40 MSTORE DUP1 PUSH1 0x1A DUP2 MSTORE PUSH1 0x20 ADD PUSH32 0x536166654D6174683A206469766973696F6E206279207A65726F000000000000 DUP2 MSTORE POP PUSH2 0x569 JUMP JUMPDEST PUSH1 0x0 DUP2 DUP5 DUP5 GT ISZERO PUSH2 0x553 JUMPI PUSH1 0x40 MLOAD PUSH3 0x461BCD PUSH1 0xE5 SHL DUP2 MSTORE PUSH1 0x4 ADD PUSH2 0x367 SWAP2 SWAP1 PUSH2 0x63F JUMP JUMPDEST POP PUSH1 0x0 PUSH2 0x560 DUP5 DUP7 PUSH2 0x774 JUMP JUMPDEST SWAP6 SWAP5 POP POP POP POP POP JUMP JUMPDEST PUSH1 0x0 DUP2 DUP4 PUSH2 0x58A JUMPI PUSH1 0x40 MLOAD PUSH3 0x461BCD PUSH1 0xE5 SHL DUP2 MSTORE PUSH1 0x4 ADD PUSH2 0x367 SWAP2 SWAP1 PUSH2 0x63F JUMP JUMPDEST POP PUSH1 0x0 PUSH2 0x560 DUP5 DUP7 PUSH2 0x735 JUMP JUMPDEST PUSH1 0x0 PUSH1 0x20 DUP3 DUP5 SUB SLT ISZERO PUSH2 0x5A8 JUMPI DUP1 DUP2 REVERT JUMPDEST DUP2 CALLDATALOAD PUSH1 0x1 PUSH1 0x1 PUSH1 0xA0 SHL SUB DUP2 AND DUP2 EQ PUSH2 0x370 JUMPI DUP2 DUP3 REVERT JUMPDEST PUSH1 0x0 PUSH1 0x20 DUP3 DUP5 SUB SLT ISZERO PUSH2 0x5CF JUMPI DUP1 DUP2 REVERT JUMPDEST DUP2 MLOAD DUP1 ISZERO ISZERO DUP2 EQ PUSH2 0x370 JUMPI DUP2 DUP3 REVERT JUMPDEST PUSH1 0x0 PUSH1 0x20 DUP3 DUP5 SUB SLT ISZERO PUSH2 0x5EF JUMPI DUP1 DUP2 REVERT JUMPDEST POP MLOAD SWAP2 SWAP1 POP JUMP JUMPDEST PUSH1 0x0 DUP3 MLOAD PUSH2 0x608 DUP2 DUP5 PUSH1 0x20 DUP8 ADD PUSH2 0x78B JUMP JUMPDEST SWAP2 SWAP1 SWAP2 ADD SWAP3 SWAP2 POP POP JUMP JUMPDEST PUSH1 0x1 PUSH1 0x1 PUSH1 0xA0 SHL SUB SWAP2 SWAP1 SWAP2 AND DUP2 MSTORE PUSH1 0x20 ADD SWAP1 JUMP JUMPDEST PUSH1 0x1 PUSH1 0x1 PUSH1 0xA0 SHL SUB SWAP3 SWAP1 SWAP3 AND DUP3 MSTORE PUSH1 0x20 DUP3 ADD MSTORE PUSH1 0x40 ADD SWAP1 JUMP JUMPDEST PUSH1 0x0 PUSH1 0x20 DUP3 MSTORE DUP3 MLOAD DUP1 PUSH1 0x20 DUP5 ADD MSTORE PUSH2 0x65E DUP2 PUSH1 0x40 DUP6 ADD PUSH1 0x20 DUP8 ADD PUSH2 0x78B JUMP JUMPDEST PUSH1 0x1F ADD PUSH1 0x1F NOT AND SWAP2 SWAP1 SWAP2 ADD PUSH1 0x40 ADD SWAP3 SWAP2 POP POP JUMP JUMPDEST PUSH1 0x20 DUP1 DUP3 MSTORE PUSH1 0x1B SWAP1 DUP3 ADD MSTORE PUSH32 0x536166654D6174683A206164646974696F6E206F766572666C6F770000000000 PUSH1 0x40 DUP3 ADD MSTORE PUSH1 0x60 ADD SWAP1 JUMP JUMPDEST PUSH1 0x20 DUP1 DUP3 MSTORE PUSH1 0x21 SWAP1 DUP3 ADD MSTORE PUSH32 0x536166654D6174683A206D756C7469706C69636174696F6E206F766572666C6F PUSH1 0x40 DUP3 ADD MSTORE PUSH1 0x77 PUSH1 0xF8 SHL PUSH1 0x60 DUP3 ADD MSTORE PUSH1 0x80 ADD SWAP1 JUMP JUMPDEST PUSH1 0x20 DUP1 DUP3 MSTORE PUSH1 0x10 SWAP1 DUP3 ADD MSTORE PUSH16 0x85514905394D1915497D19052531151 PUSH1 0x82 SHL PUSH1 0x40 DUP3 ADD MSTORE PUSH1 0x60 ADD SWAP1 JUMP JUMPDEST SWAP1 DUP2 MSTORE PUSH1 0x20 ADD SWAP1 JUMP JUMPDEST PUSH1 0x0 DUP3 NOT DUP3 GT ISZERO PUSH2 0x730 JUMPI PUSH2 0x730 PUSH2 0x7BB JUMP JUMPDEST POP ADD SWAP1 JUMP JUMPDEST PUSH1 0x0 DUP3 PUSH2 0x750 JUMPI PUSH4 0x4E487B71 PUSH1 0xE0 SHL DUP2 MSTORE PUSH1 0x12 PUSH1 0x4 MSTORE PUSH1 0x24 DUP2 REVERT JUMPDEST POP DIV SWAP1 JUMP JUMPDEST PUSH1 0x0 DUP2 PUSH1 0x0 NOT DIV DUP4 GT DUP3 ISZERO ISZERO AND ISZERO PUSH2 0x76F JUMPI PUSH2 0x76F PUSH2 0x7BB JUMP JUMPDEST POP MUL SWAP1 JUMP JUMPDEST PUSH1 0x0 DUP3 DUP3 LT ISZERO PUSH2 0x786 JUMPI PUSH2 0x786 PUSH2 0x7BB JUMP JUMPDEST POP SUB SWAP1 JUMP JUMPDEST PUSH1 0x0 JUMPDEST DUP4 DUP2 LT ISZERO PUSH2 0x7A6 JUMPI DUP2 DUP2 ADD MLOAD DUP4 DUP3 ADD MSTORE PUSH1 0x20 ADD PUSH2 0x78E JUMP JUMPDEST DUP4 DUP2 GT ISZERO PUSH2 0x7B5 JUMPI PUSH1 0x0 DUP5 DUP5 ADD MSTORE JUMPDEST POP POP POP POP JUMP JUMPDEST PUSH4 0x4E487B71 PUSH1 0xE0 SHL PUSH1 0x0 MSTORE PUSH1 0x11 PUSH1 0x4 MSTORE PUSH1 0x24 PUSH1 0x0 REVERT INVALID LOG2 PUSH5 0x6970667358 0x22 SLT KECCAK256 RETURNDATASIZE PUSH19 0xA5BCF0BAFED2C64A8770028CA0CE8F23E49C1F PUSH11 0x9D79E1F9B0EC3436D8E764 PUSH20 0x6F6C6343000800003345524332303A206275726E KECCAK256 PUSH2 0x6D6F PUSH22 0x6E7420657863656564732062616C616E636545524332 ADDRESS GASPRICE KECCAK256 PUSH21 0x72616E7366657220616D6F756E7420657863656564 PUSH20 0x2062616C616E636545524332303A207472616E73 PUSH7 0x657220616D6F75 PUSH15 0x74206578636565647320616C6C6F77 PUSH2 0x6E63 PUSH6 0x45524332303A KECCAK256 PUSH5 0x6563726561 PUSH20 0x656420616C6C6F77616E63652062656C6F77207A PUSH6 0x726FA2646970 PUSH7 0x7358221220613F 0xD6 COINBASE CHAINID SWAP15 MOD CREATE2 SUB 0x23 PC 0xB3 SWAP6 DUP13 0xBA 0x28 0xC9 MSTORE 0xBA 0xE3 0xE7 0x5D LOG2 SELFBALANCE 0xCB 0xBD XOR 0xCC 0x24 GASPRICE 0x23 0xD1 PUSH5 0x736F6C6343 STOP ADDMOD STOP STOP CALLER "
				},
				"gasEstimates": {
					"creation": {
						"codeDepositCost": "1869200",
						"executionCost": "1976",
						"totalCost": "1871176"
					},
					"external": {
						"_minters(uint256)": "2150",
						"_setBot(address,bool)": "22196",
						"adLockToken()": "1137",
						"addMinter(address)": "42908",
						"allowance(address,address)": "infinite",
						"approve(address,uint256)": "22629",
						"balanceOf(address)": "infinite",
						"burn(address,uint256)": "infinite",
						"decimals()": "1069",
						"decreaseAllowance(address,uint256)": "infinite",
						"increaseAllowance(address,uint256)": "infinite",
						"initialize(string,string,address,address)": "infinite",
						"name()": "infinite",
						"owner()": "1115",
						"renounceOwnership()": "24312",
						"symbol()": "infinite",
						"teamLockToken()": "1181",
						"totalSupply()": "1096",
						"transfer(address,uint256)": "infinite",
						"transferFrom(address,address,uint256)": "infinite",
						"transferOwnership(address)": "24571"
					}
				},
				"methodIdentifiers": {
					"_minters(uint256)": "2a29ad14",
					"_setBot(address,bool)": "72d1c9fe",
					"adLockToken()": "64210fa9",
					"addMinter(address)": "983b2d56",
					"allowance(address,address)": "dd62ed3e",
					"approve(address,uint256)": "095ea7b3",
					"balanceOf(address)": "70a08231",
					"burn(address,uint256)": "9dc29fac",
					"decimals()": "313ce567",
					"decreaseAllowance(address,uint256)": "a457c2d7",
					"increaseAllowance(address,uint256)": "39509351",
					"initialize(string,string,address,address)": "8f15b414",
					"name()": "06fdde03",
					"owner()": "8da5cb5b",
					"renounceOwnership()": "715018a6",
					"symbol()": "95d89b41",
					"teamLockToken()": "964bca5f",
					"totalSupply()": "18160ddd",
					"transfer(address,uint256)": "a9059cbb",
					"transferFrom(address,address,uint256)": "23b872dd",
					"transferOwnership(address)": "f2fde38b"
				}
			},
			"userdoc": {
				"kind": "user",
				"methods": {},
				"version": 1
			}
		}
	}
}